{
  "contractName": "Blacksmith",
  "abi": [
    {
      "anonymous": false,
      "inputs": [
        {
          "indexed": true,
          "internalType": "bytes32",
          "name": "role",
          "type": "bytes32"
        },
        {
          "indexed": true,
          "internalType": "bytes32",
          "name": "previousAdminRole",
          "type": "bytes32"
        },
        {
          "indexed": true,
          "internalType": "bytes32",
          "name": "newAdminRole",
          "type": "bytes32"
        }
      ],
      "name": "RoleAdminChanged",
      "type": "event"
    },
    {
      "anonymous": false,
      "inputs": [
        {
          "indexed": true,
          "internalType": "bytes32",
          "name": "role",
          "type": "bytes32"
        },
        {
          "indexed": true,
          "internalType": "address",
          "name": "account",
          "type": "address"
        },
        {
          "indexed": true,
          "internalType": "address",
          "name": "sender",
          "type": "address"
        }
      ],
      "name": "RoleGranted",
      "type": "event"
    },
    {
      "anonymous": false,
      "inputs": [
        {
          "indexed": true,
          "internalType": "bytes32",
          "name": "role",
          "type": "bytes32"
        },
        {
          "indexed": true,
          "internalType": "address",
          "name": "account",
          "type": "address"
        },
        {
          "indexed": true,
          "internalType": "address",
          "name": "sender",
          "type": "address"
        }
      ],
      "name": "RoleRevoked",
      "type": "event"
    },
    {
      "inputs": [],
      "name": "DEFAULT_ADMIN_ROLE",
      "outputs": [
        {
          "internalType": "bytes32",
          "name": "",
          "type": "bytes32"
        }
      ],
      "stateMutability": "view",
      "type": "function"
    },
    {
      "inputs": [],
      "name": "GAME",
      "outputs": [
        {
          "internalType": "bytes32",
          "name": "",
          "type": "bytes32"
        }
      ],
      "stateMutability": "view",
      "type": "function"
    },
    {
      "inputs": [],
      "name": "ITEM_CHARACTER_RENAME",
      "outputs": [
        {
          "internalType": "uint256",
          "name": "",
          "type": "uint256"
        }
      ],
      "stateMutability": "view",
      "type": "function"
    },
    {
      "inputs": [],
      "name": "ITEM_CHARACTER_TRAITCHANGE_EARTH",
      "outputs": [
        {
          "internalType": "uint256",
          "name": "",
          "type": "uint256"
        }
      ],
      "stateMutability": "view",
      "type": "function"
    },
    {
      "inputs": [],
      "name": "ITEM_CHARACTER_TRAITCHANGE_FIRE",
      "outputs": [
        {
          "internalType": "uint256",
          "name": "",
          "type": "uint256"
        }
      ],
      "stateMutability": "view",
      "type": "function"
    },
    {
      "inputs": [],
      "name": "ITEM_CHARACTER_TRAITCHANGE_LIGHTNING",
      "outputs": [
        {
          "internalType": "uint256",
          "name": "",
          "type": "uint256"
        }
      ],
      "stateMutability": "view",
      "type": "function"
    },
    {
      "inputs": [],
      "name": "ITEM_CHARACTER_TRAITCHANGE_WATER",
      "outputs": [
        {
          "internalType": "uint256",
          "name": "",
          "type": "uint256"
        }
      ],
      "stateMutability": "view",
      "type": "function"
    },
    {
      "inputs": [],
      "name": "ITEM_WEAPON_RENAME",
      "outputs": [
        {
          "internalType": "uint256",
          "name": "",
          "type": "uint256"
        }
      ],
      "stateMutability": "view",
      "type": "function"
    },
    {
      "inputs": [],
      "name": "NUMBERPARAMETER_GIVEN_TICKETS",
      "outputs": [
        {
          "internalType": "uint256",
          "name": "",
          "type": "uint256"
        }
      ],
      "stateMutability": "view",
      "type": "function"
    },
    {
      "inputs": [],
      "name": "NUMBERPARAMETER_SPENT_TICKETS",
      "outputs": [
        {
          "internalType": "uint256",
          "name": "",
          "type": "uint256"
        }
      ],
      "stateMutability": "view",
      "type": "function"
    },
    {
      "inputs": [],
      "name": "SHIELD_SKILL_FEE",
      "outputs": [
        {
          "internalType": "uint256",
          "name": "",
          "type": "uint256"
        }
      ],
      "stateMutability": "view",
      "type": "function"
    },
    {
      "inputs": [],
      "name": "game",
      "outputs": [
        {
          "internalType": "contract CryptoBlades",
          "name": "",
          "type": "address"
        }
      ],
      "stateMutability": "view",
      "type": "function"
    },
    {
      "inputs": [
        {
          "internalType": "bytes32",
          "name": "role",
          "type": "bytes32"
        }
      ],
      "name": "getRoleAdmin",
      "outputs": [
        {
          "internalType": "bytes32",
          "name": "",
          "type": "bytes32"
        }
      ],
      "stateMutability": "view",
      "type": "function"
    },
    {
      "inputs": [
        {
          "internalType": "bytes32",
          "name": "role",
          "type": "bytes32"
        },
        {
          "internalType": "uint256",
          "name": "index",
          "type": "uint256"
        }
      ],
      "name": "getRoleMember",
      "outputs": [
        {
          "internalType": "address",
          "name": "",
          "type": "address"
        }
      ],
      "stateMutability": "view",
      "type": "function"
    },
    {
      "inputs": [
        {
          "internalType": "bytes32",
          "name": "role",
          "type": "bytes32"
        }
      ],
      "name": "getRoleMemberCount",
      "outputs": [
        {
          "internalType": "uint256",
          "name": "",
          "type": "uint256"
        }
      ],
      "stateMutability": "view",
      "type": "function"
    },
    {
      "inputs": [
        {
          "internalType": "bytes32",
          "name": "role",
          "type": "bytes32"
        },
        {
          "internalType": "address",
          "name": "account",
          "type": "address"
        }
      ],
      "name": "grantRole",
      "outputs": [],
      "stateMutability": "nonpayable",
      "type": "function"
    },
    {
      "inputs": [
        {
          "internalType": "bytes32",
          "name": "role",
          "type": "bytes32"
        },
        {
          "internalType": "address",
          "name": "account",
          "type": "address"
        }
      ],
      "name": "hasRole",
      "outputs": [
        {
          "internalType": "bool",
          "name": "",
          "type": "bool"
        }
      ],
      "stateMutability": "view",
      "type": "function"
    },
    {
      "inputs": [
        {
          "internalType": "uint256",
          "name": "",
          "type": "uint256"
        }
      ],
      "name": "itemAddresses",
      "outputs": [
        {
          "internalType": "address",
          "name": "",
          "type": "address"
        }
      ],
      "stateMutability": "view",
      "type": "function"
    },
    {
      "inputs": [
        {
          "internalType": "uint256",
          "name": "",
          "type": "uint256"
        }
      ],
      "name": "itemFlatPrices",
      "outputs": [
        {
          "internalType": "uint256",
          "name": "",
          "type": "uint256"
        }
      ],
      "stateMutability": "view",
      "type": "function"
    },
    {
      "inputs": [
        {
          "internalType": "uint256",
          "name": "",
          "type": "uint256"
        }
      ],
      "name": "numberParameters",
      "outputs": [
        {
          "internalType": "uint256",
          "name": "",
          "type": "uint256"
        }
      ],
      "stateMutability": "view",
      "type": "function"
    },
    {
      "inputs": [],
      "name": "randoms",
      "outputs": [
        {
          "internalType": "contract IRandoms",
          "name": "",
          "type": "address"
        }
      ],
      "stateMutability": "view",
      "type": "function"
    },
    {
      "inputs": [
        {
          "internalType": "bytes32",
          "name": "role",
          "type": "bytes32"
        },
        {
          "internalType": "address",
          "name": "account",
          "type": "address"
        }
      ],
      "name": "renounceRole",
      "outputs": [],
      "stateMutability": "nonpayable",
      "type": "function"
    },
    {
      "inputs": [
        {
          "internalType": "bytes32",
          "name": "role",
          "type": "bytes32"
        },
        {
          "internalType": "address",
          "name": "account",
          "type": "address"
        }
      ],
      "name": "revokeRole",
      "outputs": [],
      "stateMutability": "nonpayable",
      "type": "function"
    },
    {
      "inputs": [],
      "name": "shields",
      "outputs": [
        {
          "internalType": "contract Shields",
          "name": "",
          "type": "address"
        }
      ],
      "stateMutability": "view",
      "type": "function"
    },
    {
      "inputs": [
        {
          "internalType": "address",
          "name": "",
          "type": "address"
        }
      ],
      "name": "tickets",
      "outputs": [
        {
          "internalType": "uint32",
          "name": "",
          "type": "uint32"
        }
      ],
      "stateMutability": "view",
      "type": "function"
    },
    {
      "inputs": [],
      "name": "weapons",
      "outputs": [
        {
          "internalType": "contract Weapons",
          "name": "",
          "type": "address"
        }
      ],
      "stateMutability": "view",
      "type": "function"
    },
    {
      "inputs": [
        {
          "internalType": "contract Weapons",
          "name": "_weapons",
          "type": "address"
        },
        {
          "internalType": "contract IRandoms",
          "name": "_randoms",
          "type": "address"
        }
      ],
      "name": "initialize",
      "outputs": [],
      "stateMutability": "nonpayable",
      "type": "function"
    },
    {
      "inputs": [
        {
          "internalType": "contract IRandoms",
          "name": "_newRandoms",
          "type": "address"
        }
      ],
      "name": "migrateRandoms",
      "outputs": [],
      "stateMutability": "nonpayable",
      "type": "function"
    },
    {
      "inputs": [
        {
          "internalType": "contract Shields",
          "name": "_shields",
          "type": "address"
        },
        {
          "internalType": "contract CryptoBlades",
          "name": "_game",
          "type": "address"
        }
      ],
      "name": "migrateTo_61c10da",
      "outputs": [],
      "stateMutability": "nonpayable",
      "type": "function"
    },
    {
      "inputs": [
        {
          "internalType": "address",
          "name": "_characterRename",
          "type": "address"
        },
        {
          "internalType": "address",
          "name": "_weaponRename",
          "type": "address"
        },
        {
          "internalType": "address",
          "name": "_charFireTraitChange",
          "type": "address"
        },
        {
          "internalType": "address",
          "name": "_charEarthTraitChange",
          "type": "address"
        },
        {
          "internalType": "address",
          "name": "_charWaterTraitChange",
          "type": "address"
        },
        {
          "internalType": "address",
          "name": "_charLightningTraitChange",
          "type": "address"
        }
      ],
      "name": "migrateTo_16884dd",
      "outputs": [],
      "stateMutability": "nonpayable",
      "type": "function"
    },
    {
      "inputs": [
        {
          "internalType": "address",
          "name": "tokenAddress",
          "type": "address"
        },
        {
          "internalType": "uint256",
          "name": "amount",
          "type": "uint256"
        }
      ],
      "name": "recoverToken",
      "outputs": [],
      "stateMutability": "nonpayable",
      "type": "function"
    },
    {
      "inputs": [
        {
          "internalType": "address",
          "name": "_player",
          "type": "address"
        },
        {
          "internalType": "uint32",
          "name": "_num",
          "type": "uint32"
        }
      ],
      "name": "giveTicket",
      "outputs": [],
      "stateMutability": "nonpayable",
      "type": "function"
    },
    {
      "inputs": [],
      "name": "purchaseShield",
      "outputs": [],
      "stateMutability": "nonpayable",
      "type": "function"
    },
    {
      "inputs": [
        {
          "internalType": "uint256",
          "name": "itemIndex",
          "type": "uint256"
        }
      ],
      "name": "getAddressOfItem",
      "outputs": [
        {
          "internalType": "address",
          "name": "",
          "type": "address"
        }
      ],
      "stateMutability": "view",
      "type": "function"
    },
    {
      "inputs": [
        {
          "internalType": "uint256",
          "name": "itemIndex",
          "type": "uint256"
        }
      ],
      "name": "getFlatPriceOfItem",
      "outputs": [
        {
          "internalType": "uint256",
          "name": "",
          "type": "uint256"
        }
      ],
      "stateMutability": "view",
      "type": "function"
    },
    {
      "inputs": [
        {
          "internalType": "uint256",
          "name": "newPrice",
          "type": "uint256"
        }
      ],
      "name": "setCharacterRenamePrice",
      "outputs": [],
      "stateMutability": "nonpayable",
      "type": "function"
    },
    {
      "inputs": [],
      "name": "characterRenamePrice",
      "outputs": [
        {
          "internalType": "uint256",
          "name": "",
          "type": "uint256"
        }
      ],
      "stateMutability": "view",
      "type": "function"
    },
    {
      "inputs": [
        {
          "internalType": "uint256",
          "name": "paying",
          "type": "uint256"
        }
      ],
      "name": "purchaseCharacterRenameTag",
      "outputs": [],
      "stateMutability": "nonpayable",
      "type": "function"
    },
    {
      "inputs": [
        {
          "internalType": "uint256",
          "name": "paying",
          "type": "uint256"
        }
      ],
      "name": "purchaseCharacterRenameTagDeal",
      "outputs": [],
      "stateMutability": "nonpayable",
      "type": "function"
    },
    {
      "inputs": [
        {
          "internalType": "uint256",
          "name": "newPrice",
          "type": "uint256"
        }
      ],
      "name": "setWeaponRenamePrice",
      "outputs": [],
      "stateMutability": "nonpayable",
      "type": "function"
    },
    {
      "inputs": [],
      "name": "weaponRenamePrice",
      "outputs": [
        {
          "internalType": "uint256",
          "name": "",
          "type": "uint256"
        }
      ],
      "stateMutability": "view",
      "type": "function"
    },
    {
      "inputs": [
        {
          "internalType": "uint256",
          "name": "paying",
          "type": "uint256"
        }
      ],
      "name": "purchaseWeaponRenameTag",
      "outputs": [],
      "stateMutability": "nonpayable",
      "type": "function"
    },
    {
      "inputs": [
        {
          "internalType": "uint256",
          "name": "paying",
          "type": "uint256"
        }
      ],
      "name": "purchaseWeaponRenameTagDeal",
      "outputs": [],
      "stateMutability": "nonpayable",
      "type": "function"
    },
    {
      "inputs": [
        {
          "internalType": "uint256",
          "name": "newPrice",
          "type": "uint256"
        }
      ],
      "name": "setCharacterTraitChangePrice",
      "outputs": [],
      "stateMutability": "nonpayable",
      "type": "function"
    },
    {
      "inputs": [],
      "name": "characterTraitChangePrice",
      "outputs": [
        {
          "internalType": "uint256",
          "name": "",
          "type": "uint256"
        }
      ],
      "stateMutability": "view",
      "type": "function"
    },
    {
      "inputs": [
        {
          "internalType": "uint256",
          "name": "paying",
          "type": "uint256"
        }
      ],
      "name": "purchaseCharacterFireTraitChange",
      "outputs": [],
      "stateMutability": "nonpayable",
      "type": "function"
    },
    {
      "inputs": [
        {
          "internalType": "uint256",
          "name": "paying",
          "type": "uint256"
        }
      ],
      "name": "purchaseCharacterEarthTraitChange",
      "outputs": [],
      "stateMutability": "nonpayable",
      "type": "function"
    },
    {
      "inputs": [
        {
          "internalType": "uint256",
          "name": "paying",
          "type": "uint256"
        }
      ],
      "name": "purchaseCharacterWaterTraitChange",
      "outputs": [],
      "stateMutability": "nonpayable",
      "type": "function"
    },
    {
      "inputs": [
        {
          "internalType": "uint256",
          "name": "paying",
          "type": "uint256"
        }
      ],
      "name": "purchaseCharacterLightningTraitChange",
      "outputs": [],
      "stateMutability": "nonpayable",
      "type": "function"
    }
  ],
  "bytecode": "0x608060405234801561001057600080fd5b50612990806100206000396000f3fe608060405234801561001057600080fd5b50600436106102bb5760003560e01c80639e00de8211610182578063c833a9ae116100e9578063e4a0f566116100a2578063ee7e07971161007c578063ee7e07971461078b578063efe48df6146107b9578063f0f1b02e146107c1578063fb218ef0146107de576102bb565b8063e4a0f56614610740578063ea3584ba14610766578063eb99e8691461076e576102bb565b8063c833a9ae146106ad578063ca15c873146106b5578063cfa58a5b146106d2578063d1dac34d146106ef578063d547741f146106f7578063e1dfd96d14610723576102bb565b8063b5e60fe01161013b578063b5e60fe01461060d578063b7e1cd861461062a578063be12911414610632578063bee666d814610680578063c01cb3cb14610688578063c3fe3e28146106a5576102bb565b80639e00de82146105a4578063a0c617f8146105ac578063a217fddf146105b4578063a938636e146105bc578063ad13ace3146105c4578063b29a8140146105e1576102bb565b806355b19701116102265780637689ab0d116101df5780637689ab0d146104c6578063787b8e17146104e35780637c4baa06146104eb5780638a911d70146105085780639010d07c1461052557806391d1485414610564576102bb565b806355b197011461043557806358181425146104525780635fdb757a1461046f57806367300409146104775780636dcbf2a31461047f5780636f59c9bf146104be576102bb565b806333050bf81161027857806333050bf81461039157806336568abe146103995780633a864c25146103c55780633c6ce2e3146103cd5780634203b1f3146103ea578063485cc95514610407576102bb565b80630601ceb2146102c057806319a076b5146102df578063248a9ca31461031157806327730d12146103405780632b827396146103485780632f2ff15d14610365575b600080fd5b6102dd600480360360208110156102d657600080fd5b50356107e6565b005b6102dd600480360360408110156102f557600080fd5b5080356001600160a01b0316906020013563ffffffff16610963565b61032e6004803603602081101561032757600080fd5b5035610a32565b60408051918252519081900360200190f35b61032e610a47565b6102dd6004803603602081101561035e57600080fd5b5035610a63565b6102dd6004803603604081101561037b57600080fd5b50803590602001356001600160a01b0316610bbe565b61032e610c2a565b6102dd600480360360408110156103af57600080fd5b50803590602001356001600160a01b0316610c2f565b61032e610c90565b6102dd600480360360208110156103e357600080fd5b5035610cb5565b6102dd6004803603602081101561040057600080fd5b5035610d94565b6102dd6004803603604081101561041d57600080fd5b506001600160a01b0381358116916020013516610e3d565b6102dd6004803603602081101561044b57600080fd5b5035610f24565b61032e6004803603602081101561046857600080fd5b503561107f565b61032e611091565b61032e6110ae565b6104a56004803603602081101561049557600080fd5b50356001600160a01b03166110ba565b6040805163ffffffff9092168252519081900360200190f35b6102dd6110d2565b6102dd600480360360208110156104dc57600080fd5b50356113ae565b61032e611457565b61032e6004803603602081101561050157600080fd5b5035611474565b6102dd6004803603602081101561051e57600080fd5b5035611486565b6105486004803603604081101561053b57600080fd5b50803590602001356115e1565b604080516001600160a01b039092168252519081900360200190f35b6105906004803603604081101561057a57600080fd5b50803590602001356001600160a01b0316611608565b604080519115158252519081900360200190f35b610548611626565b61032e611635565b61032e611652565b61032e611657565b61032e600480360360208110156105da57600080fd5b503561165c565b6102dd600480360360408110156105f757600080fd5b506001600160a01b03813516906020013561166e565b6102dd6004803603602081101561062357600080fd5b50356116d0565b61054861182b565b6102dd600480360360c081101561064857600080fd5b506001600160a01b038135811691602081013582169160408201358116916060810135821691608082013581169160a001351661183a565b610548611a2c565b6102dd6004803603602081101561069e57600080fd5b5035611a3b565b610548611b96565b61032e611ba5565b61032e600480360360208110156106cb57600080fd5b5035611baa565b6102dd600480360360208110156106e857600080fd5b5035611bc1565b61032e611d1a565b6102dd6004803603604081101561070d57600080fd5b50803590602001356001600160a01b0316611d1f565b6105486004803603602081101561073957600080fd5b5035611d78565b6102dd6004803603602081101561075657600080fd5b50356001600160a01b0316611d93565b61032e611dfd565b6102dd6004803603602081101561078457600080fd5b5035611e02565b6102dd600480360360408110156107a157600080fd5b506001600160a01b0381358116916020013516611f64565b61032e611fda565b610548600480360360208110156107d757600080fd5b5035611fff565b61032e61201a565b6001600052606b6020526000805160206127de833981519152546003028114610846576040805162461bcd60e51b815260206004820152600d60248201526c496e76616c696420707269636560981b604482015290519081900360640190fd5b60695460016000908152606b6020526000805160206127de833981519152546040805163466cec3360e01b815233600482015260039092026024830152516001600160a01b039093169263466cec339260448084019391929182900301818387803b1580156108b457600080fd5b505af11580156108c8573d6000803e3d6000fd5b505060016000908152606a6020527ff585789965ba69220d5ce3dc1b444eb22ff546f2650694fef8fafe9c26560af954604080516309a6ea2560e31b815233600482810191909152602482015290516001600160a01b039092169450634d3751289350604480820193929182900301818387803b15801561094857600080fd5b505af115801561095c573d6000803e3d6000fd5b5050505050565b604080516347414d4560e01b815290519081900360040190206109869033611608565b6109c3576040805162461bcd60e51b81526020600482015260096024820152684f6e6c792067616d6560b81b604482015290519081900360640190fd5b6001600160a01b039091166000908152606760209081526040808320805463ffffffff8082168701811663ffffffff199092169190911790915581516c474956454e5f5449434b45545360981b8152825190819003600d0190208452606c909252909120805491909216019055565b60009081526033602052604090206002015490565b604080516347414d4560e01b8152905190819003600401902081565b6003600052606b6020526000805160206128c2833981519152548114610ac0576040805162461bcd60e51b815260206004820152600d60248201526c496e76616c696420707269636560981b604482015290519081900360640190fd5b60695460036000908152606b6020526000805160206128c2833981519152546040805163466cec3360e01b81523360048201526024810192909252516001600160a01b039093169263466cec339260448084019391929182900301818387803b158015610b2c57600080fd5b505af1158015610b40573d6000803e3d6000fd5b505060036000908152606a6020527f165f0fc496c6f74e1376579ffc36bcfc90ef4779c44b9232cf0d606db3cc69d154604080516309a6ea2560e31b81523360048201526001602482015290516001600160a01b039092169450634d3751289350604480820193929182900301818387803b15801561094857600080fd5b600082815260336020526040902060020154610be190610bdc61201f565b611608565b610c1c5760405162461bcd60e51b815260040180806020018281038252602f81526020018061278f602f913960400191505060405180910390fd5b610c268282612023565b5050565b600181565b610c3761201f565b6001600160a01b0316816001600160a01b031614610c865760405162461bcd60e51b815260040180806020018281038252602f81526020018061292c602f913960400191505060405180910390fd5b610c268282612092565b604080516c5350454e545f5449434b45545360981b8152905190819003600d01902081565b610cc0600033611608565b610cfd576040805162461bcd60e51b81526020600482015260096024820152682737ba1030b236b4b760b91b604482015290519081900360640190fd5b60008111610d42576040805162461bcd60e51b815260206004820152600d60248201526c696e76616c696420707269636560981b604482015290519081900360640190fd5b606b6020526000805160206128c28339815191528190556000805160206127be83398151915281905560008051602061284483398151915281905560066000526000805160206127fe83398151915255565b610d9f600033611608565b610ddc576040805162461bcd60e51b81526020600482015260096024820152682737ba1030b236b4b760b91b604482015290519081900360640190fd5b60008111610e21576040805162461bcd60e51b815260206004820152600d60248201526c696e76616c696420707269636560981b604482015290519081900360640190fd5b6001600052606b6020526000805160206127de83398151915255565b600054610100900460ff1680610e565750610e56612101565b80610e64575060005460ff16155b610e9f5760405162461bcd60e51b815260040180806020018281038252602e815260200180612894602e913960400191505060405180910390fd5b600054610100900460ff16158015610eca576000805460ff1961ff0019909116610100171660011790555b610ed2612112565b610edd600033610c1c565b606580546001600160a01b038086166001600160a01b03199283161790925560668054928516929091169190911790558015610f1f576000805461ff00191690555b505050565b6005600052606b602052600080516020612844833981519152548114610f81576040805162461bcd60e51b815260206004820152600d60248201526c496e76616c696420707269636560981b604482015290519081900360640190fd5b60695460056000908152606b602052600080516020612844833981519152546040805163466cec3360e01b81523360048201526024810192909252516001600160a01b039093169263466cec339260448084019391929182900301818387803b158015610fed57600080fd5b505af1158015611001573d6000803e3d6000fd5b505060056000908152606a6020527fa5a863a6e87c617d261de6bc343a49a7006a56c5a168ec687d4bc4027b10d67d54604080516309a6ea2560e31b81523360048201526001602482015290516001600160a01b039092169450634d3751289350604480820193929182900301818387803b15801561094857600080fd5b606c6020526000908152604090205481565b6003600052606b6020526000805160206128c28339815191525490565b6729a2241af62c000081565b60676020526000908152604090205463ffffffff1681565b60695460408051631479c5eb60e21b815290516000926001600160a01b0316916351e717ac916004808301926020929190829003018186803b15801561111757600080fd5b505afa15801561112b573d6000803e3d6000fd5b505050506040513d602081101561114157600080fd5b5051604080516365895c9960e11b815290519192506000916001600160a01b0384169163cb12b932916004808301926020929190829003018186803b15801561118957600080fd5b505afa15801561119d573d6000803e3d6000fd5b505050506040513d60208110156111b357600080fd5b50516040805163434d82a360e01b81523360048201526024810183905290519192506001600160a01b0384169163434d82a391604480820192602092909190829003018186803b15801561120657600080fd5b505afa15801561121a573d6000803e3d6000fd5b505050506040513d602081101561123057600080fd5b50511561126e576040805162461bcd60e51b81526020600482015260076024820152664c696d6974203160c81b604482015290519081900360640190fd5b60408051630130398760e51b81523360048201526024810183905290516001600160a01b0384169163260730e091604480830192600092919082900301818387803b1580156112bc57600080fd5b505af11580156112d0573d6000803e3d6000fd5b50506069546040805163466cec3360e01b81523360048201526729a2241af62c0000602482015290516001600160a01b03909216935063466cec33925060448082019260009290919082900301818387803b15801561132e57600080fd5b505af1158015611342573d6000803e3d6000fd5b505060685460408051634f171a3160e11b815233600482015290516001600160a01b039092169350639e2e3462925060248082019260009290919082900301818387803b15801561139257600080fd5b505af11580156113a6573d6000803e3d6000fd5b505050505050565b6113b9600033611608565b6113f6576040805162461bcd60e51b81526020600482015260096024820152682737ba1030b236b4b760b91b604482015290519081900360640190fd5b6000811161143b576040805162461bcd60e51b815260206004820152600d60248201526c696e76616c696420707269636560981b604482015290519081900360640190fd5b6002600052606b6020526000805160206128e283398151915255565b6002600052606b6020526000805160206128e28339815191525490565b6000908152606b602052604090205490565b6006600052606b6020526000805160206127fe8339815191525481146114e3576040805162461bcd60e51b815260206004820152600d60248201526c496e76616c696420707269636560981b604482015290519081900360640190fd5b60695460066000908152606b6020526000805160206127fe833981519152546040805163466cec3360e01b81523360048201526024810192909252516001600160a01b039093169263466cec339260448084019391929182900301818387803b15801561154f57600080fd5b505af1158015611563573d6000803e3d6000fd5b505060066000908152606a6020527f2bc834ff3bba3d80acb54a3bdc4d46c19ade4e4f4db21022926ce2a8be43777a54604080516309a6ea2560e31b81523360048201526001602482015290516001600160a01b039092169450634d3751289350604480820193929182900301818387803b15801561094857600080fd5b60008281526033602052604081206115ff908363ffffffff6121c416565b90505b92915050565b60008281526033602052604081206115ff908363ffffffff6121d016565b6068546001600160a01b031681565b6001600052606b6020526000805160206127de8339815191525490565b600081565b600681565b606b6020526000908152604090205481565b611679600033611608565b6116b6576040805162461bcd60e51b81526020600482015260096024820152682737ba1030b236b4b760b91b604482015290519081900360640190fd5b610c266001600160a01b038316338363ffffffff6121e516565b6002600052606b6020526000805160206128e283398151915254811461172d576040805162461bcd60e51b815260206004820152600d60248201526c496e76616c696420707269636560981b604482015290519081900360640190fd5b60695460026000908152606b6020526000805160206128e2833981519152546040805163466cec3360e01b81523360048201526024810192909252516001600160a01b039093169263466cec339260448084019391929182900301818387803b15801561179957600080fd5b505af11580156117ad573d6000803e3d6000fd5b505060026000908152606a6020527f18c8cb20752177317b25472820acbe91cedcc3d2bcb99162a7a3edff04a1bf3f54604080516309a6ea2560e31b81523360048201526001602482015290516001600160a01b039092169450634d3751289350604480820193929182900301818387803b15801561094857600080fd5b6065546001600160a01b031681565b611845600033611608565b611882576040805162461bcd60e51b81526020600482015260096024820152682737ba1030b236b4b760b91b604482015290519081900360640190fd5b7ff585789965ba69220d5ce3dc1b444eb22ff546f2650694fef8fafe9c26560af980546001600160a01b03199081166001600160a01b03978816179091557f18c8cb20752177317b25472820acbe91cedcc3d2bcb99162a7a3edff04a1bf3f80548216978716979097179096557f165f0fc496c6f74e1376579ffc36bcfc90ef4779c44b9232cf0d606db3cc69d180548716948616949094179093557f4a9a49808009f9d4fd675708985b79ca45a9711808670d5c7929ee09c0aa2e6e80548616928516929092179091557fa5a863a6e87c617d261de6bc343a49a7006a56c5a168ec687d4bc4027b10d67d805485169184169190911790557f2bc834ff3bba3d80acb54a3bdc4d46c19ade4e4f4db21022926ce2a8be43777a80549093169116179055606b60205267016345785d8a00006000805160206127de8339815191528190556000805160206128e2833981519152556702c68af0bb1400006000805160206128c28339815191528190556000805160206127be83398151915281905560008051602061284483398151915281905560066000526000805160206127fe83398151915255565b6066546001600160a01b031681565b6004600052606b6020526000805160206127be833981519152548114611a98576040805162461bcd60e51b815260206004820152600d60248201526c496e76616c696420707269636560981b604482015290519081900360640190fd5b60695460046000818152606b6020526000805160206127be833981519152546040805163466cec3360e01b815233948101949094526024840191909152516001600160a01b039093169263466cec3392604480820193929182900301818387803b158015611b0557600080fd5b505af1158015611b19573d6000803e3d6000fd5b505060046000818152606a6020527f4a9a49808009f9d4fd675708985b79ca45a9711808670d5c7929ee09c0aa2e6e54604080516309a6ea2560e31b8152339481019490945260016024850152516001600160a01b039091169450634d375128935060448084019382900301818387803b15801561094857600080fd5b6069546001600160a01b031681565b600281565b600081815260336020526040812061160290612237565b6001600052606b6020526000805160206127de833981519152548114611c1e576040805162461bcd60e51b815260206004820152600d60248201526c496e76616c696420707269636560981b604482015290519081900360640190fd5b60695460016000908152606b6020526000805160206127de833981519152546040805163466cec3360e01b81523360048201526024810192909252516001600160a01b039093169263466cec339260448084019391929182900301818387803b158015611c8a57600080fd5b505af1158015611c9e573d6000803e3d6000fd5b505060016000818152606a6020527ff585789965ba69220d5ce3dc1b444eb22ff546f2650694fef8fafe9c26560af954604080516309a6ea2560e31b81523360048201526024810194909452516001600160a01b039091169450634d375128935060448084019382900301818387803b15801561094857600080fd5b600481565b600082815260336020526040902060020154611d3d90610bdc61201f565b610c865760405162461bcd60e51b81526004018080602001828103825260308152602001806128646030913960400191505060405180910390fd5b6000908152606a60205260409020546001600160a01b031690565b611d9e600033611608565b611ddb576040805162461bcd60e51b81526020600482015260096024820152682737ba1030b236b4b760b91b604482015290519081900360640190fd5b606680546001600160a01b0319166001600160a01b0392909216919091179055565b600581565b6002600052606b6020526000805160206128e2833981519152546003028114611e62576040805162461bcd60e51b815260206004820152600d60248201526c496e76616c696420707269636560981b604482015290519081900360640190fd5b60695460026000908152606b6020526000805160206128e2833981519152546040805163466cec3360e01b815233600482015260039092026024830152516001600160a01b039093169263466cec339260448084019391929182900301818387803b158015611ed057600080fd5b505af1158015611ee4573d6000803e3d6000fd5b505060026000908152606a6020527f18c8cb20752177317b25472820acbe91cedcc3d2bcb99162a7a3edff04a1bf3f54604080516309a6ea2560e31b815233600482810191909152602482015290516001600160a01b039092169450634d3751289350604480820193929182900301818387803b15801561094857600080fd5b611f6f600033611608565b611fac576040805162461bcd60e51b81526020600482015260096024820152682737ba1030b236b4b760b91b604482015290519081900360640190fd5b606880546001600160a01b039384166001600160a01b03199182161790915560698054929093169116179055565b604080516c474956454e5f5449434b45545360981b8152905190819003600d01902081565b606a602052600090815260409020546001600160a01b031681565b600381565b3390565b6000828152603360205260409020612041908263ffffffff61224216565b15610c265761204e61201f565b6001600160a01b0316816001600160a01b0316837f2f8788117e7eff1d82e926ec794901d17c78024a50270940304540a733656f0d60405160405180910390a45050565b60008281526033602052604090206120b0908263ffffffff61225716565b15610c26576120bd61201f565b6001600160a01b0316816001600160a01b0316837ff6391f5c32d9c69d2a47ea670b442974b53935d1edc7fd64eb21e047a839171b60405160405180910390a45050565b600061210c3061226c565b15905090565b600054610100900460ff168061212b575061212b612101565b80612139575060005460ff16155b6121745760405162461bcd60e51b815260040180806020018281038252602e815260200180612894602e913960400191505060405180910390fd5b600054610100900460ff1615801561219f576000805460ff1961ff0019909116610100171660011790555b6121a7612272565b6121af612272565b80156121c1576000805461ff00191690555b50565b60006115ff8383612312565b60006115ff836001600160a01b038416612376565b604080516001600160a01b038416602482015260448082018490528251808303909101815260649091019091526020810180516001600160e01b031663a9059cbb60e01b179052610f1f90849061238e565b60006116028261243f565b60006115ff836001600160a01b038416612443565b60006115ff836001600160a01b03841661248d565b3b151590565b600054610100900460ff168061228b575061228b612101565b80612299575060005460ff16155b6122d45760405162461bcd60e51b815260040180806020018281038252602e815260200180612894602e913960400191505060405180910390fd5b600054610100900460ff161580156121af576000805460ff1961ff00199091166101001716600117905580156121c1576000805461ff001916905550565b815460009082106123545760405162461bcd60e51b815260040180806020018281038252602281526020018061276d6022913960400191505060405180910390fd5b82600001828154811061236357fe5b9060005260206000200154905092915050565b60009081526001919091016020526040902054151590565b60606123e3826040518060400160405280602081526020017f5361666545524332303a206c6f772d6c6576656c2063616c6c206661696c6564815250856001600160a01b03166125539092919063ffffffff16565b805190915015610f1f5780806020019051602081101561240257600080fd5b5051610f1f5760405162461bcd60e51b815260040180806020018281038252602a815260200180612902602a913960400191505060405180910390fd5b5490565b600061244f8383612376565b61248557508154600181810184556000848152602080822090930184905584548482528286019093526040902091909155611602565b506000611602565b6000818152600183016020526040812054801561254957835460001980830191908101906000908790839081106124c057fe5b90600052602060002001549050808760000184815481106124dd57fe5b60009182526020808320909101929092558281526001898101909252604090209084019055865487908061250d57fe5b60019003818190600052602060002001600090559055866001016000878152602001908152602001600020600090556001945050505050611602565b6000915050611602565b6060612562848460008561256c565b90505b9392505050565b6060824710156125ad5760405162461bcd60e51b815260040180806020018281038252602681526020018061281e6026913960400191505060405180910390fd5b6125b68561226c565b612607576040805162461bcd60e51b815260206004820152601d60248201527f416464726573733a2063616c6c20746f206e6f6e2d636f6e7472616374000000604482015290519081900360640190fd5b60006060866001600160a01b031685876040518082805190602001908083835b602083106126465780518252601f199092019160209182019101612627565b6001836020036101000a03801982511681845116808217855250505050505090500191505060006040518083038185875af1925050503d80600081146126a8576040519150601f19603f3d011682016040523d82523d6000602084013e6126ad565b606091505b50915091506126bd8282866126c8565b979650505050505050565b606083156126d7575081612565565b8251156126e75782518084602001fd5b8160405162461bcd60e51b81526004018080602001828103825283818151815260200191508051906020019080838360005b83811015612731578181015183820152602001612719565b50505050905090810190601f16801561275e5780820380516001836020036101000a031916815260200191505b509250505060405180910390fdfe456e756d657261626c655365743a20696e646578206f7574206f6620626f756e6473416363657373436f6e74726f6c3a2073656e646572206d75737420626520616e2061646d696e20746f206772616e74f0ae10cbc4b7e5d41a3a6c7f530e4919b2e487e56976cad1b0bf6c5c77e67915a775687211c2b3346a0f5a2a0e7590e6c1838453e3785e6dd2a8efd6265ddf156796320b8e2c9b173941a03e2e3a92bfaece7583011e9e3f639fd17445641da7416464726573733a20696e73756666696369656e742062616c616e636520666f722063616c6c4c3f232ddb73d929a78df2f30606bfd05ea9acc478c461d082d1d84494100a58416363657373436f6e74726f6c3a2073656e646572206d75737420626520616e2061646d696e20746f207265766f6b65496e697469616c697a61626c653a20636f6e747261637420697320616c726561647920696e697469616c697a65644e5c7e8f4b1f6c9808b80aae6c41bbd046930d99f67f4e24136b55524acbcb0eb507b92927105c30ff6e8afc661972d5ba73e86e28bafa70cb531ddda52bdf045361666545524332303a204552433230206f7065726174696f6e20646964206e6f742073756363656564416363657373436f6e74726f6c3a2063616e206f6e6c792072656e6f756e636520726f6c657320666f722073656c66a2646970667358221220540323701e779141a0429f44e8b9cc4aeae4921da9ef14d1c9d7a0a49b38b36564736f6c63430006050033",
  "immutableReferences": {},
  "source": "pragma solidity ^0.6.5;\n\nimport \"@openzeppelin/contracts-upgradeable/proxy/Initializable.sol\";\nimport \"@openzeppelin/contracts-upgradeable/access/AccessControlUpgradeable.sol\";\nimport \"@openzeppelin/contracts/token/ERC20/IERC20.sol\";\nimport \"@openzeppelin/contracts/token/ERC20/SafeERC20.sol\";\nimport \"./interfaces/IRandoms.sol\";\nimport \"./shields.sol\";\nimport \"./Consumables.sol\";\nimport \"./weapons.sol\";\nimport \"./cryptoblades.sol\";\n\ncontract Blacksmith is Initializable, AccessControlUpgradeable {\n    using SafeERC20 for IERC20;\n    /* ========== CONSTANTS ========== */\n\n    bytes32 public constant GAME = keccak256(\"GAME\");\n\n    uint256 public constant SHIELD_SKILL_FEE = 3 ether;\n\n    uint256 public constant ITEM_WEAPON_RENAME = 1;\n    uint256 public constant ITEM_CHARACTER_RENAME = 2;\n    uint256 public constant ITEM_CHARACTER_TRAITCHANGE_FIRE = 3;\n    uint256 public constant ITEM_CHARACTER_TRAITCHANGE_EARTH = 4;\n    uint256 public constant ITEM_CHARACTER_TRAITCHANGE_WATER = 5;\n    uint256 public constant ITEM_CHARACTER_TRAITCHANGE_LIGHTNING = 6;\n\n    uint256 public constant NUMBERPARAMETER_GIVEN_TICKETS = uint256(keccak256(\"GIVEN_TICKETS\"));\n    uint256 public constant NUMBERPARAMETER_SPENT_TICKETS = uint256(keccak256(\"SPENT_TICKETS\"));\n\n    /* ========== STATE VARIABLES ========== */\n\n    Weapons public weapons;\n    IRandoms public randoms;\n\n    mapping(address => uint32) public tickets;\n\n    Shields public shields;\n    CryptoBlades public game;\n\n    // keys: ITEM_ constant\n    mapping(uint256 => address) public itemAddresses;\n    mapping(uint256 => uint256) public itemFlatPrices;\n\n    mapping(uint256 => uint256) public numberParameters;\n\n    /* ========== INITIALIZERS AND MIGRATORS ========== */\n\n    function initialize(Weapons _weapons, IRandoms _randoms)\n        public\n        initializer\n    {\n        __AccessControl_init();\n\n        _setupRole(DEFAULT_ADMIN_ROLE, msg.sender);\n\n        weapons = _weapons;\n        randoms = _randoms;\n    }\n\n    function migrateRandoms(IRandoms _newRandoms) external {\n        require(hasRole(DEFAULT_ADMIN_ROLE, msg.sender), \"Not admin\");\n        randoms = _newRandoms;\n    }\n\n    function migrateTo_61c10da(Shields _shields, CryptoBlades _game) external {\n        require(hasRole(DEFAULT_ADMIN_ROLE, msg.sender), \"Not admin\");\n\n        shields = _shields;\n        game = _game;\n    }\n\n    function migrateTo_16884dd(\n        address _characterRename,\n        address _weaponRename,\n        address _charFireTraitChange,\n        address _charEarthTraitChange,\n        address _charWaterTraitChange,\n        address _charLightningTraitChange\n    ) external {\n        require(hasRole(DEFAULT_ADMIN_ROLE, msg.sender), \"Not admin\");\n        itemAddresses[ITEM_WEAPON_RENAME] = _weaponRename;\n        itemAddresses[ITEM_CHARACTER_RENAME] = _characterRename;\n        itemAddresses[ITEM_CHARACTER_TRAITCHANGE_FIRE] = _charFireTraitChange;\n        itemAddresses[ITEM_CHARACTER_TRAITCHANGE_EARTH] = _charEarthTraitChange;\n        itemAddresses[ITEM_CHARACTER_TRAITCHANGE_WATER] = _charWaterTraitChange;\n        itemAddresses[ITEM_CHARACTER_TRAITCHANGE_LIGHTNING] = _charLightningTraitChange;\n\n        itemFlatPrices[ITEM_WEAPON_RENAME] = 0.1 ether;\n        itemFlatPrices[ITEM_CHARACTER_RENAME] = 0.1 ether;\n        itemFlatPrices[ITEM_CHARACTER_TRAITCHANGE_FIRE] = 0.2 ether;\n        itemFlatPrices[ITEM_CHARACTER_TRAITCHANGE_EARTH] = 0.2 ether;\n        itemFlatPrices[ITEM_CHARACTER_TRAITCHANGE_WATER] = 0.2 ether;\n        itemFlatPrices[ITEM_CHARACTER_TRAITCHANGE_LIGHTNING] = 0.2 ether;\n    }\n\n    /* ========== VIEWS ========== */\n\n    /* ========== MUTATIVE FUNCTIONS ========== */\n\n    function recoverToken(address tokenAddress, uint256 amount) public {\n        require(hasRole(DEFAULT_ADMIN_ROLE, msg.sender), \"Not admin\");\n\n        IERC20(tokenAddress).safeTransfer(msg.sender, amount);\n    }\n\n    // function spendTicket(uint32 _num) external {\n    //     require(_num > 0);\n    //     require(tickets[msg.sender] >= _num, \"Not enough tickets\");\n    //     tickets[msg.sender] -= _num;\n    //     numberParameters[NUMBERPARAMETER_SPENT_TICKETS] += _num;\n\n    //     for (uint256 i = 0; i < _num; i++) {\n    //         weapons.mint(\n    //             msg.sender,\n    //             // TODO: Ensure no exploiting possible\n    //         );\n    //     }\n    // }\n\n    function giveTicket(address _player, uint32 _num) external onlyGame {\n        tickets[_player] += _num;\n        numberParameters[NUMBERPARAMETER_GIVEN_TICKETS] += _num;\n    }\n\n    function purchaseShield() public {\n        Promos promos = game.promos();\n        uint256 BIT_LEGENDARY_DEFENDER = promos.BIT_LEGENDARY_DEFENDER();\n\n        require(!promos.getBit(msg.sender, BIT_LEGENDARY_DEFENDER), \"Limit 1\");\n        promos.setBit(msg.sender, BIT_LEGENDARY_DEFENDER);\n        game.payContractTokenOnly(msg.sender, SHIELD_SKILL_FEE);\n        shields.mintForPurchase(msg.sender);\n    }\n\n    /* ========== MODIFIERS ========== */\n\n    modifier onlyGame() {\n        require(hasRole(GAME, msg.sender), \"Only game\");\n        _;\n    }\n\n     modifier isAdmin() {\n         require(hasRole(DEFAULT_ADMIN_ROLE, msg.sender), \"Not admin\");\n        _;\n    }\n\n    /* ========== Generic Getters ========== */\n\n    function getAddressOfItem(uint256 itemIndex) public view returns(address) {\n        return itemAddresses[itemIndex];\n    }\n\n    function getFlatPriceOfItem(uint256 itemIndex) public view returns(uint256) {\n        return itemFlatPrices[itemIndex];\n    }\n\n    /* ========== Character Rename ========== */\n\n    function setCharacterRenamePrice(uint256 newPrice) external isAdmin {\n        require(newPrice > 0, 'invalid price');\n        itemFlatPrices[ITEM_CHARACTER_RENAME] = newPrice;\n    }\n\n    function characterRenamePrice() public view returns (uint256){\n        return itemFlatPrices[ITEM_CHARACTER_RENAME];\n    }\n\n    function purchaseCharacterRenameTag(uint256 paying) public {\n        require(paying == itemFlatPrices[ITEM_CHARACTER_RENAME], 'Invalid price');\n        game.payContractTokenOnly(msg.sender, itemFlatPrices[ITEM_CHARACTER_RENAME]);\n        Consumables(itemAddresses[ITEM_CHARACTER_RENAME]).giveItem(msg.sender, 1);\n    }\n\n    function purchaseCharacterRenameTagDeal(uint256 paying) public { // 4 for the price of 3\n        require(paying == itemFlatPrices[ITEM_CHARACTER_RENAME] * 3, 'Invalid price');\n        game.payContractTokenOnly(msg.sender, itemFlatPrices[ITEM_CHARACTER_RENAME] * 3);\n        Consumables(itemAddresses[ITEM_CHARACTER_RENAME]).giveItem(msg.sender, 4);\n    }\n\n    /* ========== Weapon Rename ========== */\n\n    function setWeaponRenamePrice(uint256 newPrice) external isAdmin {\n        require(newPrice > 0, 'invalid price');\n        itemFlatPrices[ITEM_WEAPON_RENAME] = newPrice;\n    }\n\n    function weaponRenamePrice() public view returns (uint256){\n        return itemFlatPrices[ITEM_WEAPON_RENAME];\n    }\n\n    function purchaseWeaponRenameTag(uint256 paying) public {\n        require(paying == itemFlatPrices[ITEM_WEAPON_RENAME], 'Invalid price');\n        game.payContractTokenOnly(msg.sender, itemFlatPrices[ITEM_WEAPON_RENAME]);\n        Consumables(itemAddresses[ITEM_WEAPON_RENAME]).giveItem(msg.sender, 1);\n    }\n\n    function purchaseWeaponRenameTagDeal(uint256 paying) public { // 4 for the price of 3\n        require(paying == itemFlatPrices[ITEM_WEAPON_RENAME] * 3, 'Invalid price');\n        game.payContractTokenOnly(msg.sender, itemFlatPrices[ITEM_WEAPON_RENAME] * 3);\n        Consumables(itemAddresses[ITEM_WEAPON_RENAME]).giveItem(msg.sender, 4);\n    }\n\n     /* ========== Character Trait Change ========== */\n\n     function setCharacterTraitChangePrice(uint256 newPrice) external isAdmin {\n        require(newPrice > 0, 'invalid price');\n        itemFlatPrices[ITEM_CHARACTER_TRAITCHANGE_FIRE] = newPrice;\n        itemFlatPrices[ITEM_CHARACTER_TRAITCHANGE_EARTH] = newPrice;\n        itemFlatPrices[ITEM_CHARACTER_TRAITCHANGE_WATER] = newPrice;\n        itemFlatPrices[ITEM_CHARACTER_TRAITCHANGE_LIGHTNING] = newPrice;\n    }\n\n     function characterTraitChangePrice() public view returns (uint256){\n        return itemFlatPrices[ITEM_CHARACTER_TRAITCHANGE_FIRE];\n    }\n\n    function purchaseCharacterFireTraitChange(uint256 paying) public {\n        require(paying == itemFlatPrices[ITEM_CHARACTER_TRAITCHANGE_FIRE], 'Invalid price');\n        game.payContractTokenOnly(msg.sender, itemFlatPrices[ITEM_CHARACTER_TRAITCHANGE_FIRE]);\n        Consumables(itemAddresses[ITEM_CHARACTER_TRAITCHANGE_FIRE]).giveItem(msg.sender, 1);\n    }\n\n    function purchaseCharacterEarthTraitChange(uint256 paying) public {\n        require(paying == itemFlatPrices[ITEM_CHARACTER_TRAITCHANGE_EARTH], 'Invalid price');\n        game.payContractTokenOnly(msg.sender, itemFlatPrices[ITEM_CHARACTER_TRAITCHANGE_EARTH]);\n        Consumables(itemAddresses[ITEM_CHARACTER_TRAITCHANGE_EARTH]).giveItem(msg.sender, 1);\n    }\n\n    function purchaseCharacterWaterTraitChange(uint256 paying) public {\n        require(paying == itemFlatPrices[ITEM_CHARACTER_TRAITCHANGE_WATER], 'Invalid price');\n        game.payContractTokenOnly(msg.sender, itemFlatPrices[ITEM_CHARACTER_TRAITCHANGE_WATER]);\n        Consumables(itemAddresses[ITEM_CHARACTER_TRAITCHANGE_WATER]).giveItem(msg.sender, 1);\n    }\n\n    function purchaseCharacterLightningTraitChange(uint256 paying) public {\n        require(paying == itemFlatPrices[ITEM_CHARACTER_TRAITCHANGE_LIGHTNING], 'Invalid price');\n        game.payContractTokenOnly(msg.sender, itemFlatPrices[ITEM_CHARACTER_TRAITCHANGE_LIGHTNING]);\n        Consumables(itemAddresses[ITEM_CHARACTER_TRAITCHANGE_LIGHTNING]).giveItem(msg.sender, 1);\n    }\n}\n",
  "sourcePath": "D:\\Work\\MEVN\\cryptoblades-main\\cryptoblades-main\\contracts\\Blacksmith.sol",
  "compiler": {
    "name": "solc",
    "version": "0.6.5+commit.f956cc89.Emscripten.clang"
  },
  "schemaVersion": "3.4.3",
  "updatedAt": "2021-09-18T03:37:02.100Z",
  "devdoc": {
    "methods": {
      "getRoleAdmin(bytes32)": {
        "details": "Returns the admin role that controls `role`. See {grantRole} and {revokeRole}.     * To change a role's admin, use {_setRoleAdmin}."
      },
      "getRoleMember(bytes32,uint256)": {
        "details": "Returns one of the accounts that have `role`. `index` must be a value between 0 and {getRoleMemberCount}, non-inclusive.     * Role bearers are not sorted in any particular way, and their ordering may change at any point.     * WARNING: When using {getRoleMember} and {getRoleMemberCount}, make sure you perform all queries on the same block. See the following https://forum.openzeppelin.com/t/iterating-over-elements-on-enumerableset-in-openzeppelin-contracts/2296[forum post] for more information."
      },
      "getRoleMemberCount(bytes32)": {
        "details": "Returns the number of accounts that have `role`. Can be used together with {getRoleMember} to enumerate all bearers of a role."
      },
      "grantRole(bytes32,address)": {
        "details": "Grants `role` to `account`.     * If `account` had not been already granted `role`, emits a {RoleGranted} event.     * Requirements:     * - the caller must have ``role``'s admin role."
      },
      "hasRole(bytes32,address)": {
        "details": "Returns `true` if `account` has been granted `role`."
      },
      "renounceRole(bytes32,address)": {
        "details": "Revokes `role` from the calling account.     * Roles are often managed via {grantRole} and {revokeRole}: this function's purpose is to provide a mechanism for accounts to lose their privileges if they are compromised (such as when a trusted device is misplaced).     * If the calling account had been granted `role`, emits a {RoleRevoked} event.     * Requirements:     * - the caller must be `account`."
      },
      "revokeRole(bytes32,address)": {
        "details": "Revokes `role` from `account`.     * If `account` had been granted `role`, emits a {RoleRevoked} event.     * Requirements:     * - the caller must have ``role``'s admin role."
      }
    }
  },
  "userdoc": {
    "methods": {}
  }
}