{
  "contractName": "CharacterRenameTagConsumables",
  "abi": [
    {
      "anonymous": false,
      "inputs": [
        {
          "indexed": true,
          "internalType": "address",
          "name": "owner",
          "type": "address"
        },
        {
          "indexed": true,
          "internalType": "uint256",
          "name": "character",
          "type": "uint256"
        }
      ],
      "name": "CharacterRenamed",
      "type": "event"
    },
    {
      "anonymous": false,
      "inputs": [
        {
          "indexed": true,
          "internalType": "address",
          "name": "owner",
          "type": "address"
        },
        {
          "indexed": false,
          "internalType": "uint32",
          "name": "amount",
          "type": "uint32"
        }
      ],
      "name": "ConsumableGiven",
      "type": "event"
    },
    {
      "anonymous": false,
      "inputs": [
        {
          "indexed": true,
          "internalType": "bytes32",
          "name": "role",
          "type": "bytes32"
        },
        {
          "indexed": true,
          "internalType": "bytes32",
          "name": "previousAdminRole",
          "type": "bytes32"
        },
        {
          "indexed": true,
          "internalType": "bytes32",
          "name": "newAdminRole",
          "type": "bytes32"
        }
      ],
      "name": "RoleAdminChanged",
      "type": "event"
    },
    {
      "anonymous": false,
      "inputs": [
        {
          "indexed": true,
          "internalType": "bytes32",
          "name": "role",
          "type": "bytes32"
        },
        {
          "indexed": true,
          "internalType": "address",
          "name": "account",
          "type": "address"
        },
        {
          "indexed": true,
          "internalType": "address",
          "name": "sender",
          "type": "address"
        }
      ],
      "name": "RoleGranted",
      "type": "event"
    },
    {
      "anonymous": false,
      "inputs": [
        {
          "indexed": true,
          "internalType": "bytes32",
          "name": "role",
          "type": "bytes32"
        },
        {
          "indexed": true,
          "internalType": "address",
          "name": "account",
          "type": "address"
        },
        {
          "indexed": true,
          "internalType": "address",
          "name": "sender",
          "type": "address"
        }
      ],
      "name": "RoleRevoked",
      "type": "event"
    },
    {
      "inputs": [],
      "name": "DEFAULT_ADMIN_ROLE",
      "outputs": [
        {
          "internalType": "bytes32",
          "name": "",
          "type": "bytes32"
        }
      ],
      "stateMutability": "view",
      "type": "function"
    },
    {
      "inputs": [],
      "name": "GAME_ADMIN",
      "outputs": [
        {
          "internalType": "bytes32",
          "name": "",
          "type": "bytes32"
        }
      ],
      "stateMutability": "view",
      "type": "function"
    },
    {
      "inputs": [],
      "name": "getItemCount",
      "outputs": [
        {
          "internalType": "uint32",
          "name": "",
          "type": "uint32"
        }
      ],
      "stateMutability": "view",
      "type": "function"
    },
    {
      "inputs": [
        {
          "internalType": "bytes32",
          "name": "role",
          "type": "bytes32"
        }
      ],
      "name": "getRoleAdmin",
      "outputs": [
        {
          "internalType": "bytes32",
          "name": "",
          "type": "bytes32"
        }
      ],
      "stateMutability": "view",
      "type": "function"
    },
    {
      "inputs": [
        {
          "internalType": "bytes32",
          "name": "role",
          "type": "bytes32"
        },
        {
          "internalType": "uint256",
          "name": "index",
          "type": "uint256"
        }
      ],
      "name": "getRoleMember",
      "outputs": [
        {
          "internalType": "address",
          "name": "",
          "type": "address"
        }
      ],
      "stateMutability": "view",
      "type": "function"
    },
    {
      "inputs": [
        {
          "internalType": "bytes32",
          "name": "role",
          "type": "bytes32"
        }
      ],
      "name": "getRoleMemberCount",
      "outputs": [
        {
          "internalType": "uint256",
          "name": "",
          "type": "uint256"
        }
      ],
      "stateMutability": "view",
      "type": "function"
    },
    {
      "inputs": [
        {
          "internalType": "address",
          "name": "buyer",
          "type": "address"
        },
        {
          "internalType": "uint32",
          "name": "amount",
          "type": "uint32"
        }
      ],
      "name": "giveItem",
      "outputs": [],
      "stateMutability": "nonpayable",
      "type": "function"
    },
    {
      "inputs": [
        {
          "internalType": "address",
          "name": "receiver",
          "type": "address"
        },
        {
          "internalType": "uint32",
          "name": "amount",
          "type": "uint32"
        }
      ],
      "name": "giveItemByAdmin",
      "outputs": [],
      "stateMutability": "nonpayable",
      "type": "function"
    },
    {
      "inputs": [
        {
          "internalType": "bytes32",
          "name": "role",
          "type": "bytes32"
        },
        {
          "internalType": "address",
          "name": "account",
          "type": "address"
        }
      ],
      "name": "grantRole",
      "outputs": [],
      "stateMutability": "nonpayable",
      "type": "function"
    },
    {
      "inputs": [
        {
          "internalType": "bytes32",
          "name": "role",
          "type": "bytes32"
        },
        {
          "internalType": "address",
          "name": "account",
          "type": "address"
        }
      ],
      "name": "hasRole",
      "outputs": [
        {
          "internalType": "bool",
          "name": "",
          "type": "bool"
        }
      ],
      "stateMutability": "view",
      "type": "function"
    },
    {
      "inputs": [],
      "name": "itemEnabled",
      "outputs": [
        {
          "internalType": "bool",
          "name": "",
          "type": "bool"
        }
      ],
      "stateMutability": "view",
      "type": "function"
    },
    {
      "inputs": [
        {
          "internalType": "address",
          "name": "",
          "type": "address"
        }
      ],
      "name": "owned",
      "outputs": [
        {
          "internalType": "uint32",
          "name": "",
          "type": "uint32"
        }
      ],
      "stateMutability": "view",
      "type": "function"
    },
    {
      "inputs": [
        {
          "internalType": "uint256",
          "name": "",
          "type": "uint256"
        }
      ],
      "name": "renames",
      "outputs": [
        {
          "internalType": "string",
          "name": "",
          "type": "string"
        }
      ],
      "stateMutability": "view",
      "type": "function"
    },
    {
      "inputs": [
        {
          "internalType": "bytes32",
          "name": "role",
          "type": "bytes32"
        },
        {
          "internalType": "address",
          "name": "account",
          "type": "address"
        }
      ],
      "name": "renounceRole",
      "outputs": [],
      "stateMutability": "nonpayable",
      "type": "function"
    },
    {
      "inputs": [
        {
          "internalType": "bytes32",
          "name": "role",
          "type": "bytes32"
        },
        {
          "internalType": "address",
          "name": "account",
          "type": "address"
        }
      ],
      "name": "revokeRole",
      "outputs": [],
      "stateMutability": "nonpayable",
      "type": "function"
    },
    {
      "inputs": [
        {
          "internalType": "address",
          "name": "target",
          "type": "address"
        },
        {
          "internalType": "uint32",
          "name": "amount",
          "type": "uint32"
        }
      ],
      "name": "takeItemByAdmin",
      "outputs": [],
      "stateMutability": "nonpayable",
      "type": "function"
    },
    {
      "inputs": [
        {
          "internalType": "bool",
          "name": "canUse",
          "type": "bool"
        }
      ],
      "name": "toggleItemCanUse",
      "outputs": [],
      "stateMutability": "nonpayable",
      "type": "function"
    },
    {
      "inputs": [],
      "name": "initialize",
      "outputs": [],
      "stateMutability": "nonpayable",
      "type": "function"
    },
    {
      "inputs": [
        {
          "internalType": "contract Characters",
          "name": "_characters",
          "type": "address"
        }
      ],
      "name": "initialize",
      "outputs": [],
      "stateMutability": "nonpayable",
      "type": "function"
    },
    {
      "inputs": [
        {
          "internalType": "uint256",
          "name": "characterId",
          "type": "uint256"
        },
        {
          "internalType": "string",
          "name": "newName",
          "type": "string"
        }
      ],
      "name": "renameCharacter",
      "outputs": [],
      "stateMutability": "nonpayable",
      "type": "function"
    },
    {
      "inputs": [
        {
          "internalType": "uint256",
          "name": "characterId",
          "type": "uint256"
        }
      ],
      "name": "getCharacterRename",
      "outputs": [
        {
          "internalType": "string",
          "name": "",
          "type": "string"
        }
      ],
      "stateMutability": "view",
      "type": "function"
    },
    {
      "inputs": [
        {
          "internalType": "uint8",
          "name": "newMinSize",
          "type": "uint8"
        }
      ],
      "name": "setMinSize",
      "outputs": [],
      "stateMutability": "nonpayable",
      "type": "function"
    },
    {
      "inputs": [
        {
          "internalType": "uint8",
          "name": "newMaxSize",
          "type": "uint8"
        }
      ],
      "name": "setMaxSize",
      "outputs": [],
      "stateMutability": "nonpayable",
      "type": "function"
    },
    {
      "inputs": [],
      "name": "getMinSize",
      "outputs": [
        {
          "internalType": "uint8",
          "name": "",
          "type": "uint8"
        }
      ],
      "stateMutability": "view",
      "type": "function"
    },
    {
      "inputs": [],
      "name": "getMaxSize",
      "outputs": [
        {
          "internalType": "uint8",
          "name": "",
          "type": "uint8"
        }
      ],
      "stateMutability": "view",
      "type": "function"
    }
  ],
  "bytecode": "0x608060405234801561001057600080fd5b5061167e806100206000396000f3fe608060405234801561001057600080fd5b50600436106101735760003560e01c80639010d07c116100de578063c59284ee11610097578063d547741f11610071578063d547741f1461055a578063ec36f84914610586578063f9e54cb4146105a5578063ff5e1d72146105ad57610173565b8063c59284ee14610503578063ca15c87314610535578063d07041e01461055257610173565b80639010d07c1461038357806391d14854146103c2578063a217fddf14610402578063b1ab93171461040a578063b5ffc81914610430578063c4d66de8146104dd57610173565b80634d375128116101305780634d375128146102e55780635504d3d21461031757806362cbcec11461031f57806363e1d57c1461033c5780637749cf231461035a5780638129fc1c1461037b57610173565b8063248a9ca3146101785780632f2ff15d146101a75780632ff6a044146101d557806336568abe1461020757806337156657146102335780634b725bbe146102c5575b600080fd5b6101956004803603602081101561018e57600080fd5b50356105cd565b60408051918252519081900360200190f35b6101d3600480360360408110156101bd57600080fd5b50803590602001356001600160a01b03166105e2565b005b6101d3600480360360408110156101eb57600080fd5b5080356001600160a01b0316906020013563ffffffff1661064e565b6101d36004803603604081101561021d57600080fd5b50803590602001356001600160a01b03166106ce565b6102506004803603602081101561024957600080fd5b503561072f565b6040805160208082528351818301528351919283929083019185019080838360005b8381101561028a578181015183820152602001610272565b50505050905090810190601f1680156102b75780820380516001836020036101000a031916815260200191505b509250505060405180910390f35b6101d3600480360360208110156102db57600080fd5b503560ff166107d0565b6101d3600480360360408110156102fb57600080fd5b5080356001600160a01b0316906020013563ffffffff1661087f565b6101956108f4565b6102506004803603602081101561033557600080fd5b5035610916565b6103446109b1565b6040805160ff9092168252519081900360200190f35b6103626109c2565b6040805163ffffffff9092168252519081900360200190f35b6101d36109db565b6103a66004803603604081101561039957600080fd5b5080359060200135610a9d565b604080516001600160a01b039092168252519081900360200190f35b6103ee600480360360408110156103d857600080fd5b50803590602001356001600160a01b0316610ac4565b604080519115158252519081900360200190f35b610195610ae2565b6103626004803603602081101561042057600080fd5b50356001600160a01b0316610ae7565b6101d36004803603604081101561044657600080fd5b8135919081019060408101602082013564010000000081111561046857600080fd5b82018360208201111561047a57600080fd5b8035906020019184600183028401116401000000008311171561049c57600080fd5b91908080601f016020809104026020016040519081016040528093929190818152602001838380828437600092019190915250929550610aff945050505050565b6101d3600480360360208110156104f357600080fd5b50356001600160a01b0316610c9f565b6101d36004803603604081101561051957600080fd5b5080356001600160a01b0316906020013563ffffffff16610d9a565b6101956004803603602081101561054b57600080fd5b5035610e83565b610344610e9a565b6101d36004803603604081101561057057600080fd5b50803590602001356001600160a01b0316610eaa565b6101d36004803603602081101561059c57600080fd5b50351515610f03565b6103ee610f5e565b6101d3600480360360208110156105c357600080fd5b503560ff16610f67565b60009081526033602052604090206002015490565b60008281526033602052604090206002015461060590610600611016565b610ac4565b6106405760405162461bcd60e51b815260040180806020018281038252602f81526020018061158d602f913960400191505060405180910390fd5b61064a828261101a565b5050565b610659600033610ac4565b610696576040805162461bcd60e51b81526020600482015260096024820152682737ba1030b236b4b760b91b604482015290519081900360640190fd5b6001600160a01b03919091166000908152606560205260409020805463ffffffff19811663ffffffff91821690930116919091179055565b6106d6611016565b6001600160a01b0316816001600160a01b0316146107255760405162461bcd60e51b815260040180806020018281038252602f81526020018061161a602f913960400191505060405180910390fd5b61064a8282611089565b60008181526067602090815260409182902080548351601f60026000196101006001861615020190931692909204918201849004840281018401909452808452606093928301828280156107c45780601f10610799576101008083540402835291602001916107c4565b820191906000526020600020905b8154815290600101906020018083116107a757829003601f168201915b50505050509050919050565b6107db600033610ac4565b610818576040805162461bcd60e51b81526020600482015260096024820152682737ba1030b236b4b760b91b604482015290519081900360640190fd5b60008160ff161161085f576040805162461bcd60e51b815260206004820152600c60248201526b696e76616c69642073697a6560a01b604482015290519081900360640190fd5b6066805460ff909216600160a81b0260ff60a81b19909216919091179055565b6108876110f8565b6001600160a01b038216600081815260656020908152604091829020805463ffffffff19811663ffffffff91821687018216179091558251908516815291517f90a3437fc374e1839a62ff1148f9bdb4f02dc5e02e8393ff6cbc68b1fcec49a19281900390910190a25050565b604080516923a0a6a2afa0a226a4a760b11b8152905190819003600a01902081565b60676020908152600091825260409182902080548351601f6002600019610100600186161502019093169290920491820184900484028101840190945280845290918301828280156109a95780601f1061097e576101008083540402835291602001916109a9565b820191906000526020600020905b81548152906001019060200180831161098c57829003601f168201915b505050505081565b606654600160b01b900460ff165b90565b3360009081526065602052604090205463ffffffff1690565b600054610100900460ff16806109f457506109f4611165565b80610a02575060005460ff16155b610a3d5760405162461bcd60e51b815260040180806020018281038252602e8152602001806115ec602e913960400191505060405180910390fd5b600054610100900460ff16158015610a68576000805460ff1961ff0019909116610100171660011790555b610a70611176565b610a7b600033610640565b6066805460ff191660011790558015610a9a576000805461ff00191690555b50565b6000828152603360205260408120610abb908363ffffffff61121716565b90505b92915050565b6000828152603360205260408120610abb908363ffffffff61122316565b600081565b60656020526000908152604090205463ffffffff1681565b6066548151600160a81b90910460ff1611801590610b2b57506066548151600160b01b90910460ff1610155b610b6d576040805162461bcd60e51b815260206004820152600e60248201526d1cda5e99481b9bdd081d985b1a5960921b604482015290519081900360640190fd5b606654604080516331a9108f60e11b8152600481018590529051339261010090046001600160a01b031691636352211e916024808301926020929190829003018186803b158015610bbd57600080fd5b505afa158015610bd1573d6000803e3d6000fd5b505050506040513d6020811015610be757600080fd5b50516001600160a01b031614610c44576040805162461bcd60e51b815260206004820152601760248201527f4e6f742074686520636861726163746572206f776e6572000000000000000000604482015290519081900360640190fd5b610c4e6001611238565b60008281526067602090815260409091208251610c6d928401906114d2565b50604051829033907f84ad7ba88a515d747eb175f200fec7791ff2f38ac63084d4695292f02a0aef7f90600090a35050565b600054610100900460ff1680610cb85750610cb8611165565b80610cc6575060005460ff16155b610d015760405162461bcd60e51b815260040180806020018281038252602e8152602001806115ec602e913960400191505060405180910390fd5b600054610100900460ff16158015610d2c576000805460ff1961ff0019909116610100171660011790555b610d34611176565b610d3f600033610640565b60668054600160a81b600160ff1990921691909117610100600160a81b0319166101006001600160a01b038616021760ff60a81b19161760ff60b01b1916600360b31b179055801561064a576000805461ff00191690555050565b610da5600033610ac4565b610de2576040805162461bcd60e51b81526020600482015260096024820152682737ba1030b236b4b760b91b604482015290519081900360640190fd5b6001600160a01b03821660009081526065602052604090205463ffffffff80831691161015610e4a576040805162461bcd60e51b815260206004820152600f60248201526e4e6f7420656e6f756768206974656d60881b604482015290519081900360640190fd5b6001600160a01b03919091166000908152606560205260409020805463ffffffff19811663ffffffff9182169390930316919091179055565b6000818152603360205260408120610abe90611307565b606654600160a81b900460ff1690565b600082815260336020526040902060020154610ec890610600611016565b6107255760405162461bcd60e51b81526004018080602001828103825260308152602001806115bc6030913960400191505060405180910390fd5b610f0e600033610ac4565b610f4b576040805162461bcd60e51b81526020600482015260096024820152682737ba1030b236b4b760b91b604482015290519081900360640190fd5b6066805460ff1916911515919091179055565b60665460ff1690565b610f72600033610ac4565b610faf576040805162461bcd60e51b81526020600482015260096024820152682737ba1030b236b4b760b91b604482015290519081900360640190fd5b60008160ff1611610ff6576040805162461bcd60e51b815260206004820152600c60248201526b696e76616c69642073697a6560a01b604482015290519081900360640190fd5b6066805460ff909216600160b01b0260ff60b01b19909216919091179055565b3390565b6000828152603360205260409020611038908263ffffffff61131216565b1561064a57611045611016565b6001600160a01b0316816001600160a01b0316837f2f8788117e7eff1d82e926ec794901d17c78024a50270940304540a733656f0d60405160405180910390a45050565b60008281526033602052604090206110a7908263ffffffff61132716565b1561064a576110b4611016565b6001600160a01b0316816001600160a01b0316837ff6391f5c32d9c69d2a47ea670b442974b53935d1edc7fd64eb21e047a839171b60405160405180910390a45050565b604080516923a0a6a2afa0a226a4a760b11b8152905190819003600a0190206111219033610ac4565b611163576040805162461bcd60e51b815260206004820152600e60248201526d2737ba1033b0b6b29030b236b4b760911b604482015290519081900360640190fd5b565b60006111703061133c565b15905090565b600054610100900460ff168061118f575061118f611165565b8061119d575060005460ff16155b6111d85760405162461bcd60e51b815260040180806020018281038252602e8152602001806115ec602e913960400191505060405180910390fd5b600054610100900460ff16158015611203576000805460ff1961ff0019909116610100171660011790555b8015610a9a576000805461ff001916905550565b6000610abb8383611342565b6000610abb836001600160a01b0384166113a6565b33600090815260656020526040902054819063ffffffff80831691161015611291576040805162461bcd60e51b81526020600482015260076024820152664e6f206974656d60c81b604482015290519081900360640190fd5b60665460ff166112d8576040805162461bcd60e51b815260206004820152600d60248201526c125d195b48191a5cd8589b1959609a1b604482015290519081900360640190fd5b50336000908152606560205260409020805463ffffffff19811663ffffffff9182169390930316919091179055565b6000610abe826113be565b6000610abb836001600160a01b0384166113c2565b6000610abb836001600160a01b03841661140c565b3b151590565b815460009082106113845760405162461bcd60e51b815260040180806020018281038252602281526020018061156b6022913960400191505060405180910390fd5b82600001828154811061139357fe5b9060005260206000200154905092915050565b60009081526001919091016020526040902054151590565b5490565b60006113ce83836113a6565b61140457508154600181810184556000848152602080822090930184905584548482528286019093526040902091909155610abe565b506000610abe565b600081815260018301602052604081205480156114c8578354600019808301919081019060009087908390811061143f57fe5b906000526020600020015490508087600001848154811061145c57fe5b60009182526020808320909101929092558281526001898101909252604090209084019055865487908061148c57fe5b60019003818190600052602060002001600090559055866001016000878152602001908152602001600020600090556001945050505050610abe565b6000915050610abe565b828054600181600116156101000203166002900490600052602060002090601f016020900481019282601f1061151357805160ff1916838001178555611540565b82800160010185558215611540579182015b82811115611540578251825591602001919060010190611525565b5061154c929150611550565b5090565b6109bf91905b8082111561154c576000815560010161155656fe456e756d657261626c655365743a20696e646578206f7574206f6620626f756e6473416363657373436f6e74726f6c3a2073656e646572206d75737420626520616e2061646d696e20746f206772616e74416363657373436f6e74726f6c3a2073656e646572206d75737420626520616e2061646d696e20746f207265766f6b65496e697469616c697a61626c653a20636f6e747261637420697320616c726561647920696e697469616c697a6564416363657373436f6e74726f6c3a2063616e206f6e6c792072656e6f756e636520726f6c657320666f722073656c66a26469706673582212202571dfc9db24dfc0a8a083ecae0cb548ffdfaf53bc1824d10dd7b09495a4885064736f6c63430006050033",
  "immutableReferences": {},
  "source": "pragma solidity ^0.6.5;\n\nimport \"./Consumables.sol\";\nimport \"./characters.sol\";\n\ncontract CharacterRenameTagConsumables is Consumables {\n\n    Characters characters;\n\n    uint8 private _minSize;\n    uint8 private _maxSize;\n\n    mapping(uint256 => string) public renames;\n\n    event CharacterRenamed(address indexed owner, uint256 indexed character);\n\n    function initialize(Characters _characters)\n        public\n        initializer\n    {\n        __AccessControl_init_unchained();\n\n        _setupRole(DEFAULT_ADMIN_ROLE, msg.sender);\n\n        _enabled = true;\n\n        characters = _characters;\n        _minSize = 1;\n        _maxSize = 24;\n    }\n\n    function renameCharacter(uint256 characterId, string memory newName) public {\n        require(bytes(newName).length >= _minSize && bytes(newName).length <= _maxSize, 'size not valid');\n        require(characters.ownerOf(characterId) == msg.sender, \"Not the character owner\");\n        consumeItem(1);\n        renames[characterId] = newName;\n        emit CharacterRenamed(msg.sender, characterId);\n    }\n\n    function getCharacterRename(uint256 characterId) public view returns (string memory) {\n        return renames[characterId];\n    }\n\n    function setMinSize(uint8 newMinSize) external isAdmin {\n        require(newMinSize > 0, 'invalid size');\n        _minSize = newMinSize;\n    }\n\n    function setMaxSize(uint8 newMaxSize) external isAdmin {\n        require(newMaxSize > 0, 'invalid size');\n        _maxSize = newMaxSize;\n    }\n\n    function getMinSize() public view returns (uint8){\n        return _minSize;\n    }\n\n    function getMaxSize() public view returns (uint8){\n        return _maxSize;\n    }\n}",
  "sourcePath": "D:\\Work\\MEVN\\cryptoblades-main\\cryptoblades-main\\contracts\\CharacterRenameTagConsumables.sol",
  "compiler": {
    "name": "solc",
    "version": "0.6.5+commit.f956cc89.Emscripten.clang"
  },
  "schemaVersion": "3.4.3",
  "updatedAt": "2021-09-18T03:37:02.144Z",
  "devdoc": {
    "methods": {
      "getRoleAdmin(bytes32)": {
        "details": "Returns the admin role that controls `role`. See {grantRole} and {revokeRole}.     * To change a role's admin, use {_setRoleAdmin}."
      },
      "getRoleMember(bytes32,uint256)": {
        "details": "Returns one of the accounts that have `role`. `index` must be a value between 0 and {getRoleMemberCount}, non-inclusive.     * Role bearers are not sorted in any particular way, and their ordering may change at any point.     * WARNING: When using {getRoleMember} and {getRoleMemberCount}, make sure you perform all queries on the same block. See the following https://forum.openzeppelin.com/t/iterating-over-elements-on-enumerableset-in-openzeppelin-contracts/2296[forum post] for more information."
      },
      "getRoleMemberCount(bytes32)": {
        "details": "Returns the number of accounts that have `role`. Can be used together with {getRoleMember} to enumerate all bearers of a role."
      },
      "grantRole(bytes32,address)": {
        "details": "Grants `role` to `account`.     * If `account` had not been already granted `role`, emits a {RoleGranted} event.     * Requirements:     * - the caller must have ``role``'s admin role."
      },
      "hasRole(bytes32,address)": {
        "details": "Returns `true` if `account` has been granted `role`."
      },
      "renounceRole(bytes32,address)": {
        "details": "Revokes `role` from the calling account.     * Roles are often managed via {grantRole} and {revokeRole}: this function's purpose is to provide a mechanism for accounts to lose their privileges if they are compromised (such as when a trusted device is misplaced).     * If the calling account had been granted `role`, emits a {RoleRevoked} event.     * Requirements:     * - the caller must be `account`."
      },
      "revokeRole(bytes32,address)": {
        "details": "Revokes `role` from `account`.     * If `account` had been granted `role`, emits a {RoleRevoked} event.     * Requirements:     * - the caller must have ``role``'s admin role."
      }
    }
  },
  "userdoc": {
    "methods": {}
  }
}