{
  "contractName": "Junk",
  "abi": [
    {
      "anonymous": false,
      "inputs": [
        {
          "indexed": true,
          "internalType": "address",
          "name": "owner",
          "type": "address"
        },
        {
          "indexed": true,
          "internalType": "address",
          "name": "approved",
          "type": "address"
        },
        {
          "indexed": true,
          "internalType": "uint256",
          "name": "tokenId",
          "type": "uint256"
        }
      ],
      "name": "Approval",
      "type": "event"
    },
    {
      "anonymous": false,
      "inputs": [
        {
          "indexed": true,
          "internalType": "address",
          "name": "owner",
          "type": "address"
        },
        {
          "indexed": true,
          "internalType": "address",
          "name": "operator",
          "type": "address"
        },
        {
          "indexed": false,
          "internalType": "bool",
          "name": "approved",
          "type": "bool"
        }
      ],
      "name": "ApprovalForAll",
      "type": "event"
    },
    {
      "anonymous": false,
      "inputs": [
        {
          "indexed": true,
          "internalType": "uint256",
          "name": "id",
          "type": "uint256"
        },
        {
          "indexed": true,
          "internalType": "address",
          "name": "minter",
          "type": "address"
        }
      ],
      "name": "Minted",
      "type": "event"
    },
    {
      "anonymous": false,
      "inputs": [
        {
          "indexed": true,
          "internalType": "bytes32",
          "name": "role",
          "type": "bytes32"
        },
        {
          "indexed": true,
          "internalType": "bytes32",
          "name": "previousAdminRole",
          "type": "bytes32"
        },
        {
          "indexed": true,
          "internalType": "bytes32",
          "name": "newAdminRole",
          "type": "bytes32"
        }
      ],
      "name": "RoleAdminChanged",
      "type": "event"
    },
    {
      "anonymous": false,
      "inputs": [
        {
          "indexed": true,
          "internalType": "bytes32",
          "name": "role",
          "type": "bytes32"
        },
        {
          "indexed": true,
          "internalType": "address",
          "name": "account",
          "type": "address"
        },
        {
          "indexed": true,
          "internalType": "address",
          "name": "sender",
          "type": "address"
        }
      ],
      "name": "RoleGranted",
      "type": "event"
    },
    {
      "anonymous": false,
      "inputs": [
        {
          "indexed": true,
          "internalType": "bytes32",
          "name": "role",
          "type": "bytes32"
        },
        {
          "indexed": true,
          "internalType": "address",
          "name": "account",
          "type": "address"
        },
        {
          "indexed": true,
          "internalType": "address",
          "name": "sender",
          "type": "address"
        }
      ],
      "name": "RoleRevoked",
      "type": "event"
    },
    {
      "anonymous": false,
      "inputs": [
        {
          "indexed": true,
          "internalType": "address",
          "name": "from",
          "type": "address"
        },
        {
          "indexed": true,
          "internalType": "address",
          "name": "to",
          "type": "address"
        },
        {
          "indexed": true,
          "internalType": "uint256",
          "name": "tokenId",
          "type": "uint256"
        }
      ],
      "name": "Transfer",
      "type": "event"
    },
    {
      "inputs": [],
      "name": "DEFAULT_ADMIN_ROLE",
      "outputs": [
        {
          "internalType": "bytes32",
          "name": "",
          "type": "bytes32"
        }
      ],
      "stateMutability": "view",
      "type": "function"
    },
    {
      "inputs": [],
      "name": "GAME_ADMIN",
      "outputs": [
        {
          "internalType": "bytes32",
          "name": "",
          "type": "bytes32"
        }
      ],
      "stateMutability": "view",
      "type": "function"
    },
    {
      "inputs": [
        {
          "internalType": "address",
          "name": "to",
          "type": "address"
        },
        {
          "internalType": "uint256",
          "name": "tokenId",
          "type": "uint256"
        }
      ],
      "name": "approve",
      "outputs": [],
      "stateMutability": "nonpayable",
      "type": "function"
    },
    {
      "inputs": [
        {
          "internalType": "address",
          "name": "owner",
          "type": "address"
        }
      ],
      "name": "balanceOf",
      "outputs": [
        {
          "internalType": "uint256",
          "name": "",
          "type": "uint256"
        }
      ],
      "stateMutability": "view",
      "type": "function"
    },
    {
      "inputs": [],
      "name": "baseURI",
      "outputs": [
        {
          "internalType": "string",
          "name": "",
          "type": "string"
        }
      ],
      "stateMutability": "view",
      "type": "function"
    },
    {
      "inputs": [
        {
          "internalType": "uint256",
          "name": "tokenId",
          "type": "uint256"
        }
      ],
      "name": "getApproved",
      "outputs": [
        {
          "internalType": "address",
          "name": "",
          "type": "address"
        }
      ],
      "stateMutability": "view",
      "type": "function"
    },
    {
      "inputs": [
        {
          "internalType": "bytes32",
          "name": "role",
          "type": "bytes32"
        }
      ],
      "name": "getRoleAdmin",
      "outputs": [
        {
          "internalType": "bytes32",
          "name": "",
          "type": "bytes32"
        }
      ],
      "stateMutability": "view",
      "type": "function"
    },
    {
      "inputs": [
        {
          "internalType": "bytes32",
          "name": "role",
          "type": "bytes32"
        },
        {
          "internalType": "uint256",
          "name": "index",
          "type": "uint256"
        }
      ],
      "name": "getRoleMember",
      "outputs": [
        {
          "internalType": "address",
          "name": "",
          "type": "address"
        }
      ],
      "stateMutability": "view",
      "type": "function"
    },
    {
      "inputs": [
        {
          "internalType": "bytes32",
          "name": "role",
          "type": "bytes32"
        }
      ],
      "name": "getRoleMemberCount",
      "outputs": [
        {
          "internalType": "uint256",
          "name": "",
          "type": "uint256"
        }
      ],
      "stateMutability": "view",
      "type": "function"
    },
    {
      "inputs": [
        {
          "internalType": "bytes32",
          "name": "role",
          "type": "bytes32"
        },
        {
          "internalType": "address",
          "name": "account",
          "type": "address"
        }
      ],
      "name": "grantRole",
      "outputs": [],
      "stateMutability": "nonpayable",
      "type": "function"
    },
    {
      "inputs": [
        {
          "internalType": "bytes32",
          "name": "role",
          "type": "bytes32"
        },
        {
          "internalType": "address",
          "name": "account",
          "type": "address"
        }
      ],
      "name": "hasRole",
      "outputs": [
        {
          "internalType": "bool",
          "name": "",
          "type": "bool"
        }
      ],
      "stateMutability": "view",
      "type": "function"
    },
    {
      "inputs": [
        {
          "internalType": "address",
          "name": "owner",
          "type": "address"
        },
        {
          "internalType": "address",
          "name": "operator",
          "type": "address"
        }
      ],
      "name": "isApprovedForAll",
      "outputs": [
        {
          "internalType": "bool",
          "name": "",
          "type": "bool"
        }
      ],
      "stateMutability": "view",
      "type": "function"
    },
    {
      "inputs": [],
      "name": "name",
      "outputs": [
        {
          "internalType": "string",
          "name": "",
          "type": "string"
        }
      ],
      "stateMutability": "view",
      "type": "function"
    },
    {
      "inputs": [
        {
          "internalType": "uint256",
          "name": "tokenId",
          "type": "uint256"
        }
      ],
      "name": "ownerOf",
      "outputs": [
        {
          "internalType": "address",
          "name": "",
          "type": "address"
        }
      ],
      "stateMutability": "view",
      "type": "function"
    },
    {
      "inputs": [],
      "name": "promos",
      "outputs": [
        {
          "internalType": "contract Promos",
          "name": "",
          "type": "address"
        }
      ],
      "stateMutability": "view",
      "type": "function"
    },
    {
      "inputs": [
        {
          "internalType": "bytes32",
          "name": "role",
          "type": "bytes32"
        },
        {
          "internalType": "address",
          "name": "account",
          "type": "address"
        }
      ],
      "name": "renounceRole",
      "outputs": [],
      "stateMutability": "nonpayable",
      "type": "function"
    },
    {
      "inputs": [
        {
          "internalType": "bytes32",
          "name": "role",
          "type": "bytes32"
        },
        {
          "internalType": "address",
          "name": "account",
          "type": "address"
        }
      ],
      "name": "revokeRole",
      "outputs": [],
      "stateMutability": "nonpayable",
      "type": "function"
    },
    {
      "inputs": [
        {
          "internalType": "address",
          "name": "from",
          "type": "address"
        },
        {
          "internalType": "address",
          "name": "to",
          "type": "address"
        },
        {
          "internalType": "uint256",
          "name": "tokenId",
          "type": "uint256"
        }
      ],
      "name": "safeTransferFrom",
      "outputs": [],
      "stateMutability": "nonpayable",
      "type": "function"
    },
    {
      "inputs": [
        {
          "internalType": "address",
          "name": "from",
          "type": "address"
        },
        {
          "internalType": "address",
          "name": "to",
          "type": "address"
        },
        {
          "internalType": "uint256",
          "name": "tokenId",
          "type": "uint256"
        },
        {
          "internalType": "bytes",
          "name": "_data",
          "type": "bytes"
        }
      ],
      "name": "safeTransferFrom",
      "outputs": [],
      "stateMutability": "nonpayable",
      "type": "function"
    },
    {
      "inputs": [
        {
          "internalType": "address",
          "name": "operator",
          "type": "address"
        },
        {
          "internalType": "bool",
          "name": "approved",
          "type": "bool"
        }
      ],
      "name": "setApprovalForAll",
      "outputs": [],
      "stateMutability": "nonpayable",
      "type": "function"
    },
    {
      "inputs": [
        {
          "internalType": "bytes4",
          "name": "interfaceId",
          "type": "bytes4"
        }
      ],
      "name": "supportsInterface",
      "outputs": [
        {
          "internalType": "bool",
          "name": "",
          "type": "bool"
        }
      ],
      "stateMutability": "view",
      "type": "function"
    },
    {
      "inputs": [],
      "name": "symbol",
      "outputs": [
        {
          "internalType": "string",
          "name": "",
          "type": "string"
        }
      ],
      "stateMutability": "view",
      "type": "function"
    },
    {
      "inputs": [
        {
          "internalType": "uint256",
          "name": "index",
          "type": "uint256"
        }
      ],
      "name": "tokenByIndex",
      "outputs": [
        {
          "internalType": "uint256",
          "name": "",
          "type": "uint256"
        }
      ],
      "stateMutability": "view",
      "type": "function"
    },
    {
      "inputs": [
        {
          "internalType": "address",
          "name": "owner",
          "type": "address"
        },
        {
          "internalType": "uint256",
          "name": "index",
          "type": "uint256"
        }
      ],
      "name": "tokenOfOwnerByIndex",
      "outputs": [
        {
          "internalType": "uint256",
          "name": "",
          "type": "uint256"
        }
      ],
      "stateMutability": "view",
      "type": "function"
    },
    {
      "inputs": [
        {
          "internalType": "uint256",
          "name": "",
          "type": "uint256"
        }
      ],
      "name": "tokenStars",
      "outputs": [
        {
          "internalType": "uint8",
          "name": "",
          "type": "uint8"
        }
      ],
      "stateMutability": "view",
      "type": "function"
    },
    {
      "inputs": [
        {
          "internalType": "uint256",
          "name": "tokenId",
          "type": "uint256"
        }
      ],
      "name": "tokenURI",
      "outputs": [
        {
          "internalType": "string",
          "name": "",
          "type": "string"
        }
      ],
      "stateMutability": "view",
      "type": "function"
    },
    {
      "inputs": [],
      "name": "totalSupply",
      "outputs": [
        {
          "internalType": "uint256",
          "name": "",
          "type": "uint256"
        }
      ],
      "stateMutability": "view",
      "type": "function"
    },
    {
      "inputs": [
        {
          "internalType": "address",
          "name": "from",
          "type": "address"
        },
        {
          "internalType": "address",
          "name": "to",
          "type": "address"
        },
        {
          "internalType": "uint256",
          "name": "tokenId",
          "type": "uint256"
        }
      ],
      "name": "transferFrom",
      "outputs": [],
      "stateMutability": "nonpayable",
      "type": "function"
    },
    {
      "inputs": [
        {
          "internalType": "contract Promos",
          "name": "_promos",
          "type": "address"
        }
      ],
      "name": "initialize",
      "outputs": [],
      "stateMutability": "nonpayable",
      "type": "function"
    },
    {
      "inputs": [
        {
          "internalType": "uint256",
          "name": "id",
          "type": "uint256"
        }
      ],
      "name": "get",
      "outputs": [
        {
          "internalType": "uint8",
          "name": "_stars",
          "type": "uint8"
        }
      ],
      "stateMutability": "view",
      "type": "function"
    },
    {
      "inputs": [],
      "name": "getOwned",
      "outputs": [
        {
          "internalType": "uint256[]",
          "name": "",
          "type": "uint256[]"
        }
      ],
      "stateMutability": "view",
      "type": "function"
    },
    {
      "inputs": [
        {
          "internalType": "address",
          "name": "owner",
          "type": "address"
        }
      ],
      "name": "getOwnedBy",
      "outputs": [
        {
          "internalType": "uint256[]",
          "name": "",
          "type": "uint256[]"
        }
      ],
      "stateMutability": "view",
      "type": "function"
    },
    {
      "inputs": [
        {
          "internalType": "address",
          "name": "minter",
          "type": "address"
        },
        {
          "internalType": "uint8",
          "name": "mintStars",
          "type": "uint8"
        }
      ],
      "name": "mint",
      "outputs": [
        {
          "internalType": "uint256",
          "name": "",
          "type": "uint256"
        }
      ],
      "stateMutability": "nonpayable",
      "type": "function"
    }
  ],
  "bytecode": "0x608060405234801561001057600080fd5b50612a2f806100206000396000f3fe608060405234801561001057600080fd5b50600436106101fb5760003560e01c8063691562a01161011a578063a22cb465116100ad578063c87b56dd1161007c578063c87b56dd1461070e578063ca15c8731461072b578063d547741f14610748578063e291298f14610774578063e985e9c51461079a576101fb565b8063a22cb4651461059c578063b88d4fde146105ca578063c302752514610690578063c4d66de8146106e8576101fb565b806391d14854116100e957806391d14854146105435780639507d39a1461056f57806395d89b411461058c578063a217fddf14610594576101fb565b8063691562a0146104c35780636c0360eb146104f257806370a08231146104fa5780639010d07c14610520576101fb565b80632f2ff15d116101925780634f6ccce7116101615780634f6ccce71461047957806351e717ac146104965780635504d3d21461049e5780636352211e146104a6576101fb565b80632f2ff15d146103bf5780632f745c59146103eb57806336568abe1461041757806342842e0e14610443576101fb565b806318160ddd116101ce57806318160ddd1461031f5780631cfb777e1461033957806323b872dd1461036c578063248a9ca3146103a2576101fb565b806301ffc9a71461020057806306fdde031461023b578063081812fc146102b8578063095ea7b3146102f1575b600080fd5b6102276004803603602081101561021657600080fd5b50356001600160e01b0319166107c8565b604080519115158252519081900360200190f35b6102436107eb565b6040805160208082528351818301528351919283929083019185019080838360005b8381101561027d578181015183820152602001610265565b50505050905090810190601f1680156102aa5780820380516001836020036101000a031916815260200191505b509250505060405180910390f35b6102d5600480360360208110156102ce57600080fd5b5035610882565b604080516001600160a01b039092168252519081900360200190f35b61031d6004803603604081101561030757600080fd5b506001600160a01b0381351690602001356108e4565b005b6103276109bf565b60408051918252519081900360200190f35b6103566004803603602081101561034f57600080fd5b50356109d0565b6040805160ff9092168252519081900360200190f35b61031d6004803603606081101561038257600080fd5b506001600160a01b038135811691602081013590911690604001356109e5565b610327600480360360208110156103b857600080fd5b5035610a3c565b61031d600480360360408110156103d557600080fd5b50803590602001356001600160a01b0316610a51565b6103276004803603604081101561040157600080fd5b506001600160a01b038135169060200135610abd565b61031d6004803603604081101561042d57600080fd5b50803590602001356001600160a01b0316610aee565b61031d6004803603606081101561045957600080fd5b506001600160a01b03813581169160208101359091169060400135610b4f565b6103276004803603602081101561048f57600080fd5b5035610b6a565b6102d5610b86565b610327610b95565b6102d5600480360360208110156104bc57600080fd5b5035610bb7565b610327600480360360408110156104d957600080fd5b5080356001600160a01b0316906020013560ff16610be5565b610243610cc1565b6103276004803603602081101561051057600080fd5b50356001600160a01b0316610d22565b6102d56004803603604081101561053657600080fd5b5080359060200135610d8a565b6102276004803603604081101561055957600080fd5b50803590602001356001600160a01b0316610da8565b6103566004803603602081101561058557600080fd5b5035610dc6565b610243610ddb565b610327610e3c565b61031d600480360360408110156105b257600080fd5b506001600160a01b0381351690602001351515610e41565b61031d600480360360808110156105e057600080fd5b6001600160a01b0382358116926020810135909116916040820135919081019060808101606082013564010000000081111561061b57600080fd5b82018360208201111561062d57600080fd5b8035906020019184600183028401116401000000008311171561064f57600080fd5b91908080601f016020809104026020016040519081016040528093929190818152602001838380828437600092019190915250929550610f46945050505050565b610698610fa4565b60408051602080825283518183015283519192839290830191858101910280838360005b838110156106d45781810151838201526020016106bc565b505050509050019250505060405180910390f35b61031d600480360360208110156106fe57600080fd5b50356001600160a01b0316610faf565b6102436004803603602081101561072457600080fd5b50356110cd565b6103276004803603602081101561074157600080fd5b5035611350565b61031d6004803603604081101561075e57600080fd5b50803590602001356001600160a01b0316611367565b6106986004803603602081101561078a57600080fd5b50356001600160a01b03166113c0565b610227600480360360408110156107b057600080fd5b506001600160a01b038135811691602001351661144b565b6001600160e01b0319811660009081526033602052604090205460ff165b919050565b606a8054604080516020601f60026000196101006001881615020190951694909404938401819004810282018101909252828152606093909290918301828280156108775780601f1061084c57610100808354040283529160200191610877565b820191906000526020600020905b81548152906001019060200180831161085a57829003601f168201915b505050505090505b90565b600061088d82611479565b6108c85760405162461bcd60e51b815260040180806020018281038252602c8152602001806128f5602c913960400191505060405180910390fd5b506000908152606860205260409020546001600160a01b031690565b60006108ef82610bb7565b9050806001600160a01b0316836001600160a01b031614156109425760405162461bcd60e51b81526004018080602001828103825260218152602001806129796021913960400191505060405180910390fd5b806001600160a01b031661095461148c565b6001600160a01b0316148061097557506109758161097061148c565b61144b565b6109b05760405162461bcd60e51b815260040180806020018281038252603881526020018061281a6038913960400191505060405180910390fd5b6109ba8383611490565b505050565b60006109cb60666114fe565b905090565b60ca6020526000908152604090205460ff1681565b6109f66109f061148c565b82611509565b610a315760405162461bcd60e51b815260040180806020018281038252603181526020018061299a6031913960400191505060405180910390fd5b6109ba8383836115ad565b60009081526097602052604090206002015490565b600082815260976020526040902060020154610a7490610a6f61148c565b610da8565b610aaf5760405162461bcd60e51b815260040180806020018281038252602f815260200180612713602f913960400191505060405180910390fd5b610ab9828261170b565b5050565b6001600160a01b0382166000908152606560205260408120610ae5908363ffffffff61177a16565b90505b92915050565b610af661148c565b6001600160a01b0316816001600160a01b031614610b455760405162461bcd60e51b815260040180806020018281038252602f8152602001806129cb602f913960400191505060405180910390fd5b610ab98282611786565b6109ba83838360405180602001604052806000815250610f46565b600080610b7e60668463ffffffff6117f516565b509392505050565b60c9546001600160a01b031681565b604080516923a0a6a2afa0a226a4a760b11b8152905190819003600a01902081565b6000610ae88260405180606001604052806029815260200161287c602991396066919063ffffffff61181116565b604080516923a0a6a2afa0a226a4a760b11b8152905190819003600a019020600090610c119033610da8565b610c53576040805162461bcd60e51b815260206004820152600e60248201526d2737ba1033b0b6b29030b236b4b760911b604482015290519081900360640190fd5b6000610c5d6109bf565b600081815260ca60205260409020805460ff191660ff86161790559050610c848482611828565b6040516001600160a01b0385169082907fb9203d657e9c0ec8274c818292ab0f58b04e1970050716891770eb1bab5d655e90600090a39392505050565b606d8054604080516020601f60026000196101006001881615020190951694909404938401819004810282018101909252828152606093909290918301828280156108775780601f1061084c57610100808354040283529160200191610877565b60006001600160a01b038216610d695760405162461bcd60e51b815260040180806020018281038252602a815260200180612852602a913960400191505060405180910390fd5b6001600160a01b0382166000908152606560205260409020610ae8906114fe565b6000828152609760205260408120610ae5908363ffffffff61177a16565b6000828152609760205260408120610ae5908363ffffffff61196216565b600090815260ca602052604090205460ff1690565b606b8054604080516020601f60026000196101006001881615020190951694909404938401819004810282018101909252828152606093909290918301828280156108775780601f1061084c57610100808354040283529160200191610877565b600081565b610e4961148c565b6001600160a01b0316826001600160a01b03161415610eaf576040805162461bcd60e51b815260206004820152601960248201527f4552433732313a20617070726f766520746f2063616c6c657200000000000000604482015290519081900360640190fd5b8060696000610ebc61148c565b6001600160a01b03908116825260208083019390935260409182016000908120918716808252919093529120805460ff191692151592909217909155610f0061148c565b60408051841515815290516001600160a01b0392909216917f17307eab39ab6107e8899845ad3d59bd9653f200f220920489ca2b5937696c319181900360200190a35050565b610f57610f5161148c565b83611509565b610f925760405162461bcd60e51b815260040180806020018281038252603181526020018061299a6031913960400191505060405180910390fd5b610f9e84848484611977565b50505050565b60606109cb336113c0565b600054610100900460ff1680610fc85750610fc86119c9565b80610fd6575060005460ff16155b6110115760405162461bcd60e51b815260040180806020018281038252602e8152602001806128a5602e913960400191505060405180910390fd5b600054610100900460ff1615801561103c576000805460ff1961ff0019909116610100171660011790555b61108a6040518060400160405280601181526020017043727970746f426c61646573204a756e6b60781b8152506040518060400160405280600381526020016221a12560e91b8152506119da565b611092611a97565b61109d600033610aaf565b60c980546001600160a01b0319166001600160a01b0384161790558015610ab9576000805461ff00191690555050565b60606110d882611479565b6111135760405162461bcd60e51b815260040180806020018281038252602f81526020018061294a602f913960400191505060405180910390fd5b6000828152606c602090815260409182902080548351601f60026000196101006001861615020190931692909204918201849004840281018401909452808452606093928301828280156111a85780601f1061117d576101008083540402835291602001916111a8565b820191906000526020600020905b81548152906001019060200180831161118b57829003601f168201915b5050505050905060606111b9610cc1565b90508051600014156111cd575090506107e6565b81511561128e5780826040516020018083805190602001908083835b602083106112085780518252601f1990920191602091820191016111e9565b51815160209384036101000a600019018019909216911617905285519190930192850191508083835b602083106112505780518252601f199092019160209182019101611231565b6001836020036101000a03801982511681845116808217855250505050505090500192505050604051602081830303815290604052925050506107e6565b8061129885611b39565b6040516020018083805190602001908083835b602083106112ca5780518252601f1990920191602091820191016112ab565b51815160209384036101000a600019018019909216911617905285519190930192850191508083835b602083106113125780518252601f1990920191602091820191016112f3565b6001836020036101000a0380198251168184511680821785525050505050509050019250505060405160208183030381529060405292505050919050565b6000818152609760205260408120610ae8906114fe565b60008281526097602052604090206002015461138590610a6f61148c565b610b455760405162461bcd60e51b81526004018080602001828103825260308152602001806127ea6030913960400191505060405180910390fd5b6060806113cc83610d22565b67ffffffffffffffff811180156113e257600080fd5b5060405190808252806020026020018201604052801561140c578160200160208202803683370190505b50905060005b8151811015611444576114258482610abd565b82828151811061143157fe5b6020908102919091010152600101611412565b5092915050565b6001600160a01b03918216600090815260696020908152604080832093909416825291909152205460ff1690565b6000610ae860668363ffffffff611c1416565b3390565b600081815260686020526040902080546001600160a01b0319166001600160a01b03841690811790915581906114c582610bb7565b6001600160a01b03167f8c5be1e5ebec7d5bd14f71427d1e84f3dd0314c0f7b2291e5b200ac8c7c3b92560405160405180910390a45050565b6000610ae882611c20565b600061151482611479565b61154f5760405162461bcd60e51b815260040180806020018281038252602c8152602001806127be602c913960400191505060405180910390fd5b600061155a83610bb7565b9050806001600160a01b0316846001600160a01b031614806115955750836001600160a01b031661158a84610882565b6001600160a01b0316145b806115a557506115a5818561144b565b949350505050565b826001600160a01b03166115c082610bb7565b6001600160a01b0316146116055760405162461bcd60e51b81526004018080602001828103825260298152602001806129216029913960400191505060405180910390fd5b6001600160a01b03821661164a5760405162461bcd60e51b81526004018080602001828103825260248152602001806127746024913960400191505060405180910390fd5b611655838383611c24565b611660600082611490565b6001600160a01b0383166000908152606560205260409020611688908263ffffffff611d3b16565b506001600160a01b03821660009081526065602052604090206116b1908263ffffffff611d4716565b506116c46066828463ffffffff611d5316565b5080826001600160a01b0316846001600160a01b03167fddf252ad1be2c89b69c2b068fc378daa952ba7f163c4a11628f55a4df523b3ef60405160405180910390a4505050565b6000828152609760205260409020611729908263ffffffff611d6916565b15610ab95761173661148c565b6001600160a01b0316816001600160a01b0316837f2f8788117e7eff1d82e926ec794901d17c78024a50270940304540a733656f0d60405160405180910390a45050565b6000610ae58383611d7e565b60008281526097602052604090206117a4908263ffffffff611de216565b15610ab9576117b161148c565b6001600160a01b0316816001600160a01b0316837ff6391f5c32d9c69d2a47ea670b442974b53935d1edc7fd64eb21e047a839171b60405160405180910390a45050565b60008080806118048686611df7565b9097909650945050505050565b600061181e848484611e72565b90505b9392505050565b6001600160a01b038216611883576040805162461bcd60e51b815260206004820181905260248201527f4552433732313a206d696e7420746f20746865207a65726f2061646472657373604482015290519081900360640190fd5b61188c81611479565b156118de576040805162461bcd60e51b815260206004820152601c60248201527f4552433732313a20746f6b656e20616c7265616479206d696e74656400000000604482015290519081900360640190fd5b6118ea60008383611c24565b6001600160a01b0382166000908152606560205260409020611912908263ffffffff611d4716565b506119256066828463ffffffff611d5316565b5060405181906001600160a01b038416906000907fddf252ad1be2c89b69c2b068fc378daa952ba7f163c4a11628f55a4df523b3ef908290a45050565b6000610ae5836001600160a01b038416611f3c565b6119828484846115ad565b61198e84848484611f54565b610f9e5760405162461bcd60e51b81526004018080602001828103825260328152602001806127426032913960400191505060405180910390fd5b60006119d4306120d4565b15905090565b600054610100900460ff16806119f357506119f36119c9565b80611a01575060005460ff16155b611a3c5760405162461bcd60e51b815260040180806020018281038252602e8152602001806128a5602e913960400191505060405180910390fd5b600054610100900460ff16158015611a67576000805460ff1961ff0019909116610100171660011790555b611a6f611a97565b611a776120da565b611a818383612177565b80156109ba576000805461ff0019169055505050565b600054610100900460ff1680611ab05750611ab06119c9565b80611abe575060005460ff16155b611af95760405162461bcd60e51b815260040180806020018281038252602e8152602001806128a5602e913960400191505060405180910390fd5b600054610100900460ff16158015611b24576000805460ff1961ff0019909116610100171660011790555b8015611b36576000805461ff00191690555b50565b606081611b5e57506040805180820190915260018152600360fc1b60208201526107e6565b8160005b8115611b7657600101600a82049150611b62565b60608167ffffffffffffffff81118015611b8f57600080fd5b506040519080825280601f01601f191660200182016040528015611bba576020820181803683370190505b50859350905060001982015b8315611c0b57600a840660300160f81b82828060019003935081518110611be957fe5b60200101906001600160f81b031916908160001a905350600a84049350611bc6565b50949350505050565b6000610ae58383611f3c565b5490565b60c9546040805163434d82a360e01b81526001600160a01b0386811660048381019190915260248301529151919092169163434d82a3916044808301926020929190829003018186803b158015611c7a57600080fd5b505afa158015611c8e573d6000803e3d6000fd5b505050506040513d6020811015611ca457600080fd5b5051158015611d32575060c9546040805163434d82a360e01b81526001600160a01b0385811660048381019190915260248301529151919092169163434d82a3916044808301926020929190829003018186803b158015611d0457600080fd5b505afa158015611d18573d6000803e3d6000fd5b505050506040513d6020811015611d2e57600080fd5b5051155b6109ba57600080fd5b6000610ae5838361225c565b6000610ae58383612322565b600061181e84846001600160a01b03851661236c565b6000610ae5836001600160a01b038416612322565b81546000908210611dc05760405162461bcd60e51b81526004018080602001828103825260228152602001806126f16022913960400191505060405180910390fd5b826000018281548110611dcf57fe5b9060005260206000200154905092915050565b6000610ae5836001600160a01b03841661225c565b815460009081908310611e3b5760405162461bcd60e51b81526004018080602001828103825260228152602001806128d36022913960400191505060405180910390fd5b6000846000018481548110611e4c57fe5b906000526020600020906002020190508060000154816001015492509250509250929050565b60008281526001840160205260408120548281611f0d5760405162461bcd60e51b81526004018080602001828103825283818151815260200191508051906020019080838360005b83811015611ed2578181015183820152602001611eba565b50505050905090810190601f168015611eff5780820380516001836020036101000a031916815260200191505b509250505060405180910390fd5b50846000016001820381548110611f2057fe5b9060005260206000209060020201600101549150509392505050565b60009081526001919091016020526040902054151590565b6000611f68846001600160a01b03166120d4565b611f74575060016115a5565b606061209a630a85bd0160e11b611f8961148c565b88878760405160240180856001600160a01b03166001600160a01b03168152602001846001600160a01b03166001600160a01b0316815260200183815260200180602001828103825283818151815260200191508051906020019080838360005b83811015612002578181015183820152602001611fea565b50505050905090810190601f16801561202f5780820380516001836020036101000a031916815260200191505b5095505050505050604051602081830303815290604052906001600160e01b0319166020820180516001600160e01b038381831617835250505050604051806060016040528060328152602001612742603291396001600160a01b038816919063ffffffff61240316565b905060008180602001905160208110156120b357600080fd5b50516001600160e01b031916630a85bd0160e11b1492505050949350505050565b3b151590565b600054610100900460ff16806120f357506120f36119c9565b80612101575060005460ff16155b61213c5760405162461bcd60e51b815260040180806020018281038252602e8152602001806128a5602e913960400191505060405180910390fd5b600054610100900460ff16158015612167576000805460ff1961ff0019909116610100171660011790555b611b246301ffc9a760e01b612412565b600054610100900460ff168061219057506121906119c9565b8061219e575060005460ff16155b6121d95760405162461bcd60e51b815260040180806020018281038252602e8152602001806128a5602e913960400191505060405180910390fd5b600054610100900460ff16158015612204576000805460ff1961ff0019909116610100171660011790555b825161221790606a906020860190612658565b50815161222b90606b906020850190612658565b5061223c6380ac58cd60e01b612412565b61224c635b5e139f60e01b612412565b611a8163780e9d6360e01b612412565b60008181526001830160205260408120548015612318578354600019808301919081019060009087908390811061228f57fe5b90600052602060002001549050808760000184815481106122ac57fe5b6000918252602080832090910192909255828152600189810190925260409020908401905586548790806122dc57fe5b60019003818190600052602060002001600090559055866001016000878152602001908152602001600020600090556001945050505050610ae8565b6000915050610ae8565b600061232e8383611f3c565b61236457508154600181810184556000848152602080822090930184905584548482528286019093526040902091909155610ae8565b506000610ae8565b6000828152600184016020526040812054806123d1575050604080518082018252838152602080820184815286546001818101895560008981528481209551600290930290950191825591519082015586548684528188019092529290912055611821565b828560000160018303815481106123e457fe5b9060005260206000209060020201600101819055506000915050611821565b606061181e8484600085612496565b6001600160e01b03198082161415612471576040805162461bcd60e51b815260206004820152601c60248201527f4552433136353a20696e76616c696420696e7465726661636520696400000000604482015290519081900360640190fd5b6001600160e01b0319166000908152603360205260409020805460ff19166001179055565b6060824710156124d75760405162461bcd60e51b81526004018080602001828103825260268152602001806127986026913960400191505060405180910390fd5b6124e0856120d4565b612531576040805162461bcd60e51b815260206004820152601d60248201527f416464726573733a2063616c6c20746f206e6f6e2d636f6e7472616374000000604482015290519081900360640190fd5b60006060866001600160a01b031685876040518082805190602001908083835b602083106125705780518252601f199092019160209182019101612551565b6001836020036101000a03801982511681845116808217855250505050505090500191505060006040518083038185875af1925050503d80600081146125d2576040519150601f19603f3d011682016040523d82523d6000602084013e6125d7565b606091505b50915091506125e78282866125f2565b979650505050505050565b60608315612601575081611821565b8251156126115782518084602001fd5b60405162461bcd60e51b8152602060048201818152845160248401528451859391928392604401919085019080838360008315611ed2578181015183820152602001611eba565b828054600181600116156101000203166002900490600052602060002090601f016020900481019282601f1061269957805160ff19168380011785556126c6565b828001600101855582156126c6579182015b828111156126c65782518255916020019190600101906126ab565b506126d29291506126d6565b5090565b61087f91905b808211156126d257600081556001016126dc56fe456e756d657261626c655365743a20696e646578206f7574206f6620626f756e6473416363657373436f6e74726f6c3a2073656e646572206d75737420626520616e2061646d696e20746f206772616e744552433732313a207472616e7366657220746f206e6f6e20455243373231526563656976657220696d706c656d656e7465724552433732313a207472616e7366657220746f20746865207a65726f2061646472657373416464726573733a20696e73756666696369656e742062616c616e636520666f722063616c6c4552433732313a206f70657261746f7220717565727920666f72206e6f6e6578697374656e7420746f6b656e416363657373436f6e74726f6c3a2073656e646572206d75737420626520616e2061646d696e20746f207265766f6b654552433732313a20617070726f76652063616c6c6572206973206e6f74206f776e6572206e6f7220617070726f76656420666f7220616c6c4552433732313a2062616c616e636520717565727920666f7220746865207a65726f20616464726573734552433732313a206f776e657220717565727920666f72206e6f6e6578697374656e7420746f6b656e496e697469616c697a61626c653a20636f6e747261637420697320616c726561647920696e697469616c697a6564456e756d657261626c654d61703a20696e646578206f7574206f6620626f756e64734552433732313a20617070726f76656420717565727920666f72206e6f6e6578697374656e7420746f6b656e4552433732313a207472616e73666572206f6620746f6b656e2074686174206973206e6f74206f776e4552433732314d657461646174613a2055524920717565727920666f72206e6f6e6578697374656e7420746f6b656e4552433732313a20617070726f76616c20746f2063757272656e74206f776e65724552433732313a207472616e736665722063616c6c6572206973206e6f74206f776e6572206e6f7220617070726f766564416363657373436f6e74726f6c3a2063616e206f6e6c792072656e6f756e636520726f6c657320666f722073656c66a2646970667358221220db574fca525660da76037755b39a686d79fe14398e6a50d7d4469eb55520762864736f6c63430006050033",
  "immutableReferences": {},
  "source": "pragma solidity ^0.6.0;\n\nimport \"@openzeppelin/contracts-upgradeable/proxy/Initializable.sol\";\nimport \"@openzeppelin/contracts-upgradeable/token/ERC721/ERC721Upgradeable.sol\";\nimport \"@openzeppelin/contracts-upgradeable/access/AccessControlUpgradeable.sol\";\nimport \"@openzeppelin/contracts/math/SafeMath.sol\";\nimport \"abdk-libraries-solidity/ABDKMath64x64.sol\";\nimport \"../Promos.sol\";\n\ncontract Junk is Initializable, ERC721Upgradeable, AccessControlUpgradeable {\n\n    bytes32 public constant GAME_ADMIN = keccak256(\"GAME_ADMIN\");\n\n    function initialize (Promos _promos) public initializer {\n        __ERC721_init(\"CryptoBlades Junk\", \"CBJ\");\n        __AccessControl_init_unchained();\n\n        _setupRole(DEFAULT_ADMIN_ROLE, msg.sender);\n\n        promos = _promos;\n    }\n\n    Promos public promos;\n\n    mapping(uint256 => uint8) public tokenStars;\n    \n    event Minted(uint256 indexed id, address indexed minter);\n\n    modifier restricted() {\n        require(hasRole(GAME_ADMIN, msg.sender), \"Not game admin\");\n        _;\n    }\n\n    function get(uint256 id) public view\n        returns (\n            uint8 _stars\n    ) {\n        _stars = tokenStars[id];\n    }\n\n    function getOwned() public view returns(uint256[] memory) {\n        return getOwnedBy(msg.sender);\n    }\n\n    function getOwnedBy(address owner) public view returns(uint256[] memory) {\n        uint256[] memory tokens = new uint256[](balanceOf(owner));\n        for(uint256 i = 0; i < tokens.length; i++) {\n            tokens[i] = tokenOfOwnerByIndex(owner, i);\n        }\n        return tokens;\n    }\n\n    function mint(address minter, uint8 mintStars) public restricted returns(uint256) {\n\n        uint256 tokenID = totalSupply();\n        tokenStars[tokenID] = mintStars;\n        _mint(minter, tokenID);\n        emit Minted(tokenID, minter);\n        return tokenID;\n    }\n\n    function _beforeTokenTransfer(address from, address to, uint256 tokenId) internal override {\n        require(promos.getBit(from, 4) == false && promos.getBit(to, 4) == false);\n    }\n\n}",
  "sourcePath": "D:\\Work\\MEVN\\cryptoblades-main\\cryptoblades-main\\contracts\\items\\Junk.sol",
  "compiler": {
    "name": "solc",
    "version": "0.6.5+commit.f956cc89.Emscripten.clang"
  },
  "schemaVersion": "3.4.3",
  "updatedAt": "2021-09-18T03:37:02.510Z",
  "devdoc": {
    "methods": {
      "approve(address,uint256)": {
        "details": "See {IERC721-approve}."
      },
      "balanceOf(address)": {
        "details": "See {IERC721-balanceOf}."
      },
      "baseURI()": {
        "details": "Returns the base URI set via {_setBaseURI}. This will be automatically added as a prefix in {tokenURI} to each token's URI, or to the token ID if no specific URI is set for that token ID."
      },
      "getApproved(uint256)": {
        "details": "See {IERC721-getApproved}."
      },
      "getRoleAdmin(bytes32)": {
        "details": "Returns the admin role that controls `role`. See {grantRole} and {revokeRole}.     * To change a role's admin, use {_setRoleAdmin}."
      },
      "getRoleMember(bytes32,uint256)": {
        "details": "Returns one of the accounts that have `role`. `index` must be a value between 0 and {getRoleMemberCount}, non-inclusive.     * Role bearers are not sorted in any particular way, and their ordering may change at any point.     * WARNING: When using {getRoleMember} and {getRoleMemberCount}, make sure you perform all queries on the same block. See the following https://forum.openzeppelin.com/t/iterating-over-elements-on-enumerableset-in-openzeppelin-contracts/2296[forum post] for more information."
      },
      "getRoleMemberCount(bytes32)": {
        "details": "Returns the number of accounts that have `role`. Can be used together with {getRoleMember} to enumerate all bearers of a role."
      },
      "grantRole(bytes32,address)": {
        "details": "Grants `role` to `account`.     * If `account` had not been already granted `role`, emits a {RoleGranted} event.     * Requirements:     * - the caller must have ``role``'s admin role."
      },
      "hasRole(bytes32,address)": {
        "details": "Returns `true` if `account` has been granted `role`."
      },
      "isApprovedForAll(address,address)": {
        "details": "See {IERC721-isApprovedForAll}."
      },
      "name()": {
        "details": "See {IERC721Metadata-name}."
      },
      "ownerOf(uint256)": {
        "details": "See {IERC721-ownerOf}."
      },
      "renounceRole(bytes32,address)": {
        "details": "Revokes `role` from the calling account.     * Roles are often managed via {grantRole} and {revokeRole}: this function's purpose is to provide a mechanism for accounts to lose their privileges if they are compromised (such as when a trusted device is misplaced).     * If the calling account had been granted `role`, emits a {RoleRevoked} event.     * Requirements:     * - the caller must be `account`."
      },
      "revokeRole(bytes32,address)": {
        "details": "Revokes `role` from `account`.     * If `account` had been granted `role`, emits a {RoleRevoked} event.     * Requirements:     * - the caller must have ``role``'s admin role."
      },
      "safeTransferFrom(address,address,uint256)": {
        "details": "See {IERC721-safeTransferFrom}."
      },
      "safeTransferFrom(address,address,uint256,bytes)": {
        "details": "See {IERC721-safeTransferFrom}."
      },
      "setApprovalForAll(address,bool)": {
        "details": "See {IERC721-setApprovalForAll}."
      },
      "supportsInterface(bytes4)": {
        "details": "See {IERC165-supportsInterface}.     * Time complexity O(1), guaranteed to always use less than 30 000 gas."
      },
      "symbol()": {
        "details": "See {IERC721Metadata-symbol}."
      },
      "tokenByIndex(uint256)": {
        "details": "See {IERC721Enumerable-tokenByIndex}."
      },
      "tokenOfOwnerByIndex(address,uint256)": {
        "details": "See {IERC721Enumerable-tokenOfOwnerByIndex}."
      },
      "tokenURI(uint256)": {
        "details": "See {IERC721Metadata-tokenURI}."
      },
      "totalSupply()": {
        "details": "See {IERC721Enumerable-totalSupply}."
      },
      "transferFrom(address,address,uint256)": {
        "details": "See {IERC721-transferFrom}."
      }
    }
  },
  "userdoc": {
    "methods": {}
  }
}