{
  "contractName": "KeyLootbox",
  "abi": [
    {
      "anonymous": false,
      "inputs": [
        {
          "indexed": true,
          "internalType": "address",
          "name": "owner",
          "type": "address"
        },
        {
          "indexed": true,
          "internalType": "address",
          "name": "approved",
          "type": "address"
        },
        {
          "indexed": true,
          "internalType": "uint256",
          "name": "tokenId",
          "type": "uint256"
        }
      ],
      "name": "Approval",
      "type": "event"
    },
    {
      "anonymous": false,
      "inputs": [
        {
          "indexed": true,
          "internalType": "address",
          "name": "owner",
          "type": "address"
        },
        {
          "indexed": true,
          "internalType": "address",
          "name": "operator",
          "type": "address"
        },
        {
          "indexed": false,
          "internalType": "bool",
          "name": "approved",
          "type": "bool"
        }
      ],
      "name": "ApprovalForAll",
      "type": "event"
    },
    {
      "anonymous": false,
      "inputs": [
        {
          "indexed": true,
          "internalType": "uint256",
          "name": "id",
          "type": "uint256"
        },
        {
          "indexed": true,
          "internalType": "address",
          "name": "minter",
          "type": "address"
        }
      ],
      "name": "Minted",
      "type": "event"
    },
    {
      "anonymous": false,
      "inputs": [
        {
          "indexed": true,
          "internalType": "bytes32",
          "name": "role",
          "type": "bytes32"
        },
        {
          "indexed": true,
          "internalType": "bytes32",
          "name": "previousAdminRole",
          "type": "bytes32"
        },
        {
          "indexed": true,
          "internalType": "bytes32",
          "name": "newAdminRole",
          "type": "bytes32"
        }
      ],
      "name": "RoleAdminChanged",
      "type": "event"
    },
    {
      "anonymous": false,
      "inputs": [
        {
          "indexed": true,
          "internalType": "bytes32",
          "name": "role",
          "type": "bytes32"
        },
        {
          "indexed": true,
          "internalType": "address",
          "name": "account",
          "type": "address"
        },
        {
          "indexed": true,
          "internalType": "address",
          "name": "sender",
          "type": "address"
        }
      ],
      "name": "RoleGranted",
      "type": "event"
    },
    {
      "anonymous": false,
      "inputs": [
        {
          "indexed": true,
          "internalType": "bytes32",
          "name": "role",
          "type": "bytes32"
        },
        {
          "indexed": true,
          "internalType": "address",
          "name": "account",
          "type": "address"
        },
        {
          "indexed": true,
          "internalType": "address",
          "name": "sender",
          "type": "address"
        }
      ],
      "name": "RoleRevoked",
      "type": "event"
    },
    {
      "anonymous": false,
      "inputs": [
        {
          "indexed": true,
          "internalType": "address",
          "name": "from",
          "type": "address"
        },
        {
          "indexed": true,
          "internalType": "address",
          "name": "to",
          "type": "address"
        },
        {
          "indexed": true,
          "internalType": "uint256",
          "name": "tokenId",
          "type": "uint256"
        }
      ],
      "name": "Transfer",
      "type": "event"
    },
    {
      "inputs": [],
      "name": "DEFAULT_ADMIN_ROLE",
      "outputs": [
        {
          "internalType": "bytes32",
          "name": "",
          "type": "bytes32"
        }
      ],
      "stateMutability": "view",
      "type": "function"
    },
    {
      "inputs": [],
      "name": "GAME_ADMIN",
      "outputs": [
        {
          "internalType": "bytes32",
          "name": "",
          "type": "bytes32"
        }
      ],
      "stateMutability": "view",
      "type": "function"
    },
    {
      "inputs": [
        {
          "internalType": "address",
          "name": "to",
          "type": "address"
        },
        {
          "internalType": "uint256",
          "name": "tokenId",
          "type": "uint256"
        }
      ],
      "name": "approve",
      "outputs": [],
      "stateMutability": "nonpayable",
      "type": "function"
    },
    {
      "inputs": [
        {
          "internalType": "address",
          "name": "owner",
          "type": "address"
        }
      ],
      "name": "balanceOf",
      "outputs": [
        {
          "internalType": "uint256",
          "name": "",
          "type": "uint256"
        }
      ],
      "stateMutability": "view",
      "type": "function"
    },
    {
      "inputs": [],
      "name": "baseURI",
      "outputs": [
        {
          "internalType": "string",
          "name": "",
          "type": "string"
        }
      ],
      "stateMutability": "view",
      "type": "function"
    },
    {
      "inputs": [
        {
          "internalType": "uint256",
          "name": "tokenId",
          "type": "uint256"
        }
      ],
      "name": "getApproved",
      "outputs": [
        {
          "internalType": "address",
          "name": "",
          "type": "address"
        }
      ],
      "stateMutability": "view",
      "type": "function"
    },
    {
      "inputs": [
        {
          "internalType": "bytes32",
          "name": "role",
          "type": "bytes32"
        }
      ],
      "name": "getRoleAdmin",
      "outputs": [
        {
          "internalType": "bytes32",
          "name": "",
          "type": "bytes32"
        }
      ],
      "stateMutability": "view",
      "type": "function"
    },
    {
      "inputs": [
        {
          "internalType": "bytes32",
          "name": "role",
          "type": "bytes32"
        },
        {
          "internalType": "uint256",
          "name": "index",
          "type": "uint256"
        }
      ],
      "name": "getRoleMember",
      "outputs": [
        {
          "internalType": "address",
          "name": "",
          "type": "address"
        }
      ],
      "stateMutability": "view",
      "type": "function"
    },
    {
      "inputs": [
        {
          "internalType": "bytes32",
          "name": "role",
          "type": "bytes32"
        }
      ],
      "name": "getRoleMemberCount",
      "outputs": [
        {
          "internalType": "uint256",
          "name": "",
          "type": "uint256"
        }
      ],
      "stateMutability": "view",
      "type": "function"
    },
    {
      "inputs": [
        {
          "internalType": "bytes32",
          "name": "role",
          "type": "bytes32"
        },
        {
          "internalType": "address",
          "name": "account",
          "type": "address"
        }
      ],
      "name": "grantRole",
      "outputs": [],
      "stateMutability": "nonpayable",
      "type": "function"
    },
    {
      "inputs": [
        {
          "internalType": "bytes32",
          "name": "role",
          "type": "bytes32"
        },
        {
          "internalType": "address",
          "name": "account",
          "type": "address"
        }
      ],
      "name": "hasRole",
      "outputs": [
        {
          "internalType": "bool",
          "name": "",
          "type": "bool"
        }
      ],
      "stateMutability": "view",
      "type": "function"
    },
    {
      "inputs": [
        {
          "internalType": "address",
          "name": "owner",
          "type": "address"
        },
        {
          "internalType": "address",
          "name": "operator",
          "type": "address"
        }
      ],
      "name": "isApprovedForAll",
      "outputs": [
        {
          "internalType": "bool",
          "name": "",
          "type": "bool"
        }
      ],
      "stateMutability": "view",
      "type": "function"
    },
    {
      "inputs": [],
      "name": "name",
      "outputs": [
        {
          "internalType": "string",
          "name": "",
          "type": "string"
        }
      ],
      "stateMutability": "view",
      "type": "function"
    },
    {
      "inputs": [
        {
          "internalType": "uint256",
          "name": "tokenId",
          "type": "uint256"
        }
      ],
      "name": "ownerOf",
      "outputs": [
        {
          "internalType": "address",
          "name": "",
          "type": "address"
        }
      ],
      "stateMutability": "view",
      "type": "function"
    },
    {
      "inputs": [],
      "name": "promos",
      "outputs": [
        {
          "internalType": "contract Promos",
          "name": "",
          "type": "address"
        }
      ],
      "stateMutability": "view",
      "type": "function"
    },
    {
      "inputs": [
        {
          "internalType": "bytes32",
          "name": "role",
          "type": "bytes32"
        },
        {
          "internalType": "address",
          "name": "account",
          "type": "address"
        }
      ],
      "name": "renounceRole",
      "outputs": [],
      "stateMutability": "nonpayable",
      "type": "function"
    },
    {
      "inputs": [
        {
          "internalType": "bytes32",
          "name": "role",
          "type": "bytes32"
        },
        {
          "internalType": "address",
          "name": "account",
          "type": "address"
        }
      ],
      "name": "revokeRole",
      "outputs": [],
      "stateMutability": "nonpayable",
      "type": "function"
    },
    {
      "inputs": [
        {
          "internalType": "address",
          "name": "from",
          "type": "address"
        },
        {
          "internalType": "address",
          "name": "to",
          "type": "address"
        },
        {
          "internalType": "uint256",
          "name": "tokenId",
          "type": "uint256"
        }
      ],
      "name": "safeTransferFrom",
      "outputs": [],
      "stateMutability": "nonpayable",
      "type": "function"
    },
    {
      "inputs": [
        {
          "internalType": "address",
          "name": "from",
          "type": "address"
        },
        {
          "internalType": "address",
          "name": "to",
          "type": "address"
        },
        {
          "internalType": "uint256",
          "name": "tokenId",
          "type": "uint256"
        },
        {
          "internalType": "bytes",
          "name": "_data",
          "type": "bytes"
        }
      ],
      "name": "safeTransferFrom",
      "outputs": [],
      "stateMutability": "nonpayable",
      "type": "function"
    },
    {
      "inputs": [
        {
          "internalType": "address",
          "name": "operator",
          "type": "address"
        },
        {
          "internalType": "bool",
          "name": "approved",
          "type": "bool"
        }
      ],
      "name": "setApprovalForAll",
      "outputs": [],
      "stateMutability": "nonpayable",
      "type": "function"
    },
    {
      "inputs": [
        {
          "internalType": "bytes4",
          "name": "interfaceId",
          "type": "bytes4"
        }
      ],
      "name": "supportsInterface",
      "outputs": [
        {
          "internalType": "bool",
          "name": "",
          "type": "bool"
        }
      ],
      "stateMutability": "view",
      "type": "function"
    },
    {
      "inputs": [],
      "name": "symbol",
      "outputs": [
        {
          "internalType": "string",
          "name": "",
          "type": "string"
        }
      ],
      "stateMutability": "view",
      "type": "function"
    },
    {
      "inputs": [
        {
          "internalType": "uint256",
          "name": "index",
          "type": "uint256"
        }
      ],
      "name": "tokenByIndex",
      "outputs": [
        {
          "internalType": "uint256",
          "name": "",
          "type": "uint256"
        }
      ],
      "stateMutability": "view",
      "type": "function"
    },
    {
      "inputs": [
        {
          "internalType": "address",
          "name": "owner",
          "type": "address"
        },
        {
          "internalType": "uint256",
          "name": "index",
          "type": "uint256"
        }
      ],
      "name": "tokenOfOwnerByIndex",
      "outputs": [
        {
          "internalType": "uint256",
          "name": "",
          "type": "uint256"
        }
      ],
      "stateMutability": "view",
      "type": "function"
    },
    {
      "inputs": [
        {
          "internalType": "uint256",
          "name": "tokenId",
          "type": "uint256"
        }
      ],
      "name": "tokenURI",
      "outputs": [
        {
          "internalType": "string",
          "name": "",
          "type": "string"
        }
      ],
      "stateMutability": "view",
      "type": "function"
    },
    {
      "inputs": [],
      "name": "totalSupply",
      "outputs": [
        {
          "internalType": "uint256",
          "name": "",
          "type": "uint256"
        }
      ],
      "stateMutability": "view",
      "type": "function"
    },
    {
      "inputs": [
        {
          "internalType": "address",
          "name": "from",
          "type": "address"
        },
        {
          "internalType": "address",
          "name": "to",
          "type": "address"
        },
        {
          "internalType": "uint256",
          "name": "tokenId",
          "type": "uint256"
        }
      ],
      "name": "transferFrom",
      "outputs": [],
      "stateMutability": "nonpayable",
      "type": "function"
    },
    {
      "inputs": [
        {
          "internalType": "contract Promos",
          "name": "_promos",
          "type": "address"
        }
      ],
      "name": "initialize",
      "outputs": [],
      "stateMutability": "nonpayable",
      "type": "function"
    },
    {
      "inputs": [
        {
          "internalType": "address",
          "name": "minter",
          "type": "address"
        }
      ],
      "name": "mint",
      "outputs": [
        {
          "internalType": "uint256",
          "name": "",
          "type": "uint256"
        }
      ],
      "stateMutability": "nonpayable",
      "type": "function"
    },
    {
      "inputs": [],
      "name": "getOwned",
      "outputs": [
        {
          "internalType": "uint256[]",
          "name": "",
          "type": "uint256[]"
        }
      ],
      "stateMutability": "view",
      "type": "function"
    },
    {
      "inputs": [
        {
          "internalType": "address",
          "name": "owner",
          "type": "address"
        }
      ],
      "name": "getOwnedBy",
      "outputs": [
        {
          "internalType": "uint256[]",
          "name": "",
          "type": "uint256[]"
        }
      ],
      "stateMutability": "view",
      "type": "function"
    }
  ],
  "bytecode": "0x608060405234801561001057600080fd5b50612988806100206000396000f3fe608060405234801561001057600080fd5b50600436106101e55760003560e01c80636a6278421161010f578063b88d4fde116100a2578063ca15c87311610071578063ca15c873146106bc578063d547741f146106d9578063e291298f14610705578063e985e9c51461072b576101e5565b8063b88d4fde1461055b578063c302752514610621578063c4d66de814610679578063c87b56dd1461069f576101e5565b806391d14854116100de57806391d14854146104f157806395d89b411461051d578063a217fddf14610525578063a22cb4651461052d576101e5565b80636a6278421461047a5780636c0360eb146104a057806370a08231146104a85780639010d07c146104ce576101e5565b80632f2ff15d116101875780634f6ccce7116101565780634f6ccce71461043057806351e717ac1461044d5780635504d3d2146104555780636352211e1461045d576101e5565b80632f2ff15d146103765780632f745c59146103a257806336568abe146103ce57806342842e0e146103fa576101e5565b8063095ea7b3116101c3578063095ea7b3146102db57806318160ddd1461030957806323b872dd14610323578063248a9ca314610359576101e5565b806301ffc9a7146101ea57806306fdde0314610225578063081812fc146102a2575b600080fd5b6102116004803603602081101561020057600080fd5b50356001600160e01b031916610759565b604080519115158252519081900360200190f35b61022d61077c565b6040805160208082528351818301528351919283929083019185019080838360005b8381101561026757818101518382015260200161024f565b50505050905090810190601f1680156102945780820380516001836020036101000a031916815260200191505b509250505060405180910390f35b6102bf600480360360208110156102b857600080fd5b5035610813565b604080516001600160a01b039092168252519081900360200190f35b610307600480360360408110156102f157600080fd5b506001600160a01b038135169060200135610875565b005b610311610950565b60408051918252519081900360200190f35b6103076004803603606081101561033957600080fd5b506001600160a01b03813581169160208101359091169060400135610961565b6103116004803603602081101561036f57600080fd5b50356109b8565b6103076004803603604081101561038c57600080fd5b50803590602001356001600160a01b03166109cd565b610311600480360360408110156103b857600080fd5b506001600160a01b038135169060200135610a39565b610307600480360360408110156103e457600080fd5b50803590602001356001600160a01b0316610a6a565b6103076004803603606081101561041057600080fd5b506001600160a01b03813581169160208101359091169060400135610acb565b6103116004803603602081101561044657600080fd5b5035610ae6565b6102bf610b02565b610311610b11565b6102bf6004803603602081101561047357600080fd5b5035610b33565b6103116004803603602081101561049057600080fd5b50356001600160a01b0316610b61565b61022d610c21565b610311600480360360208110156104be57600080fd5b50356001600160a01b0316610c82565b6102bf600480360360408110156104e457600080fd5b5080359060200135610cea565b6102116004803603604081101561050757600080fd5b50803590602001356001600160a01b0316610d08565b61022d610d26565b610311610d87565b6103076004803603604081101561054357600080fd5b506001600160a01b0381351690602001351515610d8c565b6103076004803603608081101561057157600080fd5b6001600160a01b038235811692602081013590911691604082013591908101906080810160608201356401000000008111156105ac57600080fd5b8201836020820111156105be57600080fd5b803590602001918460018302840111640100000000831117156105e057600080fd5b91908080601f016020809104026020016040519081016040528093929190818152602001838380828437600092019190915250929550610e91945050505050565b610629610eef565b60408051602080825283518183015283519192839290830191858101910280838360005b8381101561066557818101518382015260200161064d565b505050509050019250505060405180910390f35b6103076004803603602081101561068f57600080fd5b50356001600160a01b0316610efa565b61022d600480360360208110156106b557600080fd5b5035611026565b610311600480360360208110156106d257600080fd5b50356112a9565b610307600480360360408110156106ef57600080fd5b50803590602001356001600160a01b03166112c0565b6106296004803603602081101561071b57600080fd5b50356001600160a01b0316611319565b6102116004803603604081101561074157600080fd5b506001600160a01b03813581169160200135166113a4565b6001600160e01b0319811660009081526033602052604090205460ff165b919050565b606a8054604080516020601f60026000196101006001881615020190951694909404938401819004810282018101909252828152606093909290918301828280156108085780601f106107dd57610100808354040283529160200191610808565b820191906000526020600020905b8154815290600101906020018083116107eb57829003601f168201915b505050505090505b90565b600061081e826113d2565b6108595760405162461bcd60e51b815260040180806020018281038252602c81526020018061284e602c913960400191505060405180910390fd5b506000908152606860205260409020546001600160a01b031690565b600061088082610b33565b9050806001600160a01b0316836001600160a01b031614156108d35760405162461bcd60e51b81526004018080602001828103825260218152602001806128d26021913960400191505060405180910390fd5b806001600160a01b03166108e56113e5565b6001600160a01b031614806109065750610906816109016113e5565b6113a4565b6109415760405162461bcd60e51b81526004018080602001828103825260388152602001806127736038913960400191505060405180910390fd5b61094b83836113e9565b505050565b600061095c6066611457565b905090565b61097261096c6113e5565b82611462565b6109ad5760405162461bcd60e51b81526004018080602001828103825260318152602001806128f36031913960400191505060405180910390fd5b61094b838383611506565b60009081526097602052604090206002015490565b6000828152609760205260409020600201546109f0906109eb6113e5565b610d08565b610a2b5760405162461bcd60e51b815260040180806020018281038252602f81526020018061266c602f913960400191505060405180910390fd5b610a358282611664565b5050565b6001600160a01b0382166000908152606560205260408120610a61908363ffffffff6116d316565b90505b92915050565b610a726113e5565b6001600160a01b0316816001600160a01b031614610ac15760405162461bcd60e51b815260040180806020018281038252602f815260200180612924602f913960400191505060405180910390fd5b610a3582826116df565b61094b83838360405180602001604052806000815250610e91565b600080610afa60668463ffffffff61174e16565b509392505050565b60c9546001600160a01b031681565b604080516923a0a6a2afa0a226a4a760b11b8152905190819003600a01902081565b6000610a64826040518060600160405280602981526020016127d5602991396066919063ffffffff61176a16565b604080516923a0a6a2afa0a226a4a760b11b8152905190819003600a019020600090610b8d9033610d08565b610bcf576040805162461bcd60e51b815260206004820152600e60248201526d2737ba1033b0b6b29030b236b4b760911b604482015290519081900360640190fd5b6000610bd9610950565b9050610be58382611781565b6040516001600160a01b0384169082907fb9203d657e9c0ec8274c818292ab0f58b04e1970050716891770eb1bab5d655e90600090a392915050565b606d8054604080516020601f60026000196101006001881615020190951694909404938401819004810282018101909252828152606093909290918301828280156108085780601f106107dd57610100808354040283529160200191610808565b60006001600160a01b038216610cc95760405162461bcd60e51b815260040180806020018281038252602a8152602001806127ab602a913960400191505060405180910390fd5b6001600160a01b0382166000908152606560205260409020610a6490611457565b6000828152609760205260408120610a61908363ffffffff6116d316565b6000828152609760205260408120610a61908363ffffffff6118bb16565b606b8054604080516020601f60026000196101006001881615020190951694909404938401819004810282018101909252828152606093909290918301828280156108085780601f106107dd57610100808354040283529160200191610808565b600081565b610d946113e5565b6001600160a01b0316826001600160a01b03161415610dfa576040805162461bcd60e51b815260206004820152601960248201527f4552433732313a20617070726f766520746f2063616c6c657200000000000000604482015290519081900360640190fd5b8060696000610e076113e5565b6001600160a01b03908116825260208083019390935260409182016000908120918716808252919093529120805460ff191692151592909217909155610e4b6113e5565b60408051841515815290516001600160a01b0392909216917f17307eab39ab6107e8899845ad3d59bd9653f200f220920489ca2b5937696c319181900360200190a35050565b610ea2610e9c6113e5565b83611462565b610edd5760405162461bcd60e51b81526004018080602001828103825260318152602001806128f36031913960400191505060405180910390fd5b610ee9848484846118d0565b50505050565b606061095c33611319565b600054610100900460ff1680610f135750610f13611922565b80610f21575060005460ff16155b610f5c5760405162461bcd60e51b815260040180806020018281038252602e8152602001806127fe602e913960400191505060405180910390fd5b600054610100900460ff16158015610f87576000805460ff1961ff0019909116610100171660011790555b610fe36040518060400160405280601881526020017f43727970746f426c61646573204b6579204c6f6f74626f78000000000000000081525060405180604001604052806005815260200164086849684b60db1b815250611933565b610feb6119f0565b610ff6600033610a2b565b60c980546001600160a01b0319166001600160a01b0384161790558015610a35576000805461ff00191690555050565b6060611031826113d2565b61106c5760405162461bcd60e51b815260040180806020018281038252602f8152602001806128a3602f913960400191505060405180910390fd5b6000828152606c602090815260409182902080548351601f60026000196101006001861615020190931692909204918201849004840281018401909452808452606093928301828280156111015780601f106110d657610100808354040283529160200191611101565b820191906000526020600020905b8154815290600101906020018083116110e457829003601f168201915b505050505090506060611112610c21565b905080516000141561112657509050610777565b8151156111e75780826040516020018083805190602001908083835b602083106111615780518252601f199092019160209182019101611142565b51815160209384036101000a600019018019909216911617905285519190930192850191508083835b602083106111a95780518252601f19909201916020918201910161118a565b6001836020036101000a0380198251168184511680821785525050505050509050019250505060405160208183030381529060405292505050610777565b806111f185611a92565b6040516020018083805190602001908083835b602083106112235780518252601f199092019160209182019101611204565b51815160209384036101000a600019018019909216911617905285519190930192850191508083835b6020831061126b5780518252601f19909201916020918201910161124c565b6001836020036101000a0380198251168184511680821785525050505050509050019250505060405160208183030381529060405292505050919050565b6000818152609760205260408120610a6490611457565b6000828152609760205260409020600201546112de906109eb6113e5565b610ac15760405162461bcd60e51b81526004018080602001828103825260308152602001806127436030913960400191505060405180910390fd5b60608061132583610c82565b67ffffffffffffffff8111801561133b57600080fd5b50604051908082528060200260200182016040528015611365578160200160208202803683370190505b50905060005b815181101561139d5761137e8482610a39565b82828151811061138a57fe5b602090810291909101015260010161136b565b5092915050565b6001600160a01b03918216600090815260696020908152604080832093909416825291909152205460ff1690565b6000610a6460668363ffffffff611b6d16565b3390565b600081815260686020526040902080546001600160a01b0319166001600160a01b038416908117909155819061141e82610b33565b6001600160a01b03167f8c5be1e5ebec7d5bd14f71427d1e84f3dd0314c0f7b2291e5b200ac8c7c3b92560405160405180910390a45050565b6000610a6482611b79565b600061146d826113d2565b6114a85760405162461bcd60e51b815260040180806020018281038252602c815260200180612717602c913960400191505060405180910390fd5b60006114b383610b33565b9050806001600160a01b0316846001600160a01b031614806114ee5750836001600160a01b03166114e384610813565b6001600160a01b0316145b806114fe57506114fe81856113a4565b949350505050565b826001600160a01b031661151982610b33565b6001600160a01b03161461155e5760405162461bcd60e51b815260040180806020018281038252602981526020018061287a6029913960400191505060405180910390fd5b6001600160a01b0382166115a35760405162461bcd60e51b81526004018080602001828103825260248152602001806126cd6024913960400191505060405180910390fd5b6115ae838383611b7d565b6115b96000826113e9565b6001600160a01b03831660009081526065602052604090206115e1908263ffffffff611c9416565b506001600160a01b038216600090815260656020526040902061160a908263ffffffff611ca016565b5061161d6066828463ffffffff611cac16565b5080826001600160a01b0316846001600160a01b03167fddf252ad1be2c89b69c2b068fc378daa952ba7f163c4a11628f55a4df523b3ef60405160405180910390a4505050565b6000828152609760205260409020611682908263ffffffff611cc216565b15610a355761168f6113e5565b6001600160a01b0316816001600160a01b0316837f2f8788117e7eff1d82e926ec794901d17c78024a50270940304540a733656f0d60405160405180910390a45050565b6000610a618383611cd7565b60008281526097602052604090206116fd908263ffffffff611d3b16565b15610a355761170a6113e5565b6001600160a01b0316816001600160a01b0316837ff6391f5c32d9c69d2a47ea670b442974b53935d1edc7fd64eb21e047a839171b60405160405180910390a45050565b600080808061175d8686611d50565b9097909650945050505050565b6000611777848484611dcb565b90505b9392505050565b6001600160a01b0382166117dc576040805162461bcd60e51b815260206004820181905260248201527f4552433732313a206d696e7420746f20746865207a65726f2061646472657373604482015290519081900360640190fd5b6117e5816113d2565b15611837576040805162461bcd60e51b815260206004820152601c60248201527f4552433732313a20746f6b656e20616c7265616479206d696e74656400000000604482015290519081900360640190fd5b61184360008383611b7d565b6001600160a01b038216600090815260656020526040902061186b908263ffffffff611ca016565b5061187e6066828463ffffffff611cac16565b5060405181906001600160a01b038416906000907fddf252ad1be2c89b69c2b068fc378daa952ba7f163c4a11628f55a4df523b3ef908290a45050565b6000610a61836001600160a01b038416611e95565b6118db848484611506565b6118e784848484611ead565b610ee95760405162461bcd60e51b815260040180806020018281038252603281526020018061269b6032913960400191505060405180910390fd5b600061192d3061202d565b15905090565b600054610100900460ff168061194c575061194c611922565b8061195a575060005460ff16155b6119955760405162461bcd60e51b815260040180806020018281038252602e8152602001806127fe602e913960400191505060405180910390fd5b600054610100900460ff161580156119c0576000805460ff1961ff0019909116610100171660011790555b6119c86119f0565b6119d0612033565b6119da83836120d0565b801561094b576000805461ff0019169055505050565b600054610100900460ff1680611a095750611a09611922565b80611a17575060005460ff16155b611a525760405162461bcd60e51b815260040180806020018281038252602e8152602001806127fe602e913960400191505060405180910390fd5b600054610100900460ff16158015611a7d576000805460ff1961ff0019909116610100171660011790555b8015611a8f576000805461ff00191690555b50565b606081611ab757506040805180820190915260018152600360fc1b6020820152610777565b8160005b8115611acf57600101600a82049150611abb565b60608167ffffffffffffffff81118015611ae857600080fd5b506040519080825280601f01601f191660200182016040528015611b13576020820181803683370190505b50859350905060001982015b8315611b6457600a840660300160f81b82828060019003935081518110611b4257fe5b60200101906001600160f81b031916908160001a905350600a84049350611b1f565b50949350505050565b6000610a618383611e95565b5490565b60c9546040805163434d82a360e01b81526001600160a01b0386811660048381019190915260248301529151919092169163434d82a3916044808301926020929190829003018186803b158015611bd357600080fd5b505afa158015611be7573d6000803e3d6000fd5b505050506040513d6020811015611bfd57600080fd5b5051158015611c8b575060c9546040805163434d82a360e01b81526001600160a01b0385811660048381019190915260248301529151919092169163434d82a3916044808301926020929190829003018186803b158015611c5d57600080fd5b505afa158015611c71573d6000803e3d6000fd5b505050506040513d6020811015611c8757600080fd5b5051155b61094b57600080fd5b6000610a6183836121b5565b6000610a61838361227b565b600061177784846001600160a01b0385166122c5565b6000610a61836001600160a01b03841661227b565b81546000908210611d195760405162461bcd60e51b815260040180806020018281038252602281526020018061264a6022913960400191505060405180910390fd5b826000018281548110611d2857fe5b9060005260206000200154905092915050565b6000610a61836001600160a01b0384166121b5565b815460009081908310611d945760405162461bcd60e51b815260040180806020018281038252602281526020018061282c6022913960400191505060405180910390fd5b6000846000018481548110611da557fe5b906000526020600020906002020190508060000154816001015492509250509250929050565b60008281526001840160205260408120548281611e665760405162461bcd60e51b81526004018080602001828103825283818151815260200191508051906020019080838360005b83811015611e2b578181015183820152602001611e13565b50505050905090810190601f168015611e585780820380516001836020036101000a031916815260200191505b509250505060405180910390fd5b50846000016001820381548110611e7957fe5b9060005260206000209060020201600101549150509392505050565b60009081526001919091016020526040902054151590565b6000611ec1846001600160a01b031661202d565b611ecd575060016114fe565b6060611ff3630a85bd0160e11b611ee26113e5565b88878760405160240180856001600160a01b03166001600160a01b03168152602001846001600160a01b03166001600160a01b0316815260200183815260200180602001828103825283818151815260200191508051906020019080838360005b83811015611f5b578181015183820152602001611f43565b50505050905090810190601f168015611f885780820380516001836020036101000a031916815260200191505b5095505050505050604051602081830303815290604052906001600160e01b0319166020820180516001600160e01b03838183161783525050505060405180606001604052806032815260200161269b603291396001600160a01b038816919063ffffffff61235c16565b9050600081806020019051602081101561200c57600080fd5b50516001600160e01b031916630a85bd0160e11b1492505050949350505050565b3b151590565b600054610100900460ff168061204c575061204c611922565b8061205a575060005460ff16155b6120955760405162461bcd60e51b815260040180806020018281038252602e8152602001806127fe602e913960400191505060405180910390fd5b600054610100900460ff161580156120c0576000805460ff1961ff0019909116610100171660011790555b611a7d6301ffc9a760e01b61236b565b600054610100900460ff16806120e957506120e9611922565b806120f7575060005460ff16155b6121325760405162461bcd60e51b815260040180806020018281038252602e8152602001806127fe602e913960400191505060405180910390fd5b600054610100900460ff1615801561215d576000805460ff1961ff0019909116610100171660011790555b825161217090606a9060208601906125b1565b50815161218490606b9060208501906125b1565b506121956380ac58cd60e01b61236b565b6121a5635b5e139f60e01b61236b565b6119da63780e9d6360e01b61236b565b6000818152600183016020526040812054801561227157835460001980830191908101906000908790839081106121e857fe5b906000526020600020015490508087600001848154811061220557fe5b60009182526020808320909101929092558281526001898101909252604090209084019055865487908061223557fe5b60019003818190600052602060002001600090559055866001016000878152602001908152602001600020600090556001945050505050610a64565b6000915050610a64565b60006122878383611e95565b6122bd57508154600181810184556000848152602080822090930184905584548482528286019093526040902091909155610a64565b506000610a64565b60008281526001840160205260408120548061232a57505060408051808201825283815260208082018481528654600181810189556000898152848120955160029093029095019182559151908201558654868452818801909252929091205561177a565b8285600001600183038154811061233d57fe5b906000526020600020906002020160010181905550600091505061177a565b606061177784846000856123ef565b6001600160e01b031980821614156123ca576040805162461bcd60e51b815260206004820152601c60248201527f4552433136353a20696e76616c696420696e7465726661636520696400000000604482015290519081900360640190fd5b6001600160e01b0319166000908152603360205260409020805460ff19166001179055565b6060824710156124305760405162461bcd60e51b81526004018080602001828103825260268152602001806126f16026913960400191505060405180910390fd5b6124398561202d565b61248a576040805162461bcd60e51b815260206004820152601d60248201527f416464726573733a2063616c6c20746f206e6f6e2d636f6e7472616374000000604482015290519081900360640190fd5b60006060866001600160a01b031685876040518082805190602001908083835b602083106124c95780518252601f1990920191602091820191016124aa565b6001836020036101000a03801982511681845116808217855250505050505090500191505060006040518083038185875af1925050503d806000811461252b576040519150601f19603f3d011682016040523d82523d6000602084013e612530565b606091505b509150915061254082828661254b565b979650505050505050565b6060831561255a57508161177a565b82511561256a5782518084602001fd5b60405162461bcd60e51b8152602060048201818152845160248401528451859391928392604401919085019080838360008315611e2b578181015183820152602001611e13565b828054600181600116156101000203166002900490600052602060002090601f016020900481019282601f106125f257805160ff191683800117855561261f565b8280016001018555821561261f579182015b8281111561261f578251825591602001919060010190612604565b5061262b92915061262f565b5090565b61081091905b8082111561262b576000815560010161263556fe456e756d657261626c655365743a20696e646578206f7574206f6620626f756e6473416363657373436f6e74726f6c3a2073656e646572206d75737420626520616e2061646d696e20746f206772616e744552433732313a207472616e7366657220746f206e6f6e20455243373231526563656976657220696d706c656d656e7465724552433732313a207472616e7366657220746f20746865207a65726f2061646472657373416464726573733a20696e73756666696369656e742062616c616e636520666f722063616c6c4552433732313a206f70657261746f7220717565727920666f72206e6f6e6578697374656e7420746f6b656e416363657373436f6e74726f6c3a2073656e646572206d75737420626520616e2061646d696e20746f207265766f6b654552433732313a20617070726f76652063616c6c6572206973206e6f74206f776e6572206e6f7220617070726f76656420666f7220616c6c4552433732313a2062616c616e636520717565727920666f7220746865207a65726f20616464726573734552433732313a206f776e657220717565727920666f72206e6f6e6578697374656e7420746f6b656e496e697469616c697a61626c653a20636f6e747261637420697320616c726561647920696e697469616c697a6564456e756d657261626c654d61703a20696e646578206f7574206f6620626f756e64734552433732313a20617070726f76656420717565727920666f72206e6f6e6578697374656e7420746f6b656e4552433732313a207472616e73666572206f6620746f6b656e2074686174206973206e6f74206f776e4552433732314d657461646174613a2055524920717565727920666f72206e6f6e6578697374656e7420746f6b656e4552433732313a20617070726f76616c20746f2063757272656e74206f776e65724552433732313a207472616e736665722063616c6c6572206973206e6f74206f776e6572206e6f7220617070726f766564416363657373436f6e74726f6c3a2063616e206f6e6c792072656e6f756e636520726f6c657320666f722073656c66a2646970667358221220199b11b4d103731727d1c5e81eb6c8d6c8cd156cac2cce95785524df01d8477764736f6c63430006050033",
  "immutableReferences": {},
  "source": "pragma solidity ^0.6.0;\n\nimport \"@openzeppelin/contracts-upgradeable/proxy/Initializable.sol\";\nimport \"@openzeppelin/contracts-upgradeable/token/ERC721/ERC721Upgradeable.sol\";\nimport \"@openzeppelin/contracts-upgradeable/access/AccessControlUpgradeable.sol\";\nimport \"@openzeppelin/contracts/math/SafeMath.sol\";\nimport \"abdk-libraries-solidity/ABDKMath64x64.sol\";\nimport \"../Promos.sol\";\n\ncontract KeyLootbox is Initializable, ERC721Upgradeable, AccessControlUpgradeable {\n\n    bytes32 public constant GAME_ADMIN = keccak256(\"GAME_ADMIN\");\n\n    Promos public promos;\n    \n    event Minted(uint256 indexed id, address indexed minter);\n\n    function initialize (Promos _promos) public initializer {\n        __ERC721_init(\"CryptoBlades Key Lootbox\", \"CBKBX\");\n        __AccessControl_init_unchained();\n\n        _setupRole(DEFAULT_ADMIN_ROLE, msg.sender);\n\n        promos = _promos;\n    }\n\n    modifier restricted() {\n        require(hasRole(GAME_ADMIN, msg.sender), \"Not game admin\");\n        _;\n    }\n\n    function mint(address minter) public restricted returns(uint256) {\n\n        uint256 tokenID = totalSupply();\n        _mint(minter, tokenID);\n        emit Minted(tokenID, minter);\n        return tokenID;\n    }\n\n    function _beforeTokenTransfer(address from, address to, uint256 tokenId) internal override {\n        require(promos.getBit(from, 4) == false && promos.getBit(to, 4) == false);\n    }\n\n    function getOwned() public view returns(uint256[] memory) {\n        return getOwnedBy(msg.sender);\n    }\n\n    function getOwnedBy(address owner) public view returns(uint256[] memory) {\n        uint256[] memory tokens = new uint256[](balanceOf(owner));\n        for(uint256 i = 0; i < tokens.length; i++) {\n            tokens[i] = tokenOfOwnerByIndex(owner, i);\n        }\n        return tokens;\n    }\n\n}",
  "sourcePath": "D:\\Work\\MEVN\\cryptoblades-main\\cryptoblades-main\\contracts\\items\\KeyLootbox.sol",
  "compiler": {
    "name": "solc",
    "version": "0.6.5+commit.f956cc89.Emscripten.clang"
  },
  "schemaVersion": "3.4.3",
  "updatedAt": "2021-09-18T03:37:02.517Z",
  "devdoc": {
    "methods": {
      "approve(address,uint256)": {
        "details": "See {IERC721-approve}."
      },
      "balanceOf(address)": {
        "details": "See {IERC721-balanceOf}."
      },
      "baseURI()": {
        "details": "Returns the base URI set via {_setBaseURI}. This will be automatically added as a prefix in {tokenURI} to each token's URI, or to the token ID if no specific URI is set for that token ID."
      },
      "getApproved(uint256)": {
        "details": "See {IERC721-getApproved}."
      },
      "getRoleAdmin(bytes32)": {
        "details": "Returns the admin role that controls `role`. See {grantRole} and {revokeRole}.     * To change a role's admin, use {_setRoleAdmin}."
      },
      "getRoleMember(bytes32,uint256)": {
        "details": "Returns one of the accounts that have `role`. `index` must be a value between 0 and {getRoleMemberCount}, non-inclusive.     * Role bearers are not sorted in any particular way, and their ordering may change at any point.     * WARNING: When using {getRoleMember} and {getRoleMemberCount}, make sure you perform all queries on the same block. See the following https://forum.openzeppelin.com/t/iterating-over-elements-on-enumerableset-in-openzeppelin-contracts/2296[forum post] for more information."
      },
      "getRoleMemberCount(bytes32)": {
        "details": "Returns the number of accounts that have `role`. Can be used together with {getRoleMember} to enumerate all bearers of a role."
      },
      "grantRole(bytes32,address)": {
        "details": "Grants `role` to `account`.     * If `account` had not been already granted `role`, emits a {RoleGranted} event.     * Requirements:     * - the caller must have ``role``'s admin role."
      },
      "hasRole(bytes32,address)": {
        "details": "Returns `true` if `account` has been granted `role`."
      },
      "isApprovedForAll(address,address)": {
        "details": "See {IERC721-isApprovedForAll}."
      },
      "name()": {
        "details": "See {IERC721Metadata-name}."
      },
      "ownerOf(uint256)": {
        "details": "See {IERC721-ownerOf}."
      },
      "renounceRole(bytes32,address)": {
        "details": "Revokes `role` from the calling account.     * Roles are often managed via {grantRole} and {revokeRole}: this function's purpose is to provide a mechanism for accounts to lose their privileges if they are compromised (such as when a trusted device is misplaced).     * If the calling account had been granted `role`, emits a {RoleRevoked} event.     * Requirements:     * - the caller must be `account`."
      },
      "revokeRole(bytes32,address)": {
        "details": "Revokes `role` from `account`.     * If `account` had been granted `role`, emits a {RoleRevoked} event.     * Requirements:     * - the caller must have ``role``'s admin role."
      },
      "safeTransferFrom(address,address,uint256)": {
        "details": "See {IERC721-safeTransferFrom}."
      },
      "safeTransferFrom(address,address,uint256,bytes)": {
        "details": "See {IERC721-safeTransferFrom}."
      },
      "setApprovalForAll(address,bool)": {
        "details": "See {IERC721-setApprovalForAll}."
      },
      "supportsInterface(bytes4)": {
        "details": "See {IERC165-supportsInterface}.     * Time complexity O(1), guaranteed to always use less than 30 000 gas."
      },
      "symbol()": {
        "details": "See {IERC721Metadata-symbol}."
      },
      "tokenByIndex(uint256)": {
        "details": "See {IERC721Enumerable-tokenByIndex}."
      },
      "tokenOfOwnerByIndex(address,uint256)": {
        "details": "See {IERC721Enumerable-tokenOfOwnerByIndex}."
      },
      "tokenURI(uint256)": {
        "details": "See {IERC721Metadata-tokenURI}."
      },
      "totalSupply()": {
        "details": "See {IERC721Enumerable-totalSupply}."
      },
      "transferFrom(address,address,uint256)": {
        "details": "See {IERC721-transferFrom}."
      }
    }
  },
  "userdoc": {
    "methods": {}
  }
}