{
  "contractName": "LPStakingRewardsUpgradeable",
  "abi": [
    {
      "anonymous": false,
      "inputs": [],
      "name": "FailsafeModeEnabled",
      "type": "event"
    },
    {
      "anonymous": false,
      "inputs": [
        {
          "indexed": false,
          "internalType": "uint256",
          "name": "newMinimumStakeAmount",
          "type": "uint256"
        }
      ],
      "name": "MinimumStakeAmountUpdated",
      "type": "event"
    },
    {
      "anonymous": false,
      "inputs": [
        {
          "indexed": false,
          "internalType": "uint256",
          "name": "newMinimumStakeTime",
          "type": "uint256"
        }
      ],
      "name": "MinimumStakeTimeUpdated",
      "type": "event"
    },
    {
      "anonymous": false,
      "inputs": [
        {
          "indexed": true,
          "internalType": "address",
          "name": "previousOwner",
          "type": "address"
        },
        {
          "indexed": true,
          "internalType": "address",
          "name": "newOwner",
          "type": "address"
        }
      ],
      "name": "OwnershipTransferred",
      "type": "event"
    },
    {
      "anonymous": false,
      "inputs": [
        {
          "indexed": false,
          "internalType": "address",
          "name": "account",
          "type": "address"
        }
      ],
      "name": "Paused",
      "type": "event"
    },
    {
      "anonymous": false,
      "inputs": [
        {
          "indexed": false,
          "internalType": "address",
          "name": "token",
          "type": "address"
        },
        {
          "indexed": false,
          "internalType": "uint256",
          "name": "amount",
          "type": "uint256"
        }
      ],
      "name": "Recovered",
      "type": "event"
    },
    {
      "anonymous": false,
      "inputs": [
        {
          "indexed": false,
          "internalType": "uint256",
          "name": "reward",
          "type": "uint256"
        }
      ],
      "name": "RewardAdded",
      "type": "event"
    },
    {
      "anonymous": false,
      "inputs": [
        {
          "indexed": true,
          "internalType": "address",
          "name": "user",
          "type": "address"
        },
        {
          "indexed": false,
          "internalType": "uint256",
          "name": "reward",
          "type": "uint256"
        }
      ],
      "name": "RewardPaid",
      "type": "event"
    },
    {
      "anonymous": false,
      "inputs": [
        {
          "indexed": false,
          "internalType": "uint256",
          "name": "newDuration",
          "type": "uint256"
        }
      ],
      "name": "RewardsDurationUpdated",
      "type": "event"
    },
    {
      "anonymous": false,
      "inputs": [
        {
          "indexed": true,
          "internalType": "address",
          "name": "user",
          "type": "address"
        },
        {
          "indexed": false,
          "internalType": "uint256",
          "name": "amount",
          "type": "uint256"
        }
      ],
      "name": "Staked",
      "type": "event"
    },
    {
      "anonymous": false,
      "inputs": [
        {
          "indexed": false,
          "internalType": "address",
          "name": "account",
          "type": "address"
        }
      ],
      "name": "Unpaused",
      "type": "event"
    },
    {
      "anonymous": false,
      "inputs": [
        {
          "indexed": true,
          "internalType": "address",
          "name": "user",
          "type": "address"
        },
        {
          "indexed": false,
          "internalType": "uint256",
          "name": "amount",
          "type": "uint256"
        }
      ],
      "name": "Withdrawn",
      "type": "event"
    },
    {
      "inputs": [
        {
          "internalType": "address",
          "name": "account",
          "type": "address"
        }
      ],
      "name": "balanceOf",
      "outputs": [
        {
          "internalType": "uint256",
          "name": "",
          "type": "uint256"
        }
      ],
      "stateMutability": "view",
      "type": "function"
    },
    {
      "inputs": [
        {
          "internalType": "address",
          "name": "account",
          "type": "address"
        }
      ],
      "name": "earned",
      "outputs": [
        {
          "internalType": "uint256",
          "name": "",
          "type": "uint256"
        }
      ],
      "stateMutability": "view",
      "type": "function"
    },
    {
      "inputs": [],
      "name": "enableFailsafeMode",
      "outputs": [],
      "stateMutability": "nonpayable",
      "type": "function"
    },
    {
      "inputs": [],
      "name": "exit",
      "outputs": [],
      "stateMutability": "nonpayable",
      "type": "function"
    },
    {
      "inputs": [],
      "name": "failsafeModeActive",
      "outputs": [
        {
          "internalType": "bool",
          "name": "",
          "type": "bool"
        }
      ],
      "stateMutability": "view",
      "type": "function"
    },
    {
      "inputs": [],
      "name": "getReward",
      "outputs": [],
      "stateMutability": "nonpayable",
      "type": "function"
    },
    {
      "inputs": [],
      "name": "getRewardForDuration",
      "outputs": [
        {
          "internalType": "uint256",
          "name": "",
          "type": "uint256"
        }
      ],
      "stateMutability": "view",
      "type": "function"
    },
    {
      "inputs": [],
      "name": "getStakeRewardDistributionTimeLeft",
      "outputs": [
        {
          "internalType": "uint256",
          "name": "",
          "type": "uint256"
        }
      ],
      "stateMutability": "view",
      "type": "function"
    },
    {
      "inputs": [],
      "name": "getStakeUnlockTimeLeft",
      "outputs": [
        {
          "internalType": "uint256",
          "name": "",
          "type": "uint256"
        }
      ],
      "stateMutability": "view",
      "type": "function"
    },
    {
      "inputs": [
        {
          "internalType": "address",
          "name": "_owner",
          "type": "address"
        },
        {
          "internalType": "address",
          "name": "_rewardsDistribution",
          "type": "address"
        },
        {
          "internalType": "address",
          "name": "_rewardsToken",
          "type": "address"
        },
        {
          "internalType": "address",
          "name": "_stakingToken",
          "type": "address"
        },
        {
          "internalType": "uint256",
          "name": "_minimumStakeTime",
          "type": "uint256"
        }
      ],
      "name": "initialize",
      "outputs": [],
      "stateMutability": "nonpayable",
      "type": "function"
    },
    {
      "inputs": [],
      "name": "lastTimeRewardApplicable",
      "outputs": [
        {
          "internalType": "uint256",
          "name": "",
          "type": "uint256"
        }
      ],
      "stateMutability": "view",
      "type": "function"
    },
    {
      "inputs": [],
      "name": "lastUpdateTime",
      "outputs": [
        {
          "internalType": "uint256",
          "name": "",
          "type": "uint256"
        }
      ],
      "stateMutability": "view",
      "type": "function"
    },
    {
      "inputs": [
        {
          "internalType": "uint256",
          "name": "_minimumStakeAmount",
          "type": "uint256"
        }
      ],
      "name": "migrateTo_8cb6e70",
      "outputs": [],
      "stateMutability": "nonpayable",
      "type": "function"
    },
    {
      "inputs": [],
      "name": "minimumStakeAmount",
      "outputs": [
        {
          "internalType": "uint256",
          "name": "",
          "type": "uint256"
        }
      ],
      "stateMutability": "view",
      "type": "function"
    },
    {
      "inputs": [],
      "name": "minimumStakeTime",
      "outputs": [
        {
          "internalType": "uint256",
          "name": "",
          "type": "uint256"
        }
      ],
      "stateMutability": "view",
      "type": "function"
    },
    {
      "inputs": [
        {
          "internalType": "uint256",
          "name": "reward",
          "type": "uint256"
        }
      ],
      "name": "notifyRewardAmount",
      "outputs": [],
      "stateMutability": "nonpayable",
      "type": "function"
    },
    {
      "inputs": [],
      "name": "owner",
      "outputs": [
        {
          "internalType": "address",
          "name": "",
          "type": "address"
        }
      ],
      "stateMutability": "view",
      "type": "function"
    },
    {
      "inputs": [],
      "name": "pause",
      "outputs": [],
      "stateMutability": "nonpayable",
      "type": "function"
    },
    {
      "inputs": [],
      "name": "paused",
      "outputs": [
        {
          "internalType": "bool",
          "name": "",
          "type": "bool"
        }
      ],
      "stateMutability": "view",
      "type": "function"
    },
    {
      "inputs": [],
      "name": "periodFinish",
      "outputs": [
        {
          "internalType": "uint256",
          "name": "",
          "type": "uint256"
        }
      ],
      "stateMutability": "view",
      "type": "function"
    },
    {
      "inputs": [
        {
          "internalType": "address",
          "name": "tokenAddress",
          "type": "address"
        },
        {
          "internalType": "uint256",
          "name": "tokenAmount",
          "type": "uint256"
        }
      ],
      "name": "recoverERC20",
      "outputs": [],
      "stateMutability": "nonpayable",
      "type": "function"
    },
    {
      "inputs": [],
      "name": "recoverExtraStakingTokensToOwner",
      "outputs": [],
      "stateMutability": "nonpayable",
      "type": "function"
    },
    {
      "inputs": [],
      "name": "recoverOwnStake",
      "outputs": [],
      "stateMutability": "nonpayable",
      "type": "function"
    },
    {
      "inputs": [],
      "name": "renounceOwnership",
      "outputs": [],
      "stateMutability": "nonpayable",
      "type": "function"
    },
    {
      "inputs": [],
      "name": "rewardPerToken",
      "outputs": [
        {
          "internalType": "uint256",
          "name": "",
          "type": "uint256"
        }
      ],
      "stateMutability": "view",
      "type": "function"
    },
    {
      "inputs": [],
      "name": "rewardPerTokenStored",
      "outputs": [
        {
          "internalType": "uint256",
          "name": "",
          "type": "uint256"
        }
      ],
      "stateMutability": "view",
      "type": "function"
    },
    {
      "inputs": [],
      "name": "rewardRate",
      "outputs": [
        {
          "internalType": "uint256",
          "name": "",
          "type": "uint256"
        }
      ],
      "stateMutability": "view",
      "type": "function"
    },
    {
      "inputs": [
        {
          "internalType": "address",
          "name": "",
          "type": "address"
        }
      ],
      "name": "rewards",
      "outputs": [
        {
          "internalType": "uint256",
          "name": "",
          "type": "uint256"
        }
      ],
      "stateMutability": "view",
      "type": "function"
    },
    {
      "inputs": [],
      "name": "rewardsDistribution",
      "outputs": [
        {
          "internalType": "address",
          "name": "",
          "type": "address"
        }
      ],
      "stateMutability": "view",
      "type": "function"
    },
    {
      "inputs": [],
      "name": "rewardsDuration",
      "outputs": [
        {
          "internalType": "uint256",
          "name": "",
          "type": "uint256"
        }
      ],
      "stateMutability": "view",
      "type": "function"
    },
    {
      "inputs": [],
      "name": "rewardsToken",
      "outputs": [
        {
          "internalType": "contract IERC20",
          "name": "",
          "type": "address"
        }
      ],
      "stateMutability": "view",
      "type": "function"
    },
    {
      "inputs": [
        {
          "internalType": "uint256",
          "name": "_minimumStakeAmount",
          "type": "uint256"
        }
      ],
      "name": "setMinimumStakeAmount",
      "outputs": [],
      "stateMutability": "nonpayable",
      "type": "function"
    },
    {
      "inputs": [
        {
          "internalType": "uint256",
          "name": "_minimumStakeTime",
          "type": "uint256"
        }
      ],
      "name": "setMinimumStakeTime",
      "outputs": [],
      "stateMutability": "nonpayable",
      "type": "function"
    },
    {
      "inputs": [
        {
          "internalType": "address",
          "name": "_rewardsDistribution",
          "type": "address"
        }
      ],
      "name": "setRewardsDistribution",
      "outputs": [],
      "stateMutability": "nonpayable",
      "type": "function"
    },
    {
      "inputs": [
        {
          "internalType": "uint256",
          "name": "_rewardsDuration",
          "type": "uint256"
        }
      ],
      "name": "setRewardsDuration",
      "outputs": [],
      "stateMutability": "nonpayable",
      "type": "function"
    },
    {
      "inputs": [
        {
          "internalType": "uint256",
          "name": "amount",
          "type": "uint256"
        }
      ],
      "name": "stake",
      "outputs": [],
      "stateMutability": "nonpayable",
      "type": "function"
    },
    {
      "inputs": [],
      "name": "stakingToken",
      "outputs": [
        {
          "internalType": "contract IERC20",
          "name": "",
          "type": "address"
        }
      ],
      "stateMutability": "view",
      "type": "function"
    },
    {
      "inputs": [],
      "name": "totalSupply",
      "outputs": [
        {
          "internalType": "uint256",
          "name": "",
          "type": "uint256"
        }
      ],
      "stateMutability": "view",
      "type": "function"
    },
    {
      "inputs": [
        {
          "internalType": "address",
          "name": "newOwner",
          "type": "address"
        }
      ],
      "name": "transferOwnership",
      "outputs": [],
      "stateMutability": "nonpayable",
      "type": "function"
    },
    {
      "inputs": [],
      "name": "unpause",
      "outputs": [],
      "stateMutability": "nonpayable",
      "type": "function"
    },
    {
      "inputs": [
        {
          "internalType": "uint256",
          "name": "timestamp",
          "type": "uint256"
        }
      ],
      "name": "updatePeriodFinish",
      "outputs": [],
      "stateMutability": "nonpayable",
      "type": "function"
    },
    {
      "inputs": [
        {
          "internalType": "address",
          "name": "",
          "type": "address"
        }
      ],
      "name": "userRewardPerTokenPaid",
      "outputs": [
        {
          "internalType": "uint256",
          "name": "",
          "type": "uint256"
        }
      ],
      "stateMutability": "view",
      "type": "function"
    },
    {
      "inputs": [
        {
          "internalType": "uint256",
          "name": "amount",
          "type": "uint256"
        }
      ],
      "name": "withdraw",
      "outputs": [],
      "stateMutability": "nonpayable",
      "type": "function"
    }
  ],
  "bytecode": "0x608060405234801561001057600080fd5b50612db7806100206000396000f3fe608060405234801561001057600080fd5b50600436106102685760003560e01c8063715018a611610151578063cd3daf9d116100c3578063e9fad8ee11610087578063e9fad8ee14610526578063ebe2b12b1461052e578063f2fde38b14610536578063f603944c1461055c578063f7013ef614610564578063ff994033146105aa57610268565b8063cd3daf9d146104e9578063d1af0c7d146104f1578063df136d65146104f9578063e2adc23714610501578063e94220461461050957610268565b80638980f11f116101155780638980f11f1461044d5780638b876347146104795780638da5cb5b1461049f578063a694fc3a146104a7578063c8f33c91146104c4578063cc1a378f146104cc57610268565b8063715018a61461042557806372f702f31461042d5780637b0a47ee1461043557806380faa57d1461043d5780638456cb591461044557610268565b80632f3d3b14116101ea5780633fc6df6e116101ae5780633fc6df6e146103a657806344142db5146103ca578063556f6e6b146103d25780635c975abb146103ef5780636b036f45146103f757806370a08231146103ff57610268565b80632f3d3b1414610369578063386a9525146103715780633c6b16ab146103795780633d18b912146103965780633f4ba83a1461039e57610268565b80631976214311610231578063197621431461030e5780631c1f78eb14610334578063242df9e11461033c57806327ab1969146103445780632e1a7d4d1461034c57610268565b80628cc2621461026d5780630700037d146102a55780630d29fcd4146102cb5780631265cc97146102ea57806318160ddd14610306575b600080fd5b6102936004803603602081101561028357600080fd5b50356001600160a01b03166105c7565b60408051918252519081900360200190f35b610293600480360360208110156102bb57600080fd5b50356001600160a01b031661065d565b6102e8600480360360208110156102e157600080fd5b503561066f565b005b6102f261074e565b604080519115158252519081900360200190f35b610293610757565b6102e86004803603602081101561032457600080fd5b50356001600160a01b031661075e565b6102936107e2565b610293610800565b610293610806565b6102e86004803603602081101561036257600080fd5b5035610839565b6102e86109da565b610293610a96565b6102e86004803603602081101561038f57600080fd5b5035610a9c565b6102e8610d3a565b6102e8610f29565b6103ae610fe5565b604080516001600160a01b039092168252519081900360200190f35b6102e8610ff4565b6102e8600480360360208110156103e857600080fd5b5035611111565b6102f2611262565b610293611270565b6102936004803603602081101561041557600080fd5b50356001600160a01b0316611276565b6102e8611291565b6103ae61133d565b61029361134c565b610293611352565b6102e8611360565b6102e86004803603604081101561046357600080fd5b506001600160a01b038135169060200135611417565b6102936004803603602081101561048f57600080fd5b50356001600160a01b0316611530565b6103ae611542565b6102e8600480360360208110156104bd57600080fd5b5035611551565b6102936116cb565b6102e8600480360360208110156104e257600080fd5b50356116d1565b6102936117f0565b6103ae61184a565b610293611859565b6102e861185f565b6102e86004803603602081101561051f57600080fd5b5035611924565b6102e8611a03565b610293611a66565b6102e86004803603602081101561054c57600080fd5b50356001600160a01b0316611a6c565b610293611b6f565b6102e8600480360360a081101561057a57600080fd5b506001600160a01b0381358116916020810135821691604082013581169160608101359091169060800135611baa565b6102e8600480360360208110156105c057600080fd5b5035611cdd565b6001600160a01b038116600090815260d3602090815260408083205460d2909252822054610657919061064b90670de0b6b3a76400009061063f9061061a9061060e6117f0565b9063ffffffff611d4416565b6001600160a01b038816600090815260d560205260409020549063ffffffff611da116565b9063ffffffff611e0116565b9063ffffffff611e6816565b92915050565b60d36020526000908152604090205481565b60985460ff16156106b15760405162461bcd60e51b8152600401808060200182810382526046815260200180612b326046913960600191505060405180910390fd5b6106b9611ec2565b6001600160a01b03166106ca611542565b6001600160a01b031614610713576040805162461bcd60e51b81526020600482018190526024820152600080516020612c5b833981519152604482015290519081900360640190fd5b60d88190556040805182815290517ff7fc4cb95c43f64f7a376fd9ef5947d85e6aff2df3e9b1715789ffff63d716329181900360200190a150565b60985460ff1681565b60d4545b90565b610766611ec2565b6001600160a01b0316610777611542565b6001600160a01b0316146107c0576040805162461bcd60e51b81526020600482018190526024820152600080516020612c5b833981519152604482015290519081900360640190fd5b606580546001600160a01b0319166001600160a01b0392909216919091179055565b60006107fb60ce5460cd54611da190919063ffffffff16565b905090565b60cf5481565b60008060006108204260cc54611ec690919063ffffffff16565b9150915081610830576000610832565b805b9250505090565b60985460ff161561087b5760405162461bcd60e51b8152600401808060200182810382526046815260200180612b326046913960600191505060405180910390fd5b600260665414156108d3576040805162461bcd60e51b815260206004820152601f60248201527f5265656e7472616e637947756172643a207265656e7472616e742063616c6c00604482015290519081900360640190fd5b6002606655609854339060ff1661093e576108ec6117f0565b60d1556108f7611352565b60d0556001600160a01b0381161561093e57610912816105c7565b6001600160a01b038216600090815260d3602090815260408083209390935560d15460d2909152919020555b60cf54158061096f575060cf5433600090815260d6602052604090205461096c90429063ffffffff611d4416565b10155b6109aa5760405162461bcd60e51b8152600401808060200182810382526035815260200180612c7b6035913960400191505060405180910390fd5b6109b43383611eec565b60cb546109d1906001600160a01b0316338463ffffffff61201016565b50506001606655565b60985460ff16610a1b5760405162461bcd60e51b8152600401808060200182810382526048815260200180612b786048913960600191505060405180910390fd5b33600090815260d560205260409020548015610a935760d454610a44908263ffffffff611d4416565b60d45533600090815260d56020526040902054610a67908263ffffffff611d4416565b33600081815260d5602052604090209190915560cb54610a93916001600160a01b039091169083612010565b50565b60ce5481565b60985460ff1615610ade5760405162461bcd60e51b8152600401808060200182810382526046815260200180612b326046913960600191505060405180910390fd5b6065546001600160a01b03163314610b275760405162461bcd60e51b815260040180806020018281038252602a815260200180612cd6602a913960400191505060405180910390fd5b60985460009060ff16610b8e57610b3c6117f0565b60d155610b47611352565b60d0556001600160a01b03811615610b8e57610b62816105c7565b6001600160a01b038216600090815260d3602090815260408083209390935560d15460d2909152919020555b60cc544210610bb35760ce54610bab90839063ffffffff611e0116565b60cd55610c02565b60cc54600090610bc9904263ffffffff611d4416565b90506000610be260cd5483611da190919063ffffffff16565b60ce54909150610bfc9061063f868463ffffffff611e6816565b60cd5550505b60ca54604080516370a0823160e01b815230600482015290516000926001600160a01b0316916370a08231916024808301926020929190829003018186803b158015610c4d57600080fd5b505afa158015610c61573d6000803e3d6000fd5b505050506040513d6020811015610c7757600080fd5b505160ce54909150610c9090829063ffffffff611e0116565b60cd541115610ce6576040805162461bcd60e51b815260206004820152601860248201527f50726f76696465642072657761726420746f6f20686967680000000000000000604482015290519081900360640190fd5b4260d081905560ce54610cff919063ffffffff611e6816565b60cc556040805184815290517fde88a922e0d3b88b24e9623efeb464919c6bf9f66857a65e2bfcf2ce87a9433d9181900360200190a1505050565b60985460ff1615610d7c5760405162461bcd60e51b8152600401808060200182810382526046815260200180612b326046913960600191505060405180910390fd5b60026066541415610dd4576040805162461bcd60e51b815260206004820152601f60248201527f5265656e7472616e637947756172643a207265656e7472616e742063616c6c00604482015290519081900360640190fd5b6002606655609854339060ff16610e3f57610ded6117f0565b60d155610df8611352565b60d0556001600160a01b03811615610e3f57610e13816105c7565b6001600160a01b038216600090815260d3602090815260408083209390935560d15460d2909152919020555b60cf541580610e70575060cf5433600090815260d66020526040902054610e6d90429063ffffffff611d4416565b10155b610eab5760405162461bcd60e51b8152600401808060200182810382526037815260200180612d2a6037913960400191505060405180910390fd5b33600090815260d3602052604090205480156109d15733600081815260d3602052604081205560ca54610eea916001600160a01b039091169083612010565b60408051828152905133917fe2403640ba68fed3a2f88b7557551d1993f84b99bb10ff833f0cf8db0c5e0486919081900360200190a250506001606655565b610f31611ec2565b6001600160a01b0316610f42611542565b6001600160a01b031614610f8b576040805162461bcd60e51b81526020600482018190526024820152600080516020612c5b833981519152604482015290519081900360640190fd5b610f93611262565b610fdb576040805162461bcd60e51b815260206004820152601460248201527314185d5cd8589b194e881b9bdd081c185d5cd95960621b604482015290519081900360640190fd5b610fe3612067565b565b6065546001600160a01b031681565b610ffc611ec2565b6001600160a01b031661100d611542565b6001600160a01b031614611056576040805162461bcd60e51b81526020600482018190526024820152600080516020612c5b833981519152604482015290519081900360640190fd5b60d45460cb54604080516370a0823160e01b815230600482015290516000936110e59390926001600160a01b03909116916370a0823191602480820192602092909190829003018186803b1580156110ad57600080fd5b505afa1580156110c1573d6000803e3d6000fd5b505050506040513d60208110156110d757600080fd5b50519063ffffffff611d4416565b90508015610a9357610a936110f8611542565b60cb546001600160a01b0316908363ffffffff61201016565b60985460ff16156111535760405162461bcd60e51b8152600401808060200182810382526046815260200180612b326046913960600191505060405180910390fd5b61115b611ec2565b6001600160a01b031661116c611542565b6001600160a01b0316146111b5576040805162461bcd60e51b81526020600482018190526024820152600080516020612c5b833981519152604482015290519081900360640190fd5b60985460009060ff1661121c576111ca6117f0565b60d1556111d5611352565b60d0556001600160a01b0381161561121c576111f0816105c7565b6001600160a01b038216600090815260d3602090815260408083209390935560d15460d2909152919020555b60d054821161125c5760405162461bcd60e51b8152600401808060200182810382526026815260200180612cb06026913960400191505060405180910390fd5b5060cc55565b609854610100900460ff1690565b60d85481565b6001600160a01b0316600090815260d5602052604090205490565b611299611ec2565b6001600160a01b03166112aa611542565b6001600160a01b0316146112f3576040805162461bcd60e51b81526020600482018190526024820152600080516020612c5b833981519152604482015290519081900360640190fd5b6033546040516000916001600160a01b0316907f8be0079c531659141344cd1fd0a4f28419497f9722a3daafe3b4186f6b6457e0908390a3603380546001600160a01b0319169055565b60cb546001600160a01b031681565b60cd5481565b60006107fb4260cc54612108565b611368611ec2565b6001600160a01b0316611379611542565b6001600160a01b0316146113c2576040805162461bcd60e51b81526020600482018190526024820152600080516020612c5b833981519152604482015290519081900360640190fd5b6113ca611262565b1561140f576040805162461bcd60e51b815260206004820152601060248201526f14185d5cd8589b194e881c185d5cd95960821b604482015290519081900360640190fd5b610fe361211e565b61141f611ec2565b6001600160a01b0316611430611542565b6001600160a01b031614611479576040805162461bcd60e51b81526020600482018190526024820152600080516020612c5b833981519152604482015290519081900360640190fd5b60cb546001600160a01b03838116911614156114c65760405162461bcd60e51b8152600401808060200182810382526021815260200180612d616021913960400191505060405180910390fd5b6114e86114d1611542565b6001600160a01b038416908363ffffffff61201016565b604080516001600160a01b03841681526020810183905281517f8c1256b8896378cd5044f80c202f9772b9d77dc85c8a6eb51967210b09bfaa28929181900390910190a15050565b60d26020526000908152604090205481565b6033546001600160a01b031690565b60985460ff16156115935760405162461bcd60e51b8152600401808060200182810382526046815260200180612b326046913960600191505060405180910390fd5b600260665414156115eb576040805162461bcd60e51b815260206004820152601f60248201527f5265656e7472616e637947756172643a207265656e7472616e742063616c6c00604482015290519081900360640190fd5b60026066556115f8611262565b1561163d576040805162461bcd60e51b815260206004820152601060248201526f14185d5cd8589b194e881c185d5cd95960821b604482015290519081900360640190fd5b609854339060ff166116a3576116516117f0565b60d15561165c611352565b60d0556001600160a01b038116156116a357611677816105c7565b6001600160a01b038216600090815260d3602090815260408083209390935560d15460d2909152919020555b6116ad33836121a3565b60cb546109d1906001600160a01b031633308563ffffffff6122c116565b60d05481565b60985460ff16156117135760405162461bcd60e51b8152600401808060200182810382526046815260200180612b326046913960600191505060405180910390fd5b61171b611ec2565b6001600160a01b031661172c611542565b6001600160a01b031614611775576040805162461bcd60e51b81526020600482018190526024820152600080516020612c5b833981519152604482015290519081900360640190fd5b60cc5442116117b55760405162461bcd60e51b8152600401808060200182810382526058815260200180612ada6058913960600191505060405180910390fd5b60ce8190556040805182815290517ffb46ca5a5e06d4540d6387b930a7c978bce0db5f449ec6b3f5d07c6e1d44f2d39181900360200190a150565b600060d45460001415611806575060d15461075b565b6107fb61183b60d45461063f670de0b6b3a764000061182f60cd5461182f60d05461060e611352565b9063ffffffff611da116565b60d1549063ffffffff611e6816565b60ca546001600160a01b031681565b60d15481565b60985460ff16156118a15760405162461bcd60e51b8152600401808060200182810382526046815260200180612b326046913960600191505060405180910390fd5b6118a9611ec2565b6001600160a01b03166118ba611542565b6001600160a01b031614611903576040805162461bcd60e51b81526020600482018190526024820152600080516020612c5b833981519152604482015290519081900360640190fd5b600060d881905560cf81905560cc81905560cd81905560d155610fe3612321565b60985460ff16156119665760405162461bcd60e51b8152600401808060200182810382526046815260200180612b326046913960600191505060405180910390fd5b61196e611ec2565b6001600160a01b031661197f611542565b6001600160a01b0316146119c8576040805162461bcd60e51b81526020600482018190526024820152600080516020612c5b833981519152604482015290519081900360640190fd5b60cf8190556040805182815290517f2b0fa66d155c9598699cb6569577f27b95729bbf580268eed39db6bc4e8144779181900360200190a150565b60985460ff1615611a455760405162461bcd60e51b8152600401808060200182810382526046815260200180612b326046913960600191505060405180910390fd5b33600090815260d56020526040902054611a5e90610839565b610fe3610d3a565b60cc5481565b611a74611ec2565b6001600160a01b0316611a85611542565b6001600160a01b031614611ace576040805162461bcd60e51b81526020600482018190526024820152600080516020612c5b833981519152604482015290519081900360640190fd5b6001600160a01b038116611b135760405162461bcd60e51b8152600401808060200182810382526026815260200180612bc06026913960400191505060405180910390fd5b6033546040516001600160a01b038084169216907f8be0079c531659141344cd1fd0a4f28419497f9722a3daafe3b4186f6b6457e090600090a3603380546001600160a01b0319166001600160a01b0392909216919091179055565b60cf5433600090815260d66020526040812054909182918291610820914291611b9e919063ffffffff611e6816565b9063ffffffff611ec616565b600054610100900460ff1680611bc35750611bc36123bb565b80611bd1575060005460ff16155b611c0c5760405162461bcd60e51b815260040180806020018281038252602e815260200180612c0c602e913960400191505060405180910390fd5b600054610100900460ff16158015611c37576000805460ff1961ff0019909116610100171660011790555b611c3f6123cc565b611c47612475565b611c4f61256e565b611c5761261a565b611c5f6126c5565b611c6761276b565b611c7086611a6c565b60ca80546001600160a01b038087166001600160a01b03199283161790925560cb8054868416908316179055606580549288169290911691909117905560cf829055600060cc81905560cd5562ed4e0060ce558015611cd5576000805461ff00191690555b505050505050565b611ce5611ec2565b6001600160a01b0316611cf6611542565b6001600160a01b031614611d3f576040805162461bcd60e51b81526020600482018190526024820152600080516020612c5b833981519152604482015290519081900360640190fd5b60d855565b600082821115611d9b576040805162461bcd60e51b815260206004820152601e60248201527f536166654d6174683a207375627472616374696f6e206f766572666c6f770000604482015290519081900360640190fd5b50900390565b600082611db057506000610657565b82820282848281611dbd57fe5b0414611dfa5760405162461bcd60e51b8152600401808060200182810382526021815260200180612c3a6021913960400191505060405180910390fd5b9392505050565b6000808211611e57576040805162461bcd60e51b815260206004820152601a60248201527f536166654d6174683a206469766973696f6e206279207a65726f000000000000604482015290519081900360640190fd5b818381611e6057fe5b049392505050565b600082820183811015611dfa576040805162461bcd60e51b815260206004820152601b60248201527f536166654d6174683a206164646974696f6e206f766572666c6f770000000000604482015290519081900360640190fd5b3390565b60008083831115611edc57506000905080611ee5565b50600190508183035b9250929050565b60008111611f35576040805162461bcd60e51b8152602060048201526011602482015270043616e6e6f74207769746864726177203607c1b604482015290519081900360640190fd5b60d454611f48908263ffffffff611d4416565b60d4556001600160a01b038216600090815260d56020526040902054611f74908263ffffffff611d4416565b6001600160a01b038316600090815260d560205260409020819055611fb1576001600160a01b038216600090815260d66020526040812055611fcd565b6001600160a01b038216600090815260d6602052604090204290555b6040805182815290516001600160a01b038416917f7084f5476618d8e60b11ef0d7d3f06914655adb8793e28ff7f018d4c76d505d5919081900360200190a25050565b604080516001600160a01b038416602482015260448082018490528251808303909101815260649091019091526020810180516001600160e01b031663a9059cbb60e01b17905261206290849061280b565b505050565b61206f611262565b6120b7576040805162461bcd60e51b815260206004820152601460248201527314185d5cd8589b194e881b9bdd081c185d5cd95960621b604482015290519081900360640190fd5b6098805461ff00191690557f5db9ee0a495bf2e6ff9c91a7834c1ba4fdd244a5e8aa4e537bd38aeae4b073aa6120eb611ec2565b604080516001600160a01b039092168252519081900360200190a1565b60008183106121175781611dfa565b5090919050565b612126611262565b1561216b576040805162461bcd60e51b815260206004820152601060248201526f14185d5cd8589b194e881c185d5cd95960821b604482015290519081900360640190fd5b6098805461ff0019166101001790557f62e78cea01bee320cd4e420270b5ea74000d11b0c9f74754ebdbfc544b05a2586120eb611ec2565b60d8548110156121fa576040805162461bcd60e51b815260206004820152601d60248201527f4d696e696d756d207374616b6520616d6f756e74207265717569726564000000604482015290519081900360640190fd5b60d45461220d908263ffffffff611e6816565b60d4556001600160a01b038216600090815260d56020526040902054612239908263ffffffff611e6816565b6001600160a01b038316600090815260d5602090815260408083209390935560d69052205461227e576001600160a01b038216600090815260d6602052604090204290555b6040805182815290516001600160a01b038416917f9e71bc8eea02a63969f509818f2dafb9254532904319f9dbda79b67bd34a5f3d919081900360200190a25050565b604080516001600160a01b0380861660248301528416604482015260648082018490528251808303909101815260849091019091526020810180516001600160e01b03166323b872dd60e01b17905261231b90859061280b565b50505050565b612329611ec2565b6001600160a01b031661233a611542565b6001600160a01b031614612383576040805162461bcd60e51b81526020600482018190526024820152600080516020612c5b833981519152604482015290519081900360640190fd5b6098805460ff191660011790556040517fe68101b30364d616deefc8cd307b7e27ccbd9c73f138bd478179497563d97a1190600090a1565b60006123c6306128bc565b15905090565b600054610100900460ff16806123e557506123e56123bb565b806123f3575060005460ff16155b61242e5760405162461bcd60e51b815260040180806020018281038252602e815260200180612c0c602e913960400191505060405180910390fd5b600054610100900460ff16158015612459576000805460ff1961ff0019909116610100171660011790555b61246161276b565b8015610a93576000805461ff001916905550565b600054610100900460ff168061248e575061248e6123bb565b8061249c575060005460ff16155b6124d75760405162461bcd60e51b815260040180806020018281038252602e815260200180612c0c602e913960400191505060405180910390fd5b600054610100900460ff16158015612502576000805460ff1961ff0019909116610100171660011790555b600061250c611ec2565b603380546001600160a01b0319166001600160a01b038316908117909155604051919250906000907f8be0079c531659141344cd1fd0a4f28419497f9722a3daafe3b4186f6b6457e0908290a3508015610a93576000805461ff001916905550565b600054610100900460ff168061258757506125876123bb565b80612595575060005460ff16155b6125d05760405162461bcd60e51b815260040180806020018281038252602e815260200180612c0c602e913960400191505060405180910390fd5b600054610100900460ff161580156125fb576000805460ff1961ff0019909116610100171660011790555b6098805461ff00191690558015610a93576000805461ff001916905550565b600054610100900460ff168061263357506126336123bb565b80612641575060005460ff16155b61267c5760405162461bcd60e51b815260040180806020018281038252602e815260200180612c0c602e913960400191505060405180910390fd5b600054610100900460ff161580156126a7576000805460ff1961ff0019909116610100171660011790555b6098805460ff191690558015610a93576000805461ff001916905550565b600054610100900460ff16806126de57506126de6123bb565b806126ec575060005460ff16155b6127275760405162461bcd60e51b815260040180806020018281038252602e815260200180612c0c602e913960400191505060405180910390fd5b600054610100900460ff16158015612752576000805460ff1961ff0019909116610100171660011790555b60016066558015610a93576000805461ff001916905550565b600054610100900460ff168061278457506127846123bb565b80612792575060005460ff16155b6127cd5760405162461bcd60e51b815260040180806020018281038252602e815260200180612c0c602e913960400191505060405180910390fd5b600054610100900460ff16158015612461576000805460ff1961ff0019909116610100171660011790558015610a93576000805461ff001916905550565b6060612860826040518060400160405280602081526020017f5361666545524332303a206c6f772d6c6576656c2063616c6c206661696c6564815250856001600160a01b03166128c29092919063ffffffff16565b8051909150156120625780806020019051602081101561287f57600080fd5b50516120625760405162461bcd60e51b815260040180806020018281038252602a815260200180612d00602a913960400191505060405180910390fd5b3b151590565b60606128d184846000856128d9565b949350505050565b60608247101561291a5760405162461bcd60e51b8152600401808060200182810382526026815260200180612be66026913960400191505060405180910390fd5b612923856128bc565b612974576040805162461bcd60e51b815260206004820152601d60248201527f416464726573733a2063616c6c20746f206e6f6e2d636f6e7472616374000000604482015290519081900360640190fd5b60006060866001600160a01b031685876040518082805190602001908083835b602083106129b35780518252601f199092019160209182019101612994565b6001836020036101000a03801982511681845116808217855250505050505090500191505060006040518083038185875af1925050503d8060008114612a15576040519150601f19603f3d011682016040523d82523d6000602084013e612a1a565b606091505b5091509150612a2a828286612a35565b979650505050505050565b60608315612a44575081611dfa565b825115612a545782518084602001fd5b8160405162461bcd60e51b81526004018080602001828103825283818151815260200191508051906020019080838360005b83811015612a9e578181015183820152602001612a86565b50505050905090810190601f168015612acb5780820380516001836020036101000a031916815260200191505b509250505060405180910390fdfe50726576696f7573207265776172647320706572696f64206d75737420626520636f6d706c657465206265666f7265206368616e67696e6720746865206475726174696f6e20666f7220746865206e657720706572696f645468697320616374696f6e2063616e6e6f7420626520706572666f726d6564207768696c652074686520636f6e747261637420697320696e204661696c73616665204d6f64655468697320616374696f6e2063616e206f6e6c7920626520706572666f726d6564207768696c652074686520636f6e747261637420697320696e204661696c73616665204d6f64654f776e61626c653a206e6577206f776e657220697320746865207a65726f2061646472657373416464726573733a20696e73756666696369656e742062616c616e636520666f722063616c6c496e697469616c697a61626c653a20636f6e747261637420697320616c726561647920696e697469616c697a6564536166654d6174683a206d756c7469706c69636174696f6e206f766572666c6f774f776e61626c653a2063616c6c6572206973206e6f7420746865206f776e657243616e6e6f7420776974686472617720756e74696c206d696e696d756d207374616b696e672074696d65206861732070617373656454696d657374616d70206d757374206265206166746572206c61737455706461746554696d6543616c6c6572206973206e6f742052657761726473446973747269627574696f6e20636f6e74726163745361666545524332303a204552433230206f7065726174696f6e20646964206e6f74207375636365656443616e6e6f74206765742072657761726420756e74696c206d696e696d756d207374616b696e672074696d65206861732070617373656443616e6e6f7420776974686472617720746865207374616b696e6720746f6b656ea2646970667358221220f5f8931e0b546477854e96307fede213f18e5ece9dc8cd075d5f87f60ebbb50d64736f6c63430006050033",
  "immutableReferences": {},
  "source": "pragma solidity ^0.6.2;\n\nimport \"./staking/StakingRewardsUpgradeable.sol\";\n\ncontract LPStakingRewardsUpgradeable is StakingRewardsUpgradeable {\n}\n",
  "sourcePath": "D:\\Work\\MEVN\\cryptoblades-main\\cryptoblades-main\\contracts\\LPStakingRewardsUpgradeable.sol",
  "compiler": {
    "name": "solc",
    "version": "0.6.5+commit.f956cc89.Emscripten.clang"
  },
  "schemaVersion": "3.4.3",
  "updatedAt": "2021-09-18T03:37:02.184Z",
  "devdoc": {
    "methods": {
      "owner()": {
        "details": "Returns the address of the current owner."
      },
      "paused()": {
        "details": "Returns true if the contract is paused, and false otherwise."
      },
      "renounceOwnership()": {
        "details": "Leaves the contract without owner. It will not be possible to call `onlyOwner` functions anymore. Can only be called by the current owner.     * NOTE: Renouncing ownership will leave the contract without an owner, thereby removing any functionality that is only available to the owner."
      },
      "transferOwnership(address)": {
        "details": "Transfers ownership of the contract to a new account (`newOwner`). Can only be called by the current owner."
      }
    }
  },
  "userdoc": {
    "methods": {}
  }
}