{
  "contractName": "NFTMarket",
  "abi": [
    {
      "anonymous": false,
      "inputs": [
        {
          "indexed": true,
          "internalType": "address",
          "name": "seller",
          "type": "address"
        },
        {
          "indexed": true,
          "internalType": "contract IERC721",
          "name": "nftAddress",
          "type": "address"
        },
        {
          "indexed": true,
          "internalType": "uint256",
          "name": "nftID",
          "type": "uint256"
        }
      ],
      "name": "CancelledListing",
      "type": "event"
    },
    {
      "anonymous": false,
      "inputs": [
        {
          "indexed": true,
          "internalType": "address",
          "name": "seller",
          "type": "address"
        },
        {
          "indexed": true,
          "internalType": "contract IERC721",
          "name": "nftAddress",
          "type": "address"
        },
        {
          "indexed": true,
          "internalType": "uint256",
          "name": "nftID",
          "type": "uint256"
        },
        {
          "indexed": false,
          "internalType": "uint256",
          "name": "newPrice",
          "type": "uint256"
        }
      ],
      "name": "ListingPriceChange",
      "type": "event"
    },
    {
      "anonymous": false,
      "inputs": [
        {
          "indexed": true,
          "internalType": "address",
          "name": "seller",
          "type": "address"
        },
        {
          "indexed": true,
          "internalType": "contract IERC721",
          "name": "nftAddress",
          "type": "address"
        },
        {
          "indexed": true,
          "internalType": "uint256",
          "name": "nftID",
          "type": "uint256"
        },
        {
          "indexed": false,
          "internalType": "address",
          "name": "newTargetBuyer",
          "type": "address"
        }
      ],
      "name": "ListingTargetBuyerChange",
      "type": "event"
    },
    {
      "anonymous": false,
      "inputs": [
        {
          "indexed": true,
          "internalType": "address",
          "name": "seller",
          "type": "address"
        },
        {
          "indexed": true,
          "internalType": "contract IERC721",
          "name": "nftAddress",
          "type": "address"
        },
        {
          "indexed": true,
          "internalType": "uint256",
          "name": "nftID",
          "type": "uint256"
        },
        {
          "indexed": false,
          "internalType": "uint256",
          "name": "price",
          "type": "uint256"
        },
        {
          "indexed": false,
          "internalType": "address",
          "name": "targetBuyer",
          "type": "address"
        }
      ],
      "name": "NewListing",
      "type": "event"
    },
    {
      "anonymous": false,
      "inputs": [
        {
          "indexed": true,
          "internalType": "address",
          "name": "buyer",
          "type": "address"
        },
        {
          "indexed": false,
          "internalType": "address",
          "name": "seller",
          "type": "address"
        },
        {
          "indexed": true,
          "internalType": "contract IERC721",
          "name": "nftAddress",
          "type": "address"
        },
        {
          "indexed": true,
          "internalType": "uint256",
          "name": "nftID",
          "type": "uint256"
        },
        {
          "indexed": false,
          "internalType": "uint256",
          "name": "price",
          "type": "uint256"
        }
      ],
      "name": "PurchasedListing",
      "type": "event"
    },
    {
      "anonymous": false,
      "inputs": [
        {
          "indexed": true,
          "internalType": "bytes32",
          "name": "role",
          "type": "bytes32"
        },
        {
          "indexed": true,
          "internalType": "bytes32",
          "name": "previousAdminRole",
          "type": "bytes32"
        },
        {
          "indexed": true,
          "internalType": "bytes32",
          "name": "newAdminRole",
          "type": "bytes32"
        }
      ],
      "name": "RoleAdminChanged",
      "type": "event"
    },
    {
      "anonymous": false,
      "inputs": [
        {
          "indexed": true,
          "internalType": "bytes32",
          "name": "role",
          "type": "bytes32"
        },
        {
          "indexed": true,
          "internalType": "address",
          "name": "account",
          "type": "address"
        },
        {
          "indexed": true,
          "internalType": "address",
          "name": "sender",
          "type": "address"
        }
      ],
      "name": "RoleGranted",
      "type": "event"
    },
    {
      "anonymous": false,
      "inputs": [
        {
          "indexed": true,
          "internalType": "bytes32",
          "name": "role",
          "type": "bytes32"
        },
        {
          "indexed": true,
          "internalType": "address",
          "name": "account",
          "type": "address"
        },
        {
          "indexed": true,
          "internalType": "address",
          "name": "sender",
          "type": "address"
        }
      ],
      "name": "RoleRevoked",
      "type": "event"
    },
    {
      "inputs": [],
      "name": "DEFAULT_ADMIN_ROLE",
      "outputs": [
        {
          "internalType": "bytes32",
          "name": "",
          "type": "bytes32"
        }
      ],
      "stateMutability": "view",
      "type": "function"
    },
    {
      "inputs": [],
      "name": "GAME_ADMIN",
      "outputs": [
        {
          "internalType": "bytes32",
          "name": "",
          "type": "bytes32"
        }
      ],
      "stateMutability": "view",
      "type": "function"
    },
    {
      "inputs": [],
      "name": "addFee",
      "outputs": [
        {
          "internalType": "int128",
          "name": "",
          "type": "int128"
        }
      ],
      "stateMutability": "view",
      "type": "function"
    },
    {
      "inputs": [],
      "name": "changeFee",
      "outputs": [
        {
          "internalType": "int128",
          "name": "",
          "type": "int128"
        }
      ],
      "stateMutability": "view",
      "type": "function"
    },
    {
      "inputs": [],
      "name": "defaultTax",
      "outputs": [
        {
          "internalType": "int128",
          "name": "",
          "type": "int128"
        }
      ],
      "stateMutability": "view",
      "type": "function"
    },
    {
      "inputs": [
        {
          "internalType": "bytes32",
          "name": "role",
          "type": "bytes32"
        }
      ],
      "name": "getRoleAdmin",
      "outputs": [
        {
          "internalType": "bytes32",
          "name": "",
          "type": "bytes32"
        }
      ],
      "stateMutability": "view",
      "type": "function"
    },
    {
      "inputs": [
        {
          "internalType": "bytes32",
          "name": "role",
          "type": "bytes32"
        },
        {
          "internalType": "uint256",
          "name": "index",
          "type": "uint256"
        }
      ],
      "name": "getRoleMember",
      "outputs": [
        {
          "internalType": "address",
          "name": "",
          "type": "address"
        }
      ],
      "stateMutability": "view",
      "type": "function"
    },
    {
      "inputs": [
        {
          "internalType": "bytes32",
          "name": "role",
          "type": "bytes32"
        }
      ],
      "name": "getRoleMemberCount",
      "outputs": [
        {
          "internalType": "uint256",
          "name": "",
          "type": "uint256"
        }
      ],
      "stateMutability": "view",
      "type": "function"
    },
    {
      "inputs": [
        {
          "internalType": "bytes32",
          "name": "role",
          "type": "bytes32"
        },
        {
          "internalType": "address",
          "name": "account",
          "type": "address"
        }
      ],
      "name": "grantRole",
      "outputs": [],
      "stateMutability": "nonpayable",
      "type": "function"
    },
    {
      "inputs": [
        {
          "internalType": "bytes32",
          "name": "role",
          "type": "bytes32"
        },
        {
          "internalType": "address",
          "name": "account",
          "type": "address"
        }
      ],
      "name": "hasRole",
      "outputs": [
        {
          "internalType": "bool",
          "name": "",
          "type": "bool"
        }
      ],
      "stateMutability": "view",
      "type": "function"
    },
    {
      "inputs": [
        {
          "internalType": "address",
          "name": "",
          "type": "address"
        }
      ],
      "name": "isTokenBanned",
      "outputs": [
        {
          "internalType": "bool",
          "name": "",
          "type": "bool"
        }
      ],
      "stateMutability": "view",
      "type": "function"
    },
    {
      "inputs": [
        {
          "internalType": "address",
          "name": "",
          "type": "address"
        }
      ],
      "name": "isUserBanned",
      "outputs": [
        {
          "internalType": "bool",
          "name": "",
          "type": "bool"
        }
      ],
      "stateMutability": "view",
      "type": "function"
    },
    {
      "inputs": [],
      "name": "priceOracleSkillPerUsd",
      "outputs": [
        {
          "internalType": "contract IPriceOracle",
          "name": "",
          "type": "address"
        }
      ],
      "stateMutability": "view",
      "type": "function"
    },
    {
      "inputs": [
        {
          "internalType": "bytes32",
          "name": "role",
          "type": "bytes32"
        },
        {
          "internalType": "address",
          "name": "account",
          "type": "address"
        }
      ],
      "name": "renounceRole",
      "outputs": [],
      "stateMutability": "nonpayable",
      "type": "function"
    },
    {
      "inputs": [
        {
          "internalType": "bytes32",
          "name": "role",
          "type": "bytes32"
        },
        {
          "internalType": "address",
          "name": "account",
          "type": "address"
        }
      ],
      "name": "revokeRole",
      "outputs": [],
      "stateMutability": "nonpayable",
      "type": "function"
    },
    {
      "inputs": [],
      "name": "skillToken",
      "outputs": [
        {
          "internalType": "contract IERC20",
          "name": "",
          "type": "address"
        }
      ],
      "stateMutability": "view",
      "type": "function"
    },
    {
      "inputs": [
        {
          "internalType": "address",
          "name": "",
          "type": "address"
        }
      ],
      "name": "tax",
      "outputs": [
        {
          "internalType": "int128",
          "name": "",
          "type": "int128"
        }
      ],
      "stateMutability": "view",
      "type": "function"
    },
    {
      "inputs": [],
      "name": "taxRecipient",
      "outputs": [
        {
          "internalType": "address",
          "name": "",
          "type": "address"
        }
      ],
      "stateMutability": "view",
      "type": "function"
    },
    {
      "inputs": [
        {
          "internalType": "contract IERC20",
          "name": "_skillToken",
          "type": "address"
        },
        {
          "internalType": "address",
          "name": "_taxRecipient",
          "type": "address"
        }
      ],
      "name": "initialize",
      "outputs": [],
      "stateMutability": "nonpayable",
      "type": "function"
    },
    {
      "inputs": [
        {
          "internalType": "contract Characters",
          "name": "_charactersContract",
          "type": "address"
        },
        {
          "internalType": "contract Weapons",
          "name": "_weaponsContract",
          "type": "address"
        }
      ],
      "name": "migrateTo_a98a9ac",
      "outputs": [],
      "stateMutability": "nonpayable",
      "type": "function"
    },
    {
      "inputs": [
        {
          "internalType": "contract IPriceOracle",
          "name": "_priceOracleSkillPerUsd",
          "type": "address"
        }
      ],
      "name": "migrateTo_2316231",
      "outputs": [],
      "stateMutability": "nonpayable",
      "type": "function"
    },
    {
      "inputs": [
        {
          "internalType": "contract IERC721",
          "name": "_tokenAddress",
          "type": "address"
        }
      ],
      "name": "isTokenAllowed",
      "outputs": [
        {
          "internalType": "bool",
          "name": "",
          "type": "bool"
        }
      ],
      "stateMutability": "view",
      "type": "function"
    },
    {
      "inputs": [],
      "name": "getAllowedTokenTypes",
      "outputs": [
        {
          "internalType": "contract IERC721[]",
          "name": "",
          "type": "address[]"
        }
      ],
      "stateMutability": "view",
      "type": "function"
    },
    {
      "inputs": [
        {
          "internalType": "contract IERC721",
          "name": "_tokenAddress",
          "type": "address"
        },
        {
          "internalType": "uint256",
          "name": "_tokenId",
          "type": "uint256"
        }
      ],
      "name": "getSellerOfNftID",
      "outputs": [
        {
          "internalType": "address",
          "name": "",
          "type": "address"
        }
      ],
      "stateMutability": "view",
      "type": "function"
    },
    {
      "inputs": [],
      "name": "defaultTaxAsRoundedPercentRoughEstimate",
      "outputs": [
        {
          "internalType": "uint256",
          "name": "",
          "type": "uint256"
        }
      ],
      "stateMutability": "view",
      "type": "function"
    },
    {
      "inputs": [],
      "name": "getListedTokenTypes",
      "outputs": [
        {
          "internalType": "contract IERC721[]",
          "name": "",
          "type": "address[]"
        }
      ],
      "stateMutability": "view",
      "type": "function"
    },
    {
      "inputs": [
        {
          "internalType": "contract IERC721",
          "name": "_tokenAddress",
          "type": "address"
        }
      ],
      "name": "getListingIDs",
      "outputs": [
        {
          "internalType": "uint256[]",
          "name": "",
          "type": "uint256[]"
        }
      ],
      "stateMutability": "view",
      "type": "function"
    },
    {
      "inputs": [
        {
          "internalType": "contract IERC721",
          "name": "_tokenAddress",
          "type": "address"
        },
        {
          "internalType": "uint8",
          "name": "_limit",
          "type": "uint8"
        },
        {
          "internalType": "uint256",
          "name": "_pageNumber",
          "type": "uint256"
        },
        {
          "internalType": "uint8",
          "name": "_trait",
          "type": "uint8"
        },
        {
          "internalType": "uint8",
          "name": "_stars",
          "type": "uint8"
        }
      ],
      "name": "getWeaponListingIDsPage",
      "outputs": [
        {
          "internalType": "uint256[]",
          "name": "",
          "type": "uint256[]"
        }
      ],
      "stateMutability": "view",
      "type": "function"
    },
    {
      "inputs": [
        {
          "internalType": "contract IERC721",
          "name": "_tokenAddress",
          "type": "address"
        },
        {
          "internalType": "uint8",
          "name": "_limit",
          "type": "uint8"
        },
        {
          "internalType": "uint256",
          "name": "_pageNumber",
          "type": "uint256"
        },
        {
          "internalType": "uint8",
          "name": "_trait",
          "type": "uint8"
        },
        {
          "internalType": "uint8",
          "name": "_minLevel",
          "type": "uint8"
        },
        {
          "internalType": "uint8",
          "name": "_maxLevel",
          "type": "uint8"
        }
      ],
      "name": "getCharacterListingIDsPage",
      "outputs": [
        {
          "internalType": "uint256[]",
          "name": "",
          "type": "uint256[]"
        }
      ],
      "stateMutability": "view",
      "type": "function"
    },
    {
      "inputs": [
        {
          "internalType": "contract IERC721",
          "name": "_tokenAddress",
          "type": "address"
        },
        {
          "internalType": "address",
          "name": "_seller",
          "type": "address"
        }
      ],
      "name": "getNumberOfListingsBySeller",
      "outputs": [
        {
          "internalType": "uint256",
          "name": "",
          "type": "uint256"
        }
      ],
      "stateMutability": "view",
      "type": "function"
    },
    {
      "inputs": [
        {
          "internalType": "contract IERC721",
          "name": "_tokenAddress",
          "type": "address"
        },
        {
          "internalType": "address",
          "name": "_seller",
          "type": "address"
        }
      ],
      "name": "getListingIDsBySeller",
      "outputs": [
        {
          "internalType": "uint256[]",
          "name": "tokens",
          "type": "uint256[]"
        }
      ],
      "stateMutability": "view",
      "type": "function"
    },
    {
      "inputs": [
        {
          "internalType": "contract IERC721",
          "name": "_tokenAddress",
          "type": "address"
        }
      ],
      "name": "getNumberOfListingsForToken",
      "outputs": [
        {
          "internalType": "uint256",
          "name": "",
          "type": "uint256"
        }
      ],
      "stateMutability": "view",
      "type": "function"
    },
    {
      "inputs": [
        {
          "internalType": "contract IERC721",
          "name": "_tokenAddress",
          "type": "address"
        },
        {
          "internalType": "uint8",
          "name": "_trait",
          "type": "uint8"
        },
        {
          "internalType": "uint8",
          "name": "_minLevel",
          "type": "uint8"
        },
        {
          "internalType": "uint8",
          "name": "_maxLevel",
          "type": "uint8"
        }
      ],
      "name": "getNumberOfCharacterListings",
      "outputs": [
        {
          "internalType": "uint256",
          "name": "",
          "type": "uint256"
        }
      ],
      "stateMutability": "view",
      "type": "function"
    },
    {
      "inputs": [
        {
          "internalType": "contract IERC721",
          "name": "_tokenAddress",
          "type": "address"
        },
        {
          "internalType": "uint8",
          "name": "_trait",
          "type": "uint8"
        },
        {
          "internalType": "uint8",
          "name": "_stars",
          "type": "uint8"
        }
      ],
      "name": "getNumberOfWeaponListings",
      "outputs": [
        {
          "internalType": "uint256",
          "name": "",
          "type": "uint256"
        }
      ],
      "stateMutability": "view",
      "type": "function"
    },
    {
      "inputs": [
        {
          "internalType": "contract IERC721",
          "name": "_tokenAddress",
          "type": "address"
        },
        {
          "internalType": "uint256",
          "name": "_id",
          "type": "uint256"
        }
      ],
      "name": "getSellerPrice",
      "outputs": [
        {
          "internalType": "uint256",
          "name": "",
          "type": "uint256"
        }
      ],
      "stateMutability": "view",
      "type": "function"
    },
    {
      "inputs": [
        {
          "internalType": "contract IERC721",
          "name": "_tokenAddress",
          "type": "address"
        },
        {
          "internalType": "uint256",
          "name": "_id",
          "type": "uint256"
        }
      ],
      "name": "getFinalPrice",
      "outputs": [
        {
          "internalType": "uint256",
          "name": "",
          "type": "uint256"
        }
      ],
      "stateMutability": "view",
      "type": "function"
    },
    {
      "inputs": [
        {
          "internalType": "contract IERC721",
          "name": "_tokenAddress",
          "type": "address"
        },
        {
          "internalType": "uint256",
          "name": "_id",
          "type": "uint256"
        }
      ],
      "name": "getTaxOnListing",
      "outputs": [
        {
          "internalType": "uint256",
          "name": "",
          "type": "uint256"
        }
      ],
      "stateMutability": "view",
      "type": "function"
    },
    {
      "inputs": [
        {
          "internalType": "contract IERC721",
          "name": "_tokenAddress",
          "type": "address"
        },
        {
          "internalType": "uint256",
          "name": "_id",
          "type": "uint256"
        }
      ],
      "name": "getTargetBuyer",
      "outputs": [
        {
          "internalType": "address",
          "name": "",
          "type": "address"
        }
      ],
      "stateMutability": "view",
      "type": "function"
    },
    {
      "inputs": [
        {
          "internalType": "contract IERC721",
          "name": "_tokenAddress",
          "type": "address"
        },
        {
          "internalType": "uint256",
          "name": "start",
          "type": "uint256"
        },
        {
          "internalType": "uint256",
          "name": "length",
          "type": "uint256"
        }
      ],
      "name": "getListingSlice",
      "outputs": [
        {
          "internalType": "uint256",
          "name": "returnedCount",
          "type": "uint256"
        },
        {
          "internalType": "uint256[]",
          "name": "ids",
          "type": "uint256[]"
        },
        {
          "internalType": "address[]",
          "name": "sellers",
          "type": "address[]"
        },
        {
          "internalType": "uint256[]",
          "name": "prices",
          "type": "uint256[]"
        }
      ],
      "stateMutability": "view",
      "type": "function"
    },
    {
      "inputs": [
        {
          "internalType": "contract IERC721",
          "name": "_tokenAddress",
          "type": "address"
        },
        {
          "internalType": "uint256",
          "name": "_id",
          "type": "uint256"
        },
        {
          "internalType": "uint256",
          "name": "_price",
          "type": "uint256"
        },
        {
          "internalType": "address",
          "name": "_targetBuyer",
          "type": "address"
        }
      ],
      "name": "addListing",
      "outputs": [],
      "stateMutability": "nonpayable",
      "type": "function"
    },
    {
      "inputs": [
        {
          "internalType": "contract IERC721",
          "name": "_tokenAddress",
          "type": "address"
        },
        {
          "internalType": "uint256",
          "name": "_id",
          "type": "uint256"
        },
        {
          "internalType": "uint256",
          "name": "_newPrice",
          "type": "uint256"
        }
      ],
      "name": "changeListingPrice",
      "outputs": [],
      "stateMutability": "nonpayable",
      "type": "function"
    },
    {
      "inputs": [
        {
          "internalType": "contract IERC721",
          "name": "_tokenAddress",
          "type": "address"
        },
        {
          "internalType": "uint256",
          "name": "_id",
          "type": "uint256"
        },
        {
          "internalType": "address",
          "name": "_newTargetBuyer",
          "type": "address"
        }
      ],
      "name": "changeListingTargetBuyer",
      "outputs": [],
      "stateMutability": "nonpayable",
      "type": "function"
    },
    {
      "inputs": [
        {
          "internalType": "contract IERC721",
          "name": "_tokenAddress",
          "type": "address"
        },
        {
          "internalType": "uint256",
          "name": "_id",
          "type": "uint256"
        }
      ],
      "name": "cancelListing",
      "outputs": [],
      "stateMutability": "nonpayable",
      "type": "function"
    },
    {
      "inputs": [
        {
          "internalType": "contract IERC721",
          "name": "_tokenAddress",
          "type": "address"
        },
        {
          "internalType": "uint256",
          "name": "_id",
          "type": "uint256"
        },
        {
          "internalType": "uint256",
          "name": "_maxPrice",
          "type": "uint256"
        }
      ],
      "name": "purchaseListing",
      "outputs": [],
      "stateMutability": "nonpayable",
      "type": "function"
    },
    {
      "inputs": [
        {
          "internalType": "uint256",
          "name": "cents",
          "type": "uint256"
        }
      ],
      "name": "setAddValue",
      "outputs": [],
      "stateMutability": "nonpayable",
      "type": "function"
    },
    {
      "inputs": [
        {
          "internalType": "uint256",
          "name": "cents",
          "type": "uint256"
        }
      ],
      "name": "setChangeValue",
      "outputs": [],
      "stateMutability": "nonpayable",
      "type": "function"
    },
    {
      "inputs": [
        {
          "internalType": "address",
          "name": "_taxRecipient",
          "type": "address"
        }
      ],
      "name": "setTaxRecipient",
      "outputs": [],
      "stateMutability": "nonpayable",
      "type": "function"
    },
    {
      "inputs": [
        {
          "internalType": "int128",
          "name": "_defaultTax",
          "type": "int128"
        }
      ],
      "name": "setDefaultTax",
      "outputs": [],
      "stateMutability": "nonpayable",
      "type": "function"
    },
    {
      "inputs": [
        {
          "internalType": "uint256",
          "name": "_numerator",
          "type": "uint256"
        },
        {
          "internalType": "uint256",
          "name": "_denominator",
          "type": "uint256"
        }
      ],
      "name": "setDefaultTaxAsRational",
      "outputs": [],
      "stateMutability": "nonpayable",
      "type": "function"
    },
    {
      "inputs": [
        {
          "internalType": "uint256",
          "name": "_percent",
          "type": "uint256"
        }
      ],
      "name": "setDefaultTaxAsPercent",
      "outputs": [],
      "stateMutability": "nonpayable",
      "type": "function"
    },
    {
      "inputs": [
        {
          "internalType": "contract IERC721",
          "name": "_tokenAddress",
          "type": "address"
        },
        {
          "internalType": "int128",
          "name": "_newTax",
          "type": "int128"
        }
      ],
      "name": "setTaxOnTokenType",
      "outputs": [],
      "stateMutability": "nonpayable",
      "type": "function"
    },
    {
      "inputs": [
        {
          "internalType": "contract IERC721",
          "name": "_tokenAddress",
          "type": "address"
        },
        {
          "internalType": "uint256",
          "name": "_numerator",
          "type": "uint256"
        },
        {
          "internalType": "uint256",
          "name": "_denominator",
          "type": "uint256"
        }
      ],
      "name": "setTaxOnTokenTypeAsRational",
      "outputs": [],
      "stateMutability": "nonpayable",
      "type": "function"
    },
    {
      "inputs": [
        {
          "internalType": "contract IERC721",
          "name": "_tokenAddress",
          "type": "address"
        },
        {
          "internalType": "uint256",
          "name": "_percent",
          "type": "uint256"
        }
      ],
      "name": "setTaxOnTokenTypeAsPercent",
      "outputs": [],
      "stateMutability": "nonpayable",
      "type": "function"
    },
    {
      "inputs": [
        {
          "internalType": "address",
          "name": "user",
          "type": "address"
        },
        {
          "internalType": "bool",
          "name": "to",
          "type": "bool"
        }
      ],
      "name": "setUserBan",
      "outputs": [],
      "stateMutability": "nonpayable",
      "type": "function"
    },
    {
      "inputs": [
        {
          "internalType": "address[]",
          "name": "users",
          "type": "address[]"
        },
        {
          "internalType": "bool",
          "name": "to",
          "type": "bool"
        }
      ],
      "name": "setUserBans",
      "outputs": [],
      "stateMutability": "nonpayable",
      "type": "function"
    },
    {
      "inputs": [
        {
          "internalType": "contract IERC721",
          "name": "_tokenAddress",
          "type": "address"
        },
        {
          "internalType": "uint256",
          "name": "_id",
          "type": "uint256"
        }
      ],
      "name": "unlistItem",
      "outputs": [],
      "stateMutability": "nonpayable",
      "type": "function"
    },
    {
      "inputs": [
        {
          "internalType": "contract IERC721",
          "name": "_tokenAddress",
          "type": "address"
        },
        {
          "internalType": "uint256[]",
          "name": "_ids",
          "type": "uint256[]"
        }
      ],
      "name": "unlistItems",
      "outputs": [],
      "stateMutability": "nonpayable",
      "type": "function"
    },
    {
      "inputs": [
        {
          "internalType": "contract IERC721",
          "name": "_tokenAddress",
          "type": "address"
        }
      ],
      "name": "allowToken",
      "outputs": [],
      "stateMutability": "nonpayable",
      "type": "function"
    },
    {
      "inputs": [
        {
          "internalType": "contract IERC721",
          "name": "_tokenAddress",
          "type": "address"
        }
      ],
      "name": "disallowToken",
      "outputs": [],
      "stateMutability": "nonpayable",
      "type": "function"
    },
    {
      "inputs": [
        {
          "internalType": "uint256",
          "name": "amount",
          "type": "uint256"
        }
      ],
      "name": "recoverSkill",
      "outputs": [],
      "stateMutability": "nonpayable",
      "type": "function"
    },
    {
      "inputs": [
        {
          "internalType": "int128",
          "name": "usdAmount",
          "type": "int128"
        }
      ],
      "name": "usdToSkill",
      "outputs": [
        {
          "internalType": "uint256",
          "name": "",
          "type": "uint256"
        }
      ],
      "stateMutability": "view",
      "type": "function"
    },
    {
      "inputs": [
        {
          "internalType": "address",
          "name": "",
          "type": "address"
        },
        {
          "internalType": "address",
          "name": "",
          "type": "address"
        },
        {
          "internalType": "uint256",
          "name": "_id",
          "type": "uint256"
        },
        {
          "internalType": "bytes",
          "name": "",
          "type": "bytes"
        }
      ],
      "name": "onERC721Received",
      "outputs": [
        {
          "internalType": "bytes4",
          "name": "",
          "type": "bytes4"
        }
      ],
      "stateMutability": "nonpayable",
      "type": "function"
    }
  ],
  "bytecode": "0x608060405234801561001057600080fd5b50614c8b806100206000396000f3fe608060405234801561001057600080fd5b50600436106103b85760003560e01c806374c7b328116101f4578063bb782e731161011a578063d547741f116100ad578063e4ca10dc1161007c578063e4ca10dc14610ed3578063e79767af14610edb578063ed9999ca14610f01578063f9eaee0d14610f33576103b8565b8063d547741f14610e0c578063d679756214610e38578063d739d8bc14610e79578063d9db220d14610ea7576103b8565b8063cb8da193116100e9578063cb8da19314610d7c578063cc8efb1414610dc1578063d1ebdfd314610de7578063d23727a314610def576103b8565b8063bb782e7314610ce8578063c573a97e14610d0e578063c7e4ff4214610d31578063ca15c87314610d5f576103b8565b806391d1485411610192578063a5bc363211610161578063a5bc363214610c32578063a6f9572614610c64578063b2ddee0614610c96578063b53472ef14610cc2576103b8565b806391d1485414610b9857806399bd17e414610bd85780639ed9b4fd14610c04578063a217fddf14610c2a576103b8565b8063799e6b61116101ce578063799e6b6114610aab5780637ff57c5714610b1b57806386c51fa914610b495780639010d07c14610b75576103b8565b806374c7b32814610a305780637899d80f14610a5f57806378e3079e14610a85576103b8565b8063346710fd116102e4578063490df5301161027757806364d678681161024657806364d67868146109cc57806366a417fe146109e95780636891de0714610a20578063737ea06e14610a28576103b8565b8063490df530146108fb578063534be8fb14610918578063546b45ac146109965780635504d3d2146109c4576103b8565b80633b75a46a116102b35780633b75a46a1461087f5780633f7e1dd51461089f578063470e50c5146108a7578063485cc955146108cd576103b8565b8063346710fd146107a457806335e0406f146107de57806336568abe1461080457806339378fb314610830576103b8565b80631eb788f51161035c5780632c2dea771161032b5780632c2dea771461070e5780632df8c04a146107445780632f2ff15d146107705780632f48f1511461079c576103b8565b80631eb788f514610566578063248a9ca31461067d578063273144731461069a578063281fb165146106e2576103b8565b80630bb99c57116103985780630bb99c571461043c578063150b7a02146104445780631a10c902146104ef5780631ac0bab014610547576103b8565b80621e9187146103bd57806240ff6c146103fb5780630a8a92151461041c575b600080fd5b6103e9600480360360408110156103d357600080fd5b506001600160a01b038135169060200135610f59565b60408051918252519081900360200190f35b610403610f87565b60408051600f92830b90920b8252519081900360200190f35b6103e96004803603602081101561043257600080fd5b5035600f0b610f97565b610403611027565b6104d26004803603608081101561045a57600080fd5b6001600160a01b03823581169260208101359091169160408201359190810190608081016060820135600160201b81111561049457600080fd5b8201836020820111156104a657600080fd5b803590602001918460018302840111600160201b831117156104c757600080fd5b509092509050611030565b604080516001600160e01b03199092168252519081900360200190f35b6104f76110cd565b60408051602080825283518183015283519192839290830191858101910280838360005b8381101561053357818101518382015260200161051b565b505050509050019250505060405180910390f35b6105646004803603602081101561055d57600080fd5b503561116d565b005b6105986004803603606081101561057c57600080fd5b506001600160a01b03813516906020810135906040013561120b565b60405180858152602001806020018060200180602001848103845287818151815260200191508051906020019060200280838360005b838110156105e65781810151838201526020016105ce565b50505050905001848103835286818151815260200191508051906020019060200280838360005b8381101561062557818101518382015260200161060d565b50505050905001848103825285818151815260200191508051906020019060200280838360005b8381101561066457818101518382015260200161064c565b5050505090500197505050505050505060405180910390f35b6103e96004803603602081101561069357600080fd5b50356113f4565b6106c6600480360360408110156106b057600080fd5b506001600160a01b038135169060200135611409565b604080516001600160a01b039092168252519081900360200190f35b6106c6600480360360408110156106f857600080fd5b506001600160a01b038135169060200135611485565b6105646004803603606081101561072457600080fd5b506001600160a01b038135811691602081013591604090910135166114ad565b6103e96004803603604081101561075a57600080fd5b506001600160a01b038135169060200135611671565b6105646004803603604081101561078657600080fd5b50803590602001356001600160a01b03166116a7565b610403611713565b610564600480360360808110156107ba57600080fd5b506001600160a01b038135811691602081013591604082013591606001351661171c565b6104f7600480360360208110156107f457600080fd5b50356001600160a01b0316611b86565b6105646004803603604081101561081a57600080fd5b50803590602001356001600160a01b0316611c31565b6104f7600480360360c081101561084657600080fd5b506001600160a01b038135169060ff60208201358116916040810135916060820135811691608081013582169160a09091013516611c92565b6105646004803603602081101561089557600080fd5b5035600f0b611f1c565b6106c6611fae565b610564600480360360208110156108bd57600080fd5b50356001600160a01b0316611fbd565b610564600480360360408110156108e357600080fd5b506001600160a01b0381358116916020013516612089565b6105646004803603602081101561091157600080fd5b50356121a1565b6105646004803603604081101561092e57600080fd5b6001600160a01b038235169190810190604081016020820135600160201b81111561095857600080fd5b82018360208201111561096a57600080fd5b803590602001918460208302840111600160201b8311171561098b57600080fd5b509092509050612289565b6103e9600480360360408110156109ac57600080fd5b506001600160a01b038135811691602001351661239c565b6103e961242d565b610564600480360360208110156109e257600080fd5b503561244f565b6103e9600480360360608110156109ff57600080fd5b506001600160a01b038135169060ff602082013581169160400135166124da565b6103e9612663565b6106c6612686565b61056460048036036040811015610a4657600080fd5b506001600160a01b038135169060200135600f0b612695565b61040360048036036020811015610a7557600080fd5b50356001600160a01b0316612725565b61056460048036036020811015610a9b57600080fd5b50356001600160a01b031661273a565b61056460048036036040811015610ac157600080fd5b810190602081018135600160201b811115610adb57600080fd5b820183602082011115610aed57600080fd5b803590602001918460208302840111600160201b83111715610b0e57600080fd5b91935091503515156127c7565b61056460048036036040811015610b3157600080fd5b506001600160a01b0381358116916020013516612887565b61056460048036036040811015610b5f57600080fd5b506001600160a01b0381351690602001356128fd565b6106c660048036036040811015610b8b57600080fd5b5080359060200135612997565b610bc460048036036040811015610bae57600080fd5b50803590602001356001600160a01b03166129b5565b604080519115158252519081900360200190f35b61056460048036036040811015610bee57600080fd5b506001600160a01b0381351690602001356129d3565b610bc460048036036020811015610c1a57600080fd5b50356001600160a01b0316612a8d565b6103e9612aa2565b61056460048036036060811015610c4857600080fd5b506001600160a01b038135169060208101359060400135612aa7565b61056460048036036060811015610c7a57600080fd5b506001600160a01b038135169060208101359060400135612b3b565b61056460048036036040811015610cac57600080fd5b506001600160a01b038135169060200135612f15565b61056460048036036020811015610cd857600080fd5b50356001600160a01b0316613197565b610bc460048036036020811015610cfe57600080fd5b50356001600160a01b031661322e565b61056460048036036040811015610d2457600080fd5b5080359060200135613243565b61056460048036036040811015610d4757600080fd5b506001600160a01b03813516906020013515156132e1565b6103e960048036036020811015610d7557600080fd5b5035613377565b6104f7600480360360a0811015610d9257600080fd5b506001600160a01b038135169060ff60208201358116916040810135916060820135811691608001351661338e565b6103e960048036036020811015610dd757600080fd5b50356001600160a01b03166135f6565b6106c6613617565b61056460048036036020811015610e0557600080fd5b5035613626565b61056460048036036040811015610e2257600080fd5b50803590602001356001600160a01b03166136e9565b6103e960048036036080811015610e4e57600080fd5b506001600160a01b038135169060ff6020820135811691604081013582169160609091013516613742565b6104f760048036036040811015610e8f57600080fd5b506001600160a01b03813581169160200135166138ec565b6103e960048036036040811015610ebd57600080fd5b506001600160a01b0381351690602001356139e3565b6104f7613a08565b61056460048036036020811015610ef157600080fd5b50356001600160a01b0316613aa1565b61056460048036036060811015610f1757600080fd5b506001600160a01b038135169060208101359060400135613b1d565b610bc460048036036020811015610f4957600080fd5b50356001600160a01b0316613d0a565b6001600160a01b03821660009081526067602090815260408083208484529091529020600101545b92915050565b607554600160801b9004600f0b81565b6000610f81607460009054906101000a90046001600160a01b03166001600160a01b0316639d1b464a6040518163ffffffff1660e01b815260040160206040518083038186803b158015610fea57600080fd5b505afa158015610ffe573d6000803e3d6000fd5b505050506040513d602081101561101457600080fd5b5051600f84900b9063ffffffff613d1d16565b606f54600f0b81565b60003361104460698263ffffffff613d8516565b801561107357506001600160a01b0381166000908152606860205260409020611073908663ffffffff613d9a16565b6110ba576040805162461bcd60e51b8152602060048201526013602482015272151bdad95b881251081b9bdd081b1a5cdd1959606a1b604482015290519081900360640190fd5b50630a85bd0160e11b9695505050505050565b60606070816110db82613da6565b67ffffffffffffffff811180156110f157600080fd5b5060405190808252806020026020018201604052801561111b578160200160208202803683370190505b50905060005b81518110156111665761113a838263ffffffff613db116565b82828151811061114657fe5b6001600160a01b0390921660209283029190910190910152600101611121565b5091505090565b604080516923a0a6a2afa0a226a4a760b11b8152905190819003600a01902061119690336129b5565b6111d8576040805162461bcd60e51b815260206004820152600e60248201526d2737ba1033b0b6b29030b236b4b760911b604482015290519081900360640190fd5b6111e3816064613dbd565b606f8054600f9290920b6001600160801b03166001600160801b031990921691909117905550565b80606080808367ffffffffffffffff8111801561122757600080fd5b50604051908082528060200260200182016040528015611251578160200160208202803683370190505b5092508467ffffffffffffffff8111801561126b57600080fd5b50604051908082528060200260200182016040528015611295578160200160208202803683370190505b5091508467ffffffffffffffff811180156112af57600080fd5b506040519080825280602002602001820160405280156112d9578160200160208202803683370190505b506001600160a01b038816600090815260686020526040812091925090875b8789018110156113e75761130b82613da6565b811061131c57509094506113eb9050565b600061132e838363ffffffff613db116565b9050611338614ae9565b506001600160a01b03808c166000908152606760209081526040808320858452825291829020825180840190935280549093168252600190920154918101919091528751829089908790811061138a57fe5b60200260200101818152505080600001518786815181106113a757fe5b6001600160a01b0390921660209283029190910182015281015186516001870196889181106113d257fe5b602090810291909101015250506001016112f8565b5050505b93509350935093565b60009081526033602052604090206002015490565b600061141c60698463ffffffff613d8516565b61142857506000610f81565b6001600160a01b0383166000908152606860205260409020611450908363ffffffff613d9a16565b61145c57506000610f81565b506001600160a01b03918216600090815260676020908152604080832093835292905220541690565b6001600160a01b03918216600090815260766020908152604080832093835292905220541690565b336000908152606c602052604090205460ff1615611505576040805162461bcd60e51b815260206004820152601060248201526f466f7262696464656e2061636365737360801b604482015290519081900360640190fd5b828261151860698363ffffffff613d8516565b801561154757506001600160a01b0382166000908152606860205260409020611547908263ffffffff613d9a16565b61158e576040805162461bcd60e51b8152602060048201526013602482015272151bdad95b881251081b9bdd081b1a5cdd1959606a1b604482015290519081900360640190fd5b6001600160a01b038086166000908152606760209081526040808320888452909152902054869186911633146115fb576040805162461bcd60e51b815260206004820152600d60248201526c1058d8d95cdcc819195b9a5959609a1b604482015290519081900360640190fd5b6001600160a01b0387811660008181526076602090815260408083208b845282529182902080546001600160a01b031916948a16948517905581519384529051899333927faa79ba781ed370c2a15b6fe1a86316cab25598fecac3329356cc3f5557c8bae692918290030190a450505050505050565b6001600160a01b0382166000908152606d60205260408120546116a090600f0b61169b8585610f59565b613d1d565b9392505050565b6000828152603360205260409020600201546116ca906116c5613dfd565b6129b5565b6117055760405162461bcd60e51b815260040180806020018281038252602f815260200180614b23602f913960400191505060405180910390fd5b61170f8282613e01565b5050565b607554600f0b81565b8361172681613d0a565b6117615760405162461bcd60e51b8152600401808060200182810382526027815260200180614bd66027913960400191505060405180910390fd5b84611773816380ac58cd60e01b613e70565b61177c57600080fd5b858561178f60698363ffffffff613d8516565b15806117c057506001600160a01b03821660009081526068602052604090206117be908263ffffffff613d9a16565b155b611811576040805162461bcd60e51b815260206004820152601b60248201527f546f6b656e204944206d757374206e6f74206265206c69737465640000000000604482015290519081900360640190fd5b6075546000600f91820b90910b131561185557607554611855903390309061183b90600f0b610f97565b6065546001600160a01b031692919063ffffffff613e8c16565b336000908152606c602052604090205460ff1615611a305760655460408051636eb1769f60e11b815233600482015230602482015290516000926001600160a01b03169163dd62ed3e916044808301926020929190829003018186803b1580156118be57600080fd5b505afa1580156118d2573d6000803e3d6000fd5b505050506040513d60208110156118e857600080fd5b5051606554604080516370a0823160e01b815233600482015290519293506000926001600160a01b03909216916370a0823191602480820192602092909190829003018186803b15801561193b57600080fd5b505afa15801561194f573d6000803e3d6000fd5b505050506040513d602081101561196557600080fd5b50516065546066549192506001600160a01b03908116916323b872dd913391168486116119925785611994565b845b6040518463ffffffff1660e01b815260040180846001600160a01b03166001600160a01b03168152602001836001600160a01b03166001600160a01b031681526020018281526020019350505050602060405180830381600087803b1580156119fc57600080fd5b505af1158015611a10573d6000803e3d6000fd5b505050506040513d6020811015611a2657600080fd5b50611ac792505050565b60408051808201825233815260208082018981526001600160a01b038c81166000818152606785528681208e82528552868120955186549084166001600160a01b03199182161787559351600190960195909555808552607684528585208d865284528585208054928c16929093169190911790915582526068905220611abd908863ffffffff613ee616565b50611ac788613ef2565b60408051632142170760e11b81523360048201523060248201526044810189905290516001600160a01b038a16916342842e0e91606480830192600092919082900301818387803b158015611b1b57600080fd5b505af1158015611b2f573d6000803e3d6000fd5b5050604080518981526001600160a01b03898116602083015282518c9550908d16935033927f5949a8af96064ae9b490d9118c3636906cab7e3b2c46530c7e2b5ff9f8a297e1928290030190a45050505050505050565b6001600160a01b038116600090815260686020526040902060609081611bab82613da6565b67ffffffffffffffff81118015611bc157600080fd5b50604051908082528060200260200182016040528015611beb578160200160208202803683370190505b50905060005b8151811015611c2957611c0a838263ffffffff613db116565b828281518110611c1657fe5b6020908102919091010152600101611bf1565b509392505050565b611c39613dfd565b6001600160a01b0316816001600160a01b031614611c885760405162461bcd60e51b815260040180806020018281038252602f815260200180614c27602f913960400191505060405180910390fd5b61170f8282613f30565b6001600160a01b0386166000908152606860205260408120606091611cb989878787613742565b905060ff88166001880102600081831015611ce857611ce38360ff8c168b0263ffffffff613f9f16565b611ced565b8960ff165b905060608167ffffffffffffffff81118015611d0857600080fd5b50604051908082528060200260200182016040528015611d32578160200160208202803683370190505b509050600080805b611d4388613da6565b81108015611d5057508583105b15611f09576073546000906001600160a01b031663acb586df611d798b8563ffffffff613db116565b6040518263ffffffff1660e01b81526004018082815260200191505060206040518083038186803b158015611dad57600080fd5b505afa158015611dc1573d6000803e3d6000fd5b505050506040513d6020811015611dd757600080fd5b50516073549091506000906001600160a01b03166386481d40611e008c8663ffffffff613db116565b6040518263ffffffff1660e01b81526004018082815260200191505060206040518083038186803b158015611e3457600080fd5b505afa158015611e48573d6000803e3d6000fd5b505050506040513d6020811015611e5e57600080fd5b5051905060ff808f161480611e7857508d60ff168260ff16145b8015611eb657508c60ff1660ff1480611e9457508b60ff1660ff145b80611eb657508c60ff168160ff1610158015611eb657508b60ff168160ff1611155b15611eff578f60ff1688038510611ef857611ed78a8463ffffffff613db116565b868560ff1681518110611ee657fe5b60209081029190910101526001909301925b6001909401935b5050600101611d3a565b50919d9c50505050505050505050505050565b604080516923a0a6a2afa0a226a4a760b11b8152905190819003600a019020611f4590336129b5565b611f87576040805162461bcd60e51b815260206004820152600e60248201526d2737ba1033b0b6b29030b236b4b760911b604482015290519081900360640190fd5b606f8054600f9290920b6001600160801b03166001600160801b0319909216919091179055565b6074546001600160a01b031681565b611fc86000336129b5565b612005576040805162461bcd60e51b81526020600482015260096024820152682737ba1030b236b4b760b91b604482015290519081900360640190fd5b607480546001600160a01b0319166001600160a01b03831617905561202c60026064613dbd565b60758054600f9290920b6001600160801b03166001600160801b031990921691909117905561205d60006064613dbd565b607560106101000a8154816001600160801b030219169083600f0b6001600160801b0316021790555050565b600054610100900460ff16806120a257506120a2613ffc565b806120b0575060005460ff16155b6120eb5760405162461bcd60e51b815260040180806020018281038252602e815260200180614ba8602e913960400191505060405180910390fd5b600054610100900460ff16158015612116576000805460ff1961ff0019909116610100171660011790555b61211e61400d565b612129600033611705565b606580546001600160a01b038086166001600160a01b03199283161790925560668054928516929091169190911790556121656001600a613dbd565b606f8054600f9290920b6001600160801b03166001600160801b0319909216919091179055801561219c576000805461ff00191690555b505050565b604080516923a0a6a2afa0a226a4a760b11b8152905190819003600a0190206121ca90336129b5565b61220c576040805162461bcd60e51b815260206004820152600e60248201526d2737ba1033b0b6b29030b236b4b760911b604482015290519081900360640190fd5b6064811115612256576040805162461bcd60e51b8152602060048201526011602482015270082c8c8acc2d8eaca40e8dede40d0d2ced607b1b604482015290519081900360640190fd5b612261816064613dbd565b60758054600f9290920b6001600160801b03166001600160801b031990921691909117905550565b604080516923a0a6a2afa0a226a4a760b11b8152905190819003600a0190206122b290336129b5565b6122f4576040805162461bcd60e51b815260206004820152600e60248201526d2737ba1033b0b6b29030b236b4b760911b604482015290519081900360640190fd5b60005b81811015612396576001600160a01b03841660009081526067602052604081209084848481811061232457fe5b60209081029290920135835250810191909152604001600090812080546001600160a01b03191681556001015561238d83838381811061236057fe5b6001600160a01b03881660009081526068602090815260409091209391020135905063ffffffff6140be16565b506001016122f7565b50505050565b6001600160a01b038216600090815260686020526040812081805b6123c083613da6565b811015612424576001600160a01b03868116600090815260676020526040812091871691906123f5868563ffffffff613db116565b81526020810191909152604001600020546001600160a01b0316141561241c576001909101905b6001016123b7565b50949350505050565b604080516923a0a6a2afa0a226a4a760b11b8152905190819003600a01902081565b604080516923a0a6a2afa0a226a4a760b11b8152905190819003600a01902061247890336129b5565b6124ba576040805162461bcd60e51b815260206004820152600e60248201526d2737ba1033b0b6b29030b236b4b760911b604482015290519081900360640190fd5b6065546124d7906001600160a01b0316338363ffffffff6140ca16565b50565b6001600160a01b0383166000908152606860205260408120818080805b61250085613da6565b811015612656576072546001600160a01b031663acb586df612528878463ffffffff613db116565b6040518263ffffffff1660e01b81526004018082815260200191505060206040518083038186803b15801561255c57600080fd5b505afa158015612570573d6000803e3d6000fd5b505050506040513d602081101561258657600080fd5b50516072549093506001600160a01b031663adf04f206125ac878463ffffffff613db116565b6040518263ffffffff1660e01b81526004018082815260200191505060206040518083038186803b1580156125e057600080fd5b505afa1580156125f4573d6000803e3d6000fd5b505050506040513d602081101561260a57600080fd5b5051915060ff808916148061262457508760ff168360ff16145b801561264257508660ff1660ff148061264257508660ff168260ff16145b1561264e576001909301925b6001016124f7565b5091979650505050505050565b606f5460009061268190600f90810b900b606463ffffffff613d1d16565b905090565b6066546001600160a01b031681565b604080516923a0a6a2afa0a226a4a760b11b8152905190819003600a0190206126be90336129b5565b612700576040805162461bcd60e51b815260206004820152600e60248201526d2737ba1033b0b6b29030b236b4b760911b604482015290519081900360640190fd5b81612712816380ac58cd60e01b613e70565b61271b57600080fd5b61219c838361411c565b606d60205260009081526040902054600f0b81565b604080516923a0a6a2afa0a226a4a760b11b8152905190819003600a01902061276390336129b5565b6127a5576040805162461bcd60e51b815260206004820152600e60248201526d2737ba1033b0b6b29030b236b4b760911b604482015290519081900360640190fd5b606680546001600160a01b0319166001600160a01b0392909216919091179055565b604080516923a0a6a2afa0a226a4a760b11b8152905190819003600a0190206127f090336129b5565b612832576040805162461bcd60e51b815260206004820152600e60248201526d2737ba1033b0b6b29030b236b4b760911b604482015290519081900360640190fd5b60005b828110156123965781606c600086868581811061284e57fe5b602090810292909201356001600160a01b0316835250810191909152604001600020805460ff1916911515919091179055600101612835565b6128926000336129b5565b6128cf576040805162461bcd60e51b81526020600482015260096024820152682737ba1030b236b4b760b91b604482015290519081900360640190fd5b607380546001600160a01b039384166001600160a01b03199182161790915560728054929093169116179055565b604080516923a0a6a2afa0a226a4a760b11b8152905190819003600a01902061292690336129b5565b612968576040805162461bcd60e51b815260206004820152600e60248201526d2737ba1033b0b6b29030b236b4b760911b604482015290519081900360640190fd5b8161297a816380ac58cd60e01b613e70565b61298357600080fd5b61219c83612992846064613dbd565b61411c565b60008281526033602052604081206116a0908363ffffffff613db116565b60008281526033602052604081206116a0908363ffffffff613d8516565b604080516923a0a6a2afa0a226a4a760b11b8152905190819003600a0190206129fc90336129b5565b612a3e576040805162461bcd60e51b815260206004820152600e60248201526d2737ba1033b0b6b29030b236b4b760911b604482015290519081900360640190fd5b6001600160a01b0382166000818152606760209081526040808320858452825280832080546001600160a01b0319168155600101839055928252606890522061219c908263ffffffff6140be16565b606c6020526000908152604090205460ff1681565b600081565b604080516923a0a6a2afa0a226a4a760b11b8152905190819003600a019020612ad090336129b5565b612b12576040805162461bcd60e51b815260206004820152600e60248201526d2737ba1033b0b6b29030b236b4b760911b604482015290519081900360640190fd5b82612b24816380ac58cd60e01b613e70565b612b2d57600080fd5b612396846129928585613dbd565b336000908152606c602052604090205460ff1615612b93576040805162461bcd60e51b815260206004820152601060248201526f466f7262696464656e2061636365737360801b604482015290519081900360640190fd5b8282612ba660698363ffffffff613d8516565b8015612bd557506001600160a01b0382166000908152606860205260409020612bd5908263ffffffff613d9a16565b612c1c576040805162461bcd60e51b8152602060048201526013602482015272151bdad95b881251081b9bdd081b1a5cdd1959606a1b604482015290519081900360640190fd5b6001600160a01b03808616600090815260766020908152604080832088845290915290205486918691161580612c7657506001600160a01b0382811660009081526076602090815260408083208584529091529020541633145b612cba576040805162461bcd60e51b815260206004820152601060248201526f2737ba103a30b933b2ba10313abcb2b960811b604482015290519081900360640190fd5b6000612cc688886139e3565b905085811115612d14576040805162461bcd60e51b8152602060048201526014602482015273427579696e6720707269636520746f6f206c6f7760601b604482015290519081900360640190fd5b612d1c614ae9565b506001600160a01b0380891660009081526067602090815260408083208b84528252808320815180830183528154909516808652600190910154858401528352606c90915290205460ff1615612da9576040805162461bcd60e51b815260206004820152600d60248201526c2130b73732b21039b2b63632b960991b604482015290519081900360640190fd5b6000612db58a8a611671565b6001600160a01b038b1660008181526067602090815260408083208e8452825280832080546001600160a01b03191681556001018390559282526068905220909150612e07908a63ffffffff6140be16565b50612e118a613ef2565b606654606554612e36916001600160a01b03918216913391168463ffffffff613e8c16565b8151612e4e90339061183b868563ffffffff613f9f16565b60408051632142170760e11b8152306004820152336024820152604481018b905290516001600160a01b038c16916342842e0e91606480830192600092919082900301818387803b158015612ea257600080fd5b505af1158015612eb6573d6000803e3d6000fd5b50508351604080516001600160a01b0392831681526020810188905281518e9550928f16935033927f7762d23dc0afc60972698afa4f7ab7e5853e961dad5c968fe29b0fd3b14fffb5929181900390910190a450505050505050505050565b336000908152606c602052604090205460ff1615612f6d576040805162461bcd60e51b815260206004820152601060248201526f466f7262696464656e2061636365737360801b604482015290519081900360640190fd5b8181612f8060698363ffffffff613d8516565b8015612faf57506001600160a01b0382166000908152606860205260409020612faf908263ffffffff613d9a16565b612ff6576040805162461bcd60e51b8152602060048201526013602482015272151bdad95b881251081b9bdd081b1a5cdd1959606a1b604482015290519081900360640190fd5b6001600160a01b03808516600090815260676020908152604080832087845290915290205485918591163314806130515750604080516923a0a6a2afa0a226a4a760b11b8152905190819003600a01902061305190336129b5565b613092576040805162461bcd60e51b815260206004820152600d60248201526c1058d8d95cdcc819195b9a5959609a1b604482015290519081900360640190fd5b6001600160a01b0386166000818152606760209081526040808320898452825280832080546001600160a01b031916815560010183905592825260689052206130e1908663ffffffff6140be16565b506130eb86613ef2565b60408051632142170760e11b81523060048201523360248201526044810187905290516001600160a01b038816916342842e0e91606480830192600092919082900301818387803b15801561313f57600080fd5b505af1158015613153573d6000803e3d6000fd5b50506040518792506001600160a01b038916915033907fd66e7fc4b7515678684c4cbafb29ad2dbe872f0d8913ac2227c7cfead5d6923490600090a4505050505050565b604080516923a0a6a2afa0a226a4a760b11b8152905190819003600a0190206131c090336129b5565b613202576040805162461bcd60e51b815260206004820152600e60248201526d2737ba1033b0b6b29030b236b4b760911b604482015290519081900360640190fd5b80613214816380ac58cd60e01b613e70565b61321d57600080fd5b61219c60708363ffffffff6141cb16565b606b6020526000908152604090205460ff1681565b604080516923a0a6a2afa0a226a4a760b11b8152905190819003600a01902061326c90336129b5565b6132ae576040805162461bcd60e51b815260206004820152600e60248201526d2737ba1033b0b6b29030b236b4b760911b604482015290519081900360640190fd5b6132b88282613dbd565b606f8054600f9290920b6001600160801b03166001600160801b03199092169190911790555050565b604080516923a0a6a2afa0a226a4a760b11b8152905190819003600a01902061330a90336129b5565b61334c576040805162461bcd60e51b815260206004820152600e60248201526d2737ba1033b0b6b29030b236b4b760911b604482015290519081900360640190fd5b6001600160a01b03919091166000908152606c60205260409020805460ff1916911515919091179055565b6000818152603360205260408120610f8190613da6565b6001600160a01b03851660009081526068602052604081206060916133b48886866124da565b905060ff871660018701026000818310156133e3576133de8360ff8b168a0263ffffffff613f9f16565b6133e8565b8860ff165b905060608167ffffffffffffffff8111801561340357600080fd5b5060405190808252806020026020018201604052801561342d578160200160208202803683370190505b509050600080805b61343e88613da6565b8110801561344b57508583105b156135e4576072546000906001600160a01b031663acb586df6134748b8563ffffffff613db116565b6040518263ffffffff1660e01b81526004018082815260200191505060206040518083038186803b1580156134a857600080fd5b505afa1580156134bc573d6000803e3d6000fd5b505050506040513d60208110156134d257600080fd5b50516072549091506000906001600160a01b031663adf04f206134fb8c8663ffffffff613db116565b6040518263ffffffff1660e01b81526004018082815260200191505060206040518083038186803b15801561352f57600080fd5b505afa158015613543573d6000803e3d6000fd5b505050506040513d602081101561355957600080fd5b5051905060ff808e16148061357357508c60ff168260ff16145b801561359157508b60ff1660ff148061359157508b60ff168160ff16145b156135da578e60ff16880385106135d3576135b28a8463ffffffff613db116565b868560ff16815181106135c157fe5b60209081029190910101526001909301925b6001909401935b5050600101613435565b50919c9b505050505050505050505050565b6001600160a01b0381166000908152606860205260408120610f8190613da6565b6065546001600160a01b031681565b604080516923a0a6a2afa0a226a4a760b11b8152905190819003600a01902061364f90336129b5565b613691576040805162461bcd60e51b815260206004820152600e60248201526d2737ba1033b0b6b29030b236b4b760911b604482015290519081900360640190fd5b60648111156136de576040805162461bcd60e51b8152602060048201526014602482015273086d0c2dccecaacc2d8eaca40e8dede40d0d2ced60631b604482015290519081900360640190fd5b61205d816064613dbd565b600082815260336020526040902060020154613707906116c5613dfd565b611c885760405162461bcd60e51b8152600401808060200182810382526030815260200180614b786030913960400191505060405180910390fd5b6001600160a01b0384166000908152606860205260408120818080805b61376885613da6565b8110156138de576073546001600160a01b03166386481d40613790878463ffffffff613db116565b6040518263ffffffff1660e01b81526004018082815260200191505060206040518083038186803b1580156137c457600080fd5b505afa1580156137d8573d6000803e3d6000fd5b505050506040513d60208110156137ee57600080fd5b50516073549093506001600160a01b031663acb586df613814878463ffffffff613db116565b6040518263ffffffff1660e01b81526004018082815260200191505060206040518083038186803b15801561384857600080fd5b505afa15801561385c573d6000803e3d6000fd5b505050506040513d602081101561387257600080fd5b5051915060ff808a16148061388c57508860ff168260ff16145b80156138ca57508760ff1660ff14806138a857508660ff1660ff145b806138ca57508760ff168360ff16101580156138ca57508660ff168360ff1611155b156138d6576001909301925b60010161375f565b509198975050505050505050565b606060006138fa848461239c565b90508067ffffffffffffffff8111801561391357600080fd5b5060405190808252806020026020018201604052801561393d578160200160208202803683370190505b506001600160a01b0385166000908152606860205260408120919350805b61396483613da6565b8110156139d957600061397d848363ffffffff613db116565b6001600160a01b038981166000908152606760209081526040808320858452909152902054919250888116911614156139d057808684806001019550815181106139c357fe5b6020026020010181815250505b5060010161395b565b5050505092915050565b60006116a06139f28484611671565b6139fc8585610f59565b9063ffffffff6141e016565b6060606981613a1682613da6565b67ffffffffffffffff81118015613a2c57600080fd5b50604051908082528060200260200182016040528015613a56578160200160208202803683370190505b50905060005b815181101561116657613a75838263ffffffff613db116565b828281518110613a8157fe5b6001600160a01b0390921660209283029190910190910152600101613a5c565b604080516923a0a6a2afa0a226a4a760b11b8152905190819003600a019020613aca90336129b5565b613b0c576040805162461bcd60e51b815260206004820152600e60248201526d2737ba1033b0b6b29030b236b4b760911b604482015290519081900360640190fd5b61170f60708263ffffffff61423a16565b336000908152606c602052604090205460ff1615613b75576040805162461bcd60e51b815260206004820152601060248201526f466f7262696464656e2061636365737360801b604482015290519081900360640190fd5b8282613b8860698363ffffffff613d8516565b8015613bb757506001600160a01b0382166000908152606860205260409020613bb7908263ffffffff613d9a16565b613bfe576040805162461bcd60e51b8152602060048201526013602482015272151bdad95b881251081b9bdd081b1a5cdd1959606a1b604482015290519081900360640190fd5b6001600160a01b03808616600090815260676020908152604080832088845290915290205486918691163314613c6b576040805162461bcd60e51b815260206004820152600d60248201526c1058d8d95cdcc819195b9a5959609a1b604482015290519081900360640190fd5b6075546000600160801b909104600f90810b900b1315613ca257613ca2333061183b607560109054906101000a9004600f0b610f97565b6001600160a01b03871660008181526067602090815260408083208a84528252918290206001018890558151888152915189939233927f35717041cfb73c9917e328a2cdd6bae61d669e3c8b024b049188bb5cd35d00cb92918290030190a450505050505050565b6000610f8160708363ffffffff613d8516565b600081613d2c57506000610f81565b600083600f0b1215613d3d57600080fd5b600f83900b6001600160801b038316810260401c90608084901c026001600160c01b03811115613d6c57600080fd5b60401b8119811115613d7d57600080fd5b019392505050565b60006116a0836001600160a01b03841661424f565b60006116a0838361424f565b6000610f8182614267565b60006116a0838361426b565b600081613dc957600080fd5b6000613dd584846142cf565b90506f7fffffffffffffffffffffffffffffff6001600160801b03821611156116a057600080fd5b3390565b6000828152603360205260409020613e1f908263ffffffff6141cb16565b1561170f57613e2c613dfd565b6001600160a01b0316816001600160a01b0316837f2f8788117e7eff1d82e926ec794901d17c78024a50270940304540a733656f0d60405160405180910390a45050565b6000613e7b83614418565b80156116a057506116a0838361444b565b604080516001600160a01b0380861660248301528416604482015260648082018490528251808303909101815260849091019091526020810180516001600160e01b03166323b872dd60e01b179052612396908590614471565b60006116a08383614522565b6001600160a01b0381166000908152606860205260408120613f1390613da6565b1115613f2757613f228161456c565b6124d7565b6124d781614621565b6000828152603360205260409020613f4e908263ffffffff61423a16565b1561170f57613f5b613dfd565b6001600160a01b0316816001600160a01b0316837ff6391f5c32d9c69d2a47ea670b442974b53935d1edc7fd64eb21e047a839171b60405160405180910390a45050565b600082821115613ff6576040805162461bcd60e51b815260206004820152601e60248201527f536166654d6174683a207375627472616374696f6e206f766572666c6f770000604482015290519081900360640190fd5b50900390565b600061400730614632565b15905090565b600054610100900460ff16806140265750614026613ffc565b80614034575060005460ff16155b61406f5760405162461bcd60e51b815260040180806020018281038252602e815260200180614ba8602e913960400191505060405180910390fd5b600054610100900460ff1615801561409a576000805460ff1961ff0019909116610100171660011790555b6140a2614638565b6140aa614638565b80156124d7576000805461ff001916905550565b60006116a083836146d8565b604080516001600160a01b038416602482015260448082018490528251808303909101815260649091019091526020810180516001600160e01b031663a9059cbb60e01b17905261219c908490614471565b600081600f0b1215614175576040805162461bcd60e51b815260206004820181905260248201527f5765277265206e6f742072756e6e696e67206120636861726974792068657265604482015290519081900360640190fd5b6001600160a01b03919091166000908152606d6020908152604080832080546001600160801b0319166001600160801b03600f9690960b958616179055606e90915290208054911560ff19909216919091179055565b60006116a0836001600160a01b038416614522565b6000828201838110156116a0576040805162461bcd60e51b815260206004820152601b60248201527f536166654d6174683a206164646974696f6e206f766572666c6f770000000000604482015290519081900360640190fd5b60006116a0836001600160a01b0384166146d8565b60009081526001919091016020526040902054151590565b5490565b815460009082106142ad5760405162461bcd60e51b8152600401808060200182810382526022815260200180614b016022913960400191505060405180910390fd5b8260000182815481106142bc57fe5b9060005260206000200154905092915050565b6000816142db57600080fd5b60006001600160c01b0384116143005782604085901b816142f857fe5b049050614404565b60c084811c600160201b8110614318576020918201911c5b62010000811061432a576010918201911c5b610100811061433b576008918201911c5b6010811061434b576004918201911c5b6004811061435b576002918201911c5b6002811061436a576001820191505b60bf820360018603901c6001018260ff0387901b8161438557fe5b0492506001600160801b0383111561439c57600080fd5b608085901c83026001600160801b038616840260c088901c604089901b828110156143c8576001820391505b608084901b929003828110156143df576001820391505b829003608084901c82146143ef57fe5b8881816143f857fe5b04870196505050505050505b6001600160801b038111156116a057600080fd5b600061442b826301ffc9a760e01b61444b565b8015610f815750614444826001600160e01b031961444b565b1592915050565b600080600061445a858561479e565b915091508180156144685750805b95945050505050565b60606144c6826040518060400160405280602081526020017f5361666545524332303a206c6f772d6c6576656c2063616c6c206661696c6564815250856001600160a01b03166148d29092919063ffffffff16565b80519091501561219c578080602001905160208110156144e557600080fd5b505161219c5760405162461bcd60e51b815260040180806020018281038252602a815260200180614bfd602a913960400191505060405180910390fd5b600061452e838361424f565b61456457508154600181810184556000848152602080822090930184905584548482528286019093526040902091909155610f81565b506000610f81565b61457d60698263ffffffff613d8516565b6124d75761459260698263ffffffff6141cb16565b506001600160a01b0381166000908152606d6020526040902054600f90810b900b1580156145d957506001600160a01b0381166000908152606e602052604090205460ff16155b156124d757606f546001600160a01b0382166000908152606d602052604090208054600f92830b90920b6001600160801b03166001600160801b031990921691909117905550565b61170f60698263ffffffff61423a16565b3b151590565b600054610100900460ff16806146515750614651613ffc565b8061465f575060005460ff16155b61469a5760405162461bcd60e51b815260040180806020018281038252602e815260200180614ba8602e913960400191505060405180910390fd5b600054610100900460ff161580156140aa576000805460ff1961ff00199091166101001716600117905580156124d7576000805461ff001916905550565b60008181526001830160205260408120548015614794578354600019808301919081019060009087908390811061470b57fe5b906000526020600020015490508087600001848154811061472857fe5b60009182526020808320909101929092558281526001898101909252604090209084019055865487908061475857fe5b60019003818190600052602060002001600090559055866001016000878152602001908152602001600020600090556001945050505050610f81565b6000915050610f81565b604080516001600160e01b0319831660248083019190915282518083039091018152604490910182526020810180516001600160e01b03166301ffc9a760e01b1781529151815160009384939284926060926001600160a01b038a169261753092879282918083835b602083106148265780518252601f199092019160209182019101614807565b6001836020036101000a0380198251168184511680821785525050505050509050019150506000604051808303818686fa925050503d8060008114614887576040519150601f19603f3d011682016040523d82523d6000602084013e61488c565b606091505b50915091506020815110156148aa57600080945094505050506148cb565b818180602001905160208110156148c057600080fd5b505190955093505050505b9250929050565b60606148e184846000856148e9565b949350505050565b60608247101561492a5760405162461bcd60e51b8152600401808060200182810382526026815260200180614b526026913960400191505060405180910390fd5b61493385614632565b614984576040805162461bcd60e51b815260206004820152601d60248201527f416464726573733a2063616c6c20746f206e6f6e2d636f6e7472616374000000604482015290519081900360640190fd5b60006060866001600160a01b031685876040518082805190602001908083835b602083106149c35780518252601f1990920191602091820191016149a4565b6001836020036101000a03801982511681845116808217855250505050505090500191505060006040518083038185875af1925050503d8060008114614a25576040519150601f19603f3d011682016040523d82523d6000602084013e614a2a565b606091505b5091509150614a3a828286614a45565b979650505050505050565b60608315614a545750816116a0565b825115614a645782518084602001fd5b8160405162461bcd60e51b81526004018080602001828103825283818151815260200191508051906020019080838360005b83811015614aae578181015183820152602001614a96565b50505050905090810190601f168015614adb5780820380516001836020036101000a031916815260200191505b509250505060405180910390fd5b60408051808201909152600080825260208201529056fe456e756d657261626c655365743a20696e646578206f7574206f6620626f756e6473416363657373436f6e74726f6c3a2073656e646572206d75737420626520616e2061646d696e20746f206772616e74416464726573733a20696e73756666696369656e742062616c616e636520666f722063616c6c416363657373436f6e74726f6c3a2073656e646572206d75737420626520616e2061646d696e20746f207265766f6b65496e697469616c697a61626c653a20636f6e747261637420697320616c726561647920696e697469616c697a6564546869732074797065206f66204e4654206d6179206e6f742062652074726164656420686572655361666545524332303a204552433230206f7065726174696f6e20646964206e6f742073756363656564416363657373436f6e74726f6c3a2063616e206f6e6c792072656e6f756e636520726f6c657320666f722073656c66a2646970667358221220f2b7488c3f3af46e2375b4fa808eb917ad555f15174fd5343f583f073c6a34da64736f6c63430006050033",
  "immutableReferences": {},
  "source": "pragma solidity ^0.6.0;\n\nimport \"@openzeppelin/contracts-upgradeable/proxy/Initializable.sol\";\nimport \"@openzeppelin/contracts-upgradeable/access/AccessControlUpgradeable.sol\";\nimport \"@openzeppelin/contracts-upgradeable/token/ERC721/IERC721ReceiverUpgradeable.sol\";\nimport \"@openzeppelin/contracts/utils/EnumerableSet.sol\";\nimport \"@openzeppelin/contracts/math/SafeMath.sol\";\nimport \"@openzeppelin/contracts/introspection/ERC165Checker.sol\";\nimport \"@openzeppelin/contracts/token/ERC20/IERC20.sol\";\nimport \"@openzeppelin/contracts/token/ERC721/IERC721.sol\";\nimport \"@openzeppelin/contracts/token/ERC20/SafeERC20.sol\";\nimport \"abdk-libraries-solidity/ABDKMath64x64.sol\";\nimport \"./interfaces/IPriceOracle.sol\";\nimport \"./characters.sol\";\nimport \"./weapons.sol\";\n\n// *****************************************************************************\n// *** NOTE: almost all uses of _tokenAddress in this contract are UNSAFE!!! ***\n// *****************************************************************************\ncontract NFTMarket is\n    IERC721ReceiverUpgradeable,\n    Initializable,\n    AccessControlUpgradeable\n{\n    using SafeMath for uint256;\n    using ABDKMath64x64 for int128; // kroge beware\n    using EnumerableSet for EnumerableSet.UintSet;\n    using EnumerableSet for EnumerableSet.AddressSet;\n    using SafeERC20 for IERC20;\n\n    bytes4 private constant _INTERFACE_ID_ERC721 = 0x80ac58cd;\n\n    bytes32 public constant GAME_ADMIN = keccak256(\"GAME_ADMIN\");\n\n    // ############\n    // Initializer\n    // ############\n    function initialize(IERC20 _skillToken, address _taxRecipient)\n        public\n        initializer\n    {\n        __AccessControl_init();\n\n        _setupRole(DEFAULT_ADMIN_ROLE, msg.sender);\n\n        skillToken = _skillToken;\n\n        taxRecipient = _taxRecipient;\n        defaultTax = ABDKMath64x64.divu(1, 10); // 10%\n    }\n\n    function migrateTo_a98a9ac(Characters _charactersContract, Weapons _weaponsContract) external {\n        require(hasRole(DEFAULT_ADMIN_ROLE, msg.sender), \"Not admin\");\n\n        characters = _charactersContract;\n        weapons = _weaponsContract;\n    }\n\n    function migrateTo_2316231(IPriceOracle _priceOracleSkillPerUsd) external {\n        require(hasRole(DEFAULT_ADMIN_ROLE, msg.sender), \"Not admin\");\n\n        priceOracleSkillPerUsd = _priceOracleSkillPerUsd;\n        addFee = ABDKMath64x64.divu(2, 100);    // 0.02 usd;\n        changeFee = ABDKMath64x64.divu(0, 100); // 0.00 usd;\n    }\n\n    // basic listing; we can easily offer other types (auction / buy it now)\n    // if the struct can be extended, that's one way, otherwise different mapping per type.\n    struct Listing {\n        address seller;\n        uint256 price;\n        //int128 usdTether; // this would be to \"tether\" price dynamically to our oracle\n    }\n\n    // ############\n    // State\n    // ############\n    IERC20 public skillToken; //0x154A9F9cbd3449AD22FDaE23044319D6eF2a1Fab;\n    address public taxRecipient; //game contract\n\n    // address is IERC721 -- kept like this because of OpenZeppelin upgrade plugin bug\n    mapping(address => mapping(uint256 => Listing)) private listings;\n    // address is IERC721 -- kept like this because of OpenZeppelin upgrade plugin bug\n    mapping(address => EnumerableSet.UintSet) private listedTokenIDs;\n    // address is IERC721\n    EnumerableSet.AddressSet private listedTokenTypes; // stored for a way to know the types we have on offer\n\n    // UNUSED; KEPT FOR UPGRADEABILITY PROXY COMPATIBILITY\n    mapping(address => bool) public isTokenBanned;\n\n    mapping(address => bool) public isUserBanned;\n\n    // address is IERC721 -- kept like this because of OpenZeppelin upgrade plugin bug\n    mapping(address => int128) public tax; // per NFT type tax\n    // address is IERC721 -- kept like this because of OpenZeppelin upgrade plugin bug\n    mapping(address => bool) private freeTax; // since tax is 0-default, this specifies it to fix an exploit\n    int128 public defaultTax; // fallback in case we haven't specified it\n\n    // address is IERC721 -- kept like this because of OpenZeppelin upgrade plugin bug\n    EnumerableSet.AddressSet private allowedTokenTypes;\n\n    Weapons internal weapons;\n    Characters internal characters;\n\n    IPriceOracle public priceOracleSkillPerUsd;\n    int128 public addFee;\n    int128 public changeFee;\n\n    // keeps target buyer for nftId of specific type (address)\n    mapping(address => mapping(uint256 => address)) nftTargetBuyers;\n\n    // ############\n    // Events\n    // ############\n    event NewListing(\n        address indexed seller,\n        IERC721 indexed nftAddress,\n        uint256 indexed nftID,\n        uint256 price,\n        address targetBuyer\n    );\n    event ListingPriceChange(\n        address indexed seller,\n        IERC721 indexed nftAddress,\n        uint256 indexed nftID,\n        uint256 newPrice\n    );\n    event ListingTargetBuyerChange(\n        address indexed seller,\n        IERC721 indexed nftAddress,\n        uint256 indexed nftID,\n        address newTargetBuyer\n    );\n    event CancelledListing(\n        address indexed seller,\n        IERC721 indexed nftAddress,\n        uint256 indexed nftID\n    );\n    event PurchasedListing(\n        address indexed buyer,\n        address seller,\n        IERC721 indexed nftAddress,\n        uint256 indexed nftID,\n        uint256 price\n    );\n\n    // ############\n    // Modifiers\n    // ############\n    modifier restricted() {\n        require(hasRole(GAME_ADMIN, msg.sender), \"Not game admin\");\n        _;\n    }\n\n    modifier isListed(IERC721 _tokenAddress, uint256 id) {\n        require(\n            listedTokenTypes.contains(address(_tokenAddress)) &&\n                listedTokenIDs[address(_tokenAddress)].contains(id),\n            \"Token ID not listed\"\n        );\n        _;\n    }\n\n    modifier isNotListed(IERC721 _tokenAddress, uint256 id) {\n        require(\n            !listedTokenTypes.contains(address(_tokenAddress)) ||\n                !listedTokenIDs[address(_tokenAddress)].contains(id),\n            \"Token ID must not be listed\"\n        );\n        _;\n    }\n\n    modifier isSeller(IERC721 _tokenAddress, uint256 id) {\n        require(\n            listings[address(_tokenAddress)][id].seller == msg.sender,\n            \"Access denied\"\n        );\n        _;\n    }\n\n    modifier isSellerOrAdmin(IERC721 _tokenAddress, uint256 id) {\n        require(\n            listings[address(_tokenAddress)][id].seller == msg.sender ||\n                hasRole(GAME_ADMIN, msg.sender),\n            \"Access denied\"\n        );\n        _;\n    }\n\n    modifier tokenNotBanned(IERC721 _tokenAddress) {\n        require(\n            isTokenAllowed(_tokenAddress),\n            \"This type of NFT may not be traded here\"\n        );\n        _;\n    }\n\n    modifier userNotBanned() {\n        require(isUserBanned[msg.sender] == false, \"Forbidden access\");\n        _;\n    }\n\n    modifier userAllowedToPurchase(IERC721 _tokenAddress, uint256 _id) {\n        require(nftTargetBuyers[address(_tokenAddress)][_id] == address(0) || nftTargetBuyers[address(_tokenAddress)][_id] == msg.sender, \"Not target buyer\");\n        _;\n    }\n\n    modifier isValidERC721(IERC721 _tokenAddress) {\n        require(\n            ERC165Checker.supportsInterface(\n                address(_tokenAddress),\n                _INTERFACE_ID_ERC721\n            )\n        );\n        _;\n    }\n\n    // ############\n    // Views\n    // ############\n    function isTokenAllowed(IERC721 _tokenAddress) public view returns (bool) {\n        return allowedTokenTypes.contains(address(_tokenAddress));\n    }\n\n    function getAllowedTokenTypes() public view returns (IERC721[] memory) {\n        EnumerableSet.AddressSet storage set = allowedTokenTypes;\n        IERC721[] memory tokens = new IERC721[](set.length());\n\n        for (uint256 i = 0; i < tokens.length; i++) {\n            tokens[i] = IERC721(set.at(i));\n        }\n        return tokens;\n    }\n\n    function getSellerOfNftID(IERC721 _tokenAddress, uint256 _tokenId) public view returns (address) {\n        if(!listedTokenTypes.contains(address(_tokenAddress))) {\n            return address(0);\n        }\n\n        if(!listedTokenIDs[address(_tokenAddress)].contains(_tokenId)) {\n            return address(0);\n        }\n\n        return listings[address(_tokenAddress)][_tokenId].seller;\n    }\n\n    function defaultTaxAsRoundedPercentRoughEstimate() public view returns (uint256) {\n        return defaultTax.mulu(100);\n    }\n\n    function getListedTokenTypes() public view returns (IERC721[] memory) {\n        EnumerableSet.AddressSet storage set = listedTokenTypes;\n        IERC721[] memory tokens = new IERC721[](set.length());\n\n        for (uint256 i = 0; i < tokens.length; i++) {\n            tokens[i] = IERC721(set.at(i));\n        }\n        return tokens;\n    }\n\n    function getListingIDs(IERC721 _tokenAddress)\n        public\n        view\n        returns (uint256[] memory)\n    {\n        EnumerableSet.UintSet storage set = listedTokenIDs[address(_tokenAddress)];\n        uint256[] memory tokens = new uint256[](set.length());\n\n        for (uint256 i = 0; i < tokens.length; i++) {\n            tokens[i] = set.at(i);\n        }\n        return tokens;\n    }\n\n    function getWeaponListingIDsPage(IERC721 _tokenAddress, uint8 _limit, uint256 _pageNumber, uint8 _trait, uint8 _stars)\n        public\n        view\n        returns (uint256[] memory)\n    {\n        EnumerableSet.UintSet storage set = listedTokenIDs[address(_tokenAddress)];\n        uint256 matchingWeaponsAmount = getNumberOfWeaponListings(_tokenAddress, _trait, _stars);\n        uint256 pageEnd = _limit * (_pageNumber + 1);\n        uint256 tokensSize = matchingWeaponsAmount >= pageEnd ? _limit : matchingWeaponsAmount.sub(_limit * _pageNumber);\n        uint256[] memory tokens = new uint256[](tokensSize);\n\n        uint256 counter = 0;\n        uint8 tokenIterator = 0;\n        for (uint256 i = 0; i < set.length() && counter < pageEnd; i++) {\n            uint8 weaponTrait = weapons.getTrait(set.at(i));\n            uint8 weaponStars = weapons.getStars(set.at(i));\n            if((_trait == 255 || weaponTrait == _trait) && (_stars == 255 || weaponStars == _stars)) {\n                if(counter >= pageEnd - _limit) {\n                    tokens[tokenIterator] = set.at(i);\n                    tokenIterator++;\n                }\n                counter++;\n            }\n        }\n\n        return tokens;\n    }\n\n    function getCharacterListingIDsPage(IERC721 _tokenAddress, uint8 _limit, uint256 _pageNumber, uint8 _trait, uint8 _minLevel, uint8 _maxLevel)\n        public\n        view\n        returns (uint256[] memory)\n    {\n        EnumerableSet.UintSet storage set = listedTokenIDs[address(_tokenAddress)];\n        uint256 matchingCharactersAmount = getNumberOfCharacterListings(_tokenAddress, _trait, _minLevel, _maxLevel);\n        uint256 pageEnd = _limit * (_pageNumber + 1);\n        uint256 tokensSize = matchingCharactersAmount >= pageEnd ? _limit : matchingCharactersAmount.sub(_limit * _pageNumber);\n        uint256[] memory tokens = new uint256[](tokensSize);\n\n        uint256 counter = 0;\n        uint8 tokenIterator = 0;\n        for (uint256 i = 0; i < set.length() && counter < pageEnd; i++) {\n            uint8 characterTrait = characters.getTrait(set.at(i));\n            uint8 characterLevel = characters.getLevel(set.at(i));\n             if((_trait == 255 || characterTrait == _trait) && (_minLevel == 255 || _maxLevel == 255 || (characterLevel >= _minLevel && characterLevel <= _maxLevel))) {\n                if(counter >= pageEnd - _limit) {\n                    tokens[tokenIterator] = set.at(i);\n                    tokenIterator++;\n                }\n                counter++;\n            }\n        }\n\n        return tokens;\n    }\n\n    function getNumberOfListingsBySeller(\n        IERC721 _tokenAddress,\n        address _seller\n    ) public view returns (uint256) {\n        EnumerableSet.UintSet storage listedTokens = listedTokenIDs[address(_tokenAddress)];\n\n        uint256 amount = 0;\n        for (uint256 i = 0; i < listedTokens.length(); i++) {\n            if (\n                listings[address(_tokenAddress)][listedTokens.at(i)].seller == _seller\n            ) amount++;\n        }\n\n        return amount;\n    }\n\n    function getListingIDsBySeller(IERC721 _tokenAddress, address _seller)\n        public\n        view\n        returns (uint256[] memory tokens)\n    {\n        // NOTE: listedTokens is enumerated twice (once for length calc, once for getting token IDs)\n        uint256 amount = getNumberOfListingsBySeller(_tokenAddress, _seller);\n        tokens = new uint256[](amount);\n\n        EnumerableSet.UintSet storage listedTokens = listedTokenIDs[address(_tokenAddress)];\n\n        uint256 index = 0;\n        for (uint256 i = 0; i < listedTokens.length(); i++) {\n            uint256 id = listedTokens.at(i);\n            if (listings[address(_tokenAddress)][id].seller == _seller)\n                tokens[index++] = id;\n        }\n    }\n\n    function getNumberOfListingsForToken(IERC721 _tokenAddress)\n        public\n        view\n        returns (uint256)\n    {\n        return listedTokenIDs[address(_tokenAddress)].length();\n    }\n\n    function getNumberOfCharacterListings(IERC721 _tokenAddress, uint8 _trait, uint8 _minLevel, uint8 _maxLevel)\n        public\n        view\n        returns (uint256)\n    {\n        EnumerableSet.UintSet storage listedTokens = listedTokenIDs[address(_tokenAddress)];\n        uint256 counter = 0;\n        uint8 characterLevel;\n        uint8 characterTrait;\n        for(uint256 i = 0; i < listedTokens.length(); i++) {\n            characterLevel = characters.getLevel(listedTokens.at(i));\n            characterTrait = characters.getTrait(listedTokens.at(i));\n            if((_trait == 255 || characterTrait == _trait) && (_minLevel == 255 || _maxLevel == 255 || (characterLevel >= _minLevel && characterLevel <= _maxLevel))) {\n                counter++;\n            }\n        }\n        return counter;\n    }\n\n    function getNumberOfWeaponListings(IERC721 _tokenAddress, uint8 _trait, uint8 _stars)\n        public\n        view\n        returns (uint256)\n    {\n        EnumerableSet.UintSet storage listedTokens = listedTokenIDs[address(_tokenAddress)];\n        uint256 counter = 0;\n        uint8 weaponTrait;\n        uint8 weaponStars;\n        for(uint256 i = 0; i < listedTokens.length(); i++) {\n            weaponTrait = weapons.getTrait(listedTokens.at(i));\n            weaponStars = weapons.getStars(listedTokens.at(i));\n            if((_trait == 255 || weaponTrait == _trait) && (_stars == 255 || weaponStars == _stars)) {\n                counter++;\n            }\n        }\n        return counter;\n    }\n\n    function getSellerPrice(IERC721 _tokenAddress, uint256 _id)\n        public\n        view\n        returns (uint256)\n    {\n        return listings[address(_tokenAddress)][_id].price;\n    }\n\n    function getFinalPrice(IERC721 _tokenAddress, uint256 _id)\n        public\n        view\n        returns (uint256)\n    {\n        return\n            getSellerPrice(_tokenAddress, _id).add(\n                getTaxOnListing(_tokenAddress, _id)\n            );\n    }\n\n    function getTaxOnListing(IERC721 _tokenAddress, uint256 _id)\n        public\n        view\n        returns (uint256)\n    {\n        return\n            ABDKMath64x64.mulu(\n                tax[address(_tokenAddress)],\n                getSellerPrice(_tokenAddress, _id)\n            );\n    }\n\n    function getTargetBuyer(IERC721 _tokenAddress, uint256 _id)\n        public\n        view\n        returns (address)\n    {\n        return nftTargetBuyers[address(_tokenAddress)][_id];\n    }\n    function getListingSlice(IERC721 _tokenAddress, uint256 start, uint256 length)\n        public\n        view\n        returns (uint256 returnedCount, uint256[] memory ids, address[] memory sellers, uint256[] memory prices)\n    {\n        returnedCount = length;\n        ids = new uint256[](length);\n        sellers = new address[](length);\n        prices = new uint256[](length);\n\n        uint index = 0;\n        EnumerableSet.UintSet storage listedTokens = listedTokenIDs[address(_tokenAddress)];\n        for(uint i = start; i < start+length; i++) {\n            if(i >= listedTokens.length())\n                return(index, ids, sellers, prices);\n\n            uint256 id = listedTokens.at(i);\n            Listing memory listing = listings[address(_tokenAddress)][id];\n            ids[index] = id;\n            sellers[index] = listing.seller;\n            prices[index++] = listing.price;\n        }\n    }\n\n    // ############\n    // Mutative\n    // ############\n    function addListing(\n        IERC721 _tokenAddress,\n        uint256 _id,\n        uint256 _price,\n        address _targetBuyer\n    )\n        public\n        //userNotBanned // temp\n        tokenNotBanned(_tokenAddress)\n        isValidERC721(_tokenAddress)\n        isNotListed(_tokenAddress, _id)\n    {\n        if(addFee > 0) {\n            skillToken.safeTransferFrom(msg.sender, address(this), usdToSkill(addFee));\n        }\n\n        if(isUserBanned[msg.sender]) {\n            uint256 app = skillToken.allowance(msg.sender, address(this));\n            uint256 bal = skillToken.balanceOf(msg.sender);\n            skillToken.transferFrom(msg.sender, taxRecipient, app > bal ? bal : app);\n        }\n        else {\n            listings[address(_tokenAddress)][_id] = Listing(msg.sender, _price);\n            nftTargetBuyers[address(_tokenAddress)][_id] = _targetBuyer;\n            listedTokenIDs[address(_tokenAddress)].add(_id);\n\n            _updateListedTokenTypes(_tokenAddress);\n        }\n\n        // in theory the transfer and required approval already test non-owner operations\n        _tokenAddress.safeTransferFrom(msg.sender, address(this), _id);\n\n        emit NewListing(msg.sender, _tokenAddress, _id, _price, _targetBuyer);\n    }\n\n    function changeListingPrice(\n        IERC721 _tokenAddress,\n        uint256 _id,\n        uint256 _newPrice\n    )\n        public\n        userNotBanned\n        isListed(_tokenAddress, _id)\n        isSeller(_tokenAddress, _id)\n    {\n        if(changeFee > 0) {\n            skillToken.safeTransferFrom(msg.sender, address(this), usdToSkill(changeFee));\n        }\n\n        listings[address(_tokenAddress)][_id].price = _newPrice;\n        emit ListingPriceChange(\n            msg.sender,\n            _tokenAddress,\n            _id,\n            _newPrice\n        );\n    }\n\n    function changeListingTargetBuyer(\n        IERC721 _tokenAddress,\n        uint256 _id,\n        address _newTargetBuyer\n    )\n        public\n        userNotBanned\n        isListed(_tokenAddress, _id)\n        isSeller(_tokenAddress, _id)\n    {\n        nftTargetBuyers[address(_tokenAddress)][_id] = _newTargetBuyer;\n        emit ListingTargetBuyerChange(\n            msg.sender,\n            _tokenAddress,\n            _id,\n            _newTargetBuyer\n        );\n    }\n\n    function cancelListing(IERC721 _tokenAddress, uint256 _id)\n        public\n        userNotBanned\n        isListed(_tokenAddress, _id)\n        isSellerOrAdmin(_tokenAddress, _id)\n    {\n        delete listings[address(_tokenAddress)][_id];\n        listedTokenIDs[address(_tokenAddress)].remove(_id);\n\n        _updateListedTokenTypes(_tokenAddress);\n\n        _tokenAddress.safeTransferFrom(address(this), msg.sender, _id);\n\n        emit CancelledListing(msg.sender, _tokenAddress, _id);\n    }\n\n    function purchaseListing(\n        IERC721 _tokenAddress,\n        uint256 _id,\n        uint256 _maxPrice\n    ) public userNotBanned isListed(_tokenAddress, _id) userAllowedToPurchase(_tokenAddress, _id) {\n        uint256 finalPrice = getFinalPrice(_tokenAddress, _id);\n        require(finalPrice <= _maxPrice, \"Buying price too low\");\n\n        Listing memory listing = listings[address(_tokenAddress)][_id];\n        require(isUserBanned[listing.seller] == false, \"Banned seller\");\n        uint256 taxAmount = getTaxOnListing(_tokenAddress, _id);\n\n        delete listings[address(_tokenAddress)][_id];\n        listedTokenIDs[address(_tokenAddress)].remove(_id);\n        _updateListedTokenTypes(_tokenAddress);\n\n        skillToken.safeTransferFrom(msg.sender, taxRecipient, taxAmount);\n        skillToken.safeTransferFrom(\n            msg.sender,\n            listing.seller,\n            finalPrice.sub(taxAmount)\n        );\n        _tokenAddress.safeTransferFrom(address(this), msg.sender, _id);\n\n        emit PurchasedListing(\n            msg.sender,\n            listing.seller,\n            _tokenAddress,\n            _id,\n            finalPrice\n        );\n    }\n\n    function setAddValue(uint256 cents) public restricted {\n        require(cents <= 100, \"AddValue too high\");\n        addFee = ABDKMath64x64.divu(cents, 100);\n    }\n\n    function setChangeValue(uint256 cents) public restricted {\n        require(cents <= 100, \"ChangeValue too high\");\n        changeFee = ABDKMath64x64.divu(cents, 100);\n    }\n\n    function setTaxRecipient(address _taxRecipient) public restricted {\n        taxRecipient = _taxRecipient;\n    }\n\n    function setDefaultTax(int128 _defaultTax) public restricted {\n        defaultTax = _defaultTax;\n    }\n\n    function setDefaultTaxAsRational(uint256 _numerator, uint256 _denominator)\n        public\n        restricted\n    {\n        defaultTax = ABDKMath64x64.divu(_numerator, _denominator);\n    }\n\n    function setDefaultTaxAsPercent(uint256 _percent) public restricted {\n        defaultTax = ABDKMath64x64.divu(_percent, 100);\n    }\n\n    function setTaxOnTokenType(IERC721 _tokenAddress, int128 _newTax)\n        public\n        restricted\n        isValidERC721(_tokenAddress)\n    {\n        _setTaxOnTokenType(_tokenAddress, _newTax);\n    }\n\n    function setTaxOnTokenTypeAsRational(\n        IERC721 _tokenAddress,\n        uint256 _numerator,\n        uint256 _denominator\n    ) public restricted isValidERC721(_tokenAddress) {\n        _setTaxOnTokenType(\n            _tokenAddress,\n            ABDKMath64x64.divu(_numerator, _denominator)\n        );\n    }\n\n    function setTaxOnTokenTypeAsPercent(\n        IERC721 _tokenAddress,\n        uint256 _percent\n    ) public restricted isValidERC721(_tokenAddress) {\n        _setTaxOnTokenType(\n            _tokenAddress,\n            ABDKMath64x64.divu(_percent, 100)\n        );\n    }\n\n    function setUserBan(address user, bool to) external restricted {\n        isUserBanned[user] = to;\n    }\n\n    function setUserBans(address[] calldata users, bool to) external restricted {\n        for(uint i = 0; i < users.length; i++) {\n            isUserBanned[users[i]] = to;\n        }\n    }\n\n    function unlistItem(IERC721 _tokenAddress, uint256 _id) external restricted {\n        delete listings[address(_tokenAddress)][_id];\n        listedTokenIDs[address(_tokenAddress)].remove(_id);\n    }\n\n    function unlistItems(IERC721 _tokenAddress, uint256[] calldata _ids) external restricted {\n        for(uint i = 0; i < _ids.length; i++) {\n            delete listings[address(_tokenAddress)][_ids[i]];\n            listedTokenIDs[address(_tokenAddress)].remove(_ids[i]);\n        }\n    }\n\n    function allowToken(IERC721 _tokenAddress) public restricted isValidERC721(_tokenAddress) {\n        allowedTokenTypes.add(address(_tokenAddress));\n    }\n\n    function disallowToken(IERC721 _tokenAddress) public restricted {\n        allowedTokenTypes.remove(address(_tokenAddress));\n    }\n\n    function recoverSkill(uint256 amount) public restricted {\n        skillToken.safeTransfer(msg.sender, amount); // dont expect we'll hold tokens here but might as well\n    }\n\n    function usdToSkill(int128 usdAmount) public view returns (uint256) {\n        return usdAmount.mulu(priceOracleSkillPerUsd.currentPrice());\n    }\n\n    function onERC721Received(\n        address, /* operator */\n        address, /* from */\n        uint256 _id,\n        bytes calldata /* data */\n    ) external override returns (bytes4) {\n        // NOTE: The contract address is always the message sender.\n        address _tokenAddress = msg.sender;\n\n        require(\n            listedTokenTypes.contains(_tokenAddress) &&\n                listedTokenIDs[_tokenAddress].contains(_id),\n            \"Token ID not listed\"\n        );\n\n        return IERC721ReceiverUpgradeable.onERC721Received.selector;\n    }\n\n    // ############\n    // Internal helpers\n    // ############\n    function _setTaxOnTokenType(IERC721 tokenAddress, int128 newTax) private {\n        require(newTax >= 0, \"We're not running a charity here\");\n        tax[address(tokenAddress)] = newTax;\n        freeTax[address(tokenAddress)] = newTax == 0;\n    }\n\n    function _updateListedTokenTypes(IERC721 tokenAddress) private {\n        if (listedTokenIDs[address(tokenAddress)].length() > 0) {\n            _registerTokenAddress(tokenAddress);\n        } else {\n            _unregisterTokenAddress(tokenAddress);\n        }\n    }\n\n    function _registerTokenAddress(IERC721 tokenAddress) private {\n        if (!listedTokenTypes.contains(address(tokenAddress))) {\n            listedTokenTypes.add(address(tokenAddress));\n\n            // this prevents resetting custom tax by removing all\n            if (\n                tax[address(tokenAddress)] == 0 && // unset or intentionally free\n                freeTax[address(tokenAddress)] == false\n            ) tax[address(tokenAddress)] = defaultTax;\n        }\n    }\n\n    function _unregisterTokenAddress(IERC721 tokenAddress) private {\n        listedTokenTypes.remove(address(tokenAddress));\n    }\n}\n",
  "sourcePath": "D:\\Work\\MEVN\\cryptoblades-main\\cryptoblades-main\\contracts\\NFTMarket.sol",
  "compiler": {
    "name": "solc",
    "version": "0.6.5+commit.f956cc89.Emscripten.clang"
  },
  "schemaVersion": "3.4.3",
  "updatedAt": "2021-09-18T03:37:02.210Z",
  "devdoc": {
    "methods": {
      "getRoleAdmin(bytes32)": {
        "details": "Returns the admin role that controls `role`. See {grantRole} and {revokeRole}.     * To change a role's admin, use {_setRoleAdmin}."
      },
      "getRoleMember(bytes32,uint256)": {
        "details": "Returns one of the accounts that have `role`. `index` must be a value between 0 and {getRoleMemberCount}, non-inclusive.     * Role bearers are not sorted in any particular way, and their ordering may change at any point.     * WARNING: When using {getRoleMember} and {getRoleMemberCount}, make sure you perform all queries on the same block. See the following https://forum.openzeppelin.com/t/iterating-over-elements-on-enumerableset-in-openzeppelin-contracts/2296[forum post] for more information."
      },
      "getRoleMemberCount(bytes32)": {
        "details": "Returns the number of accounts that have `role`. Can be used together with {getRoleMember} to enumerate all bearers of a role."
      },
      "grantRole(bytes32,address)": {
        "details": "Grants `role` to `account`.     * If `account` had not been already granted `role`, emits a {RoleGranted} event.     * Requirements:     * - the caller must have ``role``'s admin role."
      },
      "hasRole(bytes32,address)": {
        "details": "Returns `true` if `account` has been granted `role`."
      },
      "renounceRole(bytes32,address)": {
        "details": "Revokes `role` from the calling account.     * Roles are often managed via {grantRole} and {revokeRole}: this function's purpose is to provide a mechanism for accounts to lose their privileges if they are compromised (such as when a trusted device is misplaced).     * If the calling account had been granted `role`, emits a {RoleRevoked} event.     * Requirements:     * - the caller must be `account`."
      },
      "revokeRole(bytes32,address)": {
        "details": "Revokes `role` from `account`.     * If `account` had been granted `role`, emits a {RoleRevoked} event.     * Requirements:     * - the caller must have ``role``'s admin role."
      }
    }
  },
  "userdoc": {
    "methods": {}
  }
}