{
  "contractName": "RaidTrinket",
  "abi": [
    {
      "anonymous": false,
      "inputs": [
        {
          "indexed": true,
          "internalType": "address",
          "name": "owner",
          "type": "address"
        },
        {
          "indexed": true,
          "internalType": "address",
          "name": "approved",
          "type": "address"
        },
        {
          "indexed": true,
          "internalType": "uint256",
          "name": "tokenId",
          "type": "uint256"
        }
      ],
      "name": "Approval",
      "type": "event"
    },
    {
      "anonymous": false,
      "inputs": [
        {
          "indexed": true,
          "internalType": "address",
          "name": "owner",
          "type": "address"
        },
        {
          "indexed": true,
          "internalType": "address",
          "name": "operator",
          "type": "address"
        },
        {
          "indexed": false,
          "internalType": "bool",
          "name": "approved",
          "type": "bool"
        }
      ],
      "name": "ApprovalForAll",
      "type": "event"
    },
    {
      "anonymous": false,
      "inputs": [
        {
          "indexed": true,
          "internalType": "uint256",
          "name": "id",
          "type": "uint256"
        },
        {
          "indexed": true,
          "internalType": "address",
          "name": "minter",
          "type": "address"
        }
      ],
      "name": "Minted",
      "type": "event"
    },
    {
      "anonymous": false,
      "inputs": [
        {
          "indexed": true,
          "internalType": "bytes32",
          "name": "role",
          "type": "bytes32"
        },
        {
          "indexed": true,
          "internalType": "bytes32",
          "name": "previousAdminRole",
          "type": "bytes32"
        },
        {
          "indexed": true,
          "internalType": "bytes32",
          "name": "newAdminRole",
          "type": "bytes32"
        }
      ],
      "name": "RoleAdminChanged",
      "type": "event"
    },
    {
      "anonymous": false,
      "inputs": [
        {
          "indexed": true,
          "internalType": "bytes32",
          "name": "role",
          "type": "bytes32"
        },
        {
          "indexed": true,
          "internalType": "address",
          "name": "account",
          "type": "address"
        },
        {
          "indexed": true,
          "internalType": "address",
          "name": "sender",
          "type": "address"
        }
      ],
      "name": "RoleGranted",
      "type": "event"
    },
    {
      "anonymous": false,
      "inputs": [
        {
          "indexed": true,
          "internalType": "bytes32",
          "name": "role",
          "type": "bytes32"
        },
        {
          "indexed": true,
          "internalType": "address",
          "name": "account",
          "type": "address"
        },
        {
          "indexed": true,
          "internalType": "address",
          "name": "sender",
          "type": "address"
        }
      ],
      "name": "RoleRevoked",
      "type": "event"
    },
    {
      "anonymous": false,
      "inputs": [
        {
          "indexed": true,
          "internalType": "address",
          "name": "from",
          "type": "address"
        },
        {
          "indexed": true,
          "internalType": "address",
          "name": "to",
          "type": "address"
        },
        {
          "indexed": true,
          "internalType": "uint256",
          "name": "tokenId",
          "type": "uint256"
        }
      ],
      "name": "Transfer",
      "type": "event"
    },
    {
      "inputs": [],
      "name": "DEFAULT_ADMIN_ROLE",
      "outputs": [
        {
          "internalType": "bytes32",
          "name": "",
          "type": "bytes32"
        }
      ],
      "stateMutability": "view",
      "type": "function"
    },
    {
      "inputs": [],
      "name": "GAME_ADMIN",
      "outputs": [
        {
          "internalType": "bytes32",
          "name": "",
          "type": "bytes32"
        }
      ],
      "stateMutability": "view",
      "type": "function"
    },
    {
      "inputs": [
        {
          "internalType": "address",
          "name": "to",
          "type": "address"
        },
        {
          "internalType": "uint256",
          "name": "tokenId",
          "type": "uint256"
        }
      ],
      "name": "approve",
      "outputs": [],
      "stateMutability": "nonpayable",
      "type": "function"
    },
    {
      "inputs": [
        {
          "internalType": "address",
          "name": "owner",
          "type": "address"
        }
      ],
      "name": "balanceOf",
      "outputs": [
        {
          "internalType": "uint256",
          "name": "",
          "type": "uint256"
        }
      ],
      "stateMutability": "view",
      "type": "function"
    },
    {
      "inputs": [],
      "name": "baseURI",
      "outputs": [
        {
          "internalType": "string",
          "name": "",
          "type": "string"
        }
      ],
      "stateMutability": "view",
      "type": "function"
    },
    {
      "inputs": [
        {
          "internalType": "uint256",
          "name": "tokenId",
          "type": "uint256"
        }
      ],
      "name": "getApproved",
      "outputs": [
        {
          "internalType": "address",
          "name": "",
          "type": "address"
        }
      ],
      "stateMutability": "view",
      "type": "function"
    },
    {
      "inputs": [
        {
          "internalType": "bytes32",
          "name": "role",
          "type": "bytes32"
        }
      ],
      "name": "getRoleAdmin",
      "outputs": [
        {
          "internalType": "bytes32",
          "name": "",
          "type": "bytes32"
        }
      ],
      "stateMutability": "view",
      "type": "function"
    },
    {
      "inputs": [
        {
          "internalType": "bytes32",
          "name": "role",
          "type": "bytes32"
        },
        {
          "internalType": "uint256",
          "name": "index",
          "type": "uint256"
        }
      ],
      "name": "getRoleMember",
      "outputs": [
        {
          "internalType": "address",
          "name": "",
          "type": "address"
        }
      ],
      "stateMutability": "view",
      "type": "function"
    },
    {
      "inputs": [
        {
          "internalType": "bytes32",
          "name": "role",
          "type": "bytes32"
        }
      ],
      "name": "getRoleMemberCount",
      "outputs": [
        {
          "internalType": "uint256",
          "name": "",
          "type": "uint256"
        }
      ],
      "stateMutability": "view",
      "type": "function"
    },
    {
      "inputs": [
        {
          "internalType": "bytes32",
          "name": "role",
          "type": "bytes32"
        },
        {
          "internalType": "address",
          "name": "account",
          "type": "address"
        }
      ],
      "name": "grantRole",
      "outputs": [],
      "stateMutability": "nonpayable",
      "type": "function"
    },
    {
      "inputs": [
        {
          "internalType": "bytes32",
          "name": "role",
          "type": "bytes32"
        },
        {
          "internalType": "address",
          "name": "account",
          "type": "address"
        }
      ],
      "name": "hasRole",
      "outputs": [
        {
          "internalType": "bool",
          "name": "",
          "type": "bool"
        }
      ],
      "stateMutability": "view",
      "type": "function"
    },
    {
      "inputs": [
        {
          "internalType": "address",
          "name": "owner",
          "type": "address"
        },
        {
          "internalType": "address",
          "name": "operator",
          "type": "address"
        }
      ],
      "name": "isApprovedForAll",
      "outputs": [
        {
          "internalType": "bool",
          "name": "",
          "type": "bool"
        }
      ],
      "stateMutability": "view",
      "type": "function"
    },
    {
      "inputs": [],
      "name": "name",
      "outputs": [
        {
          "internalType": "string",
          "name": "",
          "type": "string"
        }
      ],
      "stateMutability": "view",
      "type": "function"
    },
    {
      "inputs": [
        {
          "internalType": "uint256",
          "name": "tokenId",
          "type": "uint256"
        }
      ],
      "name": "ownerOf",
      "outputs": [
        {
          "internalType": "address",
          "name": "",
          "type": "address"
        }
      ],
      "stateMutability": "view",
      "type": "function"
    },
    {
      "inputs": [],
      "name": "promos",
      "outputs": [
        {
          "internalType": "contract Promos",
          "name": "",
          "type": "address"
        }
      ],
      "stateMutability": "view",
      "type": "function"
    },
    {
      "inputs": [
        {
          "internalType": "bytes32",
          "name": "role",
          "type": "bytes32"
        },
        {
          "internalType": "address",
          "name": "account",
          "type": "address"
        }
      ],
      "name": "renounceRole",
      "outputs": [],
      "stateMutability": "nonpayable",
      "type": "function"
    },
    {
      "inputs": [
        {
          "internalType": "bytes32",
          "name": "role",
          "type": "bytes32"
        },
        {
          "internalType": "address",
          "name": "account",
          "type": "address"
        }
      ],
      "name": "revokeRole",
      "outputs": [],
      "stateMutability": "nonpayable",
      "type": "function"
    },
    {
      "inputs": [
        {
          "internalType": "address",
          "name": "from",
          "type": "address"
        },
        {
          "internalType": "address",
          "name": "to",
          "type": "address"
        },
        {
          "internalType": "uint256",
          "name": "tokenId",
          "type": "uint256"
        }
      ],
      "name": "safeTransferFrom",
      "outputs": [],
      "stateMutability": "nonpayable",
      "type": "function"
    },
    {
      "inputs": [
        {
          "internalType": "address",
          "name": "from",
          "type": "address"
        },
        {
          "internalType": "address",
          "name": "to",
          "type": "address"
        },
        {
          "internalType": "uint256",
          "name": "tokenId",
          "type": "uint256"
        },
        {
          "internalType": "bytes",
          "name": "_data",
          "type": "bytes"
        }
      ],
      "name": "safeTransferFrom",
      "outputs": [],
      "stateMutability": "nonpayable",
      "type": "function"
    },
    {
      "inputs": [
        {
          "internalType": "address",
          "name": "operator",
          "type": "address"
        },
        {
          "internalType": "bool",
          "name": "approved",
          "type": "bool"
        }
      ],
      "name": "setApprovalForAll",
      "outputs": [],
      "stateMutability": "nonpayable",
      "type": "function"
    },
    {
      "inputs": [
        {
          "internalType": "bytes4",
          "name": "interfaceId",
          "type": "bytes4"
        }
      ],
      "name": "supportsInterface",
      "outputs": [
        {
          "internalType": "bool",
          "name": "",
          "type": "bool"
        }
      ],
      "stateMutability": "view",
      "type": "function"
    },
    {
      "inputs": [],
      "name": "symbol",
      "outputs": [
        {
          "internalType": "string",
          "name": "",
          "type": "string"
        }
      ],
      "stateMutability": "view",
      "type": "function"
    },
    {
      "inputs": [
        {
          "internalType": "uint256",
          "name": "index",
          "type": "uint256"
        }
      ],
      "name": "tokenByIndex",
      "outputs": [
        {
          "internalType": "uint256",
          "name": "",
          "type": "uint256"
        }
      ],
      "stateMutability": "view",
      "type": "function"
    },
    {
      "inputs": [
        {
          "internalType": "uint256",
          "name": "",
          "type": "uint256"
        }
      ],
      "name": "tokenEffect",
      "outputs": [
        {
          "internalType": "uint256",
          "name": "",
          "type": "uint256"
        }
      ],
      "stateMutability": "view",
      "type": "function"
    },
    {
      "inputs": [
        {
          "internalType": "address",
          "name": "owner",
          "type": "address"
        },
        {
          "internalType": "uint256",
          "name": "index",
          "type": "uint256"
        }
      ],
      "name": "tokenOfOwnerByIndex",
      "outputs": [
        {
          "internalType": "uint256",
          "name": "",
          "type": "uint256"
        }
      ],
      "stateMutability": "view",
      "type": "function"
    },
    {
      "inputs": [
        {
          "internalType": "uint256",
          "name": "",
          "type": "uint256"
        }
      ],
      "name": "tokenStars",
      "outputs": [
        {
          "internalType": "uint8",
          "name": "",
          "type": "uint8"
        }
      ],
      "stateMutability": "view",
      "type": "function"
    },
    {
      "inputs": [
        {
          "internalType": "uint256",
          "name": "tokenId",
          "type": "uint256"
        }
      ],
      "name": "tokenURI",
      "outputs": [
        {
          "internalType": "string",
          "name": "",
          "type": "string"
        }
      ],
      "stateMutability": "view",
      "type": "function"
    },
    {
      "inputs": [],
      "name": "totalSupply",
      "outputs": [
        {
          "internalType": "uint256",
          "name": "",
          "type": "uint256"
        }
      ],
      "stateMutability": "view",
      "type": "function"
    },
    {
      "inputs": [
        {
          "internalType": "address",
          "name": "from",
          "type": "address"
        },
        {
          "internalType": "address",
          "name": "to",
          "type": "address"
        },
        {
          "internalType": "uint256",
          "name": "tokenId",
          "type": "uint256"
        }
      ],
      "name": "transferFrom",
      "outputs": [],
      "stateMutability": "nonpayable",
      "type": "function"
    },
    {
      "inputs": [
        {
          "internalType": "contract Promos",
          "name": "_promos",
          "type": "address"
        }
      ],
      "name": "initialize",
      "outputs": [],
      "stateMutability": "nonpayable",
      "type": "function"
    },
    {
      "inputs": [
        {
          "internalType": "uint256",
          "name": "id",
          "type": "uint256"
        }
      ],
      "name": "get",
      "outputs": [
        {
          "internalType": "uint8",
          "name": "_stars",
          "type": "uint8"
        },
        {
          "internalType": "uint256",
          "name": "_effect",
          "type": "uint256"
        }
      ],
      "stateMutability": "view",
      "type": "function"
    },
    {
      "inputs": [],
      "name": "getOwned",
      "outputs": [
        {
          "internalType": "uint256[]",
          "name": "",
          "type": "uint256[]"
        }
      ],
      "stateMutability": "view",
      "type": "function"
    },
    {
      "inputs": [
        {
          "internalType": "address",
          "name": "owner",
          "type": "address"
        }
      ],
      "name": "getOwnedBy",
      "outputs": [
        {
          "internalType": "uint256[]",
          "name": "",
          "type": "uint256[]"
        }
      ],
      "stateMutability": "view",
      "type": "function"
    },
    {
      "inputs": [
        {
          "internalType": "address",
          "name": "minter",
          "type": "address"
        },
        {
          "internalType": "uint8",
          "name": "mintStars",
          "type": "uint8"
        },
        {
          "internalType": "uint256",
          "name": "mintEffect",
          "type": "uint256"
        }
      ],
      "name": "mint",
      "outputs": [
        {
          "internalType": "uint256",
          "name": "",
          "type": "uint256"
        }
      ],
      "stateMutability": "nonpayable",
      "type": "function"
    }
  ],
  "bytecode": "0x608060405234801561001057600080fd5b50612aa4806100206000396000f3fe608060405234801561001057600080fd5b50600436106102065760003560e01c80636c0360eb1161011a578063b88d4fde116100ad578063ca15c8731161007c578063ca15c87314610759578063d547741f14610776578063e291298f146107a2578063e985e9c5146107c8578063ebd2b309146107f657610206565b8063b88d4fde146105f8578063c3027525146106be578063c4d66de814610716578063c87b56dd1461073c57610206565b80639507d39a116100e95780639507d39a1461058057806395d89b41146105ba578063a217fddf146105c2578063a22cb465146105ca57610206565b80636c0360eb1461050357806370a082311461050b5780639010d07c1461053157806391d148541461055457610206565b80632f2ff15d1161019d5780634ed387b21161016c5780634ed387b2146104845780634f6ccce7146104b957806351e717ac146104d65780635504d3d2146104de5780636352211e146104e657610206565b80632f2ff15d146103ca5780632f745c59146103f657806336568abe1461042257806342842e0e1461044e57610206565b806318160ddd116101d957806318160ddd1461032a5780631cfb777e1461034457806323b872dd14610377578063248a9ca3146103ad57610206565b806301ffc9a71461020b57806306fdde0314610246578063081812fc146102c3578063095ea7b3146102fc575b600080fd5b6102326004803603602081101561022157600080fd5b50356001600160e01b031916610813565b604080519115158252519081900360200190f35b61024e610836565b6040805160208082528351818301528351919283929083019185019080838360005b83811015610288578181015183820152602001610270565b50505050905090810190601f1680156102b55780820380516001836020036101000a031916815260200191505b509250505060405180910390f35b6102e0600480360360208110156102d957600080fd5b50356108cd565b604080516001600160a01b039092168252519081900360200190f35b6103286004803603604081101561031257600080fd5b506001600160a01b03813516906020013561092f565b005b610332610a0a565b60408051918252519081900360200190f35b6103616004803603602081101561035a57600080fd5b5035610a1b565b6040805160ff9092168252519081900360200190f35b6103286004803603606081101561038d57600080fd5b506001600160a01b03813581169160208101359091169060400135610a30565b610332600480360360208110156103c357600080fd5b5035610a87565b610328600480360360408110156103e057600080fd5b50803590602001356001600160a01b0316610a9c565b6103326004803603604081101561040c57600080fd5b506001600160a01b038135169060200135610b08565b6103286004803603604081101561043857600080fd5b50803590602001356001600160a01b0316610b39565b6103286004803603606081101561046457600080fd5b506001600160a01b03813581169160208101359091169060400135610b9a565b6103326004803603606081101561049a57600080fd5b506001600160a01b038135169060ff6020820135169060400135610bb5565b610332600480360360208110156104cf57600080fd5b5035610ca1565b6102e0610cbd565b610332610ccc565b6102e0600480360360208110156104fc57600080fd5b5035610cee565b61024e610d1c565b6103326004803603602081101561052157600080fd5b50356001600160a01b0316610d7d565b6102e06004803603604081101561054757600080fd5b5080359060200135610de5565b6102326004803603604081101561056a57600080fd5b50803590602001356001600160a01b0316610e03565b61059d6004803603602081101561059657600080fd5b5035610e21565b6040805160ff909316835260208301919091528051918290030190f35b61024e610e44565b610332610ea5565b610328600480360360408110156105e057600080fd5b506001600160a01b0381351690602001351515610eaa565b6103286004803603608081101561060e57600080fd5b6001600160a01b0382358116926020810135909116916040820135919081019060808101606082013564010000000081111561064957600080fd5b82018360208201111561065b57600080fd5b8035906020019184600183028401116401000000008311171561067d57600080fd5b91908080601f016020809104026020016040519081016040528093929190818152602001838380828437600092019190915250929550610faf945050505050565b6106c661100d565b60408051602080825283518183015283519192839290830191858101910280838360005b838110156107025781810151838201526020016106ea565b505050509050019250505060405180910390f35b6103286004803603602081101561072c57600080fd5b50356001600160a01b0316611018565b61024e6004803603602081101561075257600080fd5b503561113a565b6103326004803603602081101561076f57600080fd5b50356113bd565b6103286004803603604081101561078c57600080fd5b50803590602001356001600160a01b03166113d4565b6106c6600480360360208110156107b857600080fd5b50356001600160a01b031661142d565b610232600480360360408110156107de57600080fd5b506001600160a01b03813581169160200135166114b8565b6103326004803603602081101561080c57600080fd5b50356114e6565b6001600160e01b0319811660009081526033602052604090205460ff165b919050565b606a8054604080516020601f60026000196101006001881615020190951694909404938401819004810282018101909252828152606093909290918301828280156108c25780601f10610897576101008083540402835291602001916108c2565b820191906000526020600020905b8154815290600101906020018083116108a557829003601f168201915b505050505090505b90565b60006108d8826114f8565b6109135760405162461bcd60e51b815260040180806020018281038252602c81526020018061296a602c913960400191505060405180910390fd5b506000908152606860205260409020546001600160a01b031690565b600061093a82610cee565b9050806001600160a01b0316836001600160a01b0316141561098d5760405162461bcd60e51b81526004018080602001828103825260218152602001806129ee6021913960400191505060405180910390fd5b806001600160a01b031661099f61150b565b6001600160a01b031614806109c057506109c0816109bb61150b565b6114b8565b6109fb5760405162461bcd60e51b815260040180806020018281038252603881526020018061288f6038913960400191505060405180910390fd5b610a05838361150f565b505050565b6000610a16606661157d565b905090565b60ca6020526000908152604090205460ff1681565b610a41610a3b61150b565b82611588565b610a7c5760405162461bcd60e51b8152600401808060200182810382526031815260200180612a0f6031913960400191505060405180910390fd5b610a0583838361162c565b60009081526097602052604090206002015490565b600082815260976020526040902060020154610abf90610aba61150b565b610e03565b610afa5760405162461bcd60e51b815260040180806020018281038252602f815260200180612788602f913960400191505060405180910390fd5b610b04828261178a565b5050565b6001600160a01b0382166000908152606560205260408120610b30908363ffffffff6117f916565b90505b92915050565b610b4161150b565b6001600160a01b0316816001600160a01b031614610b905760405162461bcd60e51b815260040180806020018281038252602f815260200180612a40602f913960400191505060405180910390fd5b610b048282611805565b610a0583838360405180602001604052806000815250610faf565b604080516923a0a6a2afa0a226a4a760b11b8152905190819003600a019020600090610be19033610e03565b610c23576040805162461bcd60e51b815260206004820152600e60248201526d2737ba1033b0b6b29030b236b4b760911b604482015290519081900360640190fd5b6000610c2d610a0a565b600081815260ca60209081526040808320805460ff191660ff8a1617905560cb90915290208490559050610c618582611874565b6040516001600160a01b0386169082907fb9203d657e9c0ec8274c818292ab0f58b04e1970050716891770eb1bab5d655e90600090a390505b9392505050565b600080610cb560668463ffffffff6119ae16565b509392505050565b60c9546001600160a01b031681565b604080516923a0a6a2afa0a226a4a760b11b8152905190819003600a01902081565b6000610b33826040518060600160405280602981526020016128f1602991396066919063ffffffff6119ca16565b606d8054604080516020601f60026000196101006001881615020190951694909404938401819004810282018101909252828152606093909290918301828280156108c25780601f10610897576101008083540402835291602001916108c2565b60006001600160a01b038216610dc45760405162461bcd60e51b815260040180806020018281038252602a8152602001806128c7602a913960400191505060405180910390fd5b6001600160a01b0382166000908152606560205260409020610b339061157d565b6000828152609760205260408120610b30908363ffffffff6117f916565b6000828152609760205260408120610b30908363ffffffff6119d716565b600090815260ca602090815260408083205460cb9092529091205460ff90911691565b606b8054604080516020601f60026000196101006001881615020190951694909404938401819004810282018101909252828152606093909290918301828280156108c25780601f10610897576101008083540402835291602001916108c2565b600081565b610eb261150b565b6001600160a01b0316826001600160a01b03161415610f18576040805162461bcd60e51b815260206004820152601960248201527f4552433732313a20617070726f766520746f2063616c6c657200000000000000604482015290519081900360640190fd5b8060696000610f2561150b565b6001600160a01b03908116825260208083019390935260409182016000908120918716808252919093529120805460ff191692151592909217909155610f6961150b565b60408051841515815290516001600160a01b0392909216917f17307eab39ab6107e8899845ad3d59bd9653f200f220920489ca2b5937696c319181900360200190a35050565b610fc0610fba61150b565b83611588565b610ffb5760405162461bcd60e51b8152600401808060200182810382526031815260200180612a0f6031913960400191505060405180910390fd5b611007848484846119ec565b50505050565b6060610a163361142d565b600054610100900460ff16806110315750611031611a3e565b8061103f575060005460ff16155b61107a5760405162461bcd60e51b815260040180806020018281038252602e81526020018061291a602e913960400191505060405180910390fd5b600054610100900460ff161580156110a5576000805460ff1961ff0019909116610100171660011790555b6110f76040518060400160405280601481526020017310dc9e5c1d1bd09b1859195cc8151c9a5b9ad95d60621b8152506040518060400160405280600481526020016310d0949560e21b815250611a4f565b6110ff611b0c565b61110a600033610afa565b60c980546001600160a01b0319166001600160a01b0384161790558015610b04576000805461ff00191690555050565b6060611145826114f8565b6111805760405162461bcd60e51b815260040180806020018281038252602f8152602001806129bf602f913960400191505060405180910390fd5b6000828152606c602090815260409182902080548351601f60026000196101006001861615020190931692909204918201849004840281018401909452808452606093928301828280156112155780601f106111ea57610100808354040283529160200191611215565b820191906000526020600020905b8154815290600101906020018083116111f857829003601f168201915b505050505090506060611226610d1c565b905080516000141561123a57509050610831565b8151156112fb5780826040516020018083805190602001908083835b602083106112755780518252601f199092019160209182019101611256565b51815160209384036101000a600019018019909216911617905285519190930192850191508083835b602083106112bd5780518252601f19909201916020918201910161129e565b6001836020036101000a0380198251168184511680821785525050505050509050019250505060405160208183030381529060405292505050610831565b8061130585611bae565b6040516020018083805190602001908083835b602083106113375780518252601f199092019160209182019101611318565b51815160209384036101000a600019018019909216911617905285519190930192850191508083835b6020831061137f5780518252601f199092019160209182019101611360565b6001836020036101000a0380198251168184511680821785525050505050509050019250505060405160208183030381529060405292505050919050565b6000818152609760205260408120610b339061157d565b6000828152609760205260409020600201546113f290610aba61150b565b610b905760405162461bcd60e51b815260040180806020018281038252603081526020018061285f6030913960400191505060405180910390fd5b60608061143983610d7d565b67ffffffffffffffff8111801561144f57600080fd5b50604051908082528060200260200182016040528015611479578160200160208202803683370190505b50905060005b81518110156114b1576114928482610b08565b82828151811061149e57fe5b602090810291909101015260010161147f565b5092915050565b6001600160a01b03918216600090815260696020908152604080832093909416825291909152205460ff1690565b60cb6020526000908152604090205481565b6000610b3360668363ffffffff611c8916565b3390565b600081815260686020526040902080546001600160a01b0319166001600160a01b038416908117909155819061154482610cee565b6001600160a01b03167f8c5be1e5ebec7d5bd14f71427d1e84f3dd0314c0f7b2291e5b200ac8c7c3b92560405160405180910390a45050565b6000610b3382611c95565b6000611593826114f8565b6115ce5760405162461bcd60e51b815260040180806020018281038252602c815260200180612833602c913960400191505060405180910390fd5b60006115d983610cee565b9050806001600160a01b0316846001600160a01b031614806116145750836001600160a01b0316611609846108cd565b6001600160a01b0316145b80611624575061162481856114b8565b949350505050565b826001600160a01b031661163f82610cee565b6001600160a01b0316146116845760405162461bcd60e51b81526004018080602001828103825260298152602001806129966029913960400191505060405180910390fd5b6001600160a01b0382166116c95760405162461bcd60e51b81526004018080602001828103825260248152602001806127e96024913960400191505060405180910390fd5b6116d4838383611c99565b6116df60008261150f565b6001600160a01b0383166000908152606560205260409020611707908263ffffffff611db016565b506001600160a01b0382166000908152606560205260409020611730908263ffffffff611dbc16565b506117436066828463ffffffff611dc816565b5080826001600160a01b0316846001600160a01b03167fddf252ad1be2c89b69c2b068fc378daa952ba7f163c4a11628f55a4df523b3ef60405160405180910390a4505050565b60008281526097602052604090206117a8908263ffffffff611dde16565b15610b04576117b561150b565b6001600160a01b0316816001600160a01b0316837f2f8788117e7eff1d82e926ec794901d17c78024a50270940304540a733656f0d60405160405180910390a45050565b6000610b308383611df3565b6000828152609760205260409020611823908263ffffffff611e5716565b15610b045761183061150b565b6001600160a01b0316816001600160a01b0316837ff6391f5c32d9c69d2a47ea670b442974b53935d1edc7fd64eb21e047a839171b60405160405180910390a45050565b6001600160a01b0382166118cf576040805162461bcd60e51b815260206004820181905260248201527f4552433732313a206d696e7420746f20746865207a65726f2061646472657373604482015290519081900360640190fd5b6118d8816114f8565b1561192a576040805162461bcd60e51b815260206004820152601c60248201527f4552433732313a20746f6b656e20616c7265616479206d696e74656400000000604482015290519081900360640190fd5b61193660008383611c99565b6001600160a01b038216600090815260656020526040902061195e908263ffffffff611dbc16565b506119716066828463ffffffff611dc816565b5060405181906001600160a01b038416906000907fddf252ad1be2c89b69c2b068fc378daa952ba7f163c4a11628f55a4df523b3ef908290a45050565b60008080806119bd8686611e6c565b9097909650945050505050565b6000611624848484611ee7565b6000610b30836001600160a01b038416611fb1565b6119f784848461162c565b611a0384848484611fc9565b6110075760405162461bcd60e51b81526004018080602001828103825260328152602001806127b76032913960400191505060405180910390fd5b6000611a4930612149565b15905090565b600054610100900460ff1680611a685750611a68611a3e565b80611a76575060005460ff16155b611ab15760405162461bcd60e51b815260040180806020018281038252602e81526020018061291a602e913960400191505060405180910390fd5b600054610100900460ff16158015611adc576000805460ff1961ff0019909116610100171660011790555b611ae4611b0c565b611aec61214f565b611af683836121ec565b8015610a05576000805461ff0019169055505050565b600054610100900460ff1680611b255750611b25611a3e565b80611b33575060005460ff16155b611b6e5760405162461bcd60e51b815260040180806020018281038252602e81526020018061291a602e913960400191505060405180910390fd5b600054610100900460ff16158015611b99576000805460ff1961ff0019909116610100171660011790555b8015611bab576000805461ff00191690555b50565b606081611bd357506040805180820190915260018152600360fc1b6020820152610831565b8160005b8115611beb57600101600a82049150611bd7565b60608167ffffffffffffffff81118015611c0457600080fd5b506040519080825280601f01601f191660200182016040528015611c2f576020820181803683370190505b50859350905060001982015b8315611c8057600a840660300160f81b82828060019003935081518110611c5e57fe5b60200101906001600160f81b031916908160001a905350600a84049350611c3b565b50949350505050565b6000610b308383611fb1565b5490565b60c9546040805163434d82a360e01b81526001600160a01b0386811660048381019190915260248301529151919092169163434d82a3916044808301926020929190829003018186803b158015611cef57600080fd5b505afa158015611d03573d6000803e3d6000fd5b505050506040513d6020811015611d1957600080fd5b5051158015611da7575060c9546040805163434d82a360e01b81526001600160a01b0385811660048381019190915260248301529151919092169163434d82a3916044808301926020929190829003018186803b158015611d7957600080fd5b505afa158015611d8d573d6000803e3d6000fd5b505050506040513d6020811015611da357600080fd5b5051155b610a0557600080fd5b6000610b3083836122d1565b6000610b308383612397565b600061162484846001600160a01b0385166123e1565b6000610b30836001600160a01b038416612397565b81546000908210611e355760405162461bcd60e51b81526004018080602001828103825260228152602001806127666022913960400191505060405180910390fd5b826000018281548110611e4457fe5b9060005260206000200154905092915050565b6000610b30836001600160a01b0384166122d1565b815460009081908310611eb05760405162461bcd60e51b81526004018080602001828103825260228152602001806129486022913960400191505060405180910390fd5b6000846000018481548110611ec157fe5b906000526020600020906002020190508060000154816001015492509250509250929050565b60008281526001840160205260408120548281611f825760405162461bcd60e51b81526004018080602001828103825283818151815260200191508051906020019080838360005b83811015611f47578181015183820152602001611f2f565b50505050905090810190601f168015611f745780820380516001836020036101000a031916815260200191505b509250505060405180910390fd5b50846000016001820381548110611f9557fe5b9060005260206000209060020201600101549150509392505050565b60009081526001919091016020526040902054151590565b6000611fdd846001600160a01b0316612149565b611fe957506001611624565b606061210f630a85bd0160e11b611ffe61150b565b88878760405160240180856001600160a01b03166001600160a01b03168152602001846001600160a01b03166001600160a01b0316815260200183815260200180602001828103825283818151815260200191508051906020019080838360005b8381101561207757818101518382015260200161205f565b50505050905090810190601f1680156120a45780820380516001836020036101000a031916815260200191505b5095505050505050604051602081830303815290604052906001600160e01b0319166020820180516001600160e01b0383818316178352505050506040518060600160405280603281526020016127b7603291396001600160a01b038816919063ffffffff61247816565b9050600081806020019051602081101561212857600080fd5b50516001600160e01b031916630a85bd0160e11b1492505050949350505050565b3b151590565b600054610100900460ff16806121685750612168611a3e565b80612176575060005460ff16155b6121b15760405162461bcd60e51b815260040180806020018281038252602e81526020018061291a602e913960400191505060405180910390fd5b600054610100900460ff161580156121dc576000805460ff1961ff0019909116610100171660011790555b611b996301ffc9a760e01b612487565b600054610100900460ff16806122055750612205611a3e565b80612213575060005460ff16155b61224e5760405162461bcd60e51b815260040180806020018281038252602e81526020018061291a602e913960400191505060405180910390fd5b600054610100900460ff16158015612279576000805460ff1961ff0019909116610100171660011790555b825161228c90606a9060208601906126cd565b5081516122a090606b9060208501906126cd565b506122b16380ac58cd60e01b612487565b6122c1635b5e139f60e01b612487565b611af663780e9d6360e01b612487565b6000818152600183016020526040812054801561238d578354600019808301919081019060009087908390811061230457fe5b906000526020600020015490508087600001848154811061232157fe5b60009182526020808320909101929092558281526001898101909252604090209084019055865487908061235157fe5b60019003818190600052602060002001600090559055866001016000878152602001908152602001600020600090556001945050505050610b33565b6000915050610b33565b60006123a38383611fb1565b6123d957508154600181810184556000848152602080822090930184905584548482528286019093526040902091909155610b33565b506000610b33565b600082815260018401602052604081205480612446575050604080518082018252838152602080820184815286546001818101895560008981528481209551600290930290950191825591519082015586548684528188019092529290912055610c9a565b8285600001600183038154811061245957fe5b9060005260206000209060020201600101819055506000915050610c9a565b6060611624848460008561250b565b6001600160e01b031980821614156124e6576040805162461bcd60e51b815260206004820152601c60248201527f4552433136353a20696e76616c696420696e7465726661636520696400000000604482015290519081900360640190fd5b6001600160e01b0319166000908152603360205260409020805460ff19166001179055565b60608247101561254c5760405162461bcd60e51b815260040180806020018281038252602681526020018061280d6026913960400191505060405180910390fd5b61255585612149565b6125a6576040805162461bcd60e51b815260206004820152601d60248201527f416464726573733a2063616c6c20746f206e6f6e2d636f6e7472616374000000604482015290519081900360640190fd5b60006060866001600160a01b031685876040518082805190602001908083835b602083106125e55780518252601f1990920191602091820191016125c6565b6001836020036101000a03801982511681845116808217855250505050505090500191505060006040518083038185875af1925050503d8060008114612647576040519150601f19603f3d011682016040523d82523d6000602084013e61264c565b606091505b509150915061265c828286612667565b979650505050505050565b60608315612676575081610c9a565b8251156126865782518084602001fd5b60405162461bcd60e51b8152602060048201818152845160248401528451859391928392604401919085019080838360008315611f47578181015183820152602001611f2f565b828054600181600116156101000203166002900490600052602060002090601f016020900481019282601f1061270e57805160ff191683800117855561273b565b8280016001018555821561273b579182015b8281111561273b578251825591602001919060010190612720565b5061274792915061274b565b5090565b6108ca91905b80821115612747576000815560010161275156fe456e756d657261626c655365743a20696e646578206f7574206f6620626f756e6473416363657373436f6e74726f6c3a2073656e646572206d75737420626520616e2061646d696e20746f206772616e744552433732313a207472616e7366657220746f206e6f6e20455243373231526563656976657220696d706c656d656e7465724552433732313a207472616e7366657220746f20746865207a65726f2061646472657373416464726573733a20696e73756666696369656e742062616c616e636520666f722063616c6c4552433732313a206f70657261746f7220717565727920666f72206e6f6e6578697374656e7420746f6b656e416363657373436f6e74726f6c3a2073656e646572206d75737420626520616e2061646d696e20746f207265766f6b654552433732313a20617070726f76652063616c6c6572206973206e6f74206f776e6572206e6f7220617070726f76656420666f7220616c6c4552433732313a2062616c616e636520717565727920666f7220746865207a65726f20616464726573734552433732313a206f776e657220717565727920666f72206e6f6e6578697374656e7420746f6b656e496e697469616c697a61626c653a20636f6e747261637420697320616c726561647920696e697469616c697a6564456e756d657261626c654d61703a20696e646578206f7574206f6620626f756e64734552433732313a20617070726f76656420717565727920666f72206e6f6e6578697374656e7420746f6b656e4552433732313a207472616e73666572206f6620746f6b656e2074686174206973206e6f74206f776e4552433732314d657461646174613a2055524920717565727920666f72206e6f6e6578697374656e7420746f6b656e4552433732313a20617070726f76616c20746f2063757272656e74206f776e65724552433732313a207472616e736665722063616c6c6572206973206e6f74206f776e6572206e6f7220617070726f766564416363657373436f6e74726f6c3a2063616e206f6e6c792072656e6f756e636520726f6c657320666f722073656c66a2646970667358221220545998198de3b56fce390f1c3b62a0f71216306eba6afbbaadaa1fbb543f028164736f6c63430006050033",
  "immutableReferences": {},
  "source": "pragma solidity ^0.6.0;\n\nimport \"@openzeppelin/contracts-upgradeable/proxy/Initializable.sol\";\nimport \"@openzeppelin/contracts-upgradeable/token/ERC721/ERC721Upgradeable.sol\";\nimport \"@openzeppelin/contracts-upgradeable/access/AccessControlUpgradeable.sol\";\nimport \"@openzeppelin/contracts/math/SafeMath.sol\";\nimport \"abdk-libraries-solidity/ABDKMath64x64.sol\";\nimport \"../Promos.sol\";\n\ncontract RaidTrinket is Initializable, ERC721Upgradeable, AccessControlUpgradeable {\n\n    bytes32 public constant GAME_ADMIN = keccak256(\"GAME_ADMIN\");\n\n    function initialize (Promos _promos) public initializer {\n        __ERC721_init(\"CryptoBlades Trinket\", \"CBRT\");\n        __AccessControl_init_unchained();\n\n        _setupRole(DEFAULT_ADMIN_ROLE, msg.sender);\n\n        promos = _promos;\n    }\n\n    Promos public promos;\n    \n    mapping(uint256 => uint8) public tokenStars;\n    mapping(uint256 => uint256) public tokenEffect;\n\n    event Minted(uint256 indexed id, address indexed minter);\n\n    modifier restricted() {\n        require(hasRole(GAME_ADMIN, msg.sender), \"Not game admin\");\n        _;\n    }\n\n    function get(uint256 id) public view\n        returns (\n            uint8 _stars, uint256 _effect\n    ) {\n        _stars = tokenStars[id];\n        _effect = tokenEffect[id];\n    }\n\n    function getOwned() public view returns(uint256[] memory) {\n        return getOwnedBy(msg.sender);\n    }\n\n    function getOwnedBy(address owner) public view returns(uint256[] memory) {\n        uint256[] memory tokens = new uint256[](balanceOf(owner));\n        for(uint256 i = 0; i < tokens.length; i++) {\n            tokens[i] = tokenOfOwnerByIndex(owner, i);\n        }\n        return tokens;\n    }\n\n    function mint(address minter, uint8 mintStars, uint256 mintEffect) public restricted returns(uint256) {\n\n        uint256 tokenID = totalSupply();\n        tokenStars[tokenID] = mintStars;\n        tokenEffect[tokenID] = mintEffect;\n        _mint(minter, tokenID);\n        emit Minted(tokenID, minter);\n        return tokenID;\n    }\n    \n    function _beforeTokenTransfer(address from, address to, uint256 tokenId) internal override {\n        require(promos.getBit(from, 4) == false && promos.getBit(to, 4) == false);\n    }\n\n}",
  "sourcePath": "D:\\Work\\MEVN\\cryptoblades-main\\cryptoblades-main\\contracts\\items\\RaidTrinket.sol",
  "compiler": {
    "name": "solc",
    "version": "0.6.5+commit.f956cc89.Emscripten.clang"
  },
  "schemaVersion": "3.4.3",
  "updatedAt": "2021-09-18T03:37:02.524Z",
  "devdoc": {
    "methods": {
      "approve(address,uint256)": {
        "details": "See {IERC721-approve}."
      },
      "balanceOf(address)": {
        "details": "See {IERC721-balanceOf}."
      },
      "baseURI()": {
        "details": "Returns the base URI set via {_setBaseURI}. This will be automatically added as a prefix in {tokenURI} to each token's URI, or to the token ID if no specific URI is set for that token ID."
      },
      "getApproved(uint256)": {
        "details": "See {IERC721-getApproved}."
      },
      "getRoleAdmin(bytes32)": {
        "details": "Returns the admin role that controls `role`. See {grantRole} and {revokeRole}.     * To change a role's admin, use {_setRoleAdmin}."
      },
      "getRoleMember(bytes32,uint256)": {
        "details": "Returns one of the accounts that have `role`. `index` must be a value between 0 and {getRoleMemberCount}, non-inclusive.     * Role bearers are not sorted in any particular way, and their ordering may change at any point.     * WARNING: When using {getRoleMember} and {getRoleMemberCount}, make sure you perform all queries on the same block. See the following https://forum.openzeppelin.com/t/iterating-over-elements-on-enumerableset-in-openzeppelin-contracts/2296[forum post] for more information."
      },
      "getRoleMemberCount(bytes32)": {
        "details": "Returns the number of accounts that have `role`. Can be used together with {getRoleMember} to enumerate all bearers of a role."
      },
      "grantRole(bytes32,address)": {
        "details": "Grants `role` to `account`.     * If `account` had not been already granted `role`, emits a {RoleGranted} event.     * Requirements:     * - the caller must have ``role``'s admin role."
      },
      "hasRole(bytes32,address)": {
        "details": "Returns `true` if `account` has been granted `role`."
      },
      "isApprovedForAll(address,address)": {
        "details": "See {IERC721-isApprovedForAll}."
      },
      "name()": {
        "details": "See {IERC721Metadata-name}."
      },
      "ownerOf(uint256)": {
        "details": "See {IERC721-ownerOf}."
      },
      "renounceRole(bytes32,address)": {
        "details": "Revokes `role` from the calling account.     * Roles are often managed via {grantRole} and {revokeRole}: this function's purpose is to provide a mechanism for accounts to lose their privileges if they are compromised (such as when a trusted device is misplaced).     * If the calling account had been granted `role`, emits a {RoleRevoked} event.     * Requirements:     * - the caller must be `account`."
      },
      "revokeRole(bytes32,address)": {
        "details": "Revokes `role` from `account`.     * If `account` had been granted `role`, emits a {RoleRevoked} event.     * Requirements:     * - the caller must have ``role``'s admin role."
      },
      "safeTransferFrom(address,address,uint256)": {
        "details": "See {IERC721-safeTransferFrom}."
      },
      "safeTransferFrom(address,address,uint256,bytes)": {
        "details": "See {IERC721-safeTransferFrom}."
      },
      "setApprovalForAll(address,bool)": {
        "details": "See {IERC721-setApprovalForAll}."
      },
      "supportsInterface(bytes4)": {
        "details": "See {IERC165-supportsInterface}.     * Time complexity O(1), guaranteed to always use less than 30 000 gas."
      },
      "symbol()": {
        "details": "See {IERC721Metadata-symbol}."
      },
      "tokenByIndex(uint256)": {
        "details": "See {IERC721Enumerable-tokenByIndex}."
      },
      "tokenOfOwnerByIndex(address,uint256)": {
        "details": "See {IERC721Enumerable-tokenOfOwnerByIndex}."
      },
      "tokenURI(uint256)": {
        "details": "See {IERC721Metadata-tokenURI}."
      },
      "totalSupply()": {
        "details": "See {IERC721Enumerable-totalSupply}."
      },
      "transferFrom(address,address,uint256)": {
        "details": "See {IERC721-transferFrom}."
      }
    }
  },
  "userdoc": {
    "methods": {}
  }
}