{
  "contractName": "Raid1",
  "abi": [
    {
      "anonymous": false,
      "inputs": [
        {
          "indexed": true,
          "internalType": "uint256",
          "name": "raidIndex",
          "type": "uint256"
        },
        {
          "indexed": false,
          "internalType": "uint8",
          "name": "outcome",
          "type": "uint8"
        },
        {
          "indexed": false,
          "internalType": "uint256",
          "name": "bossRoll",
          "type": "uint256"
        },
        {
          "indexed": false,
          "internalType": "uint256",
          "name": "playerRoll",
          "type": "uint256"
        }
      ],
      "name": "RaidCompleted",
      "type": "event"
    },
    {
      "anonymous": false,
      "inputs": [
        {
          "indexed": false,
          "internalType": "uint256",
          "name": "raidIndex",
          "type": "uint256"
        },
        {
          "indexed": true,
          "internalType": "address",
          "name": "user",
          "type": "address"
        },
        {
          "indexed": true,
          "internalType": "uint256",
          "name": "character",
          "type": "uint256"
        },
        {
          "indexed": true,
          "internalType": "uint256",
          "name": "weapon",
          "type": "uint256"
        },
        {
          "indexed": false,
          "internalType": "uint256",
          "name": "skillPaid",
          "type": "uint256"
        }
      ],
      "name": "RaidJoined",
      "type": "event"
    },
    {
      "anonymous": false,
      "inputs": [
        {
          "indexed": true,
          "internalType": "uint256",
          "name": "raidIndex",
          "type": "uint256"
        },
        {
          "indexed": false,
          "internalType": "uint8",
          "name": "bossTrait",
          "type": "uint8"
        },
        {
          "indexed": false,
          "internalType": "uint256",
          "name": "bossPower",
          "type": "uint256"
        },
        {
          "indexed": false,
          "internalType": "uint256",
          "name": "endTime",
          "type": "uint256"
        }
      ],
      "name": "RaidStarted",
      "type": "event"
    },
    {
      "anonymous": false,
      "inputs": [
        {
          "indexed": true,
          "internalType": "uint256",
          "name": "raidIndex",
          "type": "uint256"
        },
        {
          "indexed": true,
          "internalType": "address",
          "name": "user",
          "type": "address"
        },
        {
          "indexed": false,
          "internalType": "uint256",
          "name": "characterCount",
          "type": "uint256"
        }
      ],
      "name": "RewardClaimed",
      "type": "event"
    },
    {
      "anonymous": false,
      "inputs": [
        {
          "indexed": true,
          "internalType": "uint256",
          "name": "raidIndex",
          "type": "uint256"
        },
        {
          "indexed": true,
          "internalType": "address",
          "name": "user",
          "type": "address"
        },
        {
          "indexed": false,
          "internalType": "uint32",
          "name": "amount",
          "type": "uint32"
        }
      ],
      "name": "RewardedDust4B",
      "type": "event"
    },
    {
      "anonymous": false,
      "inputs": [
        {
          "indexed": true,
          "internalType": "uint256",
          "name": "raidIndex",
          "type": "uint256"
        },
        {
          "indexed": true,
          "internalType": "address",
          "name": "user",
          "type": "address"
        },
        {
          "indexed": false,
          "internalType": "uint32",
          "name": "amount",
          "type": "uint32"
        }
      ],
      "name": "RewardedDust5B",
      "type": "event"
    },
    {
      "anonymous": false,
      "inputs": [
        {
          "indexed": true,
          "internalType": "uint256",
          "name": "raidIndex",
          "type": "uint256"
        },
        {
          "indexed": true,
          "internalType": "address",
          "name": "user",
          "type": "address"
        },
        {
          "indexed": false,
          "internalType": "uint32",
          "name": "amount",
          "type": "uint32"
        }
      ],
      "name": "RewardedDustLB",
      "type": "event"
    },
    {
      "anonymous": false,
      "inputs": [
        {
          "indexed": true,
          "internalType": "uint256",
          "name": "raidIndex",
          "type": "uint256"
        },
        {
          "indexed": true,
          "internalType": "address",
          "name": "user",
          "type": "address"
        },
        {
          "indexed": false,
          "internalType": "uint8",
          "name": "stars",
          "type": "uint8"
        },
        {
          "indexed": true,
          "internalType": "uint256",
          "name": "tokenID",
          "type": "uint256"
        }
      ],
      "name": "RewardedJunk",
      "type": "event"
    },
    {
      "anonymous": false,
      "inputs": [
        {
          "indexed": true,
          "internalType": "uint256",
          "name": "raidIndex",
          "type": "uint256"
        },
        {
          "indexed": true,
          "internalType": "address",
          "name": "user",
          "type": "address"
        },
        {
          "indexed": true,
          "internalType": "uint256",
          "name": "tokenID",
          "type": "uint256"
        }
      ],
      "name": "RewardedKeyBox",
      "type": "event"
    },
    {
      "anonymous": false,
      "inputs": [
        {
          "indexed": true,
          "internalType": "uint256",
          "name": "raidIndex",
          "type": "uint256"
        },
        {
          "indexed": true,
          "internalType": "address",
          "name": "user",
          "type": "address"
        },
        {
          "indexed": false,
          "internalType": "uint8",
          "name": "stars",
          "type": "uint8"
        },
        {
          "indexed": false,
          "internalType": "uint256",
          "name": "effect",
          "type": "uint256"
        },
        {
          "indexed": true,
          "internalType": "uint256",
          "name": "tokenID",
          "type": "uint256"
        }
      ],
      "name": "RewardedTrinket",
      "type": "event"
    },
    {
      "anonymous": false,
      "inputs": [
        {
          "indexed": true,
          "internalType": "uint256",
          "name": "raidIndex",
          "type": "uint256"
        },
        {
          "indexed": true,
          "internalType": "address",
          "name": "user",
          "type": "address"
        },
        {
          "indexed": false,
          "internalType": "uint8",
          "name": "stars",
          "type": "uint8"
        },
        {
          "indexed": true,
          "internalType": "uint256",
          "name": "tokenID",
          "type": "uint256"
        }
      ],
      "name": "RewardedWeapon",
      "type": "event"
    },
    {
      "anonymous": false,
      "inputs": [
        {
          "indexed": true,
          "internalType": "uint256",
          "name": "raidIndex",
          "type": "uint256"
        },
        {
          "indexed": true,
          "internalType": "address",
          "name": "user",
          "type": "address"
        },
        {
          "indexed": true,
          "internalType": "uint256",
          "name": "charID",
          "type": "uint256"
        },
        {
          "indexed": false,
          "internalType": "uint16",
          "name": "amount",
          "type": "uint16"
        }
      ],
      "name": "RewardedXpBonus",
      "type": "event"
    },
    {
      "anonymous": false,
      "inputs": [
        {
          "indexed": true,
          "internalType": "bytes32",
          "name": "role",
          "type": "bytes32"
        },
        {
          "indexed": true,
          "internalType": "bytes32",
          "name": "previousAdminRole",
          "type": "bytes32"
        },
        {
          "indexed": true,
          "internalType": "bytes32",
          "name": "newAdminRole",
          "type": "bytes32"
        }
      ],
      "name": "RoleAdminChanged",
      "type": "event"
    },
    {
      "anonymous": false,
      "inputs": [
        {
          "indexed": true,
          "internalType": "bytes32",
          "name": "role",
          "type": "bytes32"
        },
        {
          "indexed": true,
          "internalType": "address",
          "name": "account",
          "type": "address"
        },
        {
          "indexed": true,
          "internalType": "address",
          "name": "sender",
          "type": "address"
        }
      ],
      "name": "RoleGranted",
      "type": "event"
    },
    {
      "anonymous": false,
      "inputs": [
        {
          "indexed": true,
          "internalType": "bytes32",
          "name": "role",
          "type": "bytes32"
        },
        {
          "indexed": true,
          "internalType": "address",
          "name": "account",
          "type": "address"
        },
        {
          "indexed": true,
          "internalType": "address",
          "name": "sender",
          "type": "address"
        }
      ],
      "name": "RoleRevoked",
      "type": "event"
    },
    {
      "inputs": [],
      "name": "DEFAULT_ADMIN_ROLE",
      "outputs": [
        {
          "internalType": "bytes32",
          "name": "",
          "type": "bytes32"
        }
      ],
      "stateMutability": "view",
      "type": "function"
    },
    {
      "inputs": [],
      "name": "GAME_ADMIN",
      "outputs": [
        {
          "internalType": "bytes32",
          "name": "",
          "type": "bytes32"
        }
      ],
      "stateMutability": "view",
      "type": "function"
    },
    {
      "inputs": [],
      "name": "LINK_JUNK",
      "outputs": [
        {
          "internalType": "uint256",
          "name": "",
          "type": "uint256"
        }
      ],
      "stateMutability": "view",
      "type": "function"
    },
    {
      "inputs": [],
      "name": "LINK_KEYBOX",
      "outputs": [
        {
          "internalType": "uint256",
          "name": "",
          "type": "uint256"
        }
      ],
      "stateMutability": "view",
      "type": "function"
    },
    {
      "inputs": [],
      "name": "LINK_TRINKET",
      "outputs": [
        {
          "internalType": "uint256",
          "name": "",
          "type": "uint256"
        }
      ],
      "stateMutability": "view",
      "type": "function"
    },
    {
      "inputs": [],
      "name": "NUMBERPARAMETER_AUTO_BOSSPOWER_PERCENT",
      "outputs": [
        {
          "internalType": "uint256",
          "name": "",
          "type": "uint256"
        }
      ],
      "stateMutability": "view",
      "type": "function"
    },
    {
      "inputs": [],
      "name": "NUMBERPARAMETER_AUTO_DURATION",
      "outputs": [
        {
          "internalType": "uint256",
          "name": "",
          "type": "uint256"
        }
      ],
      "stateMutability": "view",
      "type": "function"
    },
    {
      "inputs": [],
      "name": "STATUS_LOST",
      "outputs": [
        {
          "internalType": "uint8",
          "name": "",
          "type": "uint8"
        }
      ],
      "stateMutability": "view",
      "type": "function"
    },
    {
      "inputs": [],
      "name": "STATUS_PAUSED",
      "outputs": [
        {
          "internalType": "uint8",
          "name": "",
          "type": "uint8"
        }
      ],
      "stateMutability": "view",
      "type": "function"
    },
    {
      "inputs": [],
      "name": "STATUS_STARTED",
      "outputs": [
        {
          "internalType": "uint8",
          "name": "",
          "type": "uint8"
        }
      ],
      "stateMutability": "view",
      "type": "function"
    },
    {
      "inputs": [],
      "name": "STATUS_UNSTARTED",
      "outputs": [
        {
          "internalType": "uint8",
          "name": "",
          "type": "uint8"
        }
      ],
      "stateMutability": "view",
      "type": "function"
    },
    {
      "inputs": [],
      "name": "STATUS_WON",
      "outputs": [
        {
          "internalType": "uint8",
          "name": "",
          "type": "uint8"
        }
      ],
      "stateMutability": "view",
      "type": "function"
    },
    {
      "inputs": [],
      "name": "characters",
      "outputs": [
        {
          "internalType": "contract Characters",
          "name": "",
          "type": "address"
        }
      ],
      "stateMutability": "view",
      "type": "function"
    },
    {
      "inputs": [],
      "name": "durabilityCost",
      "outputs": [
        {
          "internalType": "uint64",
          "name": "",
          "type": "uint64"
        }
      ],
      "stateMutability": "view",
      "type": "function"
    },
    {
      "inputs": [],
      "name": "game",
      "outputs": [
        {
          "internalType": "contract CryptoBlades",
          "name": "",
          "type": "address"
        }
      ],
      "stateMutability": "view",
      "type": "function"
    },
    {
      "inputs": [
        {
          "internalType": "bytes32",
          "name": "role",
          "type": "bytes32"
        }
      ],
      "name": "getRoleAdmin",
      "outputs": [
        {
          "internalType": "bytes32",
          "name": "",
          "type": "bytes32"
        }
      ],
      "stateMutability": "view",
      "type": "function"
    },
    {
      "inputs": [
        {
          "internalType": "bytes32",
          "name": "role",
          "type": "bytes32"
        },
        {
          "internalType": "uint256",
          "name": "index",
          "type": "uint256"
        }
      ],
      "name": "getRoleMember",
      "outputs": [
        {
          "internalType": "address",
          "name": "",
          "type": "address"
        }
      ],
      "stateMutability": "view",
      "type": "function"
    },
    {
      "inputs": [
        {
          "internalType": "bytes32",
          "name": "role",
          "type": "bytes32"
        }
      ],
      "name": "getRoleMemberCount",
      "outputs": [
        {
          "internalType": "uint256",
          "name": "",
          "type": "uint256"
        }
      ],
      "stateMutability": "view",
      "type": "function"
    },
    {
      "inputs": [
        {
          "internalType": "bytes32",
          "name": "role",
          "type": "bytes32"
        },
        {
          "internalType": "address",
          "name": "account",
          "type": "address"
        }
      ],
      "name": "grantRole",
      "outputs": [],
      "stateMutability": "nonpayable",
      "type": "function"
    },
    {
      "inputs": [
        {
          "internalType": "bytes32",
          "name": "role",
          "type": "bytes32"
        },
        {
          "internalType": "address",
          "name": "account",
          "type": "address"
        }
      ],
      "name": "hasRole",
      "outputs": [
        {
          "internalType": "bool",
          "name": "",
          "type": "bool"
        }
      ],
      "stateMutability": "view",
      "type": "function"
    },
    {
      "inputs": [],
      "name": "joinCost",
      "outputs": [
        {
          "internalType": "int128",
          "name": "",
          "type": "int128"
        }
      ],
      "stateMutability": "view",
      "type": "function"
    },
    {
      "inputs": [
        {
          "internalType": "uint256",
          "name": "",
          "type": "uint256"
        }
      ],
      "name": "links",
      "outputs": [
        {
          "internalType": "address",
          "name": "",
          "type": "address"
        }
      ],
      "stateMutability": "view",
      "type": "function"
    },
    {
      "inputs": [
        {
          "internalType": "uint256",
          "name": "",
          "type": "uint256"
        }
      ],
      "name": "numberParameters",
      "outputs": [
        {
          "internalType": "uint256",
          "name": "",
          "type": "uint256"
        }
      ],
      "stateMutability": "view",
      "type": "function"
    },
    {
      "inputs": [],
      "name": "promos",
      "outputs": [
        {
          "internalType": "contract Promos",
          "name": "",
          "type": "address"
        }
      ],
      "stateMutability": "view",
      "type": "function"
    },
    {
      "inputs": [
        {
          "internalType": "uint256",
          "name": "",
          "type": "uint256"
        }
      ],
      "name": "raidBossPower",
      "outputs": [
        {
          "internalType": "uint256",
          "name": "",
          "type": "uint256"
        }
      ],
      "stateMutability": "view",
      "type": "function"
    },
    {
      "inputs": [
        {
          "internalType": "uint256",
          "name": "",
          "type": "uint256"
        }
      ],
      "name": "raidBossTrait",
      "outputs": [
        {
          "internalType": "uint8",
          "name": "",
          "type": "uint8"
        }
      ],
      "stateMutability": "view",
      "type": "function"
    },
    {
      "inputs": [
        {
          "internalType": "uint256",
          "name": "",
          "type": "uint256"
        }
      ],
      "name": "raidEndTime",
      "outputs": [
        {
          "internalType": "uint256",
          "name": "",
          "type": "uint256"
        }
      ],
      "stateMutability": "view",
      "type": "function"
    },
    {
      "inputs": [],
      "name": "raidIndex",
      "outputs": [
        {
          "internalType": "uint256",
          "name": "",
          "type": "uint256"
        }
      ],
      "stateMutability": "view",
      "type": "function"
    },
    {
      "inputs": [
        {
          "internalType": "uint256",
          "name": "",
          "type": "uint256"
        },
        {
          "internalType": "address",
          "name": "",
          "type": "address"
        },
        {
          "internalType": "uint256",
          "name": "",
          "type": "uint256"
        }
      ],
      "name": "raidParticipantIndices",
      "outputs": [
        {
          "internalType": "uint256",
          "name": "",
          "type": "uint256"
        }
      ],
      "stateMutability": "view",
      "type": "function"
    },
    {
      "inputs": [
        {
          "internalType": "uint256",
          "name": "",
          "type": "uint256"
        },
        {
          "internalType": "uint256",
          "name": "",
          "type": "uint256"
        }
      ],
      "name": "raidParticipants",
      "outputs": [
        {
          "internalType": "address",
          "name": "owner",
          "type": "address"
        },
        {
          "internalType": "uint256",
          "name": "charID",
          "type": "uint256"
        },
        {
          "internalType": "uint256",
          "name": "wepID",
          "type": "uint256"
        },
        {
          "internalType": "uint24",
          "name": "power",
          "type": "uint24"
        },
        {
          "internalType": "uint24",
          "name": "traitsCWS",
          "type": "uint24"
        }
      ],
      "stateMutability": "view",
      "type": "function"
    },
    {
      "inputs": [
        {
          "internalType": "uint256",
          "name": "",
          "type": "uint256"
        }
      ],
      "name": "raidPlayerPower",
      "outputs": [
        {
          "internalType": "uint256",
          "name": "",
          "type": "uint256"
        }
      ],
      "stateMutability": "view",
      "type": "function"
    },
    {
      "inputs": [
        {
          "internalType": "uint256",
          "name": "",
          "type": "uint256"
        },
        {
          "internalType": "address",
          "name": "",
          "type": "address"
        }
      ],
      "name": "raidRewardClaimed",
      "outputs": [
        {
          "internalType": "bool",
          "name": "",
          "type": "bool"
        }
      ],
      "stateMutability": "view",
      "type": "function"
    },
    {
      "inputs": [
        {
          "internalType": "uint256",
          "name": "",
          "type": "uint256"
        }
      ],
      "name": "raidSeed",
      "outputs": [
        {
          "internalType": "uint256",
          "name": "",
          "type": "uint256"
        }
      ],
      "stateMutability": "view",
      "type": "function"
    },
    {
      "inputs": [
        {
          "internalType": "uint256",
          "name": "",
          "type": "uint256"
        }
      ],
      "name": "raidStatus",
      "outputs": [
        {
          "internalType": "uint8",
          "name": "",
          "type": "uint8"
        }
      ],
      "stateMutability": "view",
      "type": "function"
    },
    {
      "inputs": [
        {
          "internalType": "bytes32",
          "name": "role",
          "type": "bytes32"
        },
        {
          "internalType": "address",
          "name": "account",
          "type": "address"
        }
      ],
      "name": "renounceRole",
      "outputs": [],
      "stateMutability": "nonpayable",
      "type": "function"
    },
    {
      "inputs": [
        {
          "internalType": "bytes32",
          "name": "role",
          "type": "bytes32"
        },
        {
          "internalType": "address",
          "name": "account",
          "type": "address"
        }
      ],
      "name": "revokeRole",
      "outputs": [],
      "stateMutability": "nonpayable",
      "type": "function"
    },
    {
      "inputs": [],
      "name": "staminaCost",
      "outputs": [
        {
          "internalType": "uint64",
          "name": "",
          "type": "uint64"
        }
      ],
      "stateMutability": "view",
      "type": "function"
    },
    {
      "inputs": [],
      "name": "weapons",
      "outputs": [
        {
          "internalType": "contract Weapons",
          "name": "",
          "type": "address"
        }
      ],
      "stateMutability": "view",
      "type": "function"
    },
    {
      "inputs": [],
      "name": "xpReward",
      "outputs": [
        {
          "internalType": "uint16",
          "name": "",
          "type": "uint16"
        }
      ],
      "stateMutability": "view",
      "type": "function"
    },
    {
      "inputs": [
        {
          "internalType": "address",
          "name": "gameContract",
          "type": "address"
        }
      ],
      "name": "initialize",
      "outputs": [],
      "stateMutability": "nonpayable",
      "type": "function"
    },
    {
      "inputs": [],
      "name": "doRaidAuto",
      "outputs": [],
      "stateMutability": "nonpayable",
      "type": "function"
    },
    {
      "inputs": [
        {
          "internalType": "uint256",
          "name": "bossPower",
          "type": "uint256"
        },
        {
          "internalType": "uint8",
          "name": "bossTrait",
          "type": "uint8"
        },
        {
          "internalType": "uint256",
          "name": "durationMinutes",
          "type": "uint256"
        }
      ],
      "name": "doRaid",
      "outputs": [],
      "stateMutability": "nonpayable",
      "type": "function"
    },
    {
      "inputs": [
        {
          "internalType": "uint256",
          "name": "bossPower",
          "type": "uint256"
        },
        {
          "internalType": "uint8",
          "name": "bossTrait",
          "type": "uint8"
        },
        {
          "internalType": "uint256",
          "name": "durationMinutes",
          "type": "uint256"
        },
        {
          "internalType": "uint256",
          "name": "seed",
          "type": "uint256"
        }
      ],
      "name": "doRaidWithSeed",
      "outputs": [],
      "stateMutability": "nonpayable",
      "type": "function"
    },
    {
      "inputs": [
        {
          "internalType": "uint256",
          "name": "bossPower",
          "type": "uint256"
        },
        {
          "internalType": "uint8",
          "name": "bossTrait",
          "type": "uint8"
        },
        {
          "internalType": "uint256",
          "name": "durationMinutes",
          "type": "uint256"
        }
      ],
      "name": "startRaid",
      "outputs": [],
      "stateMutability": "nonpayable",
      "type": "function"
    },
    {
      "inputs": [
        {
          "internalType": "uint256",
          "name": "characterID",
          "type": "uint256"
        },
        {
          "internalType": "uint256",
          "name": "weaponID",
          "type": "uint256"
        }
      ],
      "name": "joinRaid",
      "outputs": [],
      "stateMutability": "nonpayable",
      "type": "function"
    },
    {
      "inputs": [
        {
          "internalType": "uint256",
          "name": "index",
          "type": "uint256"
        },
        {
          "internalType": "uint8",
          "name": "status",
          "type": "uint8"
        }
      ],
      "name": "setRaidStatus",
      "outputs": [],
      "stateMutability": "nonpayable",
      "type": "function"
    },
    {
      "inputs": [],
      "name": "completeRaid",
      "outputs": [],
      "stateMutability": "nonpayable",
      "type": "function"
    },
    {
      "inputs": [
        {
          "internalType": "uint96",
          "name": "playerData",
          "type": "uint96"
        }
      ],
      "name": "unpackFightData",
      "outputs": [
        {
          "internalType": "uint8",
          "name": "charTrait",
          "type": "uint8"
        },
        {
          "internalType": "uint24",
          "name": "basePowerLevel",
          "type": "uint24"
        },
        {
          "internalType": "uint64",
          "name": "timestamp",
          "type": "uint64"
        }
      ],
      "stateMutability": "pure",
      "type": "function"
    },
    {
      "inputs": [
        {
          "internalType": "uint24",
          "name": "basePower",
          "type": "uint24"
        },
        {
          "internalType": "int128",
          "name": "weaponMultiplier",
          "type": "int128"
        },
        {
          "internalType": "uint24",
          "name": "bonusPower",
          "type": "uint24"
        }
      ],
      "name": "getPlayerPower",
      "outputs": [
        {
          "internalType": "uint24",
          "name": "",
          "type": "uint24"
        }
      ],
      "stateMutability": "pure",
      "type": "function"
    },
    {
      "inputs": [
        {
          "internalType": "uint8",
          "name": "attacker",
          "type": "uint8"
        },
        {
          "internalType": "uint8",
          "name": "defender",
          "type": "uint8"
        }
      ],
      "name": "isTraitEffectiveAgainst",
      "outputs": [
        {
          "internalType": "bool",
          "name": "",
          "type": "bool"
        }
      ],
      "stateMutability": "pure",
      "type": "function"
    },
    {
      "inputs": [
        {
          "internalType": "uint24",
          "name": "playerPower",
          "type": "uint24"
        },
        {
          "internalType": "uint8",
          "name": "charTrait",
          "type": "uint8"
        },
        {
          "internalType": "uint8",
          "name": "bossTrait",
          "type": "uint8"
        }
      ],
      "name": "getPlayerFinalPower",
      "outputs": [
        {
          "internalType": "uint24",
          "name": "",
          "type": "uint24"
        }
      ],
      "stateMutability": "pure",
      "type": "function"
    },
    {
      "inputs": [
        {
          "internalType": "uint256",
          "name": "claimRaidIndex",
          "type": "uint256"
        }
      ],
      "name": "claimReward",
      "outputs": [],
      "stateMutability": "nonpayable",
      "type": "function"
    },
    {
      "inputs": [
        {
          "internalType": "address",
          "name": "addr",
          "type": "address"
        },
        {
          "internalType": "uint256",
          "name": "index",
          "type": "uint256"
        }
      ],
      "name": "registerLink",
      "outputs": [],
      "stateMutability": "nonpayable",
      "type": "function"
    },
    {
      "inputs": [
        {
          "internalType": "uint8",
          "name": "points",
          "type": "uint8"
        }
      ],
      "name": "setStaminaPointCost",
      "outputs": [],
      "stateMutability": "nonpayable",
      "type": "function"
    },
    {
      "inputs": [
        {
          "internalType": "uint8",
          "name": "points",
          "type": "uint8"
        }
      ],
      "name": "setDurabilityPointCost",
      "outputs": [],
      "stateMutability": "nonpayable",
      "type": "function"
    },
    {
      "inputs": [
        {
          "internalType": "uint256",
          "name": "cents",
          "type": "uint256"
        }
      ],
      "name": "setJoinCostInCents",
      "outputs": [],
      "stateMutability": "nonpayable",
      "type": "function"
    },
    {
      "inputs": [],
      "name": "getJoinCostInSkill",
      "outputs": [
        {
          "internalType": "uint256",
          "name": "",
          "type": "uint256"
        }
      ],
      "stateMutability": "view",
      "type": "function"
    },
    {
      "inputs": [
        {
          "internalType": "uint16",
          "name": "xp",
          "type": "uint16"
        }
      ],
      "name": "setXpReward",
      "outputs": [],
      "stateMutability": "nonpayable",
      "type": "function"
    },
    {
      "inputs": [
        {
          "internalType": "uint256",
          "name": "paramIndex",
          "type": "uint256"
        },
        {
          "internalType": "uint256",
          "name": "value",
          "type": "uint256"
        }
      ],
      "name": "setNumberParameter",
      "outputs": [],
      "stateMutability": "nonpayable",
      "type": "function"
    },
    {
      "inputs": [
        {
          "internalType": "uint256",
          "name": "paramIndex",
          "type": "uint256"
        }
      ],
      "name": "getNumberParameter",
      "outputs": [
        {
          "internalType": "uint256",
          "name": "",
          "type": "uint256"
        }
      ],
      "stateMutability": "view",
      "type": "function"
    },
    {
      "inputs": [
        {
          "internalType": "uint256",
          "name": "index",
          "type": "uint256"
        }
      ],
      "name": "getRaidStatus",
      "outputs": [
        {
          "internalType": "uint8",
          "name": "",
          "type": "uint8"
        }
      ],
      "stateMutability": "view",
      "type": "function"
    },
    {
      "inputs": [
        {
          "internalType": "uint256",
          "name": "index",
          "type": "uint256"
        }
      ],
      "name": "getRaidEndTime",
      "outputs": [
        {
          "internalType": "uint256",
          "name": "",
          "type": "uint256"
        }
      ],
      "stateMutability": "view",
      "type": "function"
    },
    {
      "inputs": [
        {
          "internalType": "uint256",
          "name": "index",
          "type": "uint256"
        }
      ],
      "name": "getRaidBossTrait",
      "outputs": [
        {
          "internalType": "uint8",
          "name": "",
          "type": "uint8"
        }
      ],
      "stateMutability": "view",
      "type": "function"
    },
    {
      "inputs": [
        {
          "internalType": "uint256",
          "name": "index",
          "type": "uint256"
        }
      ],
      "name": "getRaidBossPower",
      "outputs": [
        {
          "internalType": "uint256",
          "name": "",
          "type": "uint256"
        }
      ],
      "stateMutability": "view",
      "type": "function"
    },
    {
      "inputs": [
        {
          "internalType": "uint256",
          "name": "index",
          "type": "uint256"
        }
      ],
      "name": "getRaidPlayerPower",
      "outputs": [
        {
          "internalType": "uint256",
          "name": "",
          "type": "uint256"
        }
      ],
      "stateMutability": "view",
      "type": "function"
    },
    {
      "inputs": [
        {
          "internalType": "uint256",
          "name": "index",
          "type": "uint256"
        }
      ],
      "name": "getRaidParticipantCount",
      "outputs": [
        {
          "internalType": "uint256",
          "name": "",
          "type": "uint256"
        }
      ],
      "stateMutability": "view",
      "type": "function"
    },
    {
      "inputs": [
        {
          "internalType": "uint256",
          "name": "startIndex",
          "type": "uint256"
        },
        {
          "internalType": "uint256",
          "name": "endIndex",
          "type": "uint256"
        }
      ],
      "name": "getEligibleRewardIndexes",
      "outputs": [
        {
          "internalType": "uint256[]",
          "name": "",
          "type": "uint256[]"
        }
      ],
      "stateMutability": "view",
      "type": "function"
    },
    {
      "inputs": [
        {
          "internalType": "uint256",
          "name": "index",
          "type": "uint256"
        }
      ],
      "name": "isEligibleForReward",
      "outputs": [
        {
          "internalType": "bool",
          "name": "",
          "type": "bool"
        }
      ],
      "stateMutability": "view",
      "type": "function"
    },
    {
      "inputs": [],
      "name": "getParticipatingCharacters",
      "outputs": [
        {
          "internalType": "uint256[]",
          "name": "",
          "type": "uint256[]"
        }
      ],
      "stateMutability": "view",
      "type": "function"
    },
    {
      "inputs": [],
      "name": "getParticipatingWeapons",
      "outputs": [
        {
          "internalType": "uint256[]",
          "name": "",
          "type": "uint256[]"
        }
      ],
      "stateMutability": "view",
      "type": "function"
    },
    {
      "inputs": [
        {
          "internalType": "uint256",
          "name": "index",
          "type": "uint256"
        }
      ],
      "name": "getAccountsRaiderIndexes",
      "outputs": [
        {
          "internalType": "uint256[]",
          "name": "",
          "type": "uint256[]"
        }
      ],
      "stateMutability": "view",
      "type": "function"
    },
    {
      "inputs": [
        {
          "internalType": "uint256",
          "name": "index",
          "type": "uint256"
        }
      ],
      "name": "getAccountsPower",
      "outputs": [
        {
          "internalType": "uint256",
          "name": "",
          "type": "uint256"
        }
      ],
      "stateMutability": "view",
      "type": "function"
    },
    {
      "inputs": [
        {
          "internalType": "uint256",
          "name": "characterID",
          "type": "uint256"
        },
        {
          "internalType": "uint256",
          "name": "weaponID",
          "type": "uint256"
        }
      ],
      "name": "canJoinRaid",
      "outputs": [
        {
          "internalType": "bool",
          "name": "",
          "type": "bool"
        }
      ],
      "stateMutability": "view",
      "type": "function"
    },
    {
      "inputs": [
        {
          "internalType": "uint256",
          "name": "characterID",
          "type": "uint256"
        },
        {
          "internalType": "uint256",
          "name": "weaponID",
          "type": "uint256"
        }
      ],
      "name": "haveEnoughEnergy",
      "outputs": [
        {
          "internalType": "bool",
          "name": "",
          "type": "bool"
        }
      ],
      "stateMutability": "view",
      "type": "function"
    },
    {
      "inputs": [],
      "name": "isRaidStarted",
      "outputs": [
        {
          "internalType": "bool",
          "name": "",
          "type": "bool"
        }
      ],
      "stateMutability": "view",
      "type": "function"
    },
    {
      "inputs": [
        {
          "internalType": "uint256",
          "name": "weaponID",
          "type": "uint256"
        }
      ],
      "name": "isWeaponRaiding",
      "outputs": [
        {
          "internalType": "bool",
          "name": "",
          "type": "bool"
        }
      ],
      "stateMutability": "view",
      "type": "function"
    },
    {
      "inputs": [
        {
          "internalType": "uint256",
          "name": "characterID",
          "type": "uint256"
        }
      ],
      "name": "isCharacterRaiding",
      "outputs": [
        {
          "internalType": "bool",
          "name": "",
          "type": "bool"
        }
      ],
      "stateMutability": "view",
      "type": "function"
    },
    {
      "inputs": [
        {
          "internalType": "uint256",
          "name": "linkIndex",
          "type": "uint256"
        }
      ],
      "name": "getLinkAddress",
      "outputs": [
        {
          "internalType": "address",
          "name": "",
          "type": "address"
        }
      ],
      "stateMutability": "view",
      "type": "function"
    },
    {
      "inputs": [],
      "name": "getRaidData",
      "outputs": [
        {
          "internalType": "uint256",
          "name": "index",
          "type": "uint256"
        },
        {
          "internalType": "uint256",
          "name": "endTime",
          "type": "uint256"
        },
        {
          "internalType": "uint256",
          "name": "raiderCount",
          "type": "uint256"
        },
        {
          "internalType": "uint256",
          "name": "playerPower",
          "type": "uint256"
        },
        {
          "internalType": "uint256",
          "name": "bossPower",
          "type": "uint256"
        },
        {
          "internalType": "uint8",
          "name": "trait",
          "type": "uint8"
        },
        {
          "internalType": "uint8",
          "name": "status",
          "type": "uint8"
        },
        {
          "internalType": "uint256",
          "name": "joinSkill",
          "type": "uint256"
        },
        {
          "internalType": "uint64",
          "name": "stamina",
          "type": "uint64"
        },
        {
          "internalType": "uint64",
          "name": "durability",
          "type": "uint64"
        },
        {
          "internalType": "uint64",
          "name": "xp",
          "type": "uint64"
        },
        {
          "internalType": "uint256",
          "name": "accountPower",
          "type": "uint256"
        }
      ],
      "stateMutability": "view",
      "type": "function"
    }
  ],
  "bytecode": "0x608060405234801561001057600080fd5b506144b6806100206000396000f3fe608060405234801561001057600080fd5b50600436106104755760003560e01c8063881d8a4011610257578063c3fe3e2811610146578063d547741f116100c3578063e8d554c911610087578063e8d554c914610deb578063e969370614610e08578063f76f2b6814610e29578063ff33bf431461084f578063ff71891814610e3157610475565b8063d547741f14610d4b578063d9d453bc14610d77578063e0fb078d14610d94578063e2511dde14610db1578063e2c85d9314610dce57610475565b8063c947f00e1161010a578063c947f00e14610c96578063ca15c87314610cf6578063d054fe0014610d13578063d070bb5414610d1b578063d2c76c0514610d2357610475565b8063c3fe3e2814610c3b578063c4941d6014610c43578063c4d66de814610c4b578063c6fd469014610c71578063c85a85b714610c7957610475565b8063a0f30b88116101d4578063ae169a5011610198578063ae169a5014610bb0578063affb481414610bcd578063b6585e4514610bf0578063b7e1cd8614610c16578063c1be6bda14610c1e57610475565b8063a0f30b8814610b5c578063a217fddf14610b64578063a28b9c0914610b6c578063a320707314610b8b578063aca4828614610b9357610475565b806392beb91c1161021b57806392beb91c14610aab578063934b57d614610ace5780639df8a15714610ad65780639f6b232e14610af9578063a0bd604014610b5457610475565b8063881d8a4014610a1a5780638d31c41c14610a375780638e3dc0cf14610a3f5780639010d07c14610a5c57806391d1485414610a7f57610475565b806343fd09041161037357806357d9c95b116102f05780636efbe8bf116102b45780636efbe8bf1461098857806370405c5d146109bb57806378b76e24146109d85780637a597ebd146109e05780638257e6c9146109fd57610475565b806357d9c95b146108d157806358181425146108d9578063618f1f85146108f65780636850a6ce14610928578063693183891461093057610475565b80634c9f7f2f116103375780634c9f7f2f1461084f57806351e717ac1461085757806353e18e7c1461085f5780635504d3d21461087c578063563002aa1461088457610475565b806343fd09041461072f57806348437e541461075b57806348ea7002146107945780634a0b4ce4146108115780634b3521e01461082e57610475565b806325a153b51161040157806336a4535d116103c557806336a4535d1461069557806338616182146106b257806338d785ad146106cf5780633aff35c4146106f2578063428d9df91461070f57610475565b806325a153b5146105d657806329f83e64146106025780632f2ff15d146106355780633158ad6a1461066157806336568abe1461066957610475565b80631a145068116104485780631a1450681461051957806322d418f914610536578063242e7bf61461056d5780632437322a14610599578063248a9ca3146105b957610475565b8063044ca3021461047a578063087d43f9146104a85780630bffe8fc146104ec57806313871f0e146104f4575b600080fd5b6104a66004803603606081101561049057600080fd5b5080359060ff6020820135169060400135610e39565b005b6104da600480360360608110156104be57600080fd5b508035906001600160a01b036020820135169060400135610ee6565b60408051918252519081900360200190f35b6104a6610f21565b6104fc611003565b6040805167ffffffffffffffff9092168252519081900360200190f35b6104da6004803603602081101561052f57600080fd5b5035611013565b6105596004803603604081101561054c57600080fd5b5080359060200135611028565b604080519115158252519081900360200190f35b6104a66004803603604081101561058357600080fd5b506001600160a01b038135169060200135611136565b6104a6600480360360208110156105af57600080fd5b503560ff1661116c565b6104da600480360360208110156105cf57600080fd5b5035611190565b6104a6600480360360608110156105ec57600080fd5b5080359060ff60208201351690604001356111a5565b61061f6004803603602081101561061857600080fd5b50356111eb565b6040805160ff9092168252519081900360200190f35b6104a66004803603604081101561064b57600080fd5b50803590602001356001600160a01b0316611200565b6104da61126c565b6104a66004803603604081101561067f57600080fd5b50803590602001356001600160a01b0316611295565b61061f600480360360208110156106ab57600080fd5b50356112f6565b6104da600480360360208110156106c857600080fd5b503561130b565b6104a6600480360360408110156106e557600080fd5b508035906020013561131d565b6105596004803603602081101561070857600080fd5b5035611337565b6104a66004803603602081101561072557600080fd5b503560ff16611414565b6105596004803603604081101561074557600080fd5b50803590602001356001600160a01b0316611442565b6107786004803603602081101561077157600080fd5b5035611462565b604080516001600160a01b039092168252519081900360200190f35b61079c61147d565b604080519c8d5260208d019b909b528b8b019990995260608b019790975260808a019590955260ff93841660a08a01529190921660c088015260e087019190915267ffffffffffffffff9081166101008701529081166101208601521661014084015261016083015251908190036101800190f35b6105596004803603602081101561082757600080fd5b503561152c565b6108366115a1565b60408051600f92830b90920b8252519081900360200190f35b6104da6115b1565b6107786115b6565b6104da6004803603602081101561087557600080fd5b50356115c5565b6104da6115d7565b6108b96004803603606081101561089a57600080fd5b5062ffffff81358116916020810135600f0b91604090910135166115f9565b6040805162ffffff9092168252519081900360200190f35b61061f6115b1565b6104da600480360360208110156108ef57600080fd5b5035611625565b6104a66004803603608081101561090c57600080fd5b5080359060ff6020820135169060408101359060600135611637565b6104a66116e4565b61093861171e565b60408051602080825283518183015283519192839290830191858101910280838360005b8381101561097457818101518382015260200161095c565b505050509050019250505060405180910390f35b6108b96004803603606081101561099e57600080fd5b5062ffffff8135169060ff60208201358116916040013516611847565b6104da600480360360208110156109d157600080fd5b503561187e565b610559611890565b6104a6600480360360208110156109f657600080fd5b50356118c9565b61093860048036036020811015610a1357600080fd5b5035611908565b61077860048036036020811015610a3057600080fd5b5035611972565b61093861198d565b6104da60048036036020811015610a5557600080fd5b5035611aaf565b61077860048036036040811015610a7257600080fd5b5080359060200135611ac1565b61055960048036036040811015610a9557600080fd5b50803590602001356001600160a01b0316611adf565b61093860048036036040811015610ac157600080fd5b5080359060200135611afd565b61061f611bba565b61055960048036036040811015610aec57600080fd5b5080359060200135611bbf565b610b2460048036036020811015610b0f57600080fd5b50356bffffffffffffffffffffffff16611c04565b6040805160ff909416845262ffffff909216602084015267ffffffffffffffff1682820152519081900360600190f35b61061f611c24565b61061f611c29565b6104da611c2e565b610b74611c33565b6040805161ffff9092168252519081900360200190f35b61061f611c2e565b6104da60048036036020811015610ba957600080fd5b5035611c44565b6104a660048036036020811015610bc657600080fd5b5035611c56565b6104a660048036036040811015610be357600080fd5b5080359060200135612057565b6104a660048036036040811015610c0657600080fd5b508035906020013560ff16612829565b610778612853565b61055960048036036020811015610c3457600080fd5b5035612862565b610778612935565b6104da611c29565b6104a660048036036020811015610c6157600080fd5b50356001600160a01b0316612944565b6104da611c24565b61061f60048036036020811015610c8f57600080fd5b5035612c20565b610cb960048036036040811015610cac57600080fd5b5080359060200135612c35565b604080516001600160a01b03909616865260208601949094528484019290925262ffffff9081166060850152166080830152519081900360a00190f35b6104da60048036036020811015610d0c57600080fd5b5035612c92565b6104fc612ca9565b610778612cc0565b61055960048036036040811015610d3957600080fd5b5060ff81358116916020013516612ccf565b6104a660048036036040811015610d6157600080fd5b50803590602001356001600160a01b0316612cf2565b6104da60048036036020811015610d8d57600080fd5b5035612d4b565b6104da60048036036020811015610daa57600080fd5b5035612d5d565b6104da60048036036020811015610dc757600080fd5b5035612d6f565b6104da60048036036020811015610de457600080fd5b5035612d81565b61061f60048036036020811015610e0157600080fd5b5035612dfa565b6104a660048036036020811015610e1e57600080fd5b503561ffff16612e0f565b6104da612e39565b6104da612ec7565b610e41612ecd565b606a80546000908152606b60209081526040808320805460ff1990811660011790915584548452606f835281842088905584548452606e8352818420805460ff891692168217905584548452606c83529281902042603c87020190819055935481519384529183018790528281018490525190917f88b3d009b82cefd3c4b19ccc376acc25d432469fca3c5a3effaa101e8997dd15919081900360600190a250505050565b60726020528260005260406000206020528160005260406000208181548110610f0b57fe5b9060005260206000200160009250925050505481565b610f29612ecd565b60408051600019430140602080830191909152825180830382018152828401808552815191830191909120606a5460009081526070845285812054701093d4d4d413d5d15497d4115490d15395607a1b90935285519485900360510190942084526075909252928220549092610fb391610fa4906064612f38565b600f0b9063ffffffff612f6f16565b600160005260756020527feb79622860583465ba0fa298cf2c34dc562a8c4a7eddc9cb6176342e350cc83954909150600383169080610ff157506101e05b610ffd83838387611637565b50505050565b60695467ffffffffffffffff1681565b6000818152607560205260409020545b919050565b606654604080516302e9ec9d60e11b815260048101859052905160009283926001600160a01b03909116916305d3d93a91602480820192602092909190829003018186803b15801561107957600080fd5b505afa15801561108d573d6000803e3d6000fd5b505050506040513d60208110156110a357600080fd5b505160ff1611801561112d57506067546040805163295e2cf560e11b81526004810185905290516000926001600160a01b0316916352bc59ea916024808301926020929190829003018186803b1580156110fc57600080fd5b505afa158015611110573d6000803e3d6000fd5b505050506040513d602081101561112657600080fd5b505160ff16115b90505b92915050565b61113e612ecd565b600090815260746020526040902080546001600160a01b0319166001600160a01b0392909216919091179055565b611174612ecd565b6069805467ffffffffffffffff191660ff909216919091179055565b60009081526033602052604090206002015490565b6111ad612ecd565b6111e68383836001430340604051602001808281526020019150506040516020818303038152906040528051906020012060001c611637565b505050565b6000908152606e602052604090205460ff1690565b6000828152603360205260409020600201546112239061121e612fd7565b611adf565b61125e5760405162461bcd60e51b815260040180806020018281038252602f815260200180614332602f913960400191505060405180910390fd5b6112688282612fdb565b5050565b60408051701093d4d4d413d5d15497d4115490d15395607a1b8152905190819003601101902081565b61129d612fd7565b6001600160a01b0316816001600160a01b0316146112ec5760405162461bcd60e51b815260040180806020018281038252602f815260200180614452602f913960400191505060405180910390fd5b611268828261304a565b606e6020526000908152604090205460ff1681565b60706020526000908152604090205481565b611325612ecd565b60009182526075602052604090912055565b606a5460009081526072602090815260408083203384528252808320805482518185028101850190935280835260609383018282801561139657602002820191906000526020600020905b815481526020019060010190808311611382575b50939450600093505050505b815181101561140a578360716000606a5481526020019081526020016000208383815181106113cd57fe5b6020026020010151815481106113df57fe5b906000526020600020906004020160010154141561140257600192505050611023565b6001016113a2565b5060009392505050565b61141c612ecd565b6068805467ffffffffffffffff60a01b191660ff92909216600160a01b02919091179055565b607360209081526000928352604080842090915290825290205460ff1681565b6000908152607460205260409020546001600160a01b031690565b606a546000818152606c6020526040812054908080808080808080806114a28c61187e565b99506114af606a54612d6f565b98506114bc606a54611c44565b97506114c9606a546111eb565b96506114d6606a54612dfa565b95506114e0612e39565b606854606954606a54929750600160a01b90910467ffffffffffffffff908116965081169450600160c01b900461ffff16925061151c90612d81565b9050909192939495969798999a9b565b6000818152606b602052604081205460ff166002811480611550575060ff81166003145b80156115745750600083815260726020908152604080832033845290915290205415155b801561159a5750600083815260736020908152604080832033845290915290205460ff16155b9392505050565b606954600160401b9004600f0b81565b600181565b6068546001600160a01b031681565b606c6020526000908152604090205481565b604080516923a0a6a2afa0a226a4a760b11b8152905190819003600a01902081565b60008162ffffff1661161c8562ffffff1685600f0b612f6f90919063ffffffff16565b01949350505050565b60756020526000908152604090205481565b61163f612ecd565b606a546000908152606b602052604090205460ff1660041415611697576040805162461bcd60e51b815260206004820152600b60248201526a14985a59081c185d5cd95960aa1b604482015290519081900360640190fd5b606a546000908152606b602052604090205460ff1660011480156116cb5750606a5460009081526071602052604090205415155b156116d9576116d9816130b9565b610ffd848484610e39565b6116ec612ecd565b60408051600019430140602080830191909152825180830382018152918301909252805191012061171c906130b9565b565b606a546000908152607260209081526040808320338452825291829020805483518184028101840190945280845260609384939092919083018282801561178457602002820191906000526020600020905b815481526020019060010190808311611770575b505050505090506060815167ffffffffffffffff811180156117a557600080fd5b506040519080825280602002602001820160405280156117cf578160200160208202803683370190505b50905060005b825181101561184057606a54600090815260716020526040902083518490839081106117fd57fe5b60200260200101518154811061180f57fe5b90600052602060002090600402016002015482828151811061182d57fe5b60209081029190910101526001016117d5565b5091505090565b60006118538383612ccf565b156118765761186f8462ffffff16610fa46104336103e8612f38565b905061159a565b509192915050565b60009081526071602052604090205490565b606a546000908152606b602052604081205460ff1660011480156118c45750606a546000908152606c602052604090205442105b905090565b6118d1612ecd565b6118dc816064612f38565b606960086101000a8154816001600160801b030219169083600f0b6001600160801b0316021790555050565b600081815260726020908152604080832033845282529182902080548351818402810184019094528084526060939283018282801561196657602002820191906000526020600020905b815481526020019060010190808311611952575b50505050509050919050565b6074602052600090815260409020546001600160a01b031681565b606a54600090815260726020908152604080832033845282529182902080548351818402810184019094528084526060938493909291908301828280156119f357602002820191906000526020600020905b8154815260200190600101908083116119df575b505050505090506060815167ffffffffffffffff81118015611a1457600080fd5b50604051908082528060200260200182016040528015611a3e578160200160208202803683370190505b50905060005b825181101561184057606a5460009081526071602052604090208351849083908110611a6c57fe5b602002602001015181548110611a7e57fe5b906000526020600020906004020160010154828281518110611a9c57fe5b6020908102919091010152600101611a44565b606f6020526000908152604090205481565b600082815260336020526040812061112d908363ffffffff61334e16565b600082815260336020526040812061112d908363ffffffff61335a16565b60606000835b838111611b2757611b138161152c565b15611b1f576001909101905b600101611b03565b5060608167ffffffffffffffff81118015611b4157600080fd5b50604051908082528060200260200182016040528015611b6b578160200160208202803683370190505b5090506000855b858111611baf57611b828161152c565b15611ba75780838380600101945081518110611b9a57fe5b6020026020010181815250505b600101611b72565b509095945050505050565b600481565b6000611bc9611890565b8015611bda5750611bda8383611028565b8015611bec5750611bea83611337565b155b801561112d5750611bfc82612862565b159392505050565b60ff811691600882901c62ffffff169160201c67ffffffffffffffff1690565b600381565b600281565b600081565b606954600160c01b900461ffff1681565b6000908152606f602052604090205490565b6000818152606b602052604090205460ff166002148080611c8857506000828152606b602052604090205460ff166003145b611cc9576040805162461bcd60e51b815260206004820152600d60248201526c2930b4b2103737ba1037bb32b960991b604482015290519081900360640190fd5b600082815260736020908152604080832033845290915290205460ff1615611d2a576040805162461bcd60e51b815260206004820152600f60248201526e105b1c9958591e4818db185a5b5959608a1b604482015290519081900360640190fd5b6000828152607260209081526040808320338452825291829020805483518184028101840190945280845260609392830182828015611d8857602002820191906000526020600020905b815481526020019060010190808311611d74575b505050505090506000815111611dcf5760405162461bcd60e51b81526004018080602001828103825260248152602001806143886024913960400191505060405180910390fd5b60008381526071602052604081205460029004600101905b8251811015611ff6576000838281518110611dfe57fe5b60200260200101519050611e106142e1565b6000878152607160205260409020805483908110611e2a57fe5b600091825260208083206040805160a081018252600490940290910180546001600160a01b031684526001810154928401929092526002820154908301526003015462ffffff808216606084015263010000009091041660808201529150611eea858410611ea157611e9c600061336f565b611ed1565b611ed1611eb68588038863ffffffff612f3816565b611ec26001600a612f38565b600f0b9063ffffffff61338d16565b611edb600161336f565b600f0b9063ffffffff6133c416565b90508615611f4657611f468884611f41611f19866060015162ffffff1686600f0b612f6f90919063ffffffff16565b60008d81526071602090815260408083205460709092529091205481611f3b57fe5b04612f38565b6133f7565b60665460208301516069546001600160a01b039092169163da1f8e7791908a90611f8090600f87900b90600160c01b900461ffff16612f6f565b604080516001600160e01b031960e087901b1681526004810194909452911515602484015261ffff16604483015251606480830192600092919082900301818387803b158015611fcf57600080fd5b505af1158015611fe3573d6000803e3d6000fd5b505060019095019450611de79350505050565b5060008481526073602090815260408083203380855290835292819020805460ff1916600117905584518151908152905187927f24b5efa61dd1cfc659205a97fb8ed868f3cb8c81922bab2b96423e5de1de2cb7928290030190a350505050565b606654604080516337dc95c160e01b81523360048201526024810185905290516001600160a01b03909216916337dc95c191604480820192602092909190829003018186803b1580156120a957600080fd5b505afa1580156120bd573d6000803e3d6000fd5b505050506040513d60208110156120d357600080fd5b50516120de57600080fd5b606754604080516337dc95c160e01b81523360048201526024810184905290516001600160a01b03909216916337dc95c191604480820192602092909190829003018186803b15801561213057600080fd5b505afa158015612144573d6000803e3d6000fd5b505050506040513d602081101561215a57600080fd5b505161216557600080fd5b606a546000908152606b602052604090205460ff166001146121ce576040805162461bcd60e51b815260206004820152601b60248201527f43616e6e6f74206a6f696e2072616964207269676874206e6f77210000000000604482015290519081900360640190fd5b606a546000908152606c6020526040902054421061221d5760405162461bcd60e51b81526004018080602001828103825260218152602001806144316021913960400191505060405180910390fd5b606a54600090815260726020908152604080832033845282529182902080548351818402810184019094528084526060939283018282801561227e57602002820191906000526020600020905b81548152602001906001019080831161226a575b50939450600093505050505b81518110156123a1578260716000606a5481526020019081526020016000208383815181106122b557fe5b6020026020010151815481106122c757fe5b90600052602060002090600402016002015414156123165760405162461bcd60e51b81526004018080602001828103825260278152602001806143616027913960400191505060405180910390fd5b8360716000606a54815260200190815260200160002083838151811061233857fe5b60200260200101518154811061234a57fe5b90600052602060002090600402016001015414156123995760405162461bcd60e51b81526004018080602001828103825260278152602001806143dc6027913960400191505060405180910390fd5b60010161228a565b506066546068546040805163c54a5ab760e01b815260048101879052600160a01b90920460ff16602483015260016044830152516000928392612442926001600160a01b039092169163c54a5ab79160648082019260209290919082900301818887803b15801561241157600080fd5b505af1158015612425573d6000803e3d6000fd5b505050506040513d602081101561243b57600080fd5b5051611c04565b506067546069546040805163183162dd60e21b8152600481018a905260ff80871660248301529092166044830152600160648301525193955091935060009283926001600160a01b03909216916360c58b7491608480830192608092919082900301818787803b1580156124b557600080fd5b505af11580156124c9573d6000803e3d6000fd5b505050506040513d60808110156124df57600080fd5b5060208101516040909101519092509050600061251c6125008585856115f9565b606a546000908152606e6020526040902054879060ff16611847565b90508062ffffff1660706000606a5481526020019081526020016000206000828254019250508190555060726000606a5481526020019081526020016000206000336001600160a01b03166001600160a01b0316815260200190815260200160002060716000606a54815260200190815260200160002080549050908060018154018082558091505060019003906000526020600020016000909190919091505560716000606a5481526020019081526020016000206040518060a00160405280336001600160a01b031681526020018a81526020018981526020018362ffffff168152602001600062ffffff16815250908060018154018082558091505060019003906000526020600020906004020160009091909190915060008201518160000160006101000a8154816001600160a01b0302191690836001600160a01b03160217905550602082015181600101556040820151816002015560608201518160030160006101000a81548162ffffff021916908362ffffff16021790555060808201518160030160036101000a81548162ffffff021916908362ffffff160217905550505060008090506000606960089054906101000a9004600f0b600f0b13156127db5760655460695460408051630a8a921560e01b8152600160401b909204600f90810b810b900b6004830152516001600160a01b0390921691630a8a921591602480820192602092909190829003018186803b15801561274057600080fd5b505afa158015612754573d6000803e3d6000fd5b505050506040513d602081101561276a57600080fd5b50516065546040805163466cec3360e01b81523360048201526024810184905290519293506001600160a01b039091169163466cec339160448082019260009290919082900301818387803b1580156127c257600080fd5b505af11580156127d6573d6000803e3d6000fd5b505050505b606a54604080519182526020820183905280518a928c9233927fb263b1196da723ec972d211488cb0e401e4eb791510c0d48550166d2f5b2e1b29281900390910190a4505050505050505050565b612831612ecd565b6000918252606b6020526040909120805460ff191660ff909216919091179055565b6067546001600160a01b031681565b606a546000908152607260209081526040808320338452825280832080548251818502810185019093528083526060938301828280156128c157602002820191906000526020600020905b8154815260200190600101908083116128ad575b50939450600093505050505b815181101561140a578360716000606a5481526020019081526020016000208383815181106128f857fe5b60200260200101518154811061290a57fe5b906000526020600020906004020160020154141561292d57600192505050611023565b6001016128cd565b6065546001600160a01b031681565b600054610100900460ff168061295d575061295d613729565b8061296b575060005460ff16155b6129a65760405162461bcd60e51b815260040180806020018281038252602e815260200180614403602e913960400191505060405180910390fd5b600054610100900460ff161580156129d1576000805460ff1961ff0019909116610100171660011790555b6129d961373a565b6129e460003361125e565b604080516923a0a6a2afa0a226a4a760b11b8152905190819003600a019020612a0d903361125e565b606580546001600160a01b0319166001600160a01b0384811691909117918290556040805163341c2ed560e21b81529051929091169163d070bb5491600480820192602092909190829003018186803b158015612a6957600080fd5b505afa158015612a7d573d6000803e3d6000fd5b505050506040513d6020811015612a9357600080fd5b5051606680546001600160a01b0319166001600160a01b0392831617905560655460408051635bf0e6c360e11b81529051919092169163b7e1cd86916004808301926020929190829003018186803b158015612aee57600080fd5b505afa158015612b02573d6000803e3d6000fd5b505050506040513d6020811015612b1857600080fd5b5051606780546001600160a01b0319166001600160a01b0392831617905560655460408051631479c5eb60e21b8152905191909216916351e717ac916004808301926020929190829003018186803b158015612b7357600080fd5b505afa158015612b87573d6000803e3d6000fd5b505050506040513d6020811015612b9d57600080fd5b5051606880546001600160a01b0319166001600160a01b039092169190911767ffffffffffffffff60a01b1916601960a31b17905560698054601467ffffffffffffffff199091161779ffffffffffffffffffffffffffffffffffff00000000000000001916600160c81b1790558015611268576000805461ff00191690555050565b606b6020526000908152604090205460ff1681565b60716020528160005260406000208181548110612c4e57fe5b600091825260209091206004909102018054600182015460028301546003909301546001600160a01b039092169450925062ffffff80821691630100000090041685565b6000818152603360205260408120611130906137dc565b606854600160a01b900467ffffffffffffffff1681565b6066546001600160a01b031681565b60008160ff1660048460010160ff1681612ce557fe5b0660ff1614905092915050565b600082815260336020526040902060020154612d109061121e612fd7565b6112ec5760405162461bcd60e51b81526004018080602001828103825260308152602001806143ac6030913960400191505060405180910390fd5b6000908152606c602052604090205490565b606d6020526000908152604090205481565b60009081526070602052604090205490565b6000806060612d8f84611908565b905060005b8151811015612df15760008581526071602052604090208251839083908110612db957fe5b602002602001015181548110612dcb57fe5b600091825260209091206003600490920201015462ffffff169290920191600101612d94565b50909392505050565b6000908152606b602052604090205460ff1690565b612e17612ecd565b6069805461ffff909216600160c01b0261ffff60c01b19909216919091179055565b60655460695460408051630a8a921560e01b8152600160401b909204600f90810b810b900b6004830152516000926001600160a01b031691630a8a9215916024808301926020929190829003018186803b158015612e9657600080fd5b505afa158015612eaa573d6000803e3d6000fd5b505050506040513d6020811015612ec057600080fd5b5051905090565b606a5481565b604080516923a0a6a2afa0a226a4a760b11b8152905190819003600a019020612ef69033611adf565b61171c576040805162461bcd60e51b815260206004820152600e60248201526d2737ba1033b0b6b29030b236b4b760911b604482015290519081900360640190fd5b600081612f4457600080fd5b6000612f5084846137e7565b905060016001607f1b036001600160801b038216111561112d57600080fd5b600081612f7e57506000611130565b600083600f0b1215612f8f57600080fd5b600f83900b6001600160801b038316810260401c90608084901c026001600160c01b03811115612fbe57600080fd5b60401b8119811115612fcf57600080fd5b019392505050565b3390565b6000828152603360205260409020612ff9908263ffffffff61393116565b1561126857613006612fd7565b6001600160a01b0316816001600160a01b0316837f2f8788117e7eff1d82e926ec794901d17c78024a50270940304540a733656f0d60405160405180910390a45050565b6000828152603360205260409020613068908263ffffffff61394616565b1561126857613075612fd7565b6001600160a01b0316816001600160a01b0316837ff6391f5c32d9c69d2a47ea670b442974b53935d1edc7fd64eb21e047a839171b60405160405180910390a45050565b606a80546000908152606d6020908152604080832085905583548352606c825280832042905592548252606f81528282205460709091529181205461310290829084018561395b565b9050600082821015613115576003613118565b60025b606a546000908152606b60205260409020805460ff191660ff8316908117909155909150600214156132f95761314c6142e1565b606a5460009081526071602052604090208054868161316757fe5b068154811061317257fe5b600091825260208083206040805160a081018252600490940290910180546001600160a01b031684526001810154928401929092526002820154908301526003015462ffffff8082166060840152630100000090910416608082015291506131d9866139d1565b9050600060056064880460016000908152607460209081527ff83d01c2b52626dc3c2e1555c273eea8900424c2c33f28b73359c960ee7130c154875160408051632769c3d960e11b81526001600160a01b03928316600482015260ff8a166024820152969095066044870181905294519496509294921692634ed387b292606480820193929182900301818787803b15801561327457600080fd5b505af1158015613288573d6000803e3d6000fd5b505050506040513d602081101561329e57600080fd5b50518451606a546040805160ff8816815260208101879052815194955085946001600160a01b03909416937ff1ad1849e77903836653f1a4bb1d699f530d41fc80964d9d89223ac3ffae72ca929181900390910190a4505050505b606a546040805160ff841681526020810186905280820185905290517f1a2d794b0b12d2a72c8e17e61187bd8d9dffbe923238d8119def782a90b368af9181900360600190a25050606a805460010190555050565b600061112d8383613a2d565b600061112d836001600160a01b038416613a91565b6000677fffffffffffffff82111561338657600080fd5b5060401b90565b6000600f83810b9083900b0260401d60016001607f1b031981128015906133bb575060016001607f1b038113155b61112d57600080fd5b6000600f83810b9083900b0160016001607f1b031981128015906133bb575060016001607f1b0381131561112d57600080fd5b6000838152606d60209081526040808320548151808401919091528082018690523360608083019190915282518083039091018152608090910190915280519101209061345d6001613454600f86900b605563ffffffff612f6f16565b600f018461395b565b905060148111156134ff57600a820660028110156134865761348133876000613aa9565b6134fd565b600481101561349b5761348133876001613aa9565b60068110156134b1576134813387856001613ba3565b80600614156134c65761348133876002613aa9565b80600714156134db5761348133876001613c87565b80600814156134f05761348133876002613c87565b6134fd3387856002613ba3565b505b6000613528600161351b600f87900b603263ffffffff612f6f16565b6103b6018560010161395b565b90506103b68111156135cc576014600a84040660088110156135535761354e3388613d50565b6135ca565b80600814156135695761354e3388866004613ba3565b806009141561357e5761354e33886004613aa9565b600e8110156135945761354e3388866003613ba3565b80600e14156135a95761354e33886001613e33565b80600f14156135be5761354e33886001613efc565b6135ca33886003613aa9565b505b60006135df60016107d08660020161395b565b9050606481116137205760328111156136265761362133888861361c606960189054906101000a900461ffff1661ffff16610fa460196064612f38565b613fc5565b613720565b60148111156136595761362133888861361c606960189054906101000a900461ffff1661ffff16610fa460966064612f38565b600a81111561368d5761362133888861361c606960189054906101000a900461ffff1661ffff16610fa46101136064612f38565b60048111156136c15761362133888861361c606960189054906101000a900461ffff1661ffff16610fa461020d6064612f38565b60018111156136f55761362133888861361c606960189054906101000a900461ffff1661ffff16610fa461047e6064612f38565b61372033888861361c606960189054906101000a900461ffff1661ffff16610fa46109606064612f38565b50505050505050565b6000613734306140a9565b15905090565b600054610100900460ff16806137535750613753613729565b80613761575060005460ff16155b61379c5760405162461bcd60e51b815260040180806020018281038252602e815260200180614403602e913960400191505060405180910390fd5b600054610100900460ff161580156137c7576000805460ff1961ff0019909116610100171660011790555b80156137d9576000805461ff00191690555b50565b6000611130826140af565b6000816137f357600080fd5b60006001600160c01b0384116138185782604085901b8161381057fe5b04905061391d565b60c084811c6401000000008110613831576020918201911c5b620100008110613843576010918201911c5b6101008110613854576008918201911c5b60108110613864576004918201911c5b60048110613874576002918201911c5b60028110613883576001820191505b60bf820360018603901c6001018260ff0387901b8161389e57fe5b0492506001600160801b038311156138b557600080fd5b608085901c83026001600160801b038616840260c088901c604089901b828110156138e1576001820391505b608084901b929003828110156138f8576001820391505b829003608084901c821461390857fe5b88818161391157fe5b04870196505050505050505b6001600160801b0381111561112d57600080fd5b600061112d836001600160a01b0384166140b3565b600061112d836001600160a01b0384166140fd565b60008061397f6001613973868863ffffffff6141c316565b9063ffffffff61422016565b60408051602080820187905282518083038201815291830190925280519101209091506000906139b5908363ffffffff61427a16565b90506139c7818763ffffffff61422016565b9695505050505050565b60006064820660018110156139ea576004915050611023565b60068110156139fd576003915050611023565b6015811015613a10576002915050611023565b6038811015613a23576001915050611023565b6000915050611023565b81546000908210613a6f5760405162461bcd60e51b81526004018080602001828103825260228152602001806143106022913960400191505060405180910390fd5b826000018281548110613a7e57fe5b9060005260206000200154905092915050565b60009081526001919091016020526040902054151590565b60036000908152607460209081527f2727f07e5197d97fe18fb9ccc0d66458914dc7168b5c9ef06b237a6115a2dc1d5460408051630348ab1560e51b81526001600160a01b03888116600483015260ff871660248301529151919092169263691562a0926044808201939182900301818787803b158015613b2957600080fd5b505af1158015613b3d573d6000803e3d6000fd5b505050506040513d6020811015613b5357600080fd5b50516040805160ff85168152905191925082916001600160a01b0387169186917f744138229824ee73e48cb7b6282b7bcd02edd1b2deb5f2c587086a06166b58679181900360200190a450505050565b60675460408051633137ee2960e01b81526001600160a01b03878116600483015260ff85166024830152606480870460448401528281015291516000939290921691633137ee299160848082019260209290919082900301818787803b158015613c0c57600080fd5b505af1158015613c20573d6000803e3d6000fd5b505050506040513d6020811015613c3657600080fd5b50516040805160ff85168152905191925082916001600160a01b0388169187917f73e022bb57f8f9bfe6397d0dad77344f8d24bf4c7fd0a43dc6e7befb74ac13d99181900360200190a45050505050565b60675460408051637a39589360e01b81526001600160a01b03868116600483015263ffffffff85166024830152600060448301819052606483018190529251931692637a3958939260848084019391929182900301818387803b158015613ced57600080fd5b505af1158015613d01573d6000803e3d6000fd5b50506040805163ffffffff8516815290516001600160a01b03871693508592507fe2d75320517b658d92614beed8079f77d8005b938408da68a0980f9a17443e679181900360200190a3505050565b60026000908152607460209081527f6682ec7d01f27599ce789688f09278cfefbe231146e0a71df5d9a69d5a0414f954604080516335313c2160e11b81526001600160a01b03878116600483015291519190921692636a627842926024808201939182900301818787803b158015613dc757600080fd5b505af1158015613ddb573d6000803e3d6000fd5b505050506040513d6020811015613df157600080fd5b505160405190915081906001600160a01b0385169084907f4f2411592d74df10f92c656a55658c50df2ee0548c0a485fc35cdd1e723235be90600090a4505050565b60675460408051637a39589360e01b81526001600160a01b03868116600483015260006024830181905263ffffffff86166044840152606483018190529251931692637a3958939260848084019391929182900301818387803b158015613e9957600080fd5b505af1158015613ead573d6000803e3d6000fd5b50506040805163ffffffff8516815290516001600160a01b03871693508592507f67527fae1161e68eac66de51f5914708c054438e99db574d2f213ce554c35fd79181900360200190a3505050565b60675460408051637a39589360e01b81526001600160a01b0386811660048301526000602483018190526044830181905263ffffffff861660648401529251931692637a3958939260848084019391929182900301818387803b158015613f6257600080fd5b505af1158015613f76573d6000803e3d6000fd5b50506040805163ffffffff8516815290516001600160a01b03871693508592507ff4c339fde59e20da6a3d53f483bece04a188f406c5c26dbc1ab6361d8cee173e9181900360200190a3505050565b6000838152607160205260408120805484908110613fdf57fe5b6000918252602082206004918202016001015460665460408051630fc0057560e01b815293840183905261ffff87166024850152519194506001600160a01b031692630fc00575926044808201939182900301818387803b15801561404357600080fd5b505af1158015614057573d6000803e3d6000fd5b50506040805161ffff8616815290518493506001600160a01b038916925087917f49a4c899cf558cf38f474066c410dbb59a1a5950a13df9a79eeb884144eeaa40919081900360200190a45050505050565b3b151590565b5490565b60006140bf8383613a91565b6140f557508154600181810184556000848152602080822090930184905584548482528286019093526040902091909155611130565b506000611130565b600081815260018301602052604081205480156141b9578354600019808301919081019060009087908390811061413057fe5b906000526020600020015490508087600001848154811061414d57fe5b60009182526020808320909101929092558281526001898101909252604090209084019055865487908061417d57fe5b60019003818190600052602060002001600090559055866001016000878152602001908152602001600020600090556001945050505050611130565b6000915050611130565b60008282111561421a576040805162461bcd60e51b815260206004820152601e60248201527f536166654d6174683a207375627472616374696f6e206f766572666c6f770000604482015290519081900360640190fd5b50900390565b60008282018381101561112d576040805162461bcd60e51b815260206004820152601b60248201527f536166654d6174683a206164646974696f6e206f766572666c6f770000000000604482015290519081900360640190fd5b60008082116142d0576040805162461bcd60e51b815260206004820152601860248201527f536166654d6174683a206d6f64756c6f206279207a65726f0000000000000000604482015290519081900360640190fd5b8183816142d957fe5b069392505050565b6040805160a0810182526000808252602082018190529181018290526060810182905260808101919091529056fe456e756d657261626c655365743a20696e646578206f7574206f6620626f756e6473416363657373436f6e74726f6c3a2073656e646572206d75737420626520616e2061646d696e20746f206772616e745468697320776561706f6e20697320616c7265616479207573656420696e2074686520726169644e6f6e65206f6620796f7572206368617261637465727320706172746963697061746564416363657373436f6e74726f6c3a2073656e646572206d75737420626520616e2061646d696e20746f207265766f6b65546869732063686172616374657220697320616c72656164792070617274696369706174696e67496e697469616c697a61626c653a20636f6e747261637420697320616c726561647920696e697469616c697a6564497420697320746f6f206c61746520746f206a6f696e2074686973207261696421416363657373436f6e74726f6c3a2063616e206f6e6c792072656e6f756e636520726f6c657320666f722073656c66a26469706673582212200de76601e8abcae58d3f09d8c36c8d7c46f5d559f9aa5bb91b2233ffe3bc979b64736f6c63430006050033",
  "immutableReferences": {},
  "source": "pragma solidity ^0.6.0;\n\nimport \"@openzeppelin/contracts-upgradeable/proxy/Initializable.sol\";\nimport \"@openzeppelin/contracts-upgradeable/access/AccessControlUpgradeable.sol\";\nimport \"./cryptoblades.sol\";\nimport \"./characters.sol\";\nimport \"./weapons.sol\";\nimport \"./Promos.sol\";\nimport \"./util.sol\";\nimport \"./items/RaidTrinket.sol\";\nimport \"./items/KeyLootbox.sol\";\nimport \"./items/Junk.sol\";\n\ncontract Raid1 is Initializable, AccessControlUpgradeable {\n\n    /*\n        Actual raids reimplementation\n        Figured the old contract may have a lot of redundant variables and it's already deployed\n        Maybe the raid interface isn't the way to go\n        Either way it's probably fine to lay out the new one in a single file and compare\n        The idea is to store all participants and raid details using an indexed mapping system\n        And players get to claim their rewards as a derivative of a raid completion seed that\n            a safe verifiable random source will provide (ideally)\n        It may be better to convert the mappings using raidIndex into a struct\n        Need to test gas impact or if stack limits are any different\n    */\n\n    using ABDKMath64x64 for int128;\n    using ABDKMath64x64 for uint256;\n    \n    bytes32 public constant GAME_ADMIN = keccak256(\"GAME_ADMIN\");\n\n    uint8 public constant STATUS_UNSTARTED = 0;\n    uint8 public constant STATUS_STARTED = 1;\n    uint8 public constant STATUS_WON = 2;\n    uint8 public constant STATUS_LOST = 3;\n    uint8 public constant STATUS_PAUSED = 4; // in case of emergency\n\n    // leaving link 0 empty intentionally\n    uint256 public constant LINK_TRINKET = 1;\n    uint256 public constant LINK_KEYBOX = 2;\n    uint256 public constant LINK_JUNK = 3;\n\n    uint256 public constant NUMBERPARAMETER_AUTO_DURATION = 1;\n    uint256 public constant NUMBERPARAMETER_AUTO_BOSSPOWER_PERCENT = uint256(keccak256(\"BOSSPOWER_PERCENT\"));\n\n    CryptoBlades public game;\n    Characters public characters;\n    Weapons public weapons;\n    Promos public promos;\n\n    struct Raider {\n        address owner;\n        uint256 charID;\n        uint256 wepID;\n        uint24 power;\n        uint24 traitsCWS;//char trait, wep trait, wep statpattern, unused for now\n    }\n\n    uint64 public staminaCost;\n    uint64 public durabilityCost;\n    int128 public joinCost;\n    uint16 public xpReward;\n\n    uint256 public raidIndex;\n    // all (first) keys are raidIndex\n    mapping(uint256 => uint8) public raidStatus;\n    mapping(uint256 => uint256) public raidEndTime;\n    mapping(uint256 => uint256) public raidSeed;\n    mapping(uint256 => uint8) public raidBossTrait;\n    mapping(uint256 => uint256) public raidBossPower;\n    mapping(uint256 => uint256) public raidPlayerPower;\n    mapping(uint256 => Raider[]) public raidParticipants;\n    mapping(uint256 => mapping(address => uint256[])) public raidParticipantIndices;\n    mapping(uint256 => mapping(address => bool)) public raidRewardClaimed;\n\n    // link interface\n    // the idea is to avoid littering the contract with variables for each type of reward\n    mapping(uint256 => address) public links;\n    // parameters to avoid littering the contract with more state vars\n    mapping(uint256 => uint256) public numberParameters;\n\n    event RaidStarted(uint256 indexed raidIndex,\n        uint8 bossTrait,\n        uint256 bossPower,\n        uint256 endTime);\n    event RaidJoined(uint256 raidIndex,\n        address indexed user,\n        uint256 indexed character,\n        uint256 indexed weapon,\n        uint256 skillPaid);\n    event RaidCompleted(uint256 indexed raidIndex,\n        uint8 outcome,\n        uint256 bossRoll,\n        uint256 playerRoll);\n    \n    // reward specific events for analytics\n    event RewardClaimed(uint256 indexed raidIndex, address indexed user, uint256 characterCount);\n    event RewardedXpBonus(uint256 indexed raidIndex, address indexed user, uint256 indexed charID, uint16 amount);\n    event RewardedDustLB(uint256 indexed raidIndex, address indexed user, uint32 amount);\n    event RewardedDust4B(uint256 indexed raidIndex, address indexed user, uint32 amount);\n    event RewardedDust5B(uint256 indexed raidIndex, address indexed user, uint32 amount);\n    event RewardedWeapon(uint256 indexed raidIndex, address indexed user, uint8 stars, uint256 indexed tokenID);\n    event RewardedJunk(uint256 indexed raidIndex, address indexed user, uint8 stars, uint256 indexed tokenID);\n    event RewardedTrinket(uint256 indexed raidIndex, address indexed user, uint8 stars, uint256 effect, uint256 indexed tokenID);\n    event RewardedKeyBox(uint256 indexed raidIndex, address indexed user, uint256 indexed tokenID);\n\n    function initialize(address gameContract) public initializer {\n        \n        __AccessControl_init_unchained();\n        _setupRole(DEFAULT_ADMIN_ROLE, msg.sender);\n        _setupRole(GAME_ADMIN, msg.sender);\n\n        game = CryptoBlades(gameContract);\n        characters = Characters(game.characters());\n        weapons = Weapons(game.weapons());\n        promos = Promos(game.promos());\n\n        staminaCost = 200; // 5 mins each, or 16.666 hours\n        durabilityCost = 20; // 50 mins each, or 16.666 hours\n        joinCost = 0;// free (was going to be 10 USD)\n        xpReward = 128 * 2; // 13 hour 20 min worth of fight xp, but we had double xp active on launch\n    }\n\n    modifier restricted() {\n        _restricted();\n        _;\n    }\n\n    function _restricted() internal view {\n        require(hasRole(GAME_ADMIN, msg.sender), \"Not game admin\");\n    }\n\n    function doRaidAuto() public restricted {\n        uint256 seed = uint256(keccak256(abi.encodePacked(blockhash(block.number - 1))));\n        uint256 power = ABDKMath64x64.divu(numberParameters[NUMBERPARAMETER_AUTO_BOSSPOWER_PERCENT],100)\n            .mulu(raidPlayerPower[raidIndex]);\n        uint8 trait = uint8(seed % 4);\n        uint256 duration = numberParameters[NUMBERPARAMETER_AUTO_DURATION];\n        if(duration == 0) {\n            duration = 480; // 8 hrs\n        }\n        doRaidWithSeed(power, trait, duration, seed);\n    }\n\n    function doRaid(uint256 bossPower, uint8 bossTrait, uint256 durationMinutes) public restricted {\n        doRaidWithSeed(bossPower, bossTrait, durationMinutes, uint256(keccak256(abi.encodePacked(blockhash(block.number - 1)))));\n    }\n\n    function doRaidWithSeed(uint256 bossPower, uint8 bossTrait, uint256 durationMinutes, uint256 seed) public restricted {\n        require(raidStatus[raidIndex] != STATUS_PAUSED, \"Raid paused\");\n\n        if(raidStatus[raidIndex] == STATUS_STARTED\n        && raidParticipants[raidIndex].length > 0) {\n            completeRaidWithSeed(seed);\n        }\n        startRaid(bossPower, bossTrait, durationMinutes);\n    }\n\n    function startRaid(uint256 bossPower, uint8 bossTrait, uint256 durationMinutes) public restricted {\n        raidStatus[raidIndex] = STATUS_STARTED;\n        raidBossPower[raidIndex] = bossPower;\n        raidBossTrait[raidIndex] = bossTrait;\n\n        uint256 endTime = now + (durationMinutes * 1 minutes);\n        raidEndTime[raidIndex] = endTime;\n\n        emit RaidStarted(raidIndex, bossTrait, bossPower, endTime);\n    }\n\n    function joinRaid(uint256 characterID, uint256 weaponID) public {\n        require(characters.canRaid(msg.sender, characterID));\n        require(weapons.canRaid(msg.sender, weaponID));\n        /*require(characters.ownerOf(characterID) == msg.sender);\n        require(weapons.ownerOf(weaponID) == msg.sender);\n        require(characters.getStaminaPoints(characterID) > 0, \"You cannot join with 0 character stamina\");\n        require(weapons.getDurabilityPoints(weaponID) > 0, \"You cannot join with 0 weapon durability\");*/\n        require(raidStatus[raidIndex] == STATUS_STARTED, \"Cannot join raid right now!\");\n        require(raidEndTime[raidIndex] > now, \"It is too late to join this raid!\");\n\n        uint256[] memory raiderIndices = raidParticipantIndices[raidIndex][msg.sender];\n        for(uint i = 0; i < raiderIndices.length; i++) {\n            require(raidParticipants[raidIndex][raiderIndices[i]].wepID != weaponID,\n                \"This weapon is already used in the raid\");\n            require(raidParticipants[raidIndex][raiderIndices[i]].charID != characterID,\n                \"This character is already participating\");\n        }\n\n        (uint8 charTrait, uint24 basePowerLevel, /*uint64 timestamp*/) =\n            unpackFightData(characters.getFightDataAndDrainStamina(\n                                    characterID,\n                                    uint8(staminaCost),\n                                    true)\n                                );\n\n        (/*int128 weaponMultTarget*/,\n            int128 weaponMultFight,\n            uint24 weaponBonusPower,\n            /*uint8 weaponTrait*/) = weapons.getFightDataAndDrainDurability(weaponID, charTrait, uint8(durabilityCost), true);\n        \n        uint24 power = getPlayerFinalPower(\n            getPlayerPower(basePowerLevel, weaponMultFight, weaponBonusPower),\n            charTrait,\n            raidBossTrait[raidIndex]\n        );\n        raidPlayerPower[raidIndex] += power;\n\n        //uint8 wepStatPattern = weapons.getStatPattern(weaponID);\n        raidParticipantIndices[raidIndex][msg.sender].push(raidParticipants[raidIndex].length);\n        raidParticipants[raidIndex].push(Raider(\n            msg.sender,\n            characterID,\n            weaponID,\n            power,\n            0//uint24(charTrait) | (uint24(weaponTrait) << 8) | ((uint24(wepStatPattern)) << 16)//traitCWS\n        ));\n\n        uint256 joinCostPaid = 0;\n        if(joinCost > 0) {\n            joinCostPaid = game.usdToSkill(joinCost);\n            game.payContractTokenOnly(msg.sender, joinCostPaid);\n        }\n        emit RaidJoined(raidIndex,\n            msg.sender,\n            characterID,\n            weaponID,\n            joinCostPaid);\n    }\n\n    function setRaidStatus(uint256 index, uint8 status) public restricted {\n        // only use if absolutely necessary\n        raidStatus[index] = status;\n    }\n\n    function completeRaid() public restricted {\n        completeRaidWithSeed(uint256(keccak256(abi.encodePacked(blockhash(block.number - 1)))));\n    }\n\n    function completeRaidWithSeed(uint256 seed) internal {\n\n        raidSeed[raidIndex] = seed;\n        raidEndTime[raidIndex] = now;\n\n        uint256 bossPower = raidBossPower[raidIndex];\n        // we could also not include bossPower in the roll to have slightly higher chances of failure\n        // with bosspower added to roll ceiling the likelyhood of a win is: playerPower / bossPower\n        uint256 roll = RandomUtil.randomSeededMinMax(0,raidPlayerPower[raidIndex]+bossPower, seed);\n        uint8 outcome = roll >= bossPower ? STATUS_WON : STATUS_LOST;\n        raidStatus[raidIndex] = outcome;\n\n        if(outcome == STATUS_WON) {\n            // since we pay out exactly one trinket per raid, we might as well do it here\n            Raider memory trinketWinner = raidParticipants[raidIndex][seed % raidParticipants[raidIndex].length];\n            uint8 trinketStars = getTrinketStarsFromSeed(seed);\n            uint256 trinketEffect = (seed / 100) % 5;\n            uint tokenID =\n                RaidTrinket(links[LINK_TRINKET]).mint(\n                    trinketWinner.owner, trinketStars, trinketEffect\n                );\n            emit RewardedTrinket(raidIndex, trinketWinner.owner, trinketStars, trinketEffect, tokenID);\n        }\n\n        emit RaidCompleted(raidIndex, outcome, bossPower, roll);\n        raidIndex++;\n    }\n\n    function getTrinketStarsFromSeed(uint256 seed) private pure returns(uint8 stars) {\n        uint256 roll = seed % 100;\n        if(roll < 1) {\n            return 4; // 5* at 1%\n        }\n        else if(roll < 6) { // 4* at 5%\n            return 3;\n        }\n        else if(roll < 21) { // 3* at 15%\n            return 2;\n        }\n        else if(roll < 56) { // 2* at 35%\n            return 1;\n        }\n        else {\n            return 0; // 1* at 44%\n        }\n    }\n\n    function unpackFightData(uint96 playerData)\n        public pure returns (uint8 charTrait, uint24 basePowerLevel, uint64 timestamp) {\n\n        charTrait = uint8(playerData & 0xFF);\n        basePowerLevel = uint24((playerData >> 8) & 0xFFFFFF);\n        timestamp = uint64((playerData >> 32) & 0xFFFFFFFFFFFFFFFF);\n    }\n\n    function getPlayerPower(\n        uint24 basePower,\n        int128 weaponMultiplier,\n        uint24 bonusPower\n    ) public pure returns(uint24) {\n        return uint24(weaponMultiplier.mulu(basePower) + bonusPower);\n    }\n\n    function isTraitEffectiveAgainst(uint8 attacker, uint8 defender) public pure returns (bool) {\n        return (((attacker + 1) % 4) == defender); // Thanks to Tourist\n    }\n\n    function getPlayerFinalPower(uint24 playerPower, uint8 charTrait, uint8 bossTrait) public pure returns(uint24) {\n        if(isTraitEffectiveAgainst(charTrait, bossTrait))\n            return uint24(ABDKMath64x64.divu(1075,1000).mulu(uint256(playerPower)));\n        return playerPower;\n    }\n\n    function claimReward(uint256 claimRaidIndex) public {\n        // NOTE: this function is stack limited\n        //claimRaidIndex can act as a version integer if future rewards change\n        bool victory = raidStatus[claimRaidIndex] == STATUS_WON;\n        require(victory || raidStatus[claimRaidIndex] == STATUS_LOST, \"Raid not over\");\n        require(raidRewardClaimed[claimRaidIndex][msg.sender] == false, \"Already claimed\");\n\n        uint256[] memory raiderIndices = raidParticipantIndices[claimRaidIndex][msg.sender];\n        require(raiderIndices.length > 0, \"None of your characters participated\");\n\n        uint256 earlyBonusCutoff = raidParticipants[claimRaidIndex].length/2+1; // first half of players\n        // we grab raider info (power) and give out xp and raid stats\n        for(uint i = 0; i < raiderIndices.length; i++) {\n            uint256 raiderIndex = raiderIndices[i];\n            Raider memory raider = raidParticipants[claimRaidIndex][raiderIndex];\n            int128 earlyMultiplier = ABDKMath64x64.fromUInt(1).add(\n                raiderIndex < earlyBonusCutoff ?\n                    ABDKMath64x64.divu(1,10).mul( // early bonus, 10%\n                        (earlyBonusCutoff-raiderIndex).divu(earlyBonusCutoff)\n                    )\n                    : ABDKMath64x64.fromUInt(0)\n            );\n            if(victory) {\n                distributeRewards(\n                    claimRaidIndex,\n                    raiderIndex,\n                    ABDKMath64x64.divu(earlyMultiplier.mulu(raider.power),\n                        raidPlayerPower[claimRaidIndex]/raidParticipants[claimRaidIndex].length)\n                );\n            }\n            characters.processRaidParticipation(raider.charID, victory, uint16(earlyMultiplier.mulu(xpReward)));\n        }\n\n        raidRewardClaimed[claimRaidIndex][msg.sender] = true;\n        emit RewardClaimed(claimRaidIndex, msg.sender, raiderIndices.length);\n    }\n\n    function distributeRewards(\n        uint256 claimRaidIndex,\n        uint256 raiderIndex,\n        int128 comparedToAverage\n    ) private {\n        // at most 2 types of rewards\n        // common: Lb dust, 1-3 star junk, 3 star wep\n        // rare: 4-5b dust, 4-5 star wep, 4-5 star junk, keybox\n        // chances are a bit generous compared to weapon mints because stamina cost equals lost skill\n        // That being said these rates stink if the oracle is 3x lower than real value.\n        uint256 seed = uint256(keccak256(abi.encodePacked(raidSeed[claimRaidIndex], raiderIndex, uint256(msg.sender))));\n\n        uint256 commonRoll = RandomUtil.randomSeededMinMax(1, 15 + comparedToAverage.mulu(85), seed);\n        if(commonRoll > 20) { // Expected: ~75% (at least 25% at bottom, 90+% past 65% power)\n            uint mod = seed % 10;\n            if(mod < 2) { // 1 star junk, 2 out of 10 (20%)\n                distributeJunk(msg.sender, claimRaidIndex, 0);\n            }\n            else if(mod < 4) { // 2 star junk, 2 out of 10 (20%)\n                distributeJunk(msg.sender, claimRaidIndex, 1);\n            }\n            else if(mod < 6) { // 2 star weapon, 2 out of 10 (20%)\n                distributeWeapon(msg.sender, claimRaidIndex, seed, 1);\n            }\n            else if(mod == 6) { // 3 star junk, 1 out of 10 (10%)\n                distributeJunk(msg.sender, claimRaidIndex, 2);\n            }\n            else if(mod == 7) { // 1x LB Dust, 1 out of 10 (10%)\n                distributeLBDust(msg.sender, claimRaidIndex, 1);\n            }\n            else if(mod == 8) { // 2x LB Dust, 1 out of 10 (10%)\n                distributeLBDust(msg.sender, claimRaidIndex, 2);\n            }\n            else { // 3 star weapon, 1 out of 10 (10%)\n                distributeWeapon(msg.sender, claimRaidIndex, seed, 2);\n            }\n        }\n\n        uint256 rareRoll = RandomUtil.randomSeededMinMax(1, 950 + comparedToAverage.mulu(50), seed + 1);\n        if(rareRoll > 950) { // Expected: ~5% (0.72% at bottom, 15% at top, 8.43% middle)\n            uint mod = (seed / 10) % 20;\n            if(mod < 8) { // key box, 8 out of 20 (40%)\n                distributeKeyBox(msg.sender, claimRaidIndex);\n            }\n            else if(mod == 8) { // 5 star sword, 1 out of 20 (5%)\n                distributeWeapon(msg.sender, claimRaidIndex, seed, 4);\n            }\n            else if(mod == 9) { // 5 star junk, 1 out of 20 (5%)\n                distributeJunk(msg.sender, claimRaidIndex, 4);\n            }\n            else if(mod < 14) { // 4 star sword, 4 out of 20 (20%)\n                distributeWeapon(msg.sender, claimRaidIndex, seed, 3);\n            }\n            else if(mod == 14) { // 1x 4B Dust, 1 out of 20 (5%)\n                distribute4BDust(msg.sender, claimRaidIndex, 1);\n            }\n            else if(mod == 15) { // 1x 5B Dust, 1 out of 20 (5%)\n                distribute5BDust(msg.sender, claimRaidIndex, 1);\n            }\n            else { // 4 star junk, 4 out of 20 (20%)\n                distributeJunk(msg.sender, claimRaidIndex, 3);\n            }\n        }\n\n        uint256 bonusXpRoll = RandomUtil.randomSeededMinMax(1, 2000, seed + 2); // 0.05% per point\n        if(bonusXpRoll <= 100) { // 5% for any bonus xp result\n            if(bonusXpRoll > 50) { // 2.5% for +25% xp\n                distributeBonusXp(msg.sender, claimRaidIndex, raiderIndex, uint16(ABDKMath64x64.divu(25,100).mulu(xpReward)));\n            }\n            else if(bonusXpRoll > 20) { // 1.5% for +150% xp\n                distributeBonusXp(msg.sender, claimRaidIndex, raiderIndex, uint16(ABDKMath64x64.divu(150,100).mulu(xpReward)));\n            }\n            else if(bonusXpRoll > 10) { // 0.5% for +275% xp\n                distributeBonusXp(msg.sender, claimRaidIndex, raiderIndex, uint16(ABDKMath64x64.divu(275,100).mulu(xpReward)));\n            }\n            else if(bonusXpRoll > 4) { // 0.3% for +525% xp\n                distributeBonusXp(msg.sender, claimRaidIndex, raiderIndex, uint16(ABDKMath64x64.divu(525,100).mulu(xpReward)));\n            }\n            else if(bonusXpRoll > 1) { // 0.15% for +1150% xp\n                distributeBonusXp(msg.sender, claimRaidIndex, raiderIndex, uint16(ABDKMath64x64.divu(1150,100).mulu(xpReward)));\n            }\n            else { // 0.05% for +2400% xp\n                distributeBonusXp(msg.sender, claimRaidIndex, raiderIndex, uint16(ABDKMath64x64.divu(2400,100).mulu(xpReward)));\n            }\n        }\n    }\n\n    function distributeBonusXp(address claimant, uint256 claimRaidIndex, uint256 raiderIndex, uint16 amount) private {\n        uint256 charID = raidParticipants[claimRaidIndex][raiderIndex].charID;\n        characters.gainXp(charID, amount);\n        emit RewardedXpBonus(claimRaidIndex, claimant, charID, amount);\n    }\n\n    function distributeKeyBox(address claimant, uint256 claimRaidIndex) private {\n        uint tokenID = KeyLootbox(links[LINK_KEYBOX]).mint(claimant);\n        emit RewardedKeyBox(claimRaidIndex, claimant, tokenID);\n    }\n\n    function distributeJunk(address claimant, uint256 claimRaidIndex, uint8 stars) private {\n        uint tokenID = Junk(links[LINK_JUNK]).mint(claimant, stars);\n        emit RewardedJunk(claimRaidIndex, claimant, stars, tokenID);\n    }\n\n    function distributeWeapon(address claimant, uint256 claimRaidIndex, uint256 seed, uint8 stars) private {\n        uint tokenID = weapons.mintWeaponWithStars(claimant, stars, seed / 100, 100);\n        emit RewardedWeapon(claimRaidIndex, claimant, stars, tokenID);\n    }\n\n    function distributeLBDust(address claimant, uint256 claimRaidIndex, uint32 amount) private {\n        weapons.incrementDustSupplies(claimant, amount, 0, 0);\n        emit RewardedDustLB(claimRaidIndex, claimant, amount);\n    }\n\n    function distribute4BDust(address claimant, uint256 claimRaidIndex, uint32 amount) private {\n        weapons.incrementDustSupplies(claimant, 0, amount, 0);\n        emit RewardedDust4B(claimRaidIndex, claimant, amount);\n    }\n\n    function distribute5BDust(address claimant, uint256 claimRaidIndex, uint32 amount) private {\n        weapons.incrementDustSupplies(claimant, 0, 0, amount);\n        emit RewardedDust5B(claimRaidIndex, claimant, amount);\n    }\n\n    function registerLink(address addr, uint256 index) public restricted {\n        links[index] = addr;\n    }\n\n    function setStaminaPointCost(uint8 points) public restricted {\n        staminaCost = points;\n    }\n\n    function setDurabilityPointCost(uint8 points) public restricted {\n        durabilityCost = points;\n    }\n\n    function setJoinCostInCents(uint256 cents) public restricted {\n        joinCost = ABDKMath64x64.divu(cents, 100);\n    }\n\n    function getJoinCostInSkill() public view returns(uint256) {\n        return game.usdToSkill(joinCost);\n    }\n\n    function setXpReward(uint16 xp) public restricted {\n        xpReward = xp;\n    }\n\n    function setNumberParameter(uint256 paramIndex, uint256 value) public restricted {\n        numberParameters[paramIndex] = value;\n    }\n\n    function getNumberParameter(uint256 paramIndex) public view returns(uint256) {\n        return numberParameters[paramIndex];\n    }\n\n    function getRaidStatus(uint256 index) public view returns(uint8) {\n        return raidStatus[index];\n    }\n\n    function getRaidEndTime(uint256 index) public view returns(uint256) {\n        return raidEndTime[index];\n    }\n\n    function getRaidBossTrait(uint256 index) public view returns(uint8) {\n        return raidBossTrait[index];\n    }\n\n    function getRaidBossPower(uint256 index) public view returns(uint256) {\n        return raidBossPower[index];\n    }\n\n    function getRaidPlayerPower(uint256 index) public view returns(uint256) {\n        return raidPlayerPower[index];\n    }\n\n    function getRaidParticipantCount(uint256 index) public view returns(uint256) {\n        return raidParticipants[index].length;\n    }\n\n    function getEligibleRewardIndexes(uint256 startIndex, uint256 endIndex) public view returns(uint256[] memory) {\n        uint indexCount = 0;\n        for(uint i = startIndex; i <= endIndex; i++) {\n            if(isEligibleForReward(i)) {\n                indexCount++;\n            }\n        }\n        uint256[] memory result = new uint256[](indexCount);\n        uint currentIndex = 0;\n        for(uint i = startIndex; i <= endIndex; i++) {\n            if(isEligibleForReward(i)) {\n                result[currentIndex++] = i;\n            }\n        }\n        return result;\n    }\n\n    function isEligibleForReward(uint256 index) public view returns(bool) {\n        uint8 status = raidStatus[index];\n        return (status == STATUS_WON || status == STATUS_LOST)\n            && raidParticipantIndices[index][msg.sender].length > 0\n            && raidRewardClaimed[index][msg.sender] == false;\n    }\n\n    function getParticipatingCharacters() public view returns(uint256[] memory) {\n        uint256[] memory indices = raidParticipantIndices[raidIndex][msg.sender];\n        uint256[] memory chars = new uint256[](indices.length);\n        for(uint i = 0; i < indices.length; i++) {\n            chars[i] = raidParticipants[raidIndex][indices[i]].charID;\n        }\n        return chars;\n    }\n    \n    function getParticipatingWeapons() public view returns(uint256[] memory) {\n        uint256[] memory indices = raidParticipantIndices[raidIndex][msg.sender];\n        uint256[] memory weps = new uint256[](indices.length);\n        for(uint i = 0; i < indices.length; i++) {\n            weps[i] = raidParticipants[raidIndex][indices[i]].wepID;\n        }\n        return weps;\n    }\n\n    function getAccountsRaiderIndexes(uint256 index) public view returns(uint256[] memory){\n        return raidParticipantIndices[index][msg.sender];\n    }\n\n    function getAccountsPower(uint256 index) public view returns(uint256) {\n        uint256 totalAccountPower = 0;\n        uint256[] memory raiderIndexes = getAccountsRaiderIndexes(index);\n        for(uint256 i = 0; i < raiderIndexes.length; i++) {\n            totalAccountPower += raidParticipants[index][raiderIndexes[i]].power;\n        }\n        return totalAccountPower;\n    }\n    \n    function canJoinRaid(uint256 characterID, uint256 weaponID) public view returns(bool) {\n        return isRaidStarted()\n            && haveEnoughEnergy(characterID, weaponID)\n            && !isCharacterRaiding(characterID)\n            && !isWeaponRaiding(weaponID);\n    }\n\n    function haveEnoughEnergy(uint256 characterID, uint256 weaponID) public view returns(bool) {\n        return characters.getStaminaPoints(characterID) > 0 && weapons.getDurabilityPoints(weaponID) > 0;\n    }\n\n    function isRaidStarted() public view returns(bool) {\n        return raidStatus[raidIndex] == STATUS_STARTED && raidEndTime[raidIndex] > now;\n    }\n\n    function isWeaponRaiding(uint256 weaponID) public view returns(bool) {\n        uint256[] memory raiderIndices = raidParticipantIndices[raidIndex][msg.sender];\n        for(uint i = 0; i < raiderIndices.length; i++) {\n            if(raidParticipants[raidIndex][raiderIndices[i]].wepID == weaponID) {\n                return true;\n            }\n        }\n\n        return false;\n    }\n\n    function isCharacterRaiding(uint256 characterID) public view returns(bool) {\n        uint256[] memory raiderIndices = raidParticipantIndices[raidIndex][msg.sender];\n        for(uint i = 0; i < raiderIndices.length; i++) {\n            if(raidParticipants[raidIndex][raiderIndices[i]].charID == characterID) {\n                return true;\n            }\n        }\n\n        return false;\n    }\n\n    function getLinkAddress(uint256 linkIndex) public view returns (address) {\n        return links[linkIndex];\n    }\n\n    function getRaidData() public view returns(\n        uint256 index, uint256 endTime, uint256 raiderCount, uint256 playerPower, uint256 bossPower,\n        uint8 trait, uint8 status, uint256 joinSkill, uint64 stamina, uint64 durability, uint64 xp, uint256 accountPower\n    ) {\n        index = raidIndex;\n        endTime = raidEndTime[raidIndex];\n        raiderCount = getRaidParticipantCount(raidIndex);\n        playerPower = getRaidPlayerPower(raidIndex);\n        bossPower = getRaidBossPower(raidIndex);\n        trait = getRaidBossTrait(raidIndex);\n        status = getRaidStatus(raidIndex);\n        joinSkill = getJoinCostInSkill();\n        stamina = staminaCost;\n        durability = durabilityCost;\n        xp = xpReward;\n        accountPower = getAccountsPower(raidIndex);\n    }\n}",
  "sourcePath": "D:\\Work\\MEVN\\cryptoblades-main\\cryptoblades-main\\contracts\\raid1.sol",
  "compiler": {
    "name": "solc",
    "version": "0.6.5+commit.f956cc89.Emscripten.clang"
  },
  "schemaVersion": "3.4.3",
  "updatedAt": "2021-09-18T03:37:02.556Z",
  "devdoc": {
    "methods": {
      "getRoleAdmin(bytes32)": {
        "details": "Returns the admin role that controls `role`. See {grantRole} and {revokeRole}.     * To change a role's admin, use {_setRoleAdmin}."
      },
      "getRoleMember(bytes32,uint256)": {
        "details": "Returns one of the accounts that have `role`. `index` must be a value between 0 and {getRoleMemberCount}, non-inclusive.     * Role bearers are not sorted in any particular way, and their ordering may change at any point.     * WARNING: When using {getRoleMember} and {getRoleMemberCount}, make sure you perform all queries on the same block. See the following https://forum.openzeppelin.com/t/iterating-over-elements-on-enumerableset-in-openzeppelin-contracts/2296[forum post] for more information."
      },
      "getRoleMemberCount(bytes32)": {
        "details": "Returns the number of accounts that have `role`. Can be used together with {getRoleMember} to enumerate all bearers of a role."
      },
      "grantRole(bytes32,address)": {
        "details": "Grants `role` to `account`.     * If `account` had not been already granted `role`, emits a {RoleGranted} event.     * Requirements:     * - the caller must have ``role``'s admin role."
      },
      "hasRole(bytes32,address)": {
        "details": "Returns `true` if `account` has been granted `role`."
      },
      "renounceRole(bytes32,address)": {
        "details": "Revokes `role` from the calling account.     * Roles are often managed via {grantRole} and {revokeRole}: this function's purpose is to provide a mechanism for accounts to lose their privileges if they are compromised (such as when a trusted device is misplaced).     * If the calling account had been granted `role`, emits a {RoleRevoked} event.     * Requirements:     * - the caller must be `account`."
      },
      "revokeRole(bytes32,address)": {
        "details": "Revokes `role` from `account`.     * If `account` had been granted `role`, emits a {RoleRevoked} event.     * Requirements:     * - the caller must have ``role``'s admin role."
      }
    }
  },
  "userdoc": {
    "methods": {}
  }
}