{
  "contractName": "Weapons",
  "abi": [
    {
      "anonymous": false,
      "inputs": [
        {
          "indexed": true,
          "internalType": "address",
          "name": "owner",
          "type": "address"
        },
        {
          "indexed": true,
          "internalType": "address",
          "name": "approved",
          "type": "address"
        },
        {
          "indexed": true,
          "internalType": "uint256",
          "name": "tokenId",
          "type": "uint256"
        }
      ],
      "name": "Approval",
      "type": "event"
    },
    {
      "anonymous": false,
      "inputs": [
        {
          "indexed": true,
          "internalType": "address",
          "name": "owner",
          "type": "address"
        },
        {
          "indexed": true,
          "internalType": "address",
          "name": "operator",
          "type": "address"
        },
        {
          "indexed": false,
          "internalType": "bool",
          "name": "approved",
          "type": "bool"
        }
      ],
      "name": "ApprovalForAll",
      "type": "event"
    },
    {
      "anonymous": false,
      "inputs": [
        {
          "indexed": true,
          "internalType": "address",
          "name": "owner",
          "type": "address"
        },
        {
          "indexed": true,
          "internalType": "uint256",
          "name": "burned",
          "type": "uint256"
        }
      ],
      "name": "Burned",
      "type": "event"
    },
    {
      "anonymous": false,
      "inputs": [
        {
          "indexed": true,
          "internalType": "uint256",
          "name": "weapon",
          "type": "uint256"
        },
        {
          "indexed": true,
          "internalType": "address",
          "name": "minter",
          "type": "address"
        }
      ],
      "name": "NewWeapon",
      "type": "event"
    },
    {
      "anonymous": false,
      "inputs": [
        {
          "indexed": true,
          "internalType": "address",
          "name": "owner",
          "type": "address"
        },
        {
          "indexed": true,
          "internalType": "uint256",
          "name": "reforged",
          "type": "uint256"
        },
        {
          "indexed": true,
          "internalType": "uint256",
          "name": "burned",
          "type": "uint256"
        },
        {
          "indexed": false,
          "internalType": "uint8",
          "name": "lowPoints",
          "type": "uint8"
        },
        {
          "indexed": false,
          "internalType": "uint8",
          "name": "fourPoints",
          "type": "uint8"
        },
        {
          "indexed": false,
          "internalType": "uint8",
          "name": "fivePoints",
          "type": "uint8"
        }
      ],
      "name": "Reforged",
      "type": "event"
    },
    {
      "anonymous": false,
      "inputs": [
        {
          "indexed": true,
          "internalType": "address",
          "name": "owner",
          "type": "address"
        },
        {
          "indexed": true,
          "internalType": "uint256",
          "name": "reforged",
          "type": "uint256"
        },
        {
          "indexed": false,
          "internalType": "uint8",
          "name": "lowDust",
          "type": "uint8"
        },
        {
          "indexed": false,
          "internalType": "uint8",
          "name": "fourDust",
          "type": "uint8"
        },
        {
          "indexed": false,
          "internalType": "uint8",
          "name": "fiveDust",
          "type": "uint8"
        },
        {
          "indexed": false,
          "internalType": "uint8",
          "name": "lowPoints",
          "type": "uint8"
        },
        {
          "indexed": false,
          "internalType": "uint8",
          "name": "fourPoints",
          "type": "uint8"
        },
        {
          "indexed": false,
          "internalType": "uint8",
          "name": "fivePoints",
          "type": "uint8"
        }
      ],
      "name": "ReforgedWithDust",
      "type": "event"
    },
    {
      "anonymous": false,
      "inputs": [
        {
          "indexed": true,
          "internalType": "bytes32",
          "name": "role",
          "type": "bytes32"
        },
        {
          "indexed": true,
          "internalType": "bytes32",
          "name": "previousAdminRole",
          "type": "bytes32"
        },
        {
          "indexed": true,
          "internalType": "bytes32",
          "name": "newAdminRole",
          "type": "bytes32"
        }
      ],
      "name": "RoleAdminChanged",
      "type": "event"
    },
    {
      "anonymous": false,
      "inputs": [
        {
          "indexed": true,
          "internalType": "bytes32",
          "name": "role",
          "type": "bytes32"
        },
        {
          "indexed": true,
          "internalType": "address",
          "name": "account",
          "type": "address"
        },
        {
          "indexed": true,
          "internalType": "address",
          "name": "sender",
          "type": "address"
        }
      ],
      "name": "RoleGranted",
      "type": "event"
    },
    {
      "anonymous": false,
      "inputs": [
        {
          "indexed": true,
          "internalType": "bytes32",
          "name": "role",
          "type": "bytes32"
        },
        {
          "indexed": true,
          "internalType": "address",
          "name": "account",
          "type": "address"
        },
        {
          "indexed": true,
          "internalType": "address",
          "name": "sender",
          "type": "address"
        }
      ],
      "name": "RoleRevoked",
      "type": "event"
    },
    {
      "anonymous": false,
      "inputs": [
        {
          "indexed": true,
          "internalType": "address",
          "name": "from",
          "type": "address"
        },
        {
          "indexed": true,
          "internalType": "address",
          "name": "to",
          "type": "address"
        },
        {
          "indexed": true,
          "internalType": "uint256",
          "name": "tokenId",
          "type": "uint256"
        }
      ],
      "name": "Transfer",
      "type": "event"
    },
    {
      "inputs": [],
      "name": "BIT_FEATURE_TRANSFER_BLOCKED",
      "outputs": [
        {
          "internalType": "uint256",
          "name": "",
          "type": "uint256"
        }
      ],
      "stateMutability": "view",
      "type": "function"
    },
    {
      "inputs": [],
      "name": "DEFAULT_ADMIN_ROLE",
      "outputs": [
        {
          "internalType": "bytes32",
          "name": "",
          "type": "bytes32"
        }
      ],
      "stateMutability": "view",
      "type": "function"
    },
    {
      "inputs": [],
      "name": "GAME_ADMIN",
      "outputs": [
        {
          "internalType": "bytes32",
          "name": "",
          "type": "bytes32"
        }
      ],
      "stateMutability": "view",
      "type": "function"
    },
    {
      "inputs": [],
      "name": "NUMBERPARAMETER_FEATURE_BITS",
      "outputs": [
        {
          "internalType": "uint256",
          "name": "",
          "type": "uint256"
        }
      ],
      "stateMutability": "view",
      "type": "function"
    },
    {
      "inputs": [],
      "name": "RECEIVE_DOES_NOT_SET_TRANSFER_TIMESTAMP",
      "outputs": [
        {
          "internalType": "bytes32",
          "name": "",
          "type": "bytes32"
        }
      ],
      "stateMutability": "view",
      "type": "function"
    },
    {
      "inputs": [
        {
          "internalType": "address",
          "name": "to",
          "type": "address"
        },
        {
          "internalType": "uint256",
          "name": "tokenId",
          "type": "uint256"
        }
      ],
      "name": "approve",
      "outputs": [],
      "stateMutability": "nonpayable",
      "type": "function"
    },
    {
      "inputs": [
        {
          "internalType": "address",
          "name": "owner",
          "type": "address"
        }
      ],
      "name": "balanceOf",
      "outputs": [
        {
          "internalType": "uint256",
          "name": "",
          "type": "uint256"
        }
      ],
      "stateMutability": "view",
      "type": "function"
    },
    {
      "inputs": [],
      "name": "baseURI",
      "outputs": [
        {
          "internalType": "string",
          "name": "",
          "type": "string"
        }
      ],
      "stateMutability": "view",
      "type": "function"
    },
    {
      "inputs": [],
      "name": "burnPointMultiplier",
      "outputs": [
        {
          "internalType": "uint256",
          "name": "",
          "type": "uint256"
        }
      ],
      "stateMutability": "view",
      "type": "function"
    },
    {
      "inputs": [],
      "name": "fiveStarBurnPowerPerPoint",
      "outputs": [
        {
          "internalType": "uint256",
          "name": "",
          "type": "uint256"
        }
      ],
      "stateMutability": "view",
      "type": "function"
    },
    {
      "inputs": [],
      "name": "fourStarBurnPowerPerPoint",
      "outputs": [
        {
          "internalType": "uint256",
          "name": "",
          "type": "uint256"
        }
      ],
      "stateMutability": "view",
      "type": "function"
    },
    {
      "inputs": [
        {
          "internalType": "uint256",
          "name": "tokenId",
          "type": "uint256"
        }
      ],
      "name": "getApproved",
      "outputs": [
        {
          "internalType": "address",
          "name": "",
          "type": "address"
        }
      ],
      "stateMutability": "view",
      "type": "function"
    },
    {
      "inputs": [
        {
          "internalType": "bytes32",
          "name": "role",
          "type": "bytes32"
        }
      ],
      "name": "getRoleAdmin",
      "outputs": [
        {
          "internalType": "bytes32",
          "name": "",
          "type": "bytes32"
        }
      ],
      "stateMutability": "view",
      "type": "function"
    },
    {
      "inputs": [
        {
          "internalType": "bytes32",
          "name": "role",
          "type": "bytes32"
        },
        {
          "internalType": "uint256",
          "name": "index",
          "type": "uint256"
        }
      ],
      "name": "getRoleMember",
      "outputs": [
        {
          "internalType": "address",
          "name": "",
          "type": "address"
        }
      ],
      "stateMutability": "view",
      "type": "function"
    },
    {
      "inputs": [
        {
          "internalType": "bytes32",
          "name": "role",
          "type": "bytes32"
        }
      ],
      "name": "getRoleMemberCount",
      "outputs": [
        {
          "internalType": "uint256",
          "name": "",
          "type": "uint256"
        }
      ],
      "stateMutability": "view",
      "type": "function"
    },
    {
      "inputs": [
        {
          "internalType": "bytes32",
          "name": "role",
          "type": "bytes32"
        },
        {
          "internalType": "address",
          "name": "account",
          "type": "address"
        }
      ],
      "name": "grantRole",
      "outputs": [],
      "stateMutability": "nonpayable",
      "type": "function"
    },
    {
      "inputs": [
        {
          "internalType": "bytes32",
          "name": "role",
          "type": "bytes32"
        },
        {
          "internalType": "address",
          "name": "account",
          "type": "address"
        }
      ],
      "name": "hasRole",
      "outputs": [
        {
          "internalType": "bool",
          "name": "",
          "type": "bool"
        }
      ],
      "stateMutability": "view",
      "type": "function"
    },
    {
      "inputs": [
        {
          "internalType": "address",
          "name": "owner",
          "type": "address"
        },
        {
          "internalType": "address",
          "name": "operator",
          "type": "address"
        }
      ],
      "name": "isApprovedForAll",
      "outputs": [
        {
          "internalType": "bool",
          "name": "",
          "type": "bool"
        }
      ],
      "stateMutability": "view",
      "type": "function"
    },
    {
      "inputs": [
        {
          "internalType": "uint256",
          "name": "",
          "type": "uint256"
        }
      ],
      "name": "lastTransferTimestamp",
      "outputs": [
        {
          "internalType": "uint256",
          "name": "",
          "type": "uint256"
        }
      ],
      "stateMutability": "view",
      "type": "function"
    },
    {
      "inputs": [],
      "name": "lowStarBurnPowerPerPoint",
      "outputs": [
        {
          "internalType": "uint256",
          "name": "",
          "type": "uint256"
        }
      ],
      "stateMutability": "view",
      "type": "function"
    },
    {
      "inputs": [],
      "name": "maxDurability",
      "outputs": [
        {
          "internalType": "uint256",
          "name": "",
          "type": "uint256"
        }
      ],
      "stateMutability": "view",
      "type": "function"
    },
    {
      "inputs": [],
      "name": "name",
      "outputs": [
        {
          "internalType": "string",
          "name": "",
          "type": "string"
        }
      ],
      "stateMutability": "view",
      "type": "function"
    },
    {
      "inputs": [
        {
          "internalType": "uint256",
          "name": "",
          "type": "uint256"
        }
      ],
      "name": "numberParameters",
      "outputs": [
        {
          "internalType": "uint256",
          "name": "",
          "type": "uint256"
        }
      ],
      "stateMutability": "view",
      "type": "function"
    },
    {
      "inputs": [],
      "name": "oneFrac",
      "outputs": [
        {
          "internalType": "int128",
          "name": "",
          "type": "int128"
        }
      ],
      "stateMutability": "view",
      "type": "function"
    },
    {
      "inputs": [
        {
          "internalType": "uint256",
          "name": "tokenId",
          "type": "uint256"
        }
      ],
      "name": "ownerOf",
      "outputs": [
        {
          "internalType": "address",
          "name": "",
          "type": "address"
        }
      ],
      "stateMutability": "view",
      "type": "function"
    },
    {
      "inputs": [],
      "name": "powerMultPerPointBasic",
      "outputs": [
        {
          "internalType": "int128",
          "name": "",
          "type": "int128"
        }
      ],
      "stateMutability": "view",
      "type": "function"
    },
    {
      "inputs": [],
      "name": "powerMultPerPointMatching",
      "outputs": [
        {
          "internalType": "int128",
          "name": "",
          "type": "int128"
        }
      ],
      "stateMutability": "view",
      "type": "function"
    },
    {
      "inputs": [],
      "name": "powerMultPerPointPWR",
      "outputs": [
        {
          "internalType": "int128",
          "name": "",
          "type": "int128"
        }
      ],
      "stateMutability": "view",
      "type": "function"
    },
    {
      "inputs": [],
      "name": "promos",
      "outputs": [
        {
          "internalType": "contract Promos",
          "name": "",
          "type": "address"
        }
      ],
      "stateMutability": "view",
      "type": "function"
    },
    {
      "inputs": [
        {
          "internalType": "bytes32",
          "name": "role",
          "type": "bytes32"
        },
        {
          "internalType": "address",
          "name": "account",
          "type": "address"
        }
      ],
      "name": "renounceRole",
      "outputs": [],
      "stateMutability": "nonpayable",
      "type": "function"
    },
    {
      "inputs": [
        {
          "internalType": "bytes32",
          "name": "role",
          "type": "bytes32"
        },
        {
          "internalType": "address",
          "name": "account",
          "type": "address"
        }
      ],
      "name": "revokeRole",
      "outputs": [],
      "stateMutability": "nonpayable",
      "type": "function"
    },
    {
      "inputs": [
        {
          "internalType": "address",
          "name": "from",
          "type": "address"
        },
        {
          "internalType": "address",
          "name": "to",
          "type": "address"
        },
        {
          "internalType": "uint256",
          "name": "tokenId",
          "type": "uint256"
        }
      ],
      "name": "safeTransferFrom",
      "outputs": [],
      "stateMutability": "nonpayable",
      "type": "function"
    },
    {
      "inputs": [
        {
          "internalType": "address",
          "name": "from",
          "type": "address"
        },
        {
          "internalType": "address",
          "name": "to",
          "type": "address"
        },
        {
          "internalType": "uint256",
          "name": "tokenId",
          "type": "uint256"
        },
        {
          "internalType": "bytes",
          "name": "_data",
          "type": "bytes"
        }
      ],
      "name": "safeTransferFrom",
      "outputs": [],
      "stateMutability": "nonpayable",
      "type": "function"
    },
    {
      "inputs": [],
      "name": "secondsPerDurability",
      "outputs": [
        {
          "internalType": "uint256",
          "name": "",
          "type": "uint256"
        }
      ],
      "stateMutability": "view",
      "type": "function"
    },
    {
      "inputs": [
        {
          "internalType": "address",
          "name": "operator",
          "type": "address"
        },
        {
          "internalType": "bool",
          "name": "approved",
          "type": "bool"
        }
      ],
      "name": "setApprovalForAll",
      "outputs": [],
      "stateMutability": "nonpayable",
      "type": "function"
    },
    {
      "inputs": [
        {
          "internalType": "bytes4",
          "name": "interfaceId",
          "type": "bytes4"
        }
      ],
      "name": "supportsInterface",
      "outputs": [
        {
          "internalType": "bool",
          "name": "",
          "type": "bool"
        }
      ],
      "stateMutability": "view",
      "type": "function"
    },
    {
      "inputs": [],
      "name": "symbol",
      "outputs": [
        {
          "internalType": "string",
          "name": "",
          "type": "string"
        }
      ],
      "stateMutability": "view",
      "type": "function"
    },
    {
      "inputs": [
        {
          "internalType": "uint256",
          "name": "index",
          "type": "uint256"
        }
      ],
      "name": "tokenByIndex",
      "outputs": [
        {
          "internalType": "uint256",
          "name": "",
          "type": "uint256"
        }
      ],
      "stateMutability": "view",
      "type": "function"
    },
    {
      "inputs": [
        {
          "internalType": "address",
          "name": "owner",
          "type": "address"
        },
        {
          "internalType": "uint256",
          "name": "index",
          "type": "uint256"
        }
      ],
      "name": "tokenOfOwnerByIndex",
      "outputs": [
        {
          "internalType": "uint256",
          "name": "",
          "type": "uint256"
        }
      ],
      "stateMutability": "view",
      "type": "function"
    },
    {
      "inputs": [
        {
          "internalType": "uint256",
          "name": "tokenId",
          "type": "uint256"
        }
      ],
      "name": "tokenURI",
      "outputs": [
        {
          "internalType": "string",
          "name": "",
          "type": "string"
        }
      ],
      "stateMutability": "view",
      "type": "function"
    },
    {
      "inputs": [],
      "name": "totalSupply",
      "outputs": [
        {
          "internalType": "uint256",
          "name": "",
          "type": "uint256"
        }
      ],
      "stateMutability": "view",
      "type": "function"
    },
    {
      "inputs": [
        {
          "internalType": "address",
          "name": "from",
          "type": "address"
        },
        {
          "internalType": "address",
          "name": "to",
          "type": "address"
        },
        {
          "internalType": "uint256",
          "name": "tokenId",
          "type": "uint256"
        }
      ],
      "name": "transferFrom",
      "outputs": [],
      "stateMutability": "nonpayable",
      "type": "function"
    },
    {
      "inputs": [],
      "name": "initialize",
      "outputs": [],
      "stateMutability": "nonpayable",
      "type": "function"
    },
    {
      "inputs": [],
      "name": "migrateTo_e55d8c5",
      "outputs": [],
      "stateMutability": "nonpayable",
      "type": "function"
    },
    {
      "inputs": [],
      "name": "migrateTo_aa9da90",
      "outputs": [],
      "stateMutability": "nonpayable",
      "type": "function"
    },
    {
      "inputs": [],
      "name": "migrateTo_951a020",
      "outputs": [],
      "stateMutability": "nonpayable",
      "type": "function"
    },
    {
      "inputs": [
        {
          "internalType": "contract Promos",
          "name": "_promos",
          "type": "address"
        }
      ],
      "name": "migrateTo_surprise",
      "outputs": [],
      "stateMutability": "nonpayable",
      "type": "function"
    },
    {
      "inputs": [
        {
          "internalType": "uint256",
          "name": "id",
          "type": "uint256"
        }
      ],
      "name": "get",
      "outputs": [
        {
          "internalType": "uint16",
          "name": "_properties",
          "type": "uint16"
        },
        {
          "internalType": "uint16",
          "name": "_stat1",
          "type": "uint16"
        },
        {
          "internalType": "uint16",
          "name": "_stat2",
          "type": "uint16"
        },
        {
          "internalType": "uint16",
          "name": "_stat3",
          "type": "uint16"
        },
        {
          "internalType": "uint8",
          "name": "_level",
          "type": "uint8"
        },
        {
          "internalType": "uint8",
          "name": "_blade",
          "type": "uint8"
        },
        {
          "internalType": "uint8",
          "name": "_crossguard",
          "type": "uint8"
        },
        {
          "internalType": "uint8",
          "name": "_grip",
          "type": "uint8"
        },
        {
          "internalType": "uint8",
          "name": "_pommel",
          "type": "uint8"
        },
        {
          "internalType": "uint24",
          "name": "_burnPoints",
          "type": "uint24"
        },
        {
          "internalType": "uint24",
          "name": "_bonusPower",
          "type": "uint24"
        }
      ],
      "stateMutability": "view",
      "type": "function"
    },
    {
      "inputs": [
        {
          "internalType": "address",
          "name": "minter",
          "type": "address"
        },
        {
          "internalType": "uint256",
          "name": "seed",
          "type": "uint256"
        },
        {
          "internalType": "uint8",
          "name": "chosenElement",
          "type": "uint8"
        }
      ],
      "name": "mint",
      "outputs": [
        {
          "internalType": "uint256",
          "name": "",
          "type": "uint256"
        }
      ],
      "stateMutability": "nonpayable",
      "type": "function"
    },
    {
      "inputs": [
        {
          "internalType": "address",
          "name": "minter",
          "type": "address"
        },
        {
          "internalType": "uint256",
          "name": "stars",
          "type": "uint256"
        },
        {
          "internalType": "uint256",
          "name": "seed",
          "type": "uint256"
        },
        {
          "internalType": "uint8",
          "name": "chosenElement",
          "type": "uint8"
        }
      ],
      "name": "mintWeaponWithStars",
      "outputs": [
        {
          "internalType": "uint256",
          "name": "",
          "type": "uint256"
        }
      ],
      "stateMutability": "nonpayable",
      "type": "function"
    },
    {
      "inputs": [
        {
          "internalType": "address",
          "name": "minter",
          "type": "address"
        },
        {
          "internalType": "uint16",
          "name": "properties",
          "type": "uint16"
        },
        {
          "internalType": "uint16",
          "name": "stat1",
          "type": "uint16"
        },
        {
          "internalType": "uint16",
          "name": "stat2",
          "type": "uint16"
        },
        {
          "internalType": "uint16",
          "name": "stat3",
          "type": "uint16"
        },
        {
          "internalType": "uint256",
          "name": "cosmeticSeed",
          "type": "uint256"
        }
      ],
      "name": "performMintWeapon",
      "outputs": [
        {
          "internalType": "uint256",
          "name": "",
          "type": "uint256"
        }
      ],
      "stateMutability": "nonpayable",
      "type": "function"
    },
    {
      "inputs": [
        {
          "internalType": "uint256",
          "name": "stars",
          "type": "uint256"
        },
        {
          "internalType": "uint256",
          "name": "seed",
          "type": "uint256"
        },
        {
          "internalType": "uint8",
          "name": "chosenElement",
          "type": "uint8"
        }
      ],
      "name": "getRandomProperties",
      "outputs": [
        {
          "internalType": "uint16",
          "name": "",
          "type": "uint16"
        }
      ],
      "stateMutability": "pure",
      "type": "function"
    },
    {
      "inputs": [
        {
          "internalType": "uint16",
          "name": "minRoll",
          "type": "uint16"
        },
        {
          "internalType": "uint16",
          "name": "maxRoll",
          "type": "uint16"
        },
        {
          "internalType": "uint256",
          "name": "seed",
          "type": "uint256"
        },
        {
          "internalType": "uint256",
          "name": "seed2",
          "type": "uint256"
        }
      ],
      "name": "getRandomStat",
      "outputs": [
        {
          "internalType": "uint16",
          "name": "",
          "type": "uint16"
        }
      ],
      "stateMutability": "pure",
      "type": "function"
    },
    {
      "inputs": [
        {
          "internalType": "uint256",
          "name": "seed",
          "type": "uint256"
        },
        {
          "internalType": "uint256",
          "name": "seed2",
          "type": "uint256"
        },
        {
          "internalType": "uint8",
          "name": "limit",
          "type": "uint8"
        }
      ],
      "name": "getRandomCosmetic",
      "outputs": [
        {
          "internalType": "uint8",
          "name": "",
          "type": "uint8"
        }
      ],
      "stateMutability": "pure",
      "type": "function"
    },
    {
      "inputs": [
        {
          "internalType": "uint256",
          "name": "stars",
          "type": "uint256"
        }
      ],
      "name": "getStatMinRoll",
      "outputs": [
        {
          "internalType": "uint16",
          "name": "",
          "type": "uint16"
        }
      ],
      "stateMutability": "pure",
      "type": "function"
    },
    {
      "inputs": [
        {
          "internalType": "uint256",
          "name": "stars",
          "type": "uint256"
        }
      ],
      "name": "getStatMaxRoll",
      "outputs": [
        {
          "internalType": "uint16",
          "name": "",
          "type": "uint16"
        }
      ],
      "stateMutability": "pure",
      "type": "function"
    },
    {
      "inputs": [
        {
          "internalType": "uint256",
          "name": "stars",
          "type": "uint256"
        }
      ],
      "name": "getStatCount",
      "outputs": [
        {
          "internalType": "uint8",
          "name": "",
          "type": "uint8"
        }
      ],
      "stateMutability": "pure",
      "type": "function"
    },
    {
      "inputs": [
        {
          "internalType": "uint256",
          "name": "id",
          "type": "uint256"
        }
      ],
      "name": "getProperties",
      "outputs": [
        {
          "internalType": "uint16",
          "name": "",
          "type": "uint16"
        }
      ],
      "stateMutability": "view",
      "type": "function"
    },
    {
      "inputs": [
        {
          "internalType": "uint256",
          "name": "id",
          "type": "uint256"
        }
      ],
      "name": "getStars",
      "outputs": [
        {
          "internalType": "uint8",
          "name": "",
          "type": "uint8"
        }
      ],
      "stateMutability": "view",
      "type": "function"
    },
    {
      "inputs": [
        {
          "internalType": "uint16",
          "name": "properties",
          "type": "uint16"
        }
      ],
      "name": "getStarsFromProperties",
      "outputs": [
        {
          "internalType": "uint8",
          "name": "",
          "type": "uint8"
        }
      ],
      "stateMutability": "pure",
      "type": "function"
    },
    {
      "inputs": [
        {
          "internalType": "uint256",
          "name": "id",
          "type": "uint256"
        }
      ],
      "name": "getTrait",
      "outputs": [
        {
          "internalType": "uint8",
          "name": "",
          "type": "uint8"
        }
      ],
      "stateMutability": "view",
      "type": "function"
    },
    {
      "inputs": [
        {
          "internalType": "uint16",
          "name": "properties",
          "type": "uint16"
        }
      ],
      "name": "getTraitFromProperties",
      "outputs": [
        {
          "internalType": "uint8",
          "name": "",
          "type": "uint8"
        }
      ],
      "stateMutability": "pure",
      "type": "function"
    },
    {
      "inputs": [
        {
          "internalType": "uint256",
          "name": "id",
          "type": "uint256"
        }
      ],
      "name": "getStatPattern",
      "outputs": [
        {
          "internalType": "uint8",
          "name": "",
          "type": "uint8"
        }
      ],
      "stateMutability": "view",
      "type": "function"
    },
    {
      "inputs": [
        {
          "internalType": "uint16",
          "name": "properties",
          "type": "uint16"
        }
      ],
      "name": "getStatPatternFromProperties",
      "outputs": [
        {
          "internalType": "uint8",
          "name": "",
          "type": "uint8"
        }
      ],
      "stateMutability": "pure",
      "type": "function"
    },
    {
      "inputs": [
        {
          "internalType": "uint8",
          "name": "statPattern",
          "type": "uint8"
        }
      ],
      "name": "getStat1Trait",
      "outputs": [
        {
          "internalType": "uint8",
          "name": "",
          "type": "uint8"
        }
      ],
      "stateMutability": "pure",
      "type": "function"
    },
    {
      "inputs": [
        {
          "internalType": "uint8",
          "name": "statPattern",
          "type": "uint8"
        }
      ],
      "name": "getStat2Trait",
      "outputs": [
        {
          "internalType": "uint8",
          "name": "",
          "type": "uint8"
        }
      ],
      "stateMutability": "pure",
      "type": "function"
    },
    {
      "inputs": [
        {
          "internalType": "uint8",
          "name": "statPattern",
          "type": "uint8"
        }
      ],
      "name": "getStat3Trait",
      "outputs": [
        {
          "internalType": "uint8",
          "name": "",
          "type": "uint8"
        }
      ],
      "stateMutability": "pure",
      "type": "function"
    },
    {
      "inputs": [
        {
          "internalType": "uint256",
          "name": "id",
          "type": "uint256"
        }
      ],
      "name": "getLevel",
      "outputs": [
        {
          "internalType": "uint8",
          "name": "",
          "type": "uint8"
        }
      ],
      "stateMutability": "view",
      "type": "function"
    },
    {
      "inputs": [
        {
          "internalType": "uint256",
          "name": "id",
          "type": "uint256"
        }
      ],
      "name": "getStat1",
      "outputs": [
        {
          "internalType": "uint16",
          "name": "",
          "type": "uint16"
        }
      ],
      "stateMutability": "view",
      "type": "function"
    },
    {
      "inputs": [
        {
          "internalType": "uint256",
          "name": "id",
          "type": "uint256"
        }
      ],
      "name": "getStat2",
      "outputs": [
        {
          "internalType": "uint16",
          "name": "",
          "type": "uint16"
        }
      ],
      "stateMutability": "view",
      "type": "function"
    },
    {
      "inputs": [
        {
          "internalType": "uint256",
          "name": "id",
          "type": "uint256"
        }
      ],
      "name": "getStat3",
      "outputs": [
        {
          "internalType": "uint16",
          "name": "",
          "type": "uint16"
        }
      ],
      "stateMutability": "view",
      "type": "function"
    },
    {
      "inputs": [
        {
          "internalType": "uint256",
          "name": "id",
          "type": "uint256"
        }
      ],
      "name": "getPowerMultiplier",
      "outputs": [
        {
          "internalType": "int128",
          "name": "",
          "type": "int128"
        }
      ],
      "stateMutability": "view",
      "type": "function"
    },
    {
      "inputs": [
        {
          "internalType": "uint16",
          "name": "properties",
          "type": "uint16"
        },
        {
          "internalType": "uint16",
          "name": "stat1",
          "type": "uint16"
        },
        {
          "internalType": "uint16",
          "name": "stat2",
          "type": "uint16"
        },
        {
          "internalType": "uint16",
          "name": "stat3",
          "type": "uint16"
        },
        {
          "internalType": "uint8",
          "name": "trait",
          "type": "uint8"
        }
      ],
      "name": "getPowerMultiplierForTrait",
      "outputs": [
        {
          "internalType": "int128",
          "name": "",
          "type": "int128"
        }
      ],
      "stateMutability": "view",
      "type": "function"
    },
    {
      "inputs": [
        {
          "internalType": "address",
          "name": "playerAddress",
          "type": "address"
        }
      ],
      "name": "getDustSupplies",
      "outputs": [
        {
          "internalType": "uint32[]",
          "name": "",
          "type": "uint32[]"
        }
      ],
      "stateMutability": "view",
      "type": "function"
    },
    {
      "inputs": [
        {
          "internalType": "address",
          "name": "playerAddress",
          "type": "address"
        },
        {
          "internalType": "uint32",
          "name": "amountLB",
          "type": "uint32"
        },
        {
          "internalType": "uint32",
          "name": "amount4B",
          "type": "uint32"
        },
        {
          "internalType": "uint32",
          "name": "amount5B",
          "type": "uint32"
        }
      ],
      "name": "incrementDustSupplies",
      "outputs": [],
      "stateMutability": "nonpayable",
      "type": "function"
    },
    {
      "inputs": [
        {
          "internalType": "uint256",
          "name": "burnID",
          "type": "uint256"
        }
      ],
      "name": "_calculateBurnValues",
      "outputs": [
        {
          "internalType": "uint8[]",
          "name": "",
          "type": "uint8[]"
        }
      ],
      "stateMutability": "view",
      "type": "function"
    },
    {
      "inputs": [
        {
          "internalType": "uint256",
          "name": "burnID",
          "type": "uint256"
        }
      ],
      "name": "burn",
      "outputs": [],
      "stateMutability": "nonpayable",
      "type": "function"
    },
    {
      "inputs": [
        {
          "internalType": "uint256",
          "name": "reforgeID",
          "type": "uint256"
        },
        {
          "internalType": "uint256",
          "name": "burnID",
          "type": "uint256"
        }
      ],
      "name": "reforge",
      "outputs": [],
      "stateMutability": "nonpayable",
      "type": "function"
    },
    {
      "inputs": [
        {
          "internalType": "uint256",
          "name": "reforgeID",
          "type": "uint256"
        },
        {
          "internalType": "uint8",
          "name": "amountLB",
          "type": "uint8"
        },
        {
          "internalType": "uint8",
          "name": "amount4B",
          "type": "uint8"
        },
        {
          "internalType": "uint8",
          "name": "amount5B",
          "type": "uint8"
        }
      ],
      "name": "reforgeWithDust",
      "outputs": [],
      "stateMutability": "nonpayable",
      "type": "function"
    },
    {
      "inputs": [
        {
          "internalType": "uint256",
          "name": "id",
          "type": "uint256"
        }
      ],
      "name": "getBonusPower",
      "outputs": [
        {
          "internalType": "uint24",
          "name": "",
          "type": "uint24"
        }
      ],
      "stateMutability": "view",
      "type": "function"
    },
    {
      "inputs": [
        {
          "internalType": "uint256",
          "name": "id",
          "type": "uint256"
        },
        {
          "internalType": "uint8",
          "name": "level",
          "type": "uint8"
        }
      ],
      "name": "getBonusPowerForFight",
      "outputs": [
        {
          "internalType": "uint24",
          "name": "",
          "type": "uint24"
        }
      ],
      "stateMutability": "view",
      "type": "function"
    },
    {
      "inputs": [
        {
          "internalType": "uint256",
          "name": "id",
          "type": "uint256"
        },
        {
          "internalType": "uint8",
          "name": "charTrait",
          "type": "uint8"
        }
      ],
      "name": "getFightData",
      "outputs": [
        {
          "internalType": "int128",
          "name": "",
          "type": "int128"
        },
        {
          "internalType": "int128",
          "name": "",
          "type": "int128"
        },
        {
          "internalType": "uint24",
          "name": "",
          "type": "uint24"
        },
        {
          "internalType": "uint8",
          "name": "",
          "type": "uint8"
        }
      ],
      "stateMutability": "view",
      "type": "function"
    },
    {
      "inputs": [
        {
          "internalType": "uint256",
          "name": "id",
          "type": "uint256"
        },
        {
          "internalType": "uint8",
          "name": "charTrait",
          "type": "uint8"
        },
        {
          "internalType": "uint8",
          "name": "drainAmount",
          "type": "uint8"
        },
        {
          "internalType": "bool",
          "name": "allowNegativeDurability",
          "type": "bool"
        }
      ],
      "name": "getFightDataAndDrainDurability",
      "outputs": [
        {
          "internalType": "int128",
          "name": "",
          "type": "int128"
        },
        {
          "internalType": "int128",
          "name": "",
          "type": "int128"
        },
        {
          "internalType": "uint24",
          "name": "",
          "type": "uint24"
        },
        {
          "internalType": "uint8",
          "name": "",
          "type": "uint8"
        }
      ],
      "stateMutability": "nonpayable",
      "type": "function"
    },
    {
      "inputs": [
        {
          "internalType": "uint256",
          "name": "id",
          "type": "uint256"
        },
        {
          "internalType": "uint8",
          "name": "amount",
          "type": "uint8"
        },
        {
          "internalType": "bool",
          "name": "allowNegativeDurability",
          "type": "bool"
        }
      ],
      "name": "drainDurability",
      "outputs": [],
      "stateMutability": "nonpayable",
      "type": "function"
    },
    {
      "inputs": [
        {
          "internalType": "uint256",
          "name": "multiplier",
          "type": "uint256"
        }
      ],
      "name": "setBurnPointMultiplier",
      "outputs": [],
      "stateMutability": "nonpayable",
      "type": "function"
    },
    {
      "inputs": [
        {
          "internalType": "uint256",
          "name": "powerPerBurnPoint",
          "type": "uint256"
        }
      ],
      "name": "setLowStarBurnPowerPerPoint",
      "outputs": [],
      "stateMutability": "nonpayable",
      "type": "function"
    },
    {
      "inputs": [
        {
          "internalType": "uint256",
          "name": "powerPerBurnPoint",
          "type": "uint256"
        }
      ],
      "name": "setFourStarBurnPowerPerPoint",
      "outputs": [],
      "stateMutability": "nonpayable",
      "type": "function"
    },
    {
      "inputs": [
        {
          "internalType": "uint256",
          "name": "powerPerBurnPoint",
          "type": "uint256"
        }
      ],
      "name": "setFiveStarBurnPowerPerPoint",
      "outputs": [],
      "stateMutability": "nonpayable",
      "type": "function"
    },
    {
      "inputs": [
        {
          "internalType": "uint256",
          "name": "id",
          "type": "uint256"
        }
      ],
      "name": "getDurabilityTimestamp",
      "outputs": [
        {
          "internalType": "uint64",
          "name": "",
          "type": "uint64"
        }
      ],
      "stateMutability": "view",
      "type": "function"
    },
    {
      "inputs": [
        {
          "internalType": "uint256",
          "name": "id",
          "type": "uint256"
        },
        {
          "internalType": "uint64",
          "name": "timestamp",
          "type": "uint64"
        }
      ],
      "name": "setDurabilityTimestamp",
      "outputs": [],
      "stateMutability": "nonpayable",
      "type": "function"
    },
    {
      "inputs": [
        {
          "internalType": "uint256",
          "name": "id",
          "type": "uint256"
        }
      ],
      "name": "getDurabilityPoints",
      "outputs": [
        {
          "internalType": "uint8",
          "name": "",
          "type": "uint8"
        }
      ],
      "stateMutability": "view",
      "type": "function"
    },
    {
      "inputs": [
        {
          "internalType": "uint64",
          "name": "timestamp",
          "type": "uint64"
        }
      ],
      "name": "getDurabilityPointsFromTimestamp",
      "outputs": [
        {
          "internalType": "uint8",
          "name": "",
          "type": "uint8"
        }
      ],
      "stateMutability": "view",
      "type": "function"
    },
    {
      "inputs": [
        {
          "internalType": "uint256",
          "name": "id",
          "type": "uint256"
        }
      ],
      "name": "isDurabilityFull",
      "outputs": [
        {
          "internalType": "bool",
          "name": "",
          "type": "bool"
        }
      ],
      "stateMutability": "view",
      "type": "function"
    },
    {
      "inputs": [],
      "name": "getDurabilityMaxWait",
      "outputs": [
        {
          "internalType": "uint64",
          "name": "",
          "type": "uint64"
        }
      ],
      "stateMutability": "pure",
      "type": "function"
    },
    {
      "inputs": [
        {
          "internalType": "uint256",
          "name": "bit",
          "type": "uint256"
        },
        {
          "internalType": "bool",
          "name": "enabled",
          "type": "bool"
        }
      ],
      "name": "setFeatureEnabled",
      "outputs": [],
      "stateMutability": "nonpayable",
      "type": "function"
    },
    {
      "inputs": [
        {
          "internalType": "address",
          "name": "user",
          "type": "address"
        },
        {
          "internalType": "uint256",
          "name": "id",
          "type": "uint256"
        }
      ],
      "name": "canRaid",
      "outputs": [
        {
          "internalType": "bool",
          "name": "",
          "type": "bool"
        }
      ],
      "stateMutability": "view",
      "type": "function"
    }
  ],
  "bytecode": "0x608060405234801561001057600080fd5b50615dfe80620000216000396000f3fe608060405234801561001057600080fd5b50600436106105305760003560e01c80636c0360eb116102af578063adf04f2011610172578063d547741f116100d9578063e8d5fe4411610092578063e8d5fe4414611258578063e985e9c5146112a8578063ecd4738b146112d6578063f8e678a714611302578063fa9b6e871461130a578063fa9e83981461132757610530565b8063d547741f14611185578063d58227c8146111b1578063d7af7ad2146111d7578063d9514cb3146111fd578063dfd371291461121a578063e06efad81461123b57610530565b8063c47efcf61161012b578063c47efcf6146110b8578063c6a51088146110c0578063c87b56dd146110e0578063ca15c873146110fd578063cd6928961461111a578063ce20b6421461114057610530565b8063adf04f2014610f21578063ae5d498e14610f3e578063b79cf83e14610f73578063b88d4fde14610f98578063c366620b1461105c578063c394f9db1461108057610530565b80639507d39a11610216578063a1570c8e116101cf578063a1570c8e14610e98578063a217fddf14610ea0578063a22cb46514610ea8578063a3b5ccb114610ed6578063aa66377714610efc578063acb586df14610f0457610530565b80639507d39a14610d7757806395d06a0f14610e0357806395d89b4114610e245780639abcafef14610e2c5780639b565c0914610e4f5780639d7c828b14610e7b57610530565b80638129fc1c116102685780638129fc1c14610cde57806386481d4014610ce65780638c7f724214610d035780638d1d1de414610d0b5780639010d07c14610d2857806391d1485414610d4b57610530565b80636c0360eb14610bef57806370a0823114610bf75780637294510014610c1d578063752fde9e14610c255780637a39589314610c2d5780637d1a789414610c7157610530565b8063316a7ba5116103f75780634f6ccce71161035e57806358181425116103175780635818142514610b01578063586064f314610b1e57806360c58b7414610b265780636112e8ac14610b955780636352211e14610bca5780636a4d521d14610be757610530565b80634f6ccce714610a8f5780634fbff6a214610aac57806351e717ac14610acc57806352bc59ea14610ad45780635504d3d214610af157806358024a8314610af957610530565b80633e68b604116103b05780633e68b604146109d85780633f5e618014610a0f57806342842e0e14610a1757806342966c6814610a4d5780634b14027714610a6a5780634c0647f614610a8757610530565b8063316a7ba51461094b57806333ee5a5314610968578063350b79951461097057806336568abe146109785780633666c3b3146109a457806337dc95c1146109ac57610530565b806323b872dd1161049b5780632c3048a2116104545780632c3048a2146108525780632c3fc6191461086f5780632f2ff15d1461089b5780632f745c59146108c7578063308bdc6f146108f35780633137ee291461091057610530565b806323b872dd1461078b578063248a9ca3146107c157806324f7bb1b146107de57806327cd91de146107fb5780632a716b3c146108185780632a9f22f21461083557610530565b80630a583a93116104ed5780630a583a93146106925780630a724cff146106c957806316f1daf6146106e957806317dd6df41461070f57806318160ddd1461073d5780631b8ca2171461075757610530565b806301ffc9a714610535578063064187781461057057806306fdde031461057a578063081812fc146105f7578063083659eb14610630578063095ea7b314610666575b600080fd5b61055c6004803603602081101561054b57600080fd5b50356001600160e01b031916611344565b604080519115158252519081900360200190f35b610578611367565b005b61058261149f565b6040805160208082528351818301528351919283929083019185019080838360005b838110156105bc5781810151838201526020016105a4565b50505050905090810190601f1680156105e95780820380516001836020036101000a031916815260200191505b509250505060405180910390f35b6106146004803603602081101561060d57600080fd5b5035611536565b604080516001600160a01b039092168252519081900360200190f35b61064d6004803603602081101561064657600080fd5b5035611598565b60408051600f92830b90920b8252519081900360200190f35b6105786004803603604081101561067c57600080fd5b506001600160a01b0381351690602001356116b3565b6106b3600480360360208110156106a857600080fd5b503561ffff1661178e565b6040805160ff9092168252519081900360200190f35b6106b3600480360360208110156106df57600080fd5b503560ff16611794565b6106b3600480360360208110156106ff57600080fd5b50356001600160401b03166117b4565b6105786004803603606081101561072557600080fd5b5080359060ff602082013516906040013515156117f2565b6107456119ad565b60408051918252519081900360200190f35b6107746004803603602081101561076d57600080fd5b50356119be565b6040805161ffff9092168252519081900360200190f35b610578600480360360608110156107a157600080fd5b506001600160a01b038135811691602081013590911690604001356119ee565b610745600480360360208110156107d757600080fd5b5035611a45565b6106b3600480360360208110156107f457600080fd5b5035611a5a565b6107746004803603602081101561081157600080fd5b5035611a7e565b6105786004803603602081101561082e57600080fd5b5035611ab5565b6106b36004803603602081101561084b57600080fd5b5035611ac2565b6107746004803603602081101561086857600080fd5b5035611add565b6105786004803603604081101561088557600080fd5b50803590602001356001600160401b0316611b13565b610578600480360360408110156108b157600080fd5b50803590602001356001600160a01b0316611b4a565b610745600480360360408110156108dd57600080fd5b506001600160a01b038135169060200135611bb6565b6105786004803603602081101561090957600080fd5b5035611bde565b6107456004803603608081101561092657600080fd5b5080356001600160a01b0316906020810135906040810135906060013560ff16611beb565b6107746004803603602081101561096157600080fd5b5035611c79565b61064d611cc5565b610745611cd5565b6105786004803603604081101561098e57600080fd5b50803590602001356001600160a01b0316611cdb565b610745611d3c565b61055c600480360360408110156109c257600080fd5b506001600160a01b038135169060200135611d60565b610774600480360360808110156109ee57600080fd5b5061ffff813581169160208101359091169060408101359060600135611d9c565b610578611dc3565b61057860048036036060811015610a2d57600080fd5b506001600160a01b03813581169160208101359091169060400135611e21565b61057860048036036020811015610a6357600080fd5b5035611e3c565b61057860048036036020811015610a8057600080fd5b5035611fca565b610745611fd7565b61074560048036036020811015610aa557600080fd5b5035611fdd565b6106b360048036036020811015610ac257600080fd5b503560ff16611ff9565b61061461200b565b6106b360048036036020811015610aea57600080fd5b503561201a565b61074561203b565b61074561205d565b61074560048036036020811015610b1757600080fd5b5035612062565b61064d612074565b610b5e60048036036080811015610b3c57600080fd5b5080359060ff602082013581169160408101359091169060600135151561207d565b60408051600f95860b860b815293850b90940b602084015262ffffff9091168284015260ff16606082015290519081900360800190f35b61074560048036036060811015610bab57600080fd5b5080356001600160a01b0316906020810135906040013560ff16612173565b61061460048036036020811015610be057600080fd5b50356121e6565b610745612214565b61058261222f565b61074560048036036020811015610c0d57600080fd5b50356001600160a01b0316612290565b6107456122f8565b6105786122fe565b61057860048036036080811015610c4357600080fd5b506001600160a01b038135169063ffffffff6020820135811691604081013582169160609091013516612358565b610c8e60048036036020811015610c8757600080fd5b5035612372565b60408051602080825283518183015283519192839290830191858101910280838360005b83811015610cca578181015183820152602001610cb2565b505050509050019250505060405180910390f35b6105786124f9565b6106b360048036036020811015610cfc57600080fd5b50356125fe565b610745612634565b61057860048036036020811015610d2157600080fd5b503561263a565b61061460048036036040811015610d3e57600080fd5b5080359060200135612647565b61055c60048036036040811015610d6157600080fd5b50803590602001356001600160a01b0316612665565b610d9460048036036020811015610d8d57600080fd5b5035612683565b6040805161ffff9c8d1681529a8c1660208c0152988b168a8a015296909916606089015260ff948516608089015292841660a088015290831660c0870152821660e08601521661010084015262ffffff9384166101208401529092166101408201529051908190036101600190f35b6106b360048036036020811015610e1957600080fd5b503561ffff166126cd565b6105826126d6565b61057860048036036040811015610e4257600080fd5b5080359060200135612737565b61077460048036036060811015610e6557600080fd5b508035906020810135906040013560ff166128b5565b61074560048036036020811015610e9157600080fd5b5035612918565b61074561292a565b610745612930565b61057860048036036040811015610ebe57600080fd5b506001600160a01b0381351690602001351515612935565b610c8e60048036036020811015610eec57600080fd5b50356001600160a01b0316612a3a565b61064d612afe565b6106b360048036036020811015610f1a57600080fd5b5035612b07565b6106b360048036036020811015610f3757600080fd5b5035612b24565b610f5b60048036036020811015610f5457600080fd5b5035612b41565b6040805162ffffff9092168252519081900360200190f35b61057860048036036040811015610f8957600080fd5b50803590602001351515612b83565b61057860048036036080811015610fae57600080fd5b6001600160a01b03823581169260208101359091169160408201359190810190608081016060820135600160201b811115610fe857600080fd5b820183602082011115610ffa57600080fd5b803590602001918460018302840111600160201b8311171561101b57600080fd5b91908080601f016020809104026020016040519081016040528093929190818152602001838380828437600092019190915250929550612bff945050505050565b611064612c57565b604080516001600160401b039092168252519081900360200190f35b6105786004803603608081101561109657600080fd5b5080359060ff6020820135811691604081013582169160609091013516612c5d565b61064d612dda565b6106b3600480360360208110156110d657600080fd5b503560ff16612dea565b610582600480360360208110156110f657600080fd5b5035612df7565b6107456004803603602081101561111357600080fd5b503561307a565b610f5b6004803603604081101561113057600080fd5b508035906020013560ff16613091565b61064d600480360360a081101561115657600080fd5b50803561ffff90811691602081013582169160408201358116916060810135909116906080013560ff1661311c565b6105786004803603604081101561119b57600080fd5b50803590602001356001600160a01b0316613306565b610b5e600480360360408110156111c757600080fd5b508035906020013560ff1661335f565b610578600480360360208110156111ed57600080fd5b50356001600160a01b031661342a565b6110646004803603602081101561121357600080fd5b5035613494565b6106b36004803603602081101561123057600080fd5b503561ffff166134af565b6107746004803603602081101561125157600080fd5b50356134b8565b610745600480360360c081101561126e57600080fd5b506001600160a01b038135169061ffff60208201358116916040810135821691606082013581169160808101359091169060a001356134ef565b61055c600480360360408110156112be57600080fd5b506001600160a01b038135811691602001351661370e565b6106b3600480360360608110156112ec57600080fd5b508035906020810135906040013560ff1661373c565b610745613751565b61055c6004803603602081101561132057600080fd5b5035613756565b6107746004803603602081101561133d57600080fd5b503561376e565b6001600160e01b0319811660009081526033602052604090205460ff165b919050565b611372600033612665565b6113af576040805162461bcd60e51b81526020600482015260096024820152682737ba1030b236b4b760b91b604482015290519081900360640190fd5b6113b96001613799565b60d08054600f9290920b6001600160801b03166001600160801b03199092169190911790556113eb60016101906137b7565b60d060106101000a8154816001600160801b030219169083600f0b6001600160801b03160217905550611440611423606760646137b7565b60d054600160801b9004600f90810b900b9063ffffffff6137ee16565b60d18054600f9290920b6001600160801b03166001600160801b0319909216919091179055611474611423606b60646137b7565b60d160106101000a8154816001600160801b030219169083600f0b6001600160801b03160217905550565b606a8054604080516020601f600260001961010060018816150201909516949094049384018190048102820181019092528281526060939092909183018282801561152b5780601f106115005761010080835404028352916020019161152b565b820191906000526020600020905b81548152906001019060200180831161150e57829003601f168201915b505050505090505b90565b600061154182613825565b61157c5760405162461bcd60e51b815260040180806020018281038252602c815260200180615c9d602c913960400191505060405180910390fd5b506000908152606860205260409020546001600160a01b031690565b6000816115a481613838565b6115ac61593b565b60c984815481106115b957fe5b600091825260208083206040805160a081018252939091015461ffff8082168552620100008204811693850193909352600160201b8104831691840191909152600160301b81049091166060830152600160401b900460ff166080820152915061162660016101906137b7565b9050600061164e8261163f856020015161ffff16613799565b600f0b9063ffffffff6137ee16565b905060006116678361163f866040015161ffff16613799565b905060006116808461163f876060015161ffff16613799565b90506116a78161169884611698876116986001613799565b600f0b9063ffffffff61389116565b98975050505050505050565b60006116be826121e6565b9050806001600160a01b0316836001600160a01b031614156117115760405162461bcd60e51b8152600401808060200182810382526021815260200180615d216021913960400191505060405180910390fd5b806001600160a01b03166117236138c4565b6001600160a01b0316148061174457506117448161173f6138c4565b61370e565b61177f5760405162461bcd60e51b8152600401808060200182810382526038815260200180615ba16038913960400191505060405180910390fd5b61178983836138c8565b505050565b60071690565b600060056117a68360ff166019613936565b816117ad57fe5b0692915050565b600042826001600160401b031611156117cf57506000611362565b610bb86001600160401b03831642030460148111156117ec575060145b92915050565b6117fa61399d565b600083815260d5602052604081205461181b906001600160401b03166117b4565b90508260ff168160ff1610158061182f5750815b80156118cd575060d7546001600160a01b031663434d82a3611850866121e6565b60046040518363ffffffff1660e01b815260040180836001600160a01b03166001600160a01b031681526020018281526020019250505060206040518083038186803b15801561189f57600080fd5b505afa1580156118b3573d6000803e3d6000fd5b505050506040513d60208110156118c957600080fd5b5051155b611917576040805162461bcd60e51b81526020600482015260166024820152754e6f7420656e6f756768206475726162696c6974792160501b604482015290519081900360640190fd5b60ff808416610bb8029060149083161061197757806001600160401b031661193d612c57565b600087815260d560205260409020805467ffffffffffffffff19166001600160401b039283164203939093019091169190911790556119a6565b600085815260d56020526040902080546001600160401b0380821684011667ffffffffffffffff199091161790555b5050505050565b60006119b96066613a08565b905090565b6000816119ca81613838565b60c983815481106119d757fe5b60009182526020909120015461ffff169392505050565b6119ff6119f96138c4565b82613a13565b611a3a5760405162461bcd60e51b8152600401808060200182810382526031815260200180615d426031913960400191505060405180910390fd5b611789838383613aaf565b60009081526097602052604090206002015490565b600081611a6681613838565b611a77611a72846119be565b6134af565b9392505050565b600081611a8a81613838565b60c98381548110611a9757fe5b600091825260209091200154600160301b900461ffff169392505050565b611abd61399d565b60cc55565b60006003821015611ad557506001611362565b506000190190565b600081611ae981613838565b60c98381548110611af657fe5b60009182526020909120015462010000900461ffff169392505050565b611b1b61399d565b600091825260d56020526040909120805467ffffffffffffffff19166001600160401b03909216919091179055565b600082815260976020526040902060020154611b6d90611b686138c4565b612665565b611ba85760405162461bcd60e51b815260040180806020018281038252602f815260200180615ac0602f913960400191505060405180910390fd5b611bb28282613c0d565b5050565b6001600160a01b0382166000908152606560205260408120611a77908363ffffffff613c7c16565b611be661399d565b60ce55565b6000611bf561399d565b60088410611c345760405162461bcd60e51b8152600401808060200182810382526021815260200180615a7d6021913960400191505060405180910390fd5b6000806000611c438787613c88565b925092509250611c6b88611c588989896128b5565b858585611c668c6003613d10565b6134ef565b93505050505b949350505050565b600081611c8857506004611362565b8160011415611c99575060b4611362565b8160021415611cab5750610118611362565b8160031415611cbc575060c8611362565b5061010c919050565b60d054600160801b9004600f0b81565b60ce5481565b611ce36138c4565b6001600160a01b0316816001600160a01b031614611d325760405162461bcd60e51b815260040180806020018281038252602f815260200180615d9a602f913960400191505060405180910390fd5b611bb28282613d3c565b604080516b464541545552455f4249545360a01b8152905190819003600c01902081565b6000826001600160a01b0316611d75836121e6565b6001600160a01b0316148015611a7757506000611d918361201a565b60ff16119392505050565b6000611dba8561ffff168561ffff16611db58686613d10565b613dab565b95945050505050565b611dce600033612665565b611e0b576040805162461bcd60e51b81526020600482015260096024820152682737ba1030b236b4b760b91b604482015290519081900360640190fd5b600260cc55600f60cd55601e60ce55603c60cf55565b61178983838360405180602001604052806000815250612bff565b611e4461399d565b6060611e4f82612372565b90506000611e5c836121e6565b9050611eaf8183600081518110611e6f57fe5b602002602001015160ff1684600181518110611e8757fe5b602002602001015160ff1685600281518110611e9f57fe5b602002602001015160ff16613e0b565b611eb883613f71565b60d7546040805163434d82a360e01b81526001600160a01b0384811660048381019190915260248301529151919092169163434d82a3916044808301926020929190829003018186803b158015611f0e57600080fd5b505afa158015611f22573d6000803e3d6000fd5b505050506040513d6020811015611f3857600080fd5b5051611f8f57611f8f8183600081518110611f4f57fe5b602002602001015160ff1684600181518110611f6757fe5b602002602001015160ff1685600281518110611f7f57fe5b602002602001015160ff1661404a565b60405183906001600160a01b038316907f696de425f79f4a40bc6d2122ca50507f0efbeabbff86a84871b7196ab8ea8df790600090a3505050565b611fd261399d565b60cd55565b60cf5481565b600080611ff160668463ffffffff61413516565b509392505050565b600060056117a68360ff166005613936565b60d7546001600160a01b031681565b600081815260d560205260408120546117ec906001600160401b03166117b4565b604080516923a0a6a2afa0a226a4a760b11b8152905190819003600a01902081565b600181565b60d86020526000908152604090205481565b60d154600f0b81565b60008060008061208b61399d565b8761209581613838565b6120a08988886117f2565b600060c98a815481106120af57fe5b6000918252602090912001805490915061210b906120f5906114239062010000810461ffff908116600160201b8304821601600160301b90920481169190910116613799565b60d054600f90810b900b9063ffffffff61389116565b81546121399061ffff80821691620100008104821691600160201b8204811691600160301b9004168e61311c565b8254612150908d90600160401b900460ff16613091565b835461215f9061ffff166126cd565b929d919c509a509098509650505050505050565b600061217d61399d565b600060648406600181101561219557600491506121d0565b60068110156121a757600391506121d0565b60158110156121b957600291506121d0565b60388110156121cb57600191506121d0565b600091505b6121dc86838787611beb565b9695505050505050565b60006117ec82604051806060016040528060298152602001615c03602991396066919063ffffffff61415116565b604051806027615d7382396027019050604051809103902081565b606d8054604080516020601f600260001961010060018816150201909516949094049384018190048102820181019092528281526060939092909183018282801561152b5780601f106115005761010080835404028352916020019161152b565b60006001600160a01b0382166122d75760405162461bcd60e51b815260040180806020018281038252602a815260200180615bd9602a913960400191505060405180910390fd5b6001600160a01b03821660009081526065602052604090206117ec90613a08565b60cc5481565b612309600033612665565b612346576040805162461bcd60e51b81526020600482015260096024820152682737ba1030b236b4b760b91b604482015290519081900360640190fd5b61235663398b9a5d60e21b61415e565b565b61236061399d565b61236c8484848461404a565b50505050565b6040805160038082526080820190925260609182919060208201838036833701905050600084815260cb6020526040902080549192509060029060ff9081166001011604826000815181106123c357fe5b60ff9283166020918202929092010152815460029161010090910481166001011604826001815181106123f257fe5b60ff9283166020918202929092010152815460029162010000909104811660010116048260028151811061242257fe5b602002602001019060ff16908160ff1681525050600060c9858154811061244557fe5b6000918252602082200180549092506124619061ffff1661178e565b905060038160ff1610156124a1578060010160ff1660cc54028460008151811061248757fe5b6020908102919091010180519190910160ff1690526124ef565b8060ff16600314156124bd5760cc548460018151811061248757fe5b8060ff16600414156124ef5760cc54846002815181106124d957fe5b6020908102919091010180519190910160ff1690525b5091949350505050565b600054610100900460ff168061251257506125126141e2565b80612520575060005460ff16155b61255b5760405162461bcd60e51b815260040180806020018281038252602e815260200180615c2c602e913960400191505060405180910390fd5b600054610100900460ff16158015612586576000805460ff1961ff0019909116610100171660011790555b6125d66040518060400160405280601381526020017221b93cb83a37a13630b232b9903bb2b0b837b760691b8152506040518060400160405280600381526020016243425760e81b8152506141f3565b6125de6142b0565b6125e9600033611ba8565b80156125fb576000805461ff00191690555b50565b60008161260a81613838565b60c9838154811061261757fe5b600091825260209091200154600160401b900460ff169392505050565b610bb881565b61264261399d565b60cf55565b6000828152609760205260408120611a77908363ffffffff613c7c16565b6000828152609760205260408120611a77908363ffffffff61435016565b60008060008060008060008060008060008b61269e81613838565b6126a78d614365565b9b509b509b509b509b509b509b509b509b509b509b505091939597999b90929496989a50565b600390811c1690565b606b8054604080516020601f600260001961010060018816150201909516949094049384018190048102820181019092528281526060939092909183018282801561152b5780601f106115005761010080835404028352916020019161152b565b61273f61399d565b606061274a82612372565b60d7549091506001600160a01b031663434d82a3612767856121e6565b60046040518363ffffffff1660e01b815260040180836001600160a01b03166001600160a01b031681526020018281526020019250505060206040518083038186803b1580156127b657600080fd5b505afa1580156127ca573d6000803e3d6000fd5b505050506040513d60208110156127e057600080fd5b505161282e5761282e83826000815181106127f757fe5b60200260200101518360018151811061280c57fe5b60200260200101518460028151811061282157fe5b6020026020010151614421565b61283782613f71565b600083815260cb602052604090208284612850816121e6565b83546040805160ff80841682526101008404811660208301526201000090930490921682820152516001600160a01b0392909216917fd1b1d9a936fc3409b20503a5fd66b94b1c2a8b4986d01def5b9ef60272896e3c9181900360600190a450505050565b6000808260ff16606414156128e45760036128d860006003611db5886001613d10565b600316901b90506128ee565b506018600383901b165b60056129026000607c611db5886002613d10565b607f16901b818660071617179150509392505050565b60d26020526000908152604090205481565b60cd5481565b600081565b61293d6138c4565b6001600160a01b0316826001600160a01b031614156129a3576040805162461bcd60e51b815260206004820152601960248201527f4552433732313a20617070726f766520746f2063616c6c657200000000000000604482015290519081900360640190fd5b80606960006129b06138c4565b6001600160a01b03908116825260208083019390935260409182016000908120918716808252919093529120805460ff1916921515929092179091556129f46138c4565b60408051841515815290516001600160a01b0392909216917f17307eab39ab6107e8899845ad3d59bd9653f200f220920489ca2b5937696c319181900360200190a35050565b6001600160a01b038116600090815260d66020526040908190205481516003808252608082019093526060928391908160200160208202803683370190505090508181600081518110612a8957fe5b602002602001019063ffffffff16908163ffffffff1681525050602082901c81600181518110612ab557fe5b602002602001019063ffffffff16908163ffffffff1681525050604082901c81600281518110612ae157fe5b63ffffffff90921660209283029190910190910152915050919050565b60d054600f0b81565b600081612b1381613838565b611a77612b1f846119be565b6126cd565b600081612b3081613838565b611a77612b3c846119be565b61178e565b600081612b4d81613838565b600060c98481548110612b5c57fe5b906000526020600020019050611c71848260000160089054906101000a900460ff16613091565b612b8b61399d565b8015612bc857604080516b464541545552455f4249545360a01b8152815190819003600c019020600090815260d860205220805483179055611bb2565b604080516b464541545552455f4249545360a01b8152815190819003600c019020600090815260d860205220805483191690555050565b612c10612c0a6138c4565b83613a13565b612c4b5760405162461bcd60e51b8152600401808060200182810382526031815260200180615d426031913960400191505060405180910390fd5b61236c8484848461460a565b61ea6090565b612c6561399d565b612c82612c71856121e6565b8460ff168460ff168460ff1661465c565b60d7546001600160a01b031663434d82a3612c9c866121e6565b60046040518363ffffffff1660e01b815260040180836001600160a01b03166001600160a01b031681526020018281526020019250505060206040518083038186803b158015612ceb57600080fd5b505afa158015612cff573d6000803e3d6000fd5b505050506040513d6020811015612d1557600080fd5b5051612d2757612d2784848484614421565b612d44612d33856121e6565b8460ff168460ff168460ff166147b0565b600084815260cb6020526040902084612d5c816121e6565b82546040805160ff808a16825280891660208301528088168284015280841660608301526101008404811660808301526201000090930490921660a0830152516001600160a01b0392909216917fd07aff3873e60e4df29e5f960d1422759a3ef9f5aa27eec562431cddcd9bba019181900360c00190a35050505050565b60d154600160801b9004600f0b81565b6000600560ff83166117ad565b6060612e0282613825565b612e3d5760405162461bcd60e51b815260040180806020018281038252602f815260200180615cf2602f913960400191505060405180910390fd5b6000828152606c602090815260409182902080548351601f6002600019610100600186161502019093169290920491820184900484028101840190945280845260609392830182828015612ed25780601f10612ea757610100808354040283529160200191612ed2565b820191906000526020600020905b815481529060010190602001808311612eb557829003601f168201915b505050505090506060612ee361222f565b9050805160001415612ef757509050611362565b815115612fb85780826040516020018083805190602001908083835b60208310612f325780518252601f199092019160209182019101612f13565b51815160209384036101000a600019018019909216911617905285519190930192850191508083835b60208310612f7a5780518252601f199092019160209182019101612f5b565b6001836020036101000a0380198251168184511680821785525050505050509050019250505060405160208183030381529060405292505050611362565b80612fc285614858565b6040516020018083805190602001908083835b60208310612ff45780518252601f199092019160209182019101612fd5565b51815160209384036101000a600019018019909216911617905285519190930192850191508083835b6020831061303c5780518252601f19909201916020918201910161301d565b6001836020036101000a0380198251168184511680821785525050505050509050019250505060405160208183030381529060405292505050919050565b60008181526097602052604081206117ec90613a08565b60008261309d81613838565b600084815260cb60205260409020611dba6130c2600f60ff871663ffffffff61493216565b825460cf54613110916130de919062010000900460ff16614932565b845460ce54613110916130f99190610100900460ff16614932565b865460cd546131109160ff1663ffffffff61493216565b9063ffffffff61498b16565b600080613128876134af565b60d054909150600f0b60ff841661313e83612dea565b60ff1614156131815760d15461317a9061316990600160801b9004600f0b61163f61ffff8b16613799565b600f83900b9063ffffffff61389116565b90506131d5565b61318a82612dea565b60ff16600414156131b05760d15461317a9061316990600f0b61163f61ffff8b16613799565b60d0546131d29061316990600160801b9004600f0b61163f61ffff8b16613799565b90505b8360ff166131e283611ff9565b60ff1614156132145760d15461320d9061316990600160801b9004600f0b61163f61ffff8a16613799565b9050613268565b61321d82611ff9565b60ff16600414156132435760d15461320d9061316990600f0b61163f61ffff8a16613799565b60d0546132659061316990600160801b9004600f0b61163f61ffff8a16613799565b90505b8360ff1661327583611794565b60ff1614156132a75760d1546132a09061316990600160801b9004600f0b61163f61ffff8916613799565b90506132fb565b6132b082611794565b60ff16600414156132d65760d1546132a09061316990600f0b61163f61ffff8916613799565b60d0546132f89061316990600160801b9004600f0b61163f61ffff8916613799565b90505b979650505050505050565b60008281526097602052604090206002015461332490611b686138c4565b611d325760405162461bcd60e51b8152600401808060200182810382526030815260200180615b716030913960400191505060405180910390fd5b6000806000808561336f81613838565b600060c9888154811061337e57fe5b600091825260209091200180549091506133c4906120f5906114239062010000810461ffff908116600160201b8304821601600160301b90920481169190910116613799565b81546133f29061ffff80821691620100008104821691600160201b8204811691600160301b9004168c61311c565b8254613409908b90600160401b900460ff16613091565b83546134189061ffff166126cd565b929b919a509850909650945050505050565b613435600033612665565b613472576040805162461bcd60e51b81526020600482015260096024820152682737ba1030b236b4b760b91b604482015290519081900360640190fd5b60d780546001600160a01b0319166001600160a01b0392909216919091179055565b600090815260d560205260409020546001600160401b031690565b60051c607f1690565b6000816134c481613838565b60c983815481106134d157fe5b600091825260209091200154600160201b900461ffff169392505050565b60006134f961399d565b60c95460d354431461350b5760d48190555b4360d3556040805160a08101825261ffff898116825288811660208084019182528983168486019081528984166060860190815260006080870181815260c980546001808201835591845298517f66be4f155c5ef2ebd3772b228f2f00681e4ed5826cdb3b1943cc11ad15ad1d289099018054975195519451925161ffff199098169989169990991763ffff0000191662010000958916959095029490941765ffff000000001916600160201b938816939093029290921767ffff0000000000001916600160301b92909616919091029490941768ff00000000000000001916600160401b60ff94851602179094558451808601909552828552840187815260ca8054948501815590925292517f42d72674974f694b5f5159593243114d38a5c39c89d6b62fee061ff523240ee16002909302928301805460ff1916919094161790925590517f42d72674974f694b5f5159593243114d38a5c39c89d6b62fee061ff523240ee29091015561368088826149e5565b6136a161368b612c57565b42906001600160401b031663ffffffff614b1f16565b600082815260d56020526040808220805467ffffffffffffffff19166001600160401b03949094169390931790925590516001600160a01b038a169183917fa90298fff9b7c2ea259d17bcbd0821ef6fe7d48b4f8fd9380d54ae299ee730449190a3979650505050505050565b6001600160a01b03918216600090815260696020908152604080832093909416825291909152205460ff1690565b6000611c7160008360ff16611db58787613d10565b601481565b600060146137638361201a565b60ff16101592915050565b600060018211156137825750610190611362565b8115613791575061012c611362565b5060c8919050565b6000677fffffffffffffff8211156137b057600080fd5b5060401b90565b6000816137c357600080fd5b60006137cf8484614b7c565b905060016001607f1b036001600160801b0382161115611a7757600080fd5b6000600f83810b9083900b0260401d60016001607f1b0319811280159061381c575060016001607f1b038113155b611a7757600080fd5b60006117ec60668363ffffffff614cc516565b60d45481108061384957504360d354105b6125fb576040805162461bcd60e51b81526020600482015260146024820152730546f6f20667265736820666f72206c6f6f6b75760641b604482015290519081900360640190fd5b6000600f83810b9083900b0160016001607f1b0319811280159061381c575060016001607f1b03811315611a7757600080fd5b3390565b600081815260686020526040902080546001600160a01b0319166001600160a01b03841690811790915581906138fd826121e6565b6001600160a01b03167f8c5be1e5ebec7d5bd14f71427d1e84f3dd0314c0f7b2291e5b200ac8c7c3b92560405160405180910390a45050565b600080821161398c576040805162461bcd60e51b815260206004820152601a60248201527f536166654d6174683a206469766973696f6e206279207a65726f000000000000604482015290519081900360640190fd5b81838161399557fe5b049392505050565b604080516923a0a6a2afa0a226a4a760b11b8152905190819003600a0190206139c69033612665565b612356576040805162461bcd60e51b815260206004820152600e60248201526d2737ba1033b0b6b29030b236b4b760911b604482015290519081900360640190fd5b60006117ec82614cd1565b6000613a1e82613825565b613a595760405162461bcd60e51b815260040180806020018281038252602c815260200180615b45602c913960400191505060405180910390fd5b6000613a64836121e6565b9050806001600160a01b0316846001600160a01b03161480613a9f5750836001600160a01b0316613a9484611536565b6001600160a01b0316145b80611c715750611c71818561370e565b826001600160a01b0316613ac2826121e6565b6001600160a01b031614613b075760405162461bcd60e51b8152600401808060200182810382526029815260200180615cc96029913960400191505060405180910390fd5b6001600160a01b038216613b4c5760405162461bcd60e51b8152600401808060200182810382526024815260200180615b216024913960400191505060405180910390fd5b613b57838383614cd5565b613b626000826138c8565b6001600160a01b0383166000908152606560205260409020613b8a908263ffffffff614dfc16565b506001600160a01b0382166000908152606560205260409020613bb3908263ffffffff614e0816565b50613bc66066828463ffffffff614e1416565b5080826001600160a01b0316846001600160a01b03167fddf252ad1be2c89b69c2b068fc378daa952ba7f163c4a11628f55a4df523b3ef60405160405180910390a4505050565b6000828152609760205260409020613c2b908263ffffffff614e2a16565b15611bb257613c386138c4565b6001600160a01b0316816001600160a01b0316837f2f8788117e7eff1d82e926ec794901d17c78024a50270940304540a733656f0d60405160405180910390a45050565b6000611a778383614e3f565b600080600080613c9786611c79565b90506000613ca48761376e565b90506000613cb188611ac2565b90506000613cc284848a6005611d9c565b9050600080600160ff85161115613ce357613ce086868c6003611d9c565b91505b60028460ff161115613cff57613cfc86868c6004611d9c565b90505b919750955093505050509250925092565b604080516020808201949094528082019290925280518083038201815260609092019052805191012090565b6000828152609760205260409020613d5a908263ffffffff614ea316565b15611bb257613d676138c4565b6001600160a01b0316816001600160a01b0316837ff6391f5c32d9c69d2a47ea670b442974b53935d1edc7fd64eb21e047a839171b60405160405180910390a45050565b600080613dc36001613110868863ffffffff614b1f16565b6040805160208082018790528251808303820181529183019092528051910120909150600090613df9908363ffffffff614eb816565b90506121dc818763ffffffff61498b16565b6060613e1685612a3a565b905063ffffffff8463ffffffff1682600081518110613e3157fe5b602002602001015163ffffffff16011115613e8b576040805162461bcd60e51b8152602060048201526015602482015274111d5cdd081310881cdd5c1c1b1e4818d85c1c1959605a1b604482015290519081900360640190fd5b63ffffffff8363ffffffff1682600181518110613ea457fe5b602002602001015163ffffffff16011115613efe576040805162461bcd60e51b8152602060048201526015602482015274111d5cdd080d10881cdd5c1c1b1e4818d85c1c1959605a1b604482015290519081900360640190fd5b63ffffffff8263ffffffff1682600281518110613f1757fe5b602002602001015163ffffffff160111156119a6576040805162461bcd60e51b8152602060048201526015602482015274111d5cdd080d50881cdd5c1c1b1e4818d85c1c1959605a1b604482015290519081900360640190fd5b6000613f7c826121e6565b9050613f8a81600084614cd5565b613f956000836138c8565b6000828152606c60205260409020546002600019610100600184161502019091160415613fd3576000828152606c60205260408120613fd391615969565b6001600160a01b0381166000908152606560205260409020613ffb908363ffffffff614dfc16565b5061400d60668363ffffffff614f1f16565b5060405182906000906001600160a01b038416907fddf252ad1be2c89b69c2b068fc378daa952ba7f163c4a11628f55a4df523b3ef908390a45050565b61405684848484613e0b565b606061406185612a3a565b9050838160008151811061407157fe5b602002602001018181510191509063ffffffff16908163ffffffff1681525050828160018151811061409f57fe5b602002602001018181510191509063ffffffff16908163ffffffff168152505081816002815181106140cd57fe5b602002602001018181510191509063ffffffff16908163ffffffff16815250506119a685826000815181106140fe57fe5b60200260200101518360018151811061411357fe5b60200260200101518460028151811061412857fe5b6020026020010151614f2b565b60008080806141448686614f7c565b9097909650945050505050565b6000611c71848484614ff7565b6001600160e01b031980821614156141bd576040805162461bcd60e51b815260206004820152601c60248201527f4552433136353a20696e76616c696420696e7465726661636520696400000000604482015290519081900360640190fd5b6001600160e01b0319166000908152603360205260409020805460ff19166001179055565b60006141ed306150c1565b15905090565b600054610100900460ff168061420c575061420c6141e2565b8061421a575060005460ff16155b6142555760405162461bcd60e51b815260040180806020018281038252602e815260200180615c2c602e913960400191505060405180910390fd5b600054610100900460ff16158015614280576000805460ff1961ff0019909116610100171660011790555b6142886142b0565b6142906150c7565b61429a8383615164565b8015611789576000805461ff0019169055505050565b600054610100900460ff16806142c957506142c96141e2565b806142d7575060005460ff16155b6143125760405162461bcd60e51b815260040180806020018281038252602e815260200180615c2c602e913960400191505060405180910390fd5b600054610100900460ff161580156125e9576000805460ff1961ff00199091166101001716600117905580156125fb576000805461ff001916905550565b6000611a77836001600160a01b038416615249565b600080600080600080600080600080600061437f8c615261565b939e50919c509a50985096506143948c6152f3565b929850909650945092506143a66159ad565b5060008c815260cb60209081526040918290208251606081018452905460ff808216808452610100830480831695850195909552620100009092049081169483019490945260109390931b62ff00001660089290921b61ff001690921717925061440f8d612b41565b91505091939597999b90929496989a50565b600084815260cb6020526040902060ff841615614493578054606460ff90911610614493576040805162461bcd60e51b815260206004820152601f60248201527f4c6f772073746172206275726e20706f696e7473206172652063617070656400604482015290519081900360640190fd5b60ff8316156144fb578054601961010090910460ff16106144fb576040805162461bcd60e51b815260206004820181905260248201527f466f75722073746172206275726e20706f696e74732061726520636170706564604482015290519081900360640190fd5b60ff821615614564578054600a6201000090910460ff1610614564576040805162461bcd60e51b815260206004820181905260248201527f466976652073746172206275726e20706f696e74732061726520636170706564604482015290519081900360640190fd5b805462ff00001961ff001960ff19831660ff938416880184161790811661010091829004841687018416909102179081166201000091829004831685018316909102178083556064911611156145c057805460ff191660641781555b8054601961010090910460ff1611156145e157805461ff0019166119001781555b8054600a6201000090910460ff1611156119a657805462ff00001916620a000017905550505050565b614615848484613aaf565b6146218484848461538e565b61236c5760405162461bcd60e51b8152600401808060200182810382526032815260200180615aef6032913960400191505060405180910390fd5b606061466785612a3a565b90508363ffffffff168160008151811061467d57fe5b602002602001015163ffffffff1610156146d6576040805162461bcd60e51b8152602060048201526015602482015274111d5cdd081310881cdd5c1c1b1e481b9959591959605a1b604482015290519081900360640190fd5b8263ffffffff16816001815181106146ea57fe5b602002602001015163ffffffff161015614743576040805162461bcd60e51b8152602060048201526015602482015274111d5cdd080d10881cdd5c1c1b1e481b9959591959605a1b604482015290519081900360640190fd5b8163ffffffff168160028151811061475757fe5b602002602001015163ffffffff1610156119a6576040805162461bcd60e51b8152602060048201526015602482015274111d5cdd080d50881cdd5c1c1b1e481b9959591959605a1b604482015290519081900360640190fd5b60606147bb85612a3a565b905083816000815181106147cb57fe5b602002602001018181510391509063ffffffff16908163ffffffff168152505082816001815181106147f957fe5b602002602001018181510391509063ffffffff16908163ffffffff1681525050818160028151811061482757fe5b602002602001018181510391509063ffffffff16908163ffffffff16815250506119a685826000815181106140fe57fe5b60608161487d57506040805180820190915260018152600360fc1b6020820152611362565b8160005b811561489557600101600a82049150614881565b6060816001600160401b03811180156148ad57600080fd5b506040519080825280601f01601f1916602001820160405280156148d8576020820181803683370190505b50859350905060001982015b831561492957600a840660300160f81b8282806001900393508151811061490757fe5b60200101906001600160f81b031916908160001a905350600a840493506148e4565b50949350505050565b600082614941575060006117ec565b8282028284828161494e57fe5b0414611a775760405162461bcd60e51b8152600401808060200182810382526021815260200180615c7c6021913960400191505060405180910390fd5b600082820183811015611a77576040805162461bcd60e51b815260206004820152601b60248201527f536166654d6174683a206164646974696f6e206f766572666c6f770000000000604482015290519081900360640190fd5b6001600160a01b038216614a40576040805162461bcd60e51b815260206004820181905260248201527f4552433732313a206d696e7420746f20746865207a65726f2061646472657373604482015290519081900360640190fd5b614a4981613825565b15614a9b576040805162461bcd60e51b815260206004820152601c60248201527f4552433732313a20746f6b656e20616c7265616479206d696e74656400000000604482015290519081900360640190fd5b614aa760008383614cd5565b6001600160a01b0382166000908152606560205260409020614acf908263ffffffff614e0816565b50614ae26066828463ffffffff614e1416565b5060405181906001600160a01b038416906000907fddf252ad1be2c89b69c2b068fc378daa952ba7f163c4a11628f55a4df523b3ef908290a45050565b600082821115614b76576040805162461bcd60e51b815260206004820152601e60248201527f536166654d6174683a207375627472616374696f6e206f766572666c6f770000604482015290519081900360640190fd5b50900390565b600081614b8857600080fd5b60006001600160c01b038411614bad5782604085901b81614ba557fe5b049050614cb1565b60c084811c600160201b8110614bc5576020918201911c5b620100008110614bd7576010918201911c5b6101008110614be8576008918201911c5b60108110614bf8576004918201911c5b60048110614c08576002918201911c5b60028110614c17576001820191505b60bf820360018603901c6001018260ff0387901b81614c3257fe5b0492506001600160801b03831115614c4957600080fd5b608085901c83026001600160801b038616840260c088901c604089901b82811015614c75576001820391505b608084901b92900382811015614c8c576001820391505b829003608084901c8214614c9c57fe5b888181614ca557fe5b04870196505050505050505b6001600160801b03811115611a7757600080fd5b6000611a778383615249565b5490565b6001600160a01b03831615801590614cf557506001600160a01b03821615155b1561178957614d04600161550e565b15614d0e57600080fd5b60d7546040805163434d82a360e01b81526001600160a01b0386811660048381019190915260248301529151919092169163434d82a3916044808301926020929190829003018186803b158015614d6457600080fd5b505afa158015614d78573d6000803e3d6000fd5b505050506040513d6020811015614d8e57600080fd5b50511561178957614db76040518080615d73602791396027019050604051809103902083612665565b611789576040805162461bcd60e51b81526020600482015260116024820152702a3930b739b332b91031b7b7b63237bbb760791b604482015290519081900360640190fd5b6000611a778383615544565b6000611a77838361560a565b6000611c7184846001600160a01b038516615654565b6000611a77836001600160a01b03841661560a565b81546000908210614e815760405162461bcd60e51b8152600401808060200182810382526022815260200180615a9e6022913960400191505060405180910390fd5b826000018281548110614e9057fe5b9060005260206000200154905092915050565b6000611a77836001600160a01b038416615544565b6000808211614f0e576040805162461bcd60e51b815260206004820152601860248201527f536166654d6174683a206d6f64756c6f206279207a65726f0000000000000000604482015290519081900360640190fd5b818381614f1757fe5b069392505050565b6000611a7783836156eb565b6001600160a01b0393909316600090815260d6602090815260409182902063ffffffff9490941692901b67ffffffff000000001693901b6bffffffff00000000000000001692909201919091019055565b815460009081908310614fc05760405162461bcd60e51b8152600401808060200182810382526022815260200180615c5a6022913960400191505060405180910390fd5b6000846000018481548110614fd157fe5b906000526020600020906002020190508060000154816001015492509250509250929050565b600082815260018401602052604081205482816150925760405162461bcd60e51b81526004018080602001828103825283818151815260200191508051906020019080838360005b8381101561505757818101518382015260200161503f565b50505050905090810190601f1680156150845780820380516001836020036101000a031916815260200191505b509250505060405180910390fd5b508460000160018203815481106150a557fe5b9060005260206000209060020201600101549150509392505050565b3b151590565b600054610100900460ff16806150e057506150e06141e2565b806150ee575060005460ff16155b6151295760405162461bcd60e51b815260040180806020018281038252602e815260200180615c2c602e913960400191505060405180910390fd5b600054610100900460ff16158015615154576000805460ff1961ff0019909116610100171660011790555b6125e96301ffc9a760e01b61415e565b600054610100900460ff168061517d575061517d6141e2565b8061518b575060005460ff16155b6151c65760405162461bcd60e51b815260040180806020018281038252602e815260200180615c2c602e913960400191505060405180910390fd5b600054610100900460ff161580156151f1576000805460ff1961ff0019909116610100171660011790555b825161520490606a9060208601906159cd565b50815161521890606b9060208501906159cd565b506152296380ac58cd60e01b61415e565b615239635b5e139f60e01b61415e565b61429a63780e9d6360e01b61415e565b60009081526001919091016020526040902054151590565b600080600080600061527161593b565b60c9878154811061527e57fe5b60009182526020918290206040805160a081018252929091015461ffff8082168085526201000083048216958501869052600160201b83048216938501849052600160301b830490911660608501819052600160401b90920460ff1660809094018490529b939a509098509650945092505050565b600080600080615301615a4b565b60ca868154811061530e57fe5b600091825260209182902060408051808201909152600290920201805460ff16825260019081015492820183905290925061534b9190601861373c565b945061535e81602001516002601861373c565b935061537181602001516003601861373c565b925061538481602001516004601861373c565b9150509193509193565b60006153a2846001600160a01b03166150c1565b6153ae57506001611c71565b60606154d4630a85bd0160e11b6153c36138c4565b88878760405160240180856001600160a01b03166001600160a01b03168152602001846001600160a01b03166001600160a01b0316815260200183815260200180602001828103825283818151815260200191508051906020019080838360005b8381101561543c578181015183820152602001615424565b50505050905090810190601f1680156154695780820380516001836020036101000a031916815260200191505b5095505050505050604051602081830303815290604052906001600160e01b0319166020820180516001600160e01b038381831617835250505050604051806060016040528060328152602001615aef603291396001600160a01b038816919063ffffffff6157bf16565b905060008180602001905160208110156154ed57600080fd5b50516001600160e01b031916630a85bd0160e11b1492505050949350505050565b604080516b464541545552455f4249545360a01b8152815190819003600c019020600090815260d8602052205481168114919050565b60008181526001830160205260408120548015615600578354600019808301919081019060009087908390811061557757fe5b906000526020600020015490508087600001848154811061559457fe5b6000918252602080832090910192909255828152600189810190925260409020908401905586548790806155c457fe5b600190038181906000526020600020016000905590558660010160008781526020019081526020016000206000905560019450505050506117ec565b60009150506117ec565b60006156168383615249565b61564c575081546001818101845560008481526020808220909301849055845484825282860190935260409020919091556117ec565b5060006117ec565b6000828152600184016020526040812054806156b9575050604080518082018252838152602080820184815286546001818101895560008981528481209551600290930290950191825591519082015586548684528188019092529290912055611a77565b828560000160018303815481106156cc57fe5b9060005260206000209060020201600101819055506000915050611a77565b60008181526001830160205260408120548015615600578354600019808301919081019060009087908390811061571e57fe5b906000526020600020906002020190508087600001848154811061573e57fe5b60009182526020808320845460029093020191825560019384015491840191909155835482528983019052604090209084019055865487908061577d57fe5b60008281526020808220600260001990940193840201828155600190810183905592909355888152898201909252604082209190915594506117ec9350505050565b6060611c718484600085856157d3856150c1565b615824576040805162461bcd60e51b815260206004820152601d60248201527f416464726573733a2063616c6c20746f206e6f6e2d636f6e7472616374000000604482015290519081900360640190fd5b60006060866001600160a01b031685876040518082805190602001908083835b602083106158635780518252601f199092019160209182019101615844565b6001836020036101000a03801982511681845116808217855250505050505090500191505060006040518083038185875af1925050503d80600081146158c5576040519150601f19603f3d011682016040523d82523d6000602084013e6158ca565b606091505b50915091506132fb828286606083156158e4575081611a77565b8251156158f45782518084602001fd5b60405162461bcd60e51b815260206004820181815284516024840152845185939192839260440191908501908083836000831561505757818101518382015260200161503f565b6040805160a08101825260008082526020820181905291810182905260608101829052608081019190915290565b50805460018160011615610100020316600290046000825580601f1061598f57506125fb565b601f0160209004906000526020600020908101906125fb9190615a62565b604080516060810182526000808252602082018190529181019190915290565b828054600181600116156101000203166002900490600052602060002090601f016020900481019282601f10615a0e57805160ff1916838001178555615a3b565b82800160010185558215615a3b579182015b82811115615a3b578251825591602001919060010190615a20565b50615a47929150615a62565b5090565b604080518082019091526000808252602082015290565b61153391905b80821115615a475760008155600101615a6856fe537461727320706172616d6574657220746f6f20686967682120286d6178203729456e756d657261626c655365743a20696e646578206f7574206f6620626f756e6473416363657373436f6e74726f6c3a2073656e646572206d75737420626520616e2061646d696e20746f206772616e744552433732313a207472616e7366657220746f206e6f6e20455243373231526563656976657220696d706c656d656e7465724552433732313a207472616e7366657220746f20746865207a65726f20616464726573734552433732313a206f70657261746f7220717565727920666f72206e6f6e6578697374656e7420746f6b656e416363657373436f6e74726f6c3a2073656e646572206d75737420626520616e2061646d696e20746f207265766f6b654552433732313a20617070726f76652063616c6c6572206973206e6f74206f776e6572206e6f7220617070726f76656420666f7220616c6c4552433732313a2062616c616e636520717565727920666f7220746865207a65726f20616464726573734552433732313a206f776e657220717565727920666f72206e6f6e6578697374656e7420746f6b656e496e697469616c697a61626c653a20636f6e747261637420697320616c726561647920696e697469616c697a6564456e756d657261626c654d61703a20696e646578206f7574206f6620626f756e6473536166654d6174683a206d756c7469706c69636174696f6e206f766572666c6f774552433732313a20617070726f76656420717565727920666f72206e6f6e6578697374656e7420746f6b656e4552433732313a207472616e73666572206f6620746f6b656e2074686174206973206e6f74206f776e4552433732314d657461646174613a2055524920717565727920666f72206e6f6e6578697374656e7420746f6b656e4552433732313a20617070726f76616c20746f2063757272656e74206f776e65724552433732313a207472616e736665722063616c6c6572206973206e6f74206f776e6572206e6f7220617070726f766564524543454956455f444f45535f4e4f545f5345545f5452414e534645525f54494d455354414d50416363657373436f6e74726f6c3a2063616e206f6e6c792072656e6f756e636520726f6c657320666f722073656c66a26469706673582212207741f41682d2b1ca475035786c436a4bdda3f0b09848e26f50ff3263fc1805be64736f6c63430006050033",
  "immutableReferences": {},
  "source": "pragma solidity ^0.6.0;\n\nimport \"@openzeppelin/contracts-upgradeable/proxy/Initializable.sol\";\nimport \"@openzeppelin/contracts-upgradeable/token/ERC721/ERC721Upgradeable.sol\";\nimport \"@openzeppelin/contracts-upgradeable/access/AccessControlUpgradeable.sol\";\nimport \"@openzeppelin/contracts/math/SafeMath.sol\";\nimport \"abdk-libraries-solidity/ABDKMath64x64.sol\";\nimport \"./Promos.sol\";\nimport \"./util.sol\";\n\ncontract Weapons is Initializable, ERC721Upgradeable, AccessControlUpgradeable {\n\n    using ABDKMath64x64 for int128;\n    using ABDKMath64x64 for uint16;\n\n    bytes32 public constant GAME_ADMIN = keccak256(\"GAME_ADMIN\");\n    bytes32 public constant RECEIVE_DOES_NOT_SET_TRANSFER_TIMESTAMP = keccak256(\"RECEIVE_DOES_NOT_SET_TRANSFER_TIMESTAMP\");\n\n    function initialize () public initializer {\n        __ERC721_init(\"CryptoBlades weapon\", \"CBW\");\n        __AccessControl_init_unchained();\n\n        _setupRole(DEFAULT_ADMIN_ROLE, msg.sender);\n    }\n\n    function migrateTo_e55d8c5() public {\n        require(hasRole(DEFAULT_ADMIN_ROLE, msg.sender), \"Not admin\");\n\n        burnPointMultiplier = 2;\n        lowStarBurnPowerPerPoint = 15;\n        fourStarBurnPowerPerPoint = 30;\n        fiveStarBurnPowerPerPoint = 60;\n    }\n\n    function migrateTo_aa9da90() public {\n        require(hasRole(DEFAULT_ADMIN_ROLE, msg.sender), \"Not admin\");\n\n        oneFrac = ABDKMath64x64.fromUInt(1);\n        powerMultPerPointBasic =  ABDKMath64x64.divu(1, 400);// 0.25%\n        powerMultPerPointPWR = powerMultPerPointBasic.mul(ABDKMath64x64.divu(103, 100)); // 0.2575% (+3%)\n        powerMultPerPointMatching = powerMultPerPointBasic.mul(ABDKMath64x64.divu(107, 100)); // 0.2675% (+7%)\n    }\n\n    function migrateTo_951a020() public {\n        require(hasRole(DEFAULT_ADMIN_ROLE, msg.sender), \"Not admin\");\n\n        // Apparently ERC165 interfaces cannot be removed in this version of the OpenZeppelin library.\n        // But if we remove the registration, then while local deployments would not register the interface ID,\n        // existing deployments on both testnet and mainnet would still be registered to handle it.\n        // That sort of inconsistency is a good way to attract bugs that only happens on some environments.\n        // Hence, we keep registering the interface despite not actually implementing the interface.\n        _registerInterface(0xe62e6974); // TransferCooldownableInterfaceId.interfaceId()\n    }\n\n    function migrateTo_surprise(Promos _promos) public {\n        require(hasRole(DEFAULT_ADMIN_ROLE, msg.sender), \"Not admin\");\n\n        promos = _promos;\n    }\n\n    /*\n        visual numbers start at 0, increment values by 1\n        levels: 1-128\n        stars: 1-5 (1,2,3: primary only, 4: one secondary, 5: two secondaries)\n        traits: 0-3 [0(fire) > 1(earth) > 2(lightning) > 3(water) > repeat]\n        stats: STR(fire), DEX(earth), CHA(lightning), INT(water), PWR(traitless)\n        base stat rolls: 1*(1-50), 2*(45-75), 3*(70-100), 4*(50-100), 5*(66-100, main is 68-100)\n        burns: add level & main stat, and 50% chance to increase secondaries\n        power: each point contributes .25% to fight power\n        cosmetics: 0-255 but only 24 is used, may want to cap so future expansions dont change existing weps\n    */\n\n    struct Weapon {\n        uint16 properties; // right to left: 3b stars, 2b trait, 7b stat pattern, 4b EMPTY\n        // stats (each point refers to .25% improvement)\n        uint16 stat1;\n        uint16 stat2;\n        uint16 stat3;\n        uint8 level; // separate from stat1 because stat1 will have a pre-roll\n    }\n\n    struct WeaponBurnPoints {\n        uint8 lowStarBurnPoints;\n        uint8 fourStarBurnPoints;\n        uint8 fiveStarBurnPoints;\n    }\n\n    struct WeaponCosmetics {\n        uint8 version;\n        uint256 seed;\n    }\n\n    Weapon[] private tokens;\n    WeaponCosmetics[] private cosmetics;\n    mapping(uint256 => WeaponBurnPoints) burnPoints;\n\n    uint public burnPointMultiplier; // 2\n    uint public lowStarBurnPowerPerPoint; // 15\n    uint public fourStarBurnPowerPerPoint; // 30\n    uint public fiveStarBurnPowerPerPoint; // 60\n\n    int128 public oneFrac; // 1.0\n    int128 public powerMultPerPointBasic; // 0.25%\n    int128 public powerMultPerPointPWR; // 0.2575% (+3%)\n    int128 public powerMultPerPointMatching; // 0.2675% (+7%)\n\n    // UNUSED; KEPT FOR UPGRADEABILITY PROXY COMPATIBILITY\n    mapping(uint256 => uint256) public lastTransferTimestamp;\n\n    uint256 private lastMintedBlock;\n    uint256 private firstMintedOfLastBlock;\n\n    mapping(uint256 => uint64) durabilityTimestamp;\n\n    uint256 public constant maxDurability = 20;\n    uint256 public constant secondsPerDurability = 3000; //50 * 60\n\n    mapping(address => uint256) burnDust; // user address : burned item dust counts\n\n    Promos public promos;\n\n    uint256 public constant BIT_FEATURE_TRANSFER_BLOCKED = 1;\n    \n    uint256 public constant NUMBERPARAMETER_FEATURE_BITS = uint256(keccak256(\"FEATURE_BITS\"));\n\n    mapping(uint256 => uint256) public numberParameters;\n\n    event Burned(address indexed owner, uint256 indexed burned);\n    event NewWeapon(uint256 indexed weapon, address indexed minter);\n    event Reforged(address indexed owner, uint256 indexed reforged, uint256 indexed burned, uint8 lowPoints, uint8 fourPoints, uint8 fivePoints);\n    event ReforgedWithDust(address indexed owner, uint256 indexed reforged, uint8 lowDust, uint8 fourDust, uint8 fiveDust, uint8 lowPoints, uint8 fourPoints, uint8 fivePoints);\n\n    modifier restricted() {\n        _restricted();\n        _;\n    }\n\n    function _restricted() internal view {\n        require(hasRole(GAME_ADMIN, msg.sender), \"Not game admin\");\n    }\n\n    modifier noFreshLookup(uint256 id) {\n        _noFreshLookup(id);\n        _;\n    }\n\n    function _noFreshLookup(uint256 id) internal view {\n        require(id < firstMintedOfLastBlock || lastMintedBlock < block.number, \"Too fresh for lookup\");\n    }\n\n    function getStats(uint256 id) internal view\n        returns (uint16 _properties, uint16 _stat1, uint16 _stat2, uint16 _stat3, uint8 _level) {\n\n        Weapon memory w = tokens[id];\n        return (w.properties, w.stat1, w.stat2, w.stat3, w.level);\n    }\n\n    function getCosmetics(uint256 id) internal view\n        returns (uint8 _blade, uint8 _crossguard, uint8 _grip, uint8 _pommel) {\n\n        WeaponCosmetics memory wc = cosmetics[id];\n        _blade = getRandomCosmetic(wc.seed, 1, 24);\n        _crossguard = getRandomCosmetic(wc.seed, 2, 24);\n        _grip = getRandomCosmetic(wc.seed, 3, 24);\n        _pommel = getRandomCosmetic(wc.seed, 4, 24);\n    }\n\n    function get(uint256 id) public view noFreshLookup(id)\n        returns (\n            uint16 _properties, uint16 _stat1, uint16 _stat2, uint16 _stat3, uint8 _level,\n            uint8 _blade, uint8 _crossguard, uint8 _grip, uint8 _pommel,\n            uint24 _burnPoints, // burn points.. got stack limits so i put them together\n            uint24 _bonusPower // bonus power\n    ) {\n        return _get(id);\n    }\n\n    function _get(uint256 id) internal view\n        returns (\n            uint16 _properties, uint16 _stat1, uint16 _stat2, uint16 _stat3, uint8 _level,\n            uint8 _blade, uint8 _crossguard, uint8 _grip, uint8 _pommel,\n            uint24 _burnPoints, // burn points.. got stack limits so i put them together\n            uint24 _bonusPower // bonus power\n    ) {\n        (_properties, _stat1, _stat2, _stat3, _level) = getStats(id);\n        (_blade, _crossguard, _grip, _pommel) = getCosmetics(id);\n\n        WeaponBurnPoints memory wbp = burnPoints[id];\n        _burnPoints =\n            uint24(wbp.lowStarBurnPoints) |\n            (uint24(wbp.fourStarBurnPoints) << 8) |\n            (uint24(wbp.fiveStarBurnPoints) << 16);\n\n        _bonusPower = getBonusPower(id);\n    }\n\n    function mint(address minter, uint256 seed, uint8 chosenElement) public restricted returns(uint256) {\n        uint256 stars;\n        uint256 roll = seed % 100;\n        // will need revision, possibly manual configuration if we support more than 5 stars\n        if(roll < 1) {\n            stars = 4; // 5* at 1%\n        }\n        else if(roll < 6) { // 4* at 5%\n            stars = 3;\n        }\n        else if(roll < 21) { // 3* at 15%\n            stars = 2;\n        }\n        else if(roll < 56) { // 2* at 35%\n            stars = 1;\n        }\n        else {\n            stars = 0; // 1* at 44%\n        }\n\n        return mintWeaponWithStars(minter, stars, seed, chosenElement);\n    }\n\n    function mintWeaponWithStars(address minter, uint256 stars, uint256 seed, uint8 chosenElement) public restricted returns(uint256) {\n        require(stars < 8, \"Stars parameter too high! (max 7)\");\n        (uint16 stat1, uint16 stat2, uint16 stat3) = getStatRolls(stars, seed);\n\n        return performMintWeapon(minter,\n            getRandomProperties(stars, seed, chosenElement),\n            stat1,\n            stat2,\n            stat3,\n            RandomUtil.combineSeeds(seed,3)\n        );\n    }\n\n    function performMintWeapon(address minter,\n        uint16 properties,\n        uint16 stat1, uint16 stat2, uint16 stat3,\n        uint256 cosmeticSeed\n    ) public restricted returns(uint256) {\n\n        uint256 tokenID = tokens.length;\n\n        if(block.number != lastMintedBlock)\n            firstMintedOfLastBlock = tokenID;\n        lastMintedBlock = block.number;\n\n        tokens.push(Weapon(properties, stat1, stat2, stat3, 0));\n        cosmetics.push(WeaponCosmetics(0, cosmeticSeed));\n        _mint(minter, tokenID);\n        durabilityTimestamp[tokenID] = uint64(now.sub(getDurabilityMaxWait()));\n\n        emit NewWeapon(tokenID, minter);\n        return tokenID;\n    }\n\n    function getRandomProperties(uint256 stars, uint256 seed, uint8 chosenElement) public pure returns (uint16) {\n        uint256 trait;\n        if (chosenElement == 100) {\n            trait = ((RandomUtil.randomSeededMinMax(0,3,RandomUtil.combineSeeds(seed,1)) & 0x3) << 3);\n        } else {\n            trait = ((chosenElement & 0x3) << 3);\n        }\n        return uint16((stars & 0x7) // stars aren't randomized here!\n            | trait // trait\n            | ((RandomUtil.randomSeededMinMax(0,124,RandomUtil.combineSeeds(seed,2)) & 0x7F) << 5)); // statPattern\n    }\n\n    function getStatRolls(uint256 stars, uint256 seed) private pure returns (uint16, uint16, uint16) {\n        // each point refers to .25%\n        // so 1 * 4 is 1%\n        uint16 minRoll = getStatMinRoll(stars);\n        uint16 maxRoll = getStatMaxRoll(stars);\n        uint8 statCount = getStatCount(stars);\n\n        uint16 stat1 = getRandomStat(minRoll, maxRoll, seed, 5);\n        uint16 stat2 = 0;\n        uint16 stat3 = 0;\n        if(statCount > 1) {\n            stat2 = getRandomStat(minRoll, maxRoll, seed, 3);\n        }\n        if(statCount > 2) {\n            stat3 = getRandomStat(minRoll, maxRoll, seed, 4);\n        }\n        return (stat1, stat2, stat3);\n    }\n\n    function getRandomStat(uint16 minRoll, uint16 maxRoll, uint256 seed, uint256 seed2) public pure returns (uint16) {\n        return uint16(RandomUtil.randomSeededMinMax(minRoll, maxRoll,RandomUtil.combineSeeds(seed, seed2)));\n    }\n\n    function getRandomCosmetic(uint256 seed, uint256 seed2, uint8 limit) public pure returns (uint8) {\n        return uint8(RandomUtil.randomSeededMinMax(0, limit, RandomUtil.combineSeeds(seed, seed2)));\n    }\n\n    function getStatMinRoll(uint256 stars) public pure returns (uint16) {\n        // 1 star\n        if (stars == 0) return 4;\n        // 2 star\n        if (stars == 1) return 180;\n        // 3 star\n        if (stars == 2) return 280;\n        // 4 star\n        if (stars == 3) return 200;\n        // 5+ star\n        return 268;\n    }\n\n    function getStatMaxRoll(uint256 stars) public pure returns (uint16) {\n        // 3+ star\n        if (stars > 1) return 400;\n        // 2 star\n        if (stars > 0) return 300;\n        // 1 star\n        return 200;\n    }\n\n    function getStatCount(uint256 stars) public pure returns (uint8) {\n        // 1-2 star\n        if (stars < 3) return 1;\n        // 3+ star\n        return uint8(stars)-1;\n    }\n\n    function getProperties(uint256 id) public view noFreshLookup(id) returns (uint16) {\n        return tokens[id].properties;\n    }\n\n    function getStars(uint256 id) public view noFreshLookup(id) returns (uint8) {\n        return getStarsFromProperties(getProperties(id));\n    }\n\n    function getStarsFromProperties(uint16 properties) public pure returns (uint8) {\n        return uint8(properties & 0x7); // first two bits for stars\n    }\n\n    function getTrait(uint256 id) public view noFreshLookup(id) returns (uint8) {\n        return getTraitFromProperties(getProperties(id));\n    }\n\n    function getTraitFromProperties(uint16 properties) public pure returns (uint8) {\n        return uint8((properties >> 3) & 0x3); // two bits after star bits (3)\n    }\n\n    function getStatPattern(uint256 id) public view noFreshLookup(id) returns (uint8) {\n        return getStatPatternFromProperties(getProperties(id));\n    }\n\n    function getStatPatternFromProperties(uint16 properties) public pure returns (uint8) {\n        return uint8((properties >> 5) & 0x7F); // 7 bits after star(3) and trait(2) bits\n    }\n\n    function getStat1Trait(uint8 statPattern) public pure returns (uint8) {\n        return uint8(uint256(statPattern) % 5); // 0-3 regular traits, 4 = traitless (PWR)\n    }\n\n    function getStat2Trait(uint8 statPattern) public pure returns (uint8) {\n        return uint8(SafeMath.div(statPattern, 5) % 5); // 0-3 regular traits, 4 = traitless (PWR)\n    }\n\n    function getStat3Trait(uint8 statPattern) public pure returns (uint8) {\n        return uint8(SafeMath.div(statPattern, 25) % 5); // 0-3 regular traits, 4 = traitless (PWR)\n    }\n\n    function getLevel(uint256 id) public view noFreshLookup(id) returns (uint8) {\n        return tokens[id].level;\n    }\n\n    function getStat1(uint256 id) public view noFreshLookup(id) returns (uint16) {\n        return tokens[id].stat1;\n    }\n\n    function getStat2(uint256 id) public view noFreshLookup(id) returns (uint16) {\n        return tokens[id].stat2;\n    }\n\n    function getStat3(uint256 id) public view noFreshLookup(id) returns (uint16) {\n        return tokens[id].stat3;\n    }\n\n    function getPowerMultiplier(uint256 id) public view noFreshLookup(id) returns (int128) {\n        // returns a 64.64 fixed point number for power multiplier\n        // this function does not account for traits\n        // it is used to calculate base enemy powers for targeting\n        Weapon memory wep = tokens[id];\n        int128 powerPerPoint = ABDKMath64x64.divu(1, 400); // 0.25% or x0.0025\n        int128 stat1 = wep.stat1.fromUInt().mul(powerPerPoint);\n        int128 stat2 = wep.stat2.fromUInt().mul(powerPerPoint);\n        int128 stat3 = wep.stat3.fromUInt().mul(powerPerPoint);\n        return ABDKMath64x64.fromUInt(1).add(stat1).add(stat2).add(stat3);\n    }\n\n    function getPowerMultiplierForTrait(\n        uint16 properties,\n        uint16 stat1,\n        uint16 stat2,\n        uint16 stat3,\n        uint8 trait\n    ) public view returns(int128) {\n        // Does not include character trait to weapon trait match\n        // Only counts arbitrary trait to weapon stat trait\n        // This function can be used by frontend to get expected % bonus for each type\n        // Making it easy to see on the market how useful it will be to you\n        uint8 statPattern = getStatPatternFromProperties(properties);\n        int128 result = oneFrac;\n\n        if(getStat1Trait(statPattern) == trait)\n            result = result.add(stat1.fromUInt().mul(powerMultPerPointMatching));\n        else if(getStat1Trait(statPattern) == 4) // PWR, traitless\n            result = result.add(stat1.fromUInt().mul(powerMultPerPointPWR));\n        else\n            result = result.add(stat1.fromUInt().mul(powerMultPerPointBasic));\n\n        if(getStat2Trait(statPattern) == trait)\n            result = result.add(stat2.fromUInt().mul(powerMultPerPointMatching));\n        else if(getStat2Trait(statPattern) == 4) // PWR, traitless\n            result = result.add(stat2.fromUInt().mul(powerMultPerPointPWR));\n        else\n            result = result.add(stat2.fromUInt().mul(powerMultPerPointBasic));\n\n        if(getStat3Trait(statPattern) == trait)\n            result = result.add(stat3.fromUInt().mul(powerMultPerPointMatching));\n        else if(getStat3Trait(statPattern) == 4) // PWR, traitless\n            result = result.add(stat3.fromUInt().mul(powerMultPerPointPWR));\n        else\n            result = result.add(stat3.fromUInt().mul(powerMultPerPointBasic));\n\n        return result;\n    }\n\n    function getDustSupplies(address playerAddress) public view returns (uint32[] memory) {\n        uint256 burnDustValue = burnDust[playerAddress];\n        uint32[] memory supplies = new uint32[](3);\n        supplies[0] = uint32(burnDustValue);\n        supplies[1] = uint32(burnDustValue >> 32);\n        supplies[2] = uint32(burnDustValue >> 64);\n        return supplies;\n    }\n\n    function _setDustSupplies(address playerAddress, uint32 amountLB, uint32 amount4B, uint32 amount5B) internal {\n        uint256 burnDustValue = (uint256(amount5B) << 64) + (uint256(amount4B) << 32) + amountLB;\n        burnDust[playerAddress] = burnDustValue;\n    }\n\n    function _decrementDustSuppliesCheck(address playerAddress, uint32 amountLB, uint32 amount4B, uint32 amount5B) internal {\n        uint32[] memory supplies = getDustSupplies(playerAddress);\n        require(supplies[0] >= amountLB, \"Dust LB supply needed\");\n        require(supplies[1] >= amount4B, \"Dust 4B supply needed\");\n        require(supplies[2] >= amount5B, \"Dust 5B supply needed\");\n    }\n\n    function _decrementDustSupplies(address playerAddress, uint32 amountLB, uint32 amount4B, uint32 amount5B) internal {\n        uint32[] memory supplies = getDustSupplies(playerAddress);\n        supplies[0] -= amountLB;\n        supplies[1] -= amount4B;\n        supplies[2] -= amount5B;\n        _setDustSupplies(playerAddress, supplies[0], supplies[1], supplies[2]);\n    }\n\n    function _incrementDustSuppliesCheck(address playerAddress, uint32 amountLB, uint32 amount4B, uint32 amount5B) internal {\n        uint32[] memory supplies = getDustSupplies(playerAddress);\n        require(uint256(supplies[0]) + amountLB <= 0xFFFFFFFF, \"Dust LB supply capped\");\n        require(uint256(supplies[1]) + amount4B <= 0xFFFFFFFF, \"Dust 4B supply capped\");\n        require(uint256(supplies[2]) + amount5B <= 0xFFFFFFFF, \"Dust 5B supply capped\");\n    }\n\n    function incrementDustSupplies(address playerAddress, uint32 amountLB, uint32 amount4B, uint32 amount5B) public restricted {\n        _incrementDustSupplies(playerAddress, amountLB, amount4B, amount5B);\n    }\n\n    function _incrementDustSupplies(address playerAddress, uint32 amountLB, uint32 amount4B, uint32 amount5B) internal {\n        _incrementDustSuppliesCheck(playerAddress, amountLB, amount4B, amount5B);\n        uint32[] memory supplies = getDustSupplies(playerAddress);\n        supplies[0] += amountLB;\n        supplies[1] += amount4B;\n        supplies[2] += amount5B;\n        _setDustSupplies(playerAddress, supplies[0], supplies[1], supplies[2]);\n    }\n\n    function _calculateBurnValues(uint256 burnID) public view returns(uint8[] memory) {\n        uint8[] memory values = new uint8[](3);\n\n        // Carried burn points.\n        WeaponBurnPoints storage burningbp = burnPoints[burnID];\n        values[0] = (burningbp.lowStarBurnPoints + 1) / 2;\n        values[1] = (burningbp.fourStarBurnPoints + 1) / 2;\n        values[2] = (burningbp.fiveStarBurnPoints + 1) / 2;\n\n        // Stars-based burn points.\n        Weapon storage burning = tokens[burnID];\n        uint8 stars = getStarsFromProperties(burning.properties);\n        if(stars < 3) { // 1-3 star\n            values[0] += uint8(burnPointMultiplier * (stars + 1));\n        }\n        else if(stars == 3) { // 4 star\n            values[1] += uint8(burnPointMultiplier);\n        }\n        else if(stars == 4) { // 5 star\n            values[2] += uint8(burnPointMultiplier);\n        }\n\n        return values;\n    }\n\n    function burn(uint256 burnID) public restricted {\n        uint8[] memory values = _calculateBurnValues(burnID);\n\n        address burnOwner = ownerOf(burnID);\n\n        // While this may seem redundant, _burn could fail so\n        // dust cannot be pre-incremented.\n        _incrementDustSuppliesCheck(burnOwner, values[0], values[1], values[2]);\n\n        _burn(burnID);\n        if(promos.getBit(burnOwner, 4) == false)\n            _incrementDustSupplies(burnOwner, values[0], values[1], values[2]);\n\n        emit Burned(\n            burnOwner,\n            burnID\n        );\n    }\n\n    function reforge(uint256 reforgeID, uint256 burnID) public restricted {\n        uint8[] memory values = _calculateBurnValues(burnID);\n\n        // Note: preexisting issue of applying burn points even if _burn fails.\n        if(promos.getBit(ownerOf(reforgeID), 4) == false)\n            _applyBurnPoints(reforgeID, values[0], values[1], values[2]);\n        _burn(burnID);\n\n        WeaponBurnPoints storage wbp = burnPoints[reforgeID];\n        emit Reforged(\n            ownerOf(reforgeID),\n            reforgeID,\n            burnID,\n            wbp.lowStarBurnPoints,\n            wbp.fourStarBurnPoints,\n            wbp.fiveStarBurnPoints\n        );\n    }\n\n    function reforgeWithDust(uint256 reforgeID, uint8 amountLB, uint8 amount4B, uint8 amount5B) public restricted {\n        // While this may seem redundant, _applyBurnPoints could fail so\n        // dust cannot be pre-decremented.\n        _decrementDustSuppliesCheck(ownerOf(reforgeID), amountLB, amount4B, amount5B);\n\n        if(promos.getBit(ownerOf(reforgeID), 4) == false)\n            _applyBurnPoints(reforgeID, amountLB, amount4B, amount5B);\n        _decrementDustSupplies(ownerOf(reforgeID), amountLB, amount4B, amount5B);\n\n        WeaponBurnPoints storage wbp = burnPoints[reforgeID];\n        emit ReforgedWithDust(\n            ownerOf(reforgeID),\n            reforgeID,\n            amountLB,\n            amount4B,\n            amount5B,\n            wbp.lowStarBurnPoints,\n            wbp.fourStarBurnPoints,\n            wbp.fiveStarBurnPoints\n        );\n    }\n\n    function _applyBurnPoints(uint256 reforgeID, uint8 amountLB, uint8 amount4B, uint8 amount5B) private {\n        WeaponBurnPoints storage wbp = burnPoints[reforgeID];\n\n        if(amountLB > 0) {\n            require(wbp.lowStarBurnPoints < 100, \"Low star burn points are capped\");\n        }\n        if(amount4B > 0) {\n            require(wbp.fourStarBurnPoints < 25, \"Four star burn points are capped\");\n        }\n        if(amount5B > 0) {\n            require(wbp.fiveStarBurnPoints < 10, \"Five star burn points are capped\");\n        }\n\n        wbp.lowStarBurnPoints += amountLB;\n        wbp.fourStarBurnPoints += amount4B;\n        wbp.fiveStarBurnPoints += amount5B;\n\n        if(wbp.lowStarBurnPoints > 100)\n            wbp.lowStarBurnPoints = 100;\n        if(wbp.fourStarBurnPoints > 25)\n            wbp.fourStarBurnPoints = 25;\n        if(wbp.fiveStarBurnPoints > 10)\n            wbp.fiveStarBurnPoints = 10;\n    }\n\n    // UNUSED FOR NOW!\n    function levelUp(uint256 id, uint256 seed) private {\n        Weapon storage wep = tokens[id];\n\n        wep.level = uint8(SafeMath.add(wep.level, 1));\n        wep.stat1 = uint16(SafeMath.add(wep.stat1, 1));\n\n        uint8 stars = getStarsFromProperties(wep.properties);\n\n        if(stars >= 4 && RandomUtil.randomSeededMinMax(0,1, seed) == 0) {\n            wep.stat2 = uint16(SafeMath.add(wep.stat2, 1));\n        }\n        if(stars >= 5 && RandomUtil.randomSeededMinMax(0,1, RandomUtil.combineSeeds(seed,1)) == 0) {\n            wep.stat3 = uint16(SafeMath.add(wep.stat3, 1));\n        }\n    }\n\n    function getBonusPower(uint256 id) public view noFreshLookup(id) returns (uint24) {\n        Weapon storage wep = tokens[id];\n        return getBonusPowerForFight(id, wep.level);\n    }\n\n    function getBonusPowerForFight(uint256 id, uint8 level) public view noFreshLookup(id) returns (uint24) {\n        WeaponBurnPoints storage wbp = burnPoints[id];\n        return uint24(lowStarBurnPowerPerPoint.mul(wbp.lowStarBurnPoints)\n            .add(fourStarBurnPowerPerPoint.mul(wbp.fourStarBurnPoints))\n            .add(fiveStarBurnPowerPerPoint.mul(wbp.fiveStarBurnPoints))\n            .add(uint256(15).mul(level))\n        );\n    }\n\n    function getFightData(uint256 id, uint8 charTrait) public view noFreshLookup(id) returns (int128, int128, uint24, uint8) {\n        Weapon storage wep = tokens[id];\n        return (\n            oneFrac.add(powerMultPerPointBasic.mul(\n                    ABDKMath64x64.fromUInt(\n                        wep.stat1 + wep.stat2 + wep.stat3\n                    )\n            )),//targetMult\n            getPowerMultiplierForTrait(wep.properties, wep.stat1, wep.stat2, wep.stat3, charTrait),\n            getBonusPowerForFight(id, wep.level),\n            getTraitFromProperties(wep.properties)\n        );\n    }\n\n    function getFightDataAndDrainDurability(uint256 id, uint8 charTrait, uint8 drainAmount, bool allowNegativeDurability) public\n        restricted noFreshLookup(id)\n    returns (int128, int128, uint24, uint8) {\n\n        drainDurability(id, drainAmount, allowNegativeDurability);\n\n        Weapon storage wep = tokens[id];\n        return (\n            oneFrac.add(powerMultPerPointBasic.mul(\n                    ABDKMath64x64.fromUInt(\n                        wep.stat1 + wep.stat2 + wep.stat3\n                    )\n            )),//targetMult\n            getPowerMultiplierForTrait(wep.properties, wep.stat1, wep.stat2, wep.stat3, charTrait),\n            getBonusPowerForFight(id, wep.level),\n            getTraitFromProperties(wep.properties)\n        );\n    }\n\n    function drainDurability(uint256 id, uint8 amount, bool allowNegativeDurability) public restricted {\n        uint8 durabilityPoints = getDurabilityPointsFromTimestamp(durabilityTimestamp[id]);\n        require((durabilityPoints >= amount || allowNegativeDurability)\n            && promos.getBit(ownerOf(id), 4) == false,\n            \"Not enough durability!\");\n\n        uint64 drainTime = uint64(amount * secondsPerDurability);\n        if(durabilityPoints >= maxDurability) { // if durability full, we reset timestamp and drain from that\n            durabilityTimestamp[id] = uint64(now - getDurabilityMaxWait() + drainTime);\n        }\n        else {\n            durabilityTimestamp[id] = uint64(durabilityTimestamp[id] + drainTime);\n        }\n    }\n\n    function setBurnPointMultiplier(uint256 multiplier) public restricted {\n        burnPointMultiplier = multiplier;\n    }\n    function setLowStarBurnPowerPerPoint(uint256 powerPerBurnPoint) public restricted {\n        lowStarBurnPowerPerPoint = powerPerBurnPoint;\n    }\n    function setFourStarBurnPowerPerPoint(uint256 powerPerBurnPoint) public restricted {\n        fourStarBurnPowerPerPoint = powerPerBurnPoint;\n    }\n    function setFiveStarBurnPowerPerPoint(uint256 powerPerBurnPoint) public restricted {\n        fiveStarBurnPowerPerPoint = powerPerBurnPoint;\n    }\n\n    function getDurabilityTimestamp(uint256 id) public view returns (uint64) {\n        return durabilityTimestamp[id];\n    }\n\n    function setDurabilityTimestamp(uint256 id, uint64 timestamp) public restricted {\n        durabilityTimestamp[id] = timestamp;\n    }\n\n    function getDurabilityPoints(uint256 id) public view returns (uint8) {\n        return getDurabilityPointsFromTimestamp(durabilityTimestamp[id]);\n    }\n\n    function getDurabilityPointsFromTimestamp(uint64 timestamp) public view returns (uint8) {\n        if(timestamp  > now)\n            return 0;\n\n        uint256 points = (now - timestamp) / secondsPerDurability;\n        if(points > maxDurability) {\n            points = maxDurability;\n        }\n        return uint8(points);\n    }\n\n    function isDurabilityFull(uint256 id) public view returns (bool) {\n        return getDurabilityPoints(id) >= maxDurability;\n    }\n\n    function getDurabilityMaxWait() public pure returns (uint64) {\n        return uint64(maxDurability * secondsPerDurability);\n    }\n\n    function setFeatureEnabled(uint256 bit, bool enabled) public restricted {\n        if (enabled) {\n            numberParameters[NUMBERPARAMETER_FEATURE_BITS] |= bit;\n        } else {\n            numberParameters[NUMBERPARAMETER_FEATURE_BITS] &= ~bit;\n        }\n    }\n\n    function _isFeatureEnabled(uint256 bit) private view returns (bool) {\n        return (numberParameters[NUMBERPARAMETER_FEATURE_BITS] & bit) == bit;\n    }\n\n    function canRaid(address user, uint256 id) public view returns (bool) {\n        return ownerOf(id) == user && getDurabilityPoints(id) > 0;\n    }\n\n    function _beforeTokenTransfer(address from, address to, uint256 tokenId) internal override {\n        // Always allow minting and burning.\n        if(from != address(0) && to != address(0)) {\n            // But other transfers require the feature to be enabled.\n            require(_isFeatureEnabled(BIT_FEATURE_TRANSFER_BLOCKED) == false);\n\n            if(promos.getBit(from, 4)) { // bad actors, they can transfer to market but nowhere else\n                require(hasRole(RECEIVE_DOES_NOT_SET_TRANSFER_TIMESTAMP, to), \"Transfer cooldown\");\n            }\n        }\n    }\n}\n",
  "sourcePath": "D:\\Work\\MEVN\\cryptoblades-main\\cryptoblades-main\\contracts\\weapons.sol",
  "compiler": {
    "name": "solc",
    "version": "0.6.5+commit.f956cc89.Emscripten.clang"
  },
  "schemaVersion": "3.4.3",
  "updatedAt": "2021-09-18T03:37:02.751Z",
  "devdoc": {
    "methods": {
      "approve(address,uint256)": {
        "details": "See {IERC721-approve}."
      },
      "balanceOf(address)": {
        "details": "See {IERC721-balanceOf}."
      },
      "baseURI()": {
        "details": "Returns the base URI set via {_setBaseURI}. This will be automatically added as a prefix in {tokenURI} to each token's URI, or to the token ID if no specific URI is set for that token ID."
      },
      "getApproved(uint256)": {
        "details": "See {IERC721-getApproved}."
      },
      "getRoleAdmin(bytes32)": {
        "details": "Returns the admin role that controls `role`. See {grantRole} and {revokeRole}.     * To change a role's admin, use {_setRoleAdmin}."
      },
      "getRoleMember(bytes32,uint256)": {
        "details": "Returns one of the accounts that have `role`. `index` must be a value between 0 and {getRoleMemberCount}, non-inclusive.     * Role bearers are not sorted in any particular way, and their ordering may change at any point.     * WARNING: When using {getRoleMember} and {getRoleMemberCount}, make sure you perform all queries on the same block. See the following https://forum.openzeppelin.com/t/iterating-over-elements-on-enumerableset-in-openzeppelin-contracts/2296[forum post] for more information."
      },
      "getRoleMemberCount(bytes32)": {
        "details": "Returns the number of accounts that have `role`. Can be used together with {getRoleMember} to enumerate all bearers of a role."
      },
      "grantRole(bytes32,address)": {
        "details": "Grants `role` to `account`.     * If `account` had not been already granted `role`, emits a {RoleGranted} event.     * Requirements:     * - the caller must have ``role``'s admin role."
      },
      "hasRole(bytes32,address)": {
        "details": "Returns `true` if `account` has been granted `role`."
      },
      "isApprovedForAll(address,address)": {
        "details": "See {IERC721-isApprovedForAll}."
      },
      "name()": {
        "details": "See {IERC721Metadata-name}."
      },
      "ownerOf(uint256)": {
        "details": "See {IERC721-ownerOf}."
      },
      "renounceRole(bytes32,address)": {
        "details": "Revokes `role` from the calling account.     * Roles are often managed via {grantRole} and {revokeRole}: this function's purpose is to provide a mechanism for accounts to lose their privileges if they are compromised (such as when a trusted device is misplaced).     * If the calling account had been granted `role`, emits a {RoleRevoked} event.     * Requirements:     * - the caller must be `account`."
      },
      "revokeRole(bytes32,address)": {
        "details": "Revokes `role` from `account`.     * If `account` had been granted `role`, emits a {RoleRevoked} event.     * Requirements:     * - the caller must have ``role``'s admin role."
      },
      "safeTransferFrom(address,address,uint256)": {
        "details": "See {IERC721-safeTransferFrom}."
      },
      "safeTransferFrom(address,address,uint256,bytes)": {
        "details": "See {IERC721-safeTransferFrom}."
      },
      "setApprovalForAll(address,bool)": {
        "details": "See {IERC721-setApprovalForAll}."
      },
      "supportsInterface(bytes4)": {
        "details": "See {IERC165-supportsInterface}.     * Time complexity O(1), guaranteed to always use less than 30 000 gas."
      },
      "symbol()": {
        "details": "See {IERC721Metadata-symbol}."
      },
      "tokenByIndex(uint256)": {
        "details": "See {IERC721Enumerable-tokenByIndex}."
      },
      "tokenOfOwnerByIndex(address,uint256)": {
        "details": "See {IERC721Enumerable-tokenOfOwnerByIndex}."
      },
      "tokenURI(uint256)": {
        "details": "See {IERC721Metadata-tokenURI}."
      },
      "totalSupply()": {
        "details": "See {IERC721Enumerable-totalSupply}."
      },
      "transferFrom(address,address,uint256)": {
        "details": "See {IERC721-transferFrom}."
      }
    }
  },
  "userdoc": {
    "methods": {}
  }
}