{
  "contractName": "WeaponRenameTagConsumables",
  "abi": [
    {
      "anonymous": false,
      "inputs": [
        {
          "indexed": true,
          "internalType": "address",
          "name": "owner",
          "type": "address"
        },
        {
          "indexed": false,
          "internalType": "uint32",
          "name": "amount",
          "type": "uint32"
        }
      ],
      "name": "ConsumableGiven",
      "type": "event"
    },
    {
      "anonymous": false,
      "inputs": [
        {
          "indexed": true,
          "internalType": "bytes32",
          "name": "role",
          "type": "bytes32"
        },
        {
          "indexed": true,
          "internalType": "bytes32",
          "name": "previousAdminRole",
          "type": "bytes32"
        },
        {
          "indexed": true,
          "internalType": "bytes32",
          "name": "newAdminRole",
          "type": "bytes32"
        }
      ],
      "name": "RoleAdminChanged",
      "type": "event"
    },
    {
      "anonymous": false,
      "inputs": [
        {
          "indexed": true,
          "internalType": "bytes32",
          "name": "role",
          "type": "bytes32"
        },
        {
          "indexed": true,
          "internalType": "address",
          "name": "account",
          "type": "address"
        },
        {
          "indexed": true,
          "internalType": "address",
          "name": "sender",
          "type": "address"
        }
      ],
      "name": "RoleGranted",
      "type": "event"
    },
    {
      "anonymous": false,
      "inputs": [
        {
          "indexed": true,
          "internalType": "bytes32",
          "name": "role",
          "type": "bytes32"
        },
        {
          "indexed": true,
          "internalType": "address",
          "name": "account",
          "type": "address"
        },
        {
          "indexed": true,
          "internalType": "address",
          "name": "sender",
          "type": "address"
        }
      ],
      "name": "RoleRevoked",
      "type": "event"
    },
    {
      "anonymous": false,
      "inputs": [
        {
          "indexed": true,
          "internalType": "address",
          "name": "owner",
          "type": "address"
        },
        {
          "indexed": true,
          "internalType": "uint256",
          "name": "weapon",
          "type": "uint256"
        }
      ],
      "name": "WeaponRenamed",
      "type": "event"
    },
    {
      "inputs": [],
      "name": "DEFAULT_ADMIN_ROLE",
      "outputs": [
        {
          "internalType": "bytes32",
          "name": "",
          "type": "bytes32"
        }
      ],
      "stateMutability": "view",
      "type": "function"
    },
    {
      "inputs": [],
      "name": "GAME_ADMIN",
      "outputs": [
        {
          "internalType": "bytes32",
          "name": "",
          "type": "bytes32"
        }
      ],
      "stateMutability": "view",
      "type": "function"
    },
    {
      "inputs": [],
      "name": "getItemCount",
      "outputs": [
        {
          "internalType": "uint32",
          "name": "",
          "type": "uint32"
        }
      ],
      "stateMutability": "view",
      "type": "function"
    },
    {
      "inputs": [
        {
          "internalType": "bytes32",
          "name": "role",
          "type": "bytes32"
        }
      ],
      "name": "getRoleAdmin",
      "outputs": [
        {
          "internalType": "bytes32",
          "name": "",
          "type": "bytes32"
        }
      ],
      "stateMutability": "view",
      "type": "function"
    },
    {
      "inputs": [
        {
          "internalType": "bytes32",
          "name": "role",
          "type": "bytes32"
        },
        {
          "internalType": "uint256",
          "name": "index",
          "type": "uint256"
        }
      ],
      "name": "getRoleMember",
      "outputs": [
        {
          "internalType": "address",
          "name": "",
          "type": "address"
        }
      ],
      "stateMutability": "view",
      "type": "function"
    },
    {
      "inputs": [
        {
          "internalType": "bytes32",
          "name": "role",
          "type": "bytes32"
        }
      ],
      "name": "getRoleMemberCount",
      "outputs": [
        {
          "internalType": "uint256",
          "name": "",
          "type": "uint256"
        }
      ],
      "stateMutability": "view",
      "type": "function"
    },
    {
      "inputs": [
        {
          "internalType": "address",
          "name": "buyer",
          "type": "address"
        },
        {
          "internalType": "uint32",
          "name": "amount",
          "type": "uint32"
        }
      ],
      "name": "giveItem",
      "outputs": [],
      "stateMutability": "nonpayable",
      "type": "function"
    },
    {
      "inputs": [
        {
          "internalType": "address",
          "name": "receiver",
          "type": "address"
        },
        {
          "internalType": "uint32",
          "name": "amount",
          "type": "uint32"
        }
      ],
      "name": "giveItemByAdmin",
      "outputs": [],
      "stateMutability": "nonpayable",
      "type": "function"
    },
    {
      "inputs": [
        {
          "internalType": "bytes32",
          "name": "role",
          "type": "bytes32"
        },
        {
          "internalType": "address",
          "name": "account",
          "type": "address"
        }
      ],
      "name": "grantRole",
      "outputs": [],
      "stateMutability": "nonpayable",
      "type": "function"
    },
    {
      "inputs": [
        {
          "internalType": "bytes32",
          "name": "role",
          "type": "bytes32"
        },
        {
          "internalType": "address",
          "name": "account",
          "type": "address"
        }
      ],
      "name": "hasRole",
      "outputs": [
        {
          "internalType": "bool",
          "name": "",
          "type": "bool"
        }
      ],
      "stateMutability": "view",
      "type": "function"
    },
    {
      "inputs": [],
      "name": "itemEnabled",
      "outputs": [
        {
          "internalType": "bool",
          "name": "",
          "type": "bool"
        }
      ],
      "stateMutability": "view",
      "type": "function"
    },
    {
      "inputs": [
        {
          "internalType": "address",
          "name": "",
          "type": "address"
        }
      ],
      "name": "owned",
      "outputs": [
        {
          "internalType": "uint32",
          "name": "",
          "type": "uint32"
        }
      ],
      "stateMutability": "view",
      "type": "function"
    },
    {
      "inputs": [
        {
          "internalType": "uint256",
          "name": "",
          "type": "uint256"
        }
      ],
      "name": "renames",
      "outputs": [
        {
          "internalType": "string",
          "name": "",
          "type": "string"
        }
      ],
      "stateMutability": "view",
      "type": "function"
    },
    {
      "inputs": [
        {
          "internalType": "bytes32",
          "name": "role",
          "type": "bytes32"
        },
        {
          "internalType": "address",
          "name": "account",
          "type": "address"
        }
      ],
      "name": "renounceRole",
      "outputs": [],
      "stateMutability": "nonpayable",
      "type": "function"
    },
    {
      "inputs": [
        {
          "internalType": "bytes32",
          "name": "role",
          "type": "bytes32"
        },
        {
          "internalType": "address",
          "name": "account",
          "type": "address"
        }
      ],
      "name": "revokeRole",
      "outputs": [],
      "stateMutability": "nonpayable",
      "type": "function"
    },
    {
      "inputs": [
        {
          "internalType": "address",
          "name": "target",
          "type": "address"
        },
        {
          "internalType": "uint32",
          "name": "amount",
          "type": "uint32"
        }
      ],
      "name": "takeItemByAdmin",
      "outputs": [],
      "stateMutability": "nonpayable",
      "type": "function"
    },
    {
      "inputs": [
        {
          "internalType": "bool",
          "name": "canUse",
          "type": "bool"
        }
      ],
      "name": "toggleItemCanUse",
      "outputs": [],
      "stateMutability": "nonpayable",
      "type": "function"
    },
    {
      "inputs": [],
      "name": "weapons",
      "outputs": [
        {
          "internalType": "contract Weapons",
          "name": "",
          "type": "address"
        }
      ],
      "stateMutability": "view",
      "type": "function"
    },
    {
      "inputs": [],
      "name": "initialize",
      "outputs": [],
      "stateMutability": "nonpayable",
      "type": "function"
    },
    {
      "inputs": [
        {
          "internalType": "contract Weapons",
          "name": "_weapons",
          "type": "address"
        }
      ],
      "name": "initialize",
      "outputs": [],
      "stateMutability": "nonpayable",
      "type": "function"
    },
    {
      "inputs": [
        {
          "internalType": "uint256",
          "name": "weaponId",
          "type": "uint256"
        },
        {
          "internalType": "string",
          "name": "newName",
          "type": "string"
        }
      ],
      "name": "renameWeapon",
      "outputs": [],
      "stateMutability": "nonpayable",
      "type": "function"
    },
    {
      "inputs": [
        {
          "internalType": "uint256",
          "name": "weaponId",
          "type": "uint256"
        }
      ],
      "name": "getWeaponRename",
      "outputs": [
        {
          "internalType": "string",
          "name": "",
          "type": "string"
        }
      ],
      "stateMutability": "view",
      "type": "function"
    },
    {
      "inputs": [
        {
          "internalType": "uint8",
          "name": "newMinSize",
          "type": "uint8"
        }
      ],
      "name": "setMinSize",
      "outputs": [],
      "stateMutability": "nonpayable",
      "type": "function"
    },
    {
      "inputs": [
        {
          "internalType": "uint8",
          "name": "newMaxSize",
          "type": "uint8"
        }
      ],
      "name": "setMaxSize",
      "outputs": [],
      "stateMutability": "nonpayable",
      "type": "function"
    },
    {
      "inputs": [],
      "name": "getMinSize",
      "outputs": [
        {
          "internalType": "uint8",
          "name": "",
          "type": "uint8"
        }
      ],
      "stateMutability": "view",
      "type": "function"
    },
    {
      "inputs": [],
      "name": "getMaxSize",
      "outputs": [
        {
          "internalType": "uint8",
          "name": "",
          "type": "uint8"
        }
      ],
      "stateMutability": "view",
      "type": "function"
    }
  ],
  "bytecode": "0x608060405234801561001057600080fd5b506116ac806100206000396000f3fe608060405234801561001057600080fd5b506004361061018e5760003560e01c806391d14854116100de578063ca15c87311610097578063e693d61011610071578063e693d610146104fc578063ec36f849146105a9578063f9e54cb4146105c8578063ff5e1d72146105d05761018e565b8063ca15c873146104ab578063d07041e0146104c8578063d547741f146104d05761018e565b806391d14854146103dd578063a217fddf1461041d578063b1ab931714610425578063b7e1cd861461044b578063c4d66de814610453578063c59284ee146104795761018e565b80634d3751281161014b57806363e1d57c1161012557806363e1d57c146103575780637749cf23146103755780638129fc1c146103965780639010d07c1461039e5761018e565b80634d375128146103005780635504d3d21461033257806362cbcec11461033a5761018e565b8063248a9ca3146101935780632f2ff15d146101c25780632ff6a044146101f057806336568abe146102225780634257fb551461024e5780634b725bbe146102e0575b600080fd5b6101b0600480360360208110156101a957600080fd5b50356105f0565b60408051918252519081900360200190f35b6101ee600480360360408110156101d857600080fd5b50803590602001356001600160a01b0316610605565b005b6101ee6004803603604081101561020657600080fd5b5080356001600160a01b0316906020013563ffffffff16610671565b6101ee6004803603604081101561023857600080fd5b50803590602001356001600160a01b03166106f1565b61026b6004803603602081101561026457600080fd5b5035610752565b6040805160208082528351818301528351919283929083019185019080838360005b838110156102a557818101518382015260200161028d565b50505050905090810190601f1680156102d25780820380516001836020036101000a031916815260200191505b509250505060405180910390f35b6101ee600480360360208110156102f657600080fd5b503560ff166107f3565b6101ee6004803603604081101561031657600080fd5b5080356001600160a01b0316906020013563ffffffff166108a2565b6101b0610917565b61026b6004803603602081101561035057600080fd5b5035610939565b61035f6109d4565b6040805160ff9092168252519081900360200190f35b61037d6109e5565b6040805163ffffffff9092168252519081900360200190f35b6101ee6109fe565b6103c1600480360360408110156103b457600080fd5b5080359060200135610ac0565b604080516001600160a01b039092168252519081900360200190f35b610409600480360360408110156103f357600080fd5b50803590602001356001600160a01b0316610ae7565b604080519115158252519081900360200190f35b6101b0610b05565b61037d6004803603602081101561043b57600080fd5b50356001600160a01b0316610b0a565b6103c1610b22565b6101ee6004803603602081101561046957600080fd5b50356001600160a01b0316610b36565b6101ee6004803603604081101561048f57600080fd5b5080356001600160a01b0316906020013563ffffffff16610c31565b6101b0600480360360208110156104c157600080fd5b5035610d1a565b61035f610d31565b6101ee600480360360408110156104e657600080fd5b50803590602001356001600160a01b0316610d41565b6101ee6004803603604081101561051257600080fd5b8135919081019060408101602082013564010000000081111561053457600080fd5b82018360208201111561054657600080fd5b8035906020019184600183028401116401000000008311171561056857600080fd5b91908080601f016020809104026020016040519081016040528093929190818152602001838380828437600092019190915250929550610d9a945050505050565b6101ee600480360360208110156105bf57600080fd5b50351515610f31565b610409610f8c565b6101ee600480360360208110156105e657600080fd5b503560ff16610f95565b60009081526033602052604090206002015490565b60008281526033602052604090206002015461062890610623611044565b610ae7565b6106635760405162461bcd60e51b815260040180806020018281038252602f8152602001806115bb602f913960400191505060405180910390fd5b61066d8282611048565b5050565b61067c600033610ae7565b6106b9576040805162461bcd60e51b81526020600482015260096024820152682737ba1030b236b4b760b91b604482015290519081900360640190fd5b6001600160a01b03919091166000908152606560205260409020805463ffffffff19811663ffffffff91821690930116919091179055565b6106f9611044565b6001600160a01b0316816001600160a01b0316146107485760405162461bcd60e51b815260040180806020018281038252602f815260200180611648602f913960400191505060405180910390fd5b61066d82826110b7565b60008181526067602090815260409182902080548351601f60026000196101006001861615020190931692909204918201849004840281018401909452808452606093928301828280156107e75780601f106107bc576101008083540402835291602001916107e7565b820191906000526020600020905b8154815290600101906020018083116107ca57829003601f168201915b50505050509050919050565b6107fe600033610ae7565b61083b576040805162461bcd60e51b81526020600482015260096024820152682737ba1030b236b4b760b91b604482015290519081900360640190fd5b60008160ff1611610882576040805162461bcd60e51b815260206004820152600c60248201526b696e76616c69642073697a6560a01b604482015290519081900360640190fd5b6066805460ff909216600160a81b0260ff60a81b19909216919091179055565b6108aa611126565b6001600160a01b038216600081815260656020908152604091829020805463ffffffff19811663ffffffff91821687018216179091558251908516815291517f90a3437fc374e1839a62ff1148f9bdb4f02dc5e02e8393ff6cbc68b1fcec49a19281900390910190a25050565b604080516923a0a6a2afa0a226a4a760b11b8152905190819003600a01902081565b60676020908152600091825260409182902080548351601f6002600019610100600186161502019093169290920491820184900484028101840190945280845290918301828280156109cc5780601f106109a1576101008083540402835291602001916109cc565b820191906000526020600020905b8154815290600101906020018083116109af57829003601f168201915b505050505081565b606654600160b01b900460ff165b90565b3360009081526065602052604090205463ffffffff1690565b600054610100900460ff1680610a175750610a17611193565b80610a25575060005460ff16155b610a605760405162461bcd60e51b815260040180806020018281038252602e81526020018061161a602e913960400191505060405180910390fd5b600054610100900460ff16158015610a8b576000805460ff1961ff0019909116610100171660011790555b610a936111a4565b610a9e600033610663565b6066805460ff191660011790558015610abd576000805461ff00191690555b50565b6000828152603360205260408120610ade908363ffffffff61124516565b90505b92915050565b6000828152603360205260408120610ade908363ffffffff61125116565b600081565b60656020526000908152604090205463ffffffff1681565b60665461010090046001600160a01b031681565b600054610100900460ff1680610b4f5750610b4f611193565b80610b5d575060005460ff16155b610b985760405162461bcd60e51b815260040180806020018281038252602e81526020018061161a602e913960400191505060405180910390fd5b600054610100900460ff16158015610bc3576000805460ff1961ff0019909116610100171660011790555b610bcb6111a4565b610bd6600033610663565b60668054600160a81b600160ff1990921691909117610100600160a81b0319166101006001600160a01b038616021760ff60a81b19161760ff60b01b1916600360b31b179055801561066d576000805461ff00191690555050565b610c3c600033610ae7565b610c79576040805162461bcd60e51b81526020600482015260096024820152682737ba1030b236b4b760b91b604482015290519081900360640190fd5b6001600160a01b03821660009081526065602052604090205463ffffffff80831691161015610ce1576040805162461bcd60e51b815260206004820152600f60248201526e4e6f7420656e6f756768206974656d60881b604482015290519081900360640190fd5b6001600160a01b03919091166000908152606560205260409020805463ffffffff19811663ffffffff9182169390930316919091179055565b6000818152603360205260408120610ae190611266565b606654600160a81b900460ff1690565b600082815260336020526040902060020154610d5f90610623611044565b6107485760405162461bcd60e51b81526004018080602001828103825260308152602001806115ea6030913960400191505060405180910390fd5b6066548151600160a81b90910460ff1611801590610dc657506066548151600160b01b90910460ff1610155b610e08576040805162461bcd60e51b815260206004820152600e60248201526d1cda5e99481b9bdd081d985b1a5960921b604482015290519081900360640190fd5b606654604080516331a9108f60e11b8152600481018590529051339261010090046001600160a01b031691636352211e916024808301926020929190829003018186803b158015610e5857600080fd5b505afa158015610e6c573d6000803e3d6000fd5b505050506040513d6020811015610e8257600080fd5b50516001600160a01b031614610ed6576040805162461bcd60e51b81526020600482015260146024820152732737ba103a3432903bb2b0b837b71037bbb732b960611b604482015290519081900360640190fd5b610ee06001611271565b60008281526067602090815260409091208251610eff92840190611500565b50604051829033907f9d14e43b6a7db6794b1aaef1acc749400eb05d00f76489eb82e677b5396151ef90600090a35050565b610f3c600033610ae7565b610f79576040805162461bcd60e51b81526020600482015260096024820152682737ba1030b236b4b760b91b604482015290519081900360640190fd5b6066805460ff1916911515919091179055565b60665460ff1690565b610fa0600033610ae7565b610fdd576040805162461bcd60e51b81526020600482015260096024820152682737ba1030b236b4b760b91b604482015290519081900360640190fd5b60008160ff1611611024576040805162461bcd60e51b815260206004820152600c60248201526b696e76616c69642073697a6560a01b604482015290519081900360640190fd5b6066805460ff909216600160b01b0260ff60b01b19909216919091179055565b3390565b6000828152603360205260409020611066908263ffffffff61134016565b1561066d57611073611044565b6001600160a01b0316816001600160a01b0316837f2f8788117e7eff1d82e926ec794901d17c78024a50270940304540a733656f0d60405160405180910390a45050565b60008281526033602052604090206110d5908263ffffffff61135516565b1561066d576110e2611044565b6001600160a01b0316816001600160a01b0316837ff6391f5c32d9c69d2a47ea670b442974b53935d1edc7fd64eb21e047a839171b60405160405180910390a45050565b604080516923a0a6a2afa0a226a4a760b11b8152905190819003600a01902061114f9033610ae7565b611191576040805162461bcd60e51b815260206004820152600e60248201526d2737ba1033b0b6b29030b236b4b760911b604482015290519081900360640190fd5b565b600061119e3061136a565b15905090565b600054610100900460ff16806111bd57506111bd611193565b806111cb575060005460ff16155b6112065760405162461bcd60e51b815260040180806020018281038252602e81526020018061161a602e913960400191505060405180910390fd5b600054610100900460ff16158015611231576000805460ff1961ff0019909116610100171660011790555b8015610abd576000805461ff001916905550565b6000610ade8383611370565b6000610ade836001600160a01b0384166113d4565b6000610ae1826113ec565b33600090815260656020526040902054819063ffffffff808316911610156112ca576040805162461bcd60e51b81526020600482015260076024820152664e6f206974656d60c81b604482015290519081900360640190fd5b60665460ff16611311576040805162461bcd60e51b815260206004820152600d60248201526c125d195b48191a5cd8589b1959609a1b604482015290519081900360640190fd5b50336000908152606560205260409020805463ffffffff19811663ffffffff9182169390930316919091179055565b6000610ade836001600160a01b0384166113f0565b6000610ade836001600160a01b03841661143a565b3b151590565b815460009082106113b25760405162461bcd60e51b81526004018080602001828103825260228152602001806115996022913960400191505060405180910390fd5b8260000182815481106113c157fe5b9060005260206000200154905092915050565b60009081526001919091016020526040902054151590565b5490565b60006113fc83836113d4565b61143257508154600181810184556000848152602080822090930184905584548482528286019093526040902091909155610ae1565b506000610ae1565b600081815260018301602052604081205480156114f6578354600019808301919081019060009087908390811061146d57fe5b906000526020600020015490508087600001848154811061148a57fe5b6000918252602080832090910192909255828152600189810190925260409020908401905586548790806114ba57fe5b60019003818190600052602060002001600090559055866001016000878152602001908152602001600020600090556001945050505050610ae1565b6000915050610ae1565b828054600181600116156101000203166002900490600052602060002090601f016020900481019282601f1061154157805160ff191683800117855561156e565b8280016001018555821561156e579182015b8281111561156e578251825591602001919060010190611553565b5061157a92915061157e565b5090565b6109e291905b8082111561157a576000815560010161158456fe456e756d657261626c655365743a20696e646578206f7574206f6620626f756e6473416363657373436f6e74726f6c3a2073656e646572206d75737420626520616e2061646d696e20746f206772616e74416363657373436f6e74726f6c3a2073656e646572206d75737420626520616e2061646d696e20746f207265766f6b65496e697469616c697a61626c653a20636f6e747261637420697320616c726561647920696e697469616c697a6564416363657373436f6e74726f6c3a2063616e206f6e6c792072656e6f756e636520726f6c657320666f722073656c66a2646970667358221220c3d8239fd5f4da9b4872f5625c89b828afa6b853ad2491086f1397419885ccf664736f6c63430006050033",
  "immutableReferences": {},
  "source": "pragma solidity ^0.6.5;\n\nimport \"./Consumables.sol\";\nimport \"./weapons.sol\";\n\ncontract WeaponRenameTagConsumables is Consumables {\n\n    Weapons public weapons;\n\n    uint8 private _minSize;\n    uint8 private _maxSize;\n\n    mapping(uint256 => string) public renames;\n\n    event WeaponRenamed(address indexed owner, uint256 indexed weapon);\n\n    function initialize(Weapons _weapons)\n        public\n        initializer\n    {\n        __AccessControl_init_unchained();\n\n        _setupRole(DEFAULT_ADMIN_ROLE, msg.sender);\n\n        _enabled = true;\n\n        weapons = _weapons;\n        _minSize = 1;\n        _maxSize = 24;\n    }\n\n    function renameWeapon(uint256 weaponId, string memory newName) public {\n        require(bytes(newName).length >= _minSize && bytes(newName).length <= _maxSize, 'size not valid');\n        require(weapons.ownerOf(weaponId) == msg.sender, \"Not the weapon owner\");\n        consumeItem(1);\n        renames[weaponId] = newName;\n        emit WeaponRenamed(msg.sender, weaponId);\n    }\n\n    function getWeaponRename(uint256 weaponId) public view returns (string memory) {\n        return renames[weaponId];\n    }\n\n    function setMinSize(uint8 newMinSize) external isAdmin {\n        require(newMinSize > 0, 'invalid size');\n        _minSize = newMinSize;\n    }\n\n    function setMaxSize(uint8 newMaxSize) external isAdmin {\n        require(newMaxSize > 0, 'invalid size');\n        _maxSize = newMaxSize;\n    }\n\n    function getMinSize() public view returns (uint8){\n        return _minSize;\n    }\n\n    function getMaxSize() public view returns (uint8){\n        return _maxSize;\n    }\n}",
  "sourcePath": "D:\\Work\\MEVN\\cryptoblades-main\\cryptoblades-main\\contracts\\WeaponRenameTagConsumables.sol",
  "compiler": {
    "name": "solc",
    "version": "0.6.5+commit.f956cc89.Emscripten.clang"
  },
  "schemaVersion": "3.4.3",
  "updatedAt": "2021-09-18T03:37:02.321Z",
  "devdoc": {
    "methods": {
      "getRoleAdmin(bytes32)": {
        "details": "Returns the admin role that controls `role`. See {grantRole} and {revokeRole}.     * To change a role's admin, use {_setRoleAdmin}."
      },
      "getRoleMember(bytes32,uint256)": {
        "details": "Returns one of the accounts that have `role`. `index` must be a value between 0 and {getRoleMemberCount}, non-inclusive.     * Role bearers are not sorted in any particular way, and their ordering may change at any point.     * WARNING: When using {getRoleMember} and {getRoleMemberCount}, make sure you perform all queries on the same block. See the following https://forum.openzeppelin.com/t/iterating-over-elements-on-enumerableset-in-openzeppelin-contracts/2296[forum post] for more information."
      },
      "getRoleMemberCount(bytes32)": {
        "details": "Returns the number of accounts that have `role`. Can be used together with {getRoleMember} to enumerate all bearers of a role."
      },
      "grantRole(bytes32,address)": {
        "details": "Grants `role` to `account`.     * If `account` had not been already granted `role`, emits a {RoleGranted} event.     * Requirements:     * - the caller must have ``role``'s admin role."
      },
      "hasRole(bytes32,address)": {
        "details": "Returns `true` if `account` has been granted `role`."
      },
      "renounceRole(bytes32,address)": {
        "details": "Revokes `role` from the calling account.     * Roles are often managed via {grantRole} and {revokeRole}: this function's purpose is to provide a mechanism for accounts to lose their privileges if they are compromised (such as when a trusted device is misplaced).     * If the calling account had been granted `role`, emits a {RoleRevoked} event.     * Requirements:     * - the caller must be `account`."
      },
      "revokeRole(bytes32,address)": {
        "details": "Revokes `role` from `account`.     * If `account` had been granted `role`, emits a {RoleRevoked} event.     * Requirements:     * - the caller must have ``role``'s admin role."
      }
    }
  },
  "userdoc": {
    "methods": {}
  }
}